:100000000C94AF040C94CC040C9444120C94CC04C7
:100010000C94CC040C94CC040C94CC040C94CC0420
:100020000C94CC040C94CC040C94CC040C94CC0410
:100030000C94CC040C94990D0C94CC040C94CC042A
:100040000C94CC040C94CC040C94CC040C94CC04F0
:100050000C94CC040C94CC040C94CC040C94CC04E0
:100060000C94CC040C94CC040C94CC040C94CC04D0
:100070000000000000000000000000000000000080
:100080000000000000000000000000000000000070
:100090000000000000000000000000000000000060
:1000A0000000000000000000000000000000000050
:1000B000C0C0C0C0C0C0C0C0C0C0000000000000C0
:1000C0000000000000000000000000000000000030
:1000D000000000000000C0C0C0C0C0C0C0C0C0C0A0
:1000E000C000000000000000000000000000000050
:1000F000000000000000000000C0C0C0F8F8F8F8E0
:10010000F8FEFEFEFEFEFEFEFEFEFEFEFEFEFEFE15
:10011000FEF8F8F8F8F8C0C0C000000000000000C9
:100120000000000000F8F8F8FEFEFEFEFE3E3E3F36
:100130003F3FFFFFFFFFFFFF3F3F3F3E3EFEFEFE14
:10014000FEFEF8F8F800000000000000F8F8F8FEE5
:10015000FEFEFEFE3E3E3F3F3FFFFFFFFFFFFF3F35
:100160003F3F3E3EFEFEFEFEFEF8F8F800000000B7
:100170000000000038383E3E3EFFFFFFF9F9FFFF68
:10018000FF3F3F3F3939FFFFFFFFFFFF39393F3F57
:100190003FFFFFFFF9F9FFFFFF3E3E3E383800000A
:1001A0000000000000070707C7C7FFFFFF3E3E3EF5
:1001B0003E3ECFC7C7C7C7CF3E3E3E3E3EFFFFFFD6
:1001C000C7C7070707000000000000000707070770
:1001D00007C7C7C7FEFEFE3E3ECFC7C7C7C7CF3E55
:1001E0003EFEFEFEC7C7C70707070707000000005F
:1001F00000000000000000000001010107070101EC
:1002000001000000000000010101010000000000E9
:1002100000010101070701010100000000000000CA
:1002200000000000000000000101070707060606A5
:100230000000000101010100000006060607070793
:100240000101000000000000000000000606060694
:10025000060101010101000000000101010100008F
:10026000000001010101010606060606000000006B
:1002700000000000000000000000181818E0E00076
:1002800000000000000000C0E0E0181818000000A6
:100290000000000000000000C0E0E00000001818AE
:1002A000E0E0E00000000000000000E0E0E01818DE
:1002B000000000E0E0C000000000000000000000BE
:1002C00000E0E0E0F8F8F8F8F8E0E0C00000000036
:1002D000000000000000000000000000E0E0F8F86E
:1002E000F8F8F8F8E0E0000000000000000000006E
:1002F0000000000000E0E0F8F8F8FFFFFFE7E7FF8C
:10030000FFFFFFFFFFFFFFE7E7E7FFFFFFF8F8E072
:10031000E0E0000000000000FFFFFFF8F8FCFFFF36
:10032000E7E7E7FFFFFFFFFFFFFFFFE7E7E7FFFF6D
:10033000FCF8F8FFFFFF000000000000F8F8FFFFE6
:10034000FFE7E7E7FFFFFFFFFFE7E7E7FFFFFCF857
:10035000F80000000000F8F8F8FFFFFFE7E7FFFFF4
:10036000FFFFFFFFE7E7FFFFFFF8F8F800000000DE
:1003700000000000001F1F0000001F1F1FE7E7E72D
:10038000E7E7070707E7E7E7E7E71F1F1F00001F8B
:100390001F1F000000000000000000E7E7E71F1F2C
:1003A00007070707070707070707070707071F1FAD
:1003B000E7E7E70000000000000000001818E7E78A
:1003C000E70000000707070707000000E7E7181825
:1003D000180000000000C0E0E0181818E7E718183F
:1003E00018181818E7E7181818E0E0C00000000017
:1003F00000000000000000000000000000000000FD
:1004000000000000000000000000000000000000EC
:1004100000000000000000000000000000000000DC
:1004200000000000000000000000000000000000CC
:1004300000000000000000000000000000000000BC
:1004400000000000000000000000000000000000AC
:10045000000000000000000000000000000000009C
:10046000000000000000000000000000000000008C
:10047000000000000000000000065F5F06000000B2
:100480000007070007070000147F7F147F7F140018
:10049000242E6B6B3A120000466630180C66620020
:1004A000307A4F5D377A48000407030000000000EF
:1004B000001C3E63410000000041633E1C00000040
:1004C000082A3E1C1C3E2A0808083E3E0808000078
:1004D00000A0E0600000000008080808080800000C
:1004E00000006060000000006030180C060301008E
:1004F0003E7F594D7F3E000042427F7F40400000DA
:10050000627359496F660000226349497F360000D3
:10051000181C16137F7F1000276745457D390000A2
:100520003C7E4B4979300000036371190F070000CE
:10053000367F49497F360000064F49693F1E00005B
:1005400000006C6C0000000000A0EC6C00000000DB
:10055000081C366341000000141414141414000025
:10056000004163361C080000020351590F060000C9
:100570003E7F415D5D1F1E007C7E13137E7C00006C
:10058000417F7F49497F36001C3E63414163220021
:10059000417F7F41637F1C00417F7F495D41630054
:1005A000417F7F491D0103001C3E6341517372006E
:1005B0007F7F08087F7F000000417F7F41000000AF
:1005C000307040417F3F0100417F7F081C7763000E
:1005D000417F7F41406070007F7F060C067F7F0077
:1005E0007F7F060C187F7F001C3E6341633E1C002A
:1005F000417F7F49090F06001E3F21717F5E000089
:10060000417F7F19396F460026674D597B320000C4
:1006100003417F7F410300007F7F40407F7F0000D8
:100620001F3F60603F1F00007F7F3018307F7F00DA
:1006300063771C081C776300074F78784F0700002A
:100640006773594D47637100007F7F41410000008F
:100650000103060C183060000041417F7F0000005C
:10066000080C0603060C0800808080808080808053
:100670000000030704000000207454543C7840003C
:10068000413F7F44447C3800387C44446C2800005F
:10069000307848493F7F4000387C54545C18000053
:1006A000487E7F490302000098BCA4A4F87C0400A3
:1006B000417F7F08047C780000447D7D400000007D
:1006C00040C484FD7D000000417F7F10386C4400F1
:1006D00000417F7F400000007C7C0C180C7C78007F
:1006E0007C7C04047C780000387C44447C38000026
:1006F00084FCF8A4243C1800183C24A4F8FC8400D2
:10070000447C78441C180000485C54547424000055
:1007100000043E7F442400003C7C40403C7C400080
:100720001C3C60603C1C00003C7C6030607C3C00F9
:10073000446C3810386C44009CBCA0A0FC7C0000C9
:100740004C64745C4C64000008083E774141000032
:1007500000000077770000004141773E0808000064
:100760000203010302030100C807C307B907B20768
:10077000AA079E0798079207870783077E0748699D
:100780006768004C6F77004272696768746E6573C2
:1007900073005061696E7400536F6E67730053632A
:1007A0007265656E7361766572004F7074696F6E05
:1007B0007300457874726173004869676873636F8A
:1007C00072650047616D65002D2D2D4D61696E20AC
:1007D0004D656E752D2D2D0018180C0C0C180C186D
:1007E00018180C180C0C0C0C180C18180C181818DD
:1007F000180C180C1818180C0C18081818080818D9
:100800000C18180C4B021003100310031003E40221
:10081000E40293024B0293024B024B020B02DC03F5
:100820007003880100000B02DC03700388010000E4
:10083000100300001003100300001003E402000086
:10084000930293024B024B020B020B020B024B0270
:100850004B027003DC037003880110030C0C0C0CBA
:100860000C0C0C0C0C0C0C0C0C0C0C0C0C0C0C0CC8
:100870000C0C0C0C0C0C0C0C0C0C0C0C0909090CC1
:100880000C0C0C0C0C0C0C0C0C0C0C0C0C0C0C0CA8
:100890000C0C0C0C0C0C0C0C0C0C0C0909090C0CA1
:1008A0000C0C0C0C0C0C0C0C0C0C4D0A4D0A000022
:1008B0004D0A00002D084D0A0000400C0000000009
:1008C000000020060000000000002D0800000000CD
:1008D000200600000000270500000000E0060000E0
:1008E000B80700004907E006000020064D0A400C4A
:1008F000C00D0000EA0A400C00004D0A00002D085F
:100900002D09B807000000002D0800000000200697
:1009100000000000270500000000E0060000B80706
:1009200000004907E006000020064D0A400CC00DFB
:100930000000EA0A400C00004D0A00002D082D09B5
:10094000B807000000000C0C0C0C0C0C0C0C4D0A31
:100950004D0A00004D0A06010B02DC00B80111240B
:100960001FBECFEFD4E0DEBFCDBF13E0A0E0B1E00B
:10097000E4EEF5E302C005900D92A238B107D9F775
:1009800024E0A2E8B3E001C01D92A936B207E1F766
:100990000E94CE040C94F01A0C9400000E94F60FF2
:1009A000F8948FE190E00E940A050E9417050E94CA
:1009B000FC050E9413060E94DF080E94BC0E0E94E4
:1009C00039110E9438140E944B111F921F9280EF20
:1009D00091E09F938F9380E091E09F938F930E948B
:1009E000161878946CE370E080E091E00E94711238
:1009F0000F900F900F900F900F900F900E94430F49
:100A00000E94D009FBCFB89AC09A0895C098089563
:100A1000C09A089590BD89B988E18AB98EE880BDF1
:100A200008955D9BFECF8CB908958CB1089585B76C
:100A3000806885BF80B7806280BF0895FB01F85E43
:100A400080837F936F931F928F9387EF91E09F93A3
:100A50008F938EE091E09F938F930E9416188DB72D
:100A60009EB708960FB6F8949EBF0FBE8DBF08952F
:100A7000CF93FC01F85EC0819F938F931F92CF9319
:100A800085E192E09F938F938EE091E09F938F9307
:100A90000E9416188DB79EB708960FB6F8949EBFA1
:100AA0000FBE8DBF8C2FCF910895AF92BF92CF9282
:100AB000DF92EF92FF920F931F93CF93DF9383E325
:100AC00092E09F938F938EE091E09F938F930E948B
:100AD00016180E94FF176C010E9404180F900F90C7
:100AE0000F900F90A12CB12CC0E0D0E00F2EF9E4B4
:100AF000EF2EF2E0FF2EF02D0EE011E00E94FF1726
:100B0000F501F85E808320812817B1F099279F9323
:100B10008F931F922F93BF92AF92FF92EF921F93EA
:100B20000F930E94161821968DB79EB70A960FB69E
:100B3000F8949EBF0FBE8DBF9FEFA91AB90AA114EA
:100B400088E0B806D9F6C6010E94041800E010E05B
:100B5000E12CF12C0F2EFAE7AF2EF2E0BF2EF02D94
:100B60000F2EFEE0CF2EF1E0DF2EF02D0E94FF17BA
:100B7000F801F85E20812817C1F099279F938F9381
:100B80001F922F931F930F93BF92AF92DF92CF923A
:100B90000E9416189FEFE91AF90A8DB79EB70A96B8
:100BA0000FB6F8949EBF0FBE8DBF0F5F1F4F01158C
:100BB00098E01907D9F6FF92EF92DF93CF938EEA70
:100BC00092E09F938F938EE091E09F938F930E948A
:100BD00016188DB79EB708960FB6F8949EBF0FBE35
:100BE0008DBFDF91CF911F910F91FF90EF90DF901C
:100BF000CF90BF90AF90089585B7806885BF80B7CC
:100C0000806280BF089500C000C00000E82FF0E0BF
:100C1000FC5E80832899FECF82E68A95F1F700007A
:100C2000809100140895EF92FF921F93CF93DF936A
:100C3000B89AB99A80911C01882371F110E0C12FF4
:100C4000D0E084E00E9403069E0124513C4F7901CC
:100C5000F901808385E00E940306C851DC4F888338
:100C6000F70190812091840330918503290F311D74
:100C70003093850320938403209182033091830372
:100C8000A901480F511D50938303409382031F5FB6
:100C900080911C01181798F2E4EEF3E08091EF03C5
:100CA00082838091EB038383DF91CF911F91FF902B
:100CB000EF900895CF93DF938091860390E0EC014D
:100CC000C451DC4F48812091840330918503241B5B
:100CD00031093093850320938403FC01E851FC4FD4
:100CE00020818091820390918303821B91099093CC
:100CF00083038093820384E00E9403068883C0916B
:100D00008603D0E085E00E940306C851DC4F88834B
:100D100090918603292F30E0F901E451FC4F808146
:100D20004091840350918503480F511D50938503D2
:100D300040938403F901E851FC4F8081E0918203E4
:100D4000F0918303E80FF11DF0938303E093820396
:100D50009F5F9093860320911C01921710F01092D0
:100D6000860330E0CA01B9010E941116EB01CF01E0
:100D7000B9010E941116AB019E0133278091E60351
:100D800090E0BC016F5F7F4F2617370731F0019766
:100D90002817390711F0C093E4039A013327809193
:100DA000E70390E0BC016F5F7F4F2617370731F0F4
:100DB00001972817390711F04093E503DF91CF9190
:100DC00008950E945A066091E4037091E5038091B2
:100DD000E6039091E7030895CF9386E00E9403060F
:100DE000C82F87E00E94030690E02091870330E03F
:100DF000A90144505109481759072CF42C5F3F4F63
:100E0000821793072CF087E00E94030680938703E4
:100E10008C2F90E02091880330E0A90144505109C3
:100E2000481759072CF42C5F3F4F821793072CF07B
:100E300086E00E94030680938803CF9108950E9464
:100E4000EC06809187039091880308958F3B91056C
:100E50008CF16F3B71058CF0681779073CF481E0E9
:100E600090E090932801809327016CC082E090E08D
:100E7000909328018093270165C0603471059CF42C
:100E8000660F771F681779073CF481E090E0909334
:100E900028018093270156C083E090E090932801B9
:100EA000809327014FC081E090E0909328018093C8
:100EB000270148C0803491055CF56F3B71058CF0CB
:100EC000880F991F681779072CF410922801109247
:100ED000270138C082E090E0909328018093270199
:100EE00031C0603471057CF4681779072CF41092D6
:100EF00028011092270126C083E090E090932801FA
:100F0000809327011FC010922801109227011AC058
:100F10006F3B71053CF082E090E090932801809354
:100F2000270110C0603471053CF483E090E0909399
:100F300028018093270106C084E090E09093280167
:100F400080932701809127019091280108950E94A4
:100F50005A060E94EC06A4EEB3E09C91EDE1F1E0AC
:100F6000928311968C918383A7E8B3E08C9184835C
:100F700011968C91858386B38270868386B3817047
:100F800087831F929F9386EF92E09F938F9389E2CE
:100F900091E09F938F930E9416188DE191E00E943B
:100FA0007A110F900F900F900F900F900F9008955F
:100FB000E0914301F091440180830895E091410163
:100FC000F09142018083089590918A0320918B03D0
:100FD000E0913F01F091400130E8239FE00DF11DC9
:100FE0001124E90FF11D80839F5F1AF090938A030B
:100FF000089510928A0308951F93CF93DF9328E0FA
:101000008202C0011124EC01C059DC4F10E0FE0146
:1010100084910E94E4071F5F21961830C1F7DF9189
:10102000CF911F9108950F931F93CF93FC0180815F
:10103000882359F08F01C0E00E94FC07CF5FF801C0
:10104000EC0FF11D80818111F7CFCF911F910F918E
:101050000895FF920F931F93CF93DF93C82F882398
:1010600009F44DC089E2C89FF12C11249DEC8F2D0D
:1010700082958F700F2EF0E3FF2EF02DF80EC99F92
:10108000212D1124269526952695299F912D1124F1
:10109000969596959695990F892F880F880F980F9A
:1010A000022F091B005D220F822F880F880F280F47
:1010B0001C2F121B105DDDECC43650F08F2D0E94EA
:1010C000FC07CD9FC12D1124C695C695C69515C0A8
:1010D000CA3050F0802F0E94FC07CD9FC12D1124F3
:1010E000C695C695C69509C0812F0E94FC07CD9F65
:1010F000C12D1124C695C695C695C111DDCFDF91CE
:10110000CF911F910F91FF90089580938B031092C0
:101110008A03883088F48055E0914301F0914401BE
:101120008083E0914301F09144011082E0914301FA
:10113000F091440180E18083089580938A0388239D
:101140007CF0982F9F7082958F70805FE0914301B3
:10115000F09144019083E0914301F0914401808338
:101160000895CF93C62F80938B0360938A030E94C8
:1011700085088C2F0E949D08CF91089510928B03B3
:1011800010928A0360E080E00E94B1080895CF9336
:101190000E948508C0E080E00E94E407CF5FC0386D
:1011A000D1F7CF910895CF93C0E08C2F0E94C7084C
:1011B000CF5FC830D1F70E94BE08CF910895E0916B
:1011C0004301F09144018EEA8083E0914301F09164
:1011D000440181EA8083E0914301F09144018AED6A
:1011E0008083E0914301F091440182E18083E091AA
:1011F0004301F091440188EC8083E0914301F09138
:10120000440188EA8083E0914301F09144018FE337
:101210008083E0914301F091440185ED8083E0916A
:101220004301F091440180E88083E0914301F09113
:10123000440181E88083E0914301F091440180E51D
:101240008083E0914301F091440189ED8083E09136
:101250004301F091440181E28083E0914301F091E8
:10126000440180E28083E0914301F091440182E0F7
:101270008083E0914301F09144018BED8083E09104
:101280004301F091440180E38083E0914301F091B8
:1012900044018DEA8083E0914301F0914401108282
:1012A000E0914301F091440184EA8083E09143019D
:1012B000F091440186EA8083E0914301F09144017A
:1012C0008FEA8083E0914301F091440180EB8083B9
:1012D000E0914301F09144011082E0914301F091CB
:1012E000440180E180830E94D3080E94BE086CE321
:1012F00070E080E091E00E9471120895E091430156
:10130000F091440191E89083E0914301F091440110
:10131000808308950E94B10888E10E94E40788E173
:101320000E94E4078EE70E94E4078CE30E94E40732
:1013300088E10E94E40708950E94B10880E00E94BD
:10134000E40780E00E94E40780E00E94E40780E078
:101350000E94E40780E00E94E4070895FF920F9343
:101360001F93CF93DF930E94D308C0E7D0E0F12C06
:10137000F0928B038E0100581F4FFE0184910E9452
:10138000E4072196C017D107C1F7F394E801F8E00C
:10139000FF12EECFDF91CF911F910F91FF90089533
:1013A000FF920F931F93CF93DF9380918903813036
:1013B00021F5C0E0D0E010E0F12C00E0812F0E9488
:1013C00085082F2D302FE0913F01F0914001EC0F67
:1013D000FD1FE20FF31F9081E0914101F091420166
:1013E00090832F5F3F4F2038310569F71F5FC0584A
:1013F000DF4F183019F710928903DF91CF911F91B9
:101400000F91FF90089540E050E060E090E014C03C
:10141000E0913F01F0914001E40FF51FE20FF31F4F
:1014200080832F5F3F4F2038310591F740585F4F41
:10143000411524E0520719F0262F392FE9CF0895DE
:101440000F931F93CF93C0E0082F880F110B8C2FA1
:101450000E948508C8010E941308CF5FC830B9F701
:10146000CF911F910F9108956623ACF1403498F508
:10147000942F96959695969547708823B1F0E091B4
:101480003F01F091400180E8989FE00DF11D11248B
:10149000E60FF11D81E090E002C0880F991F4A9588
:1014A000E2F79081892B80830895E0913F01F091CC
:1014B000400180E8989FE00DF11D1124E60FF11D19
:1014C00081E090E002C0880F991F4A95E2F780956D
:1014D00090818923808308957F928F929F92AF920B
:1014E000BF92CF92DF92EF92FF920F931F93CF9311
:1014F000DF93982E862E062F069506950695862F45
:1015000087700F2EFDEF7F2EF02D790C272D30E008
:10151000C92DD0E06E0193E0C90ED11CC216D306CE
:101520000CF448C090E8099F8001112441E050E08C
:101530007A0102C0EE0CFF1C8A95E2F7AA24A3945C
:10154000B12CE0913F01F0914001E00FF11FE20F5B
:10155000F31F808190E08E219F21892B81F42C1B29
:101560003D0B2D5F3F4FC50102C0880F991F2A9583
:10157000E2F790913801892B8093380110C02C1B21
:101580003D0B2D5F3F4FC50102C0880F991F2A9563
:10159000E2F7809590913801892380933801482D96
:1015A000672D81E00E94340A7394272D30E0C21623
:1015B000D3063CF60F2EFDEFBF2EF02DB80C2B2DD1
:1015C00030E0082D10E0780183E0E80EF11CE2160F
:1015D000F3060CF449C0CC24C394D12CE0913F0114
:1015E000F09140018B2D86958695869590E8899F90
:1015F000E00DF11D1124EC0FFD1F808190E04B2DBB
:10160000477002C0959587954A95E2F780FD10C016
:10161000201B310B2D5F3F4FC60102C0880F991F61
:101620002A95E2F790913701892B8093370110C0FA
:10163000201B310B2D5F3F4FC60102C0880F991F41
:101640002A95E2F78095909137018923809337019D
:101650004B2D692D81E00E94340AB3942B2D30E08C
:10166000E216F3060CF0BACFDF91CF911F910F91E4
:10167000FF90EF90DF90CF90BF90AF909F908F90B2
:101680007F900895CF92DF92FF920F931F93CF9395
:10169000DF93F82EC62FDDEFD80F2D2F30E0C82EA8
:1016A000D12C86010D5F1F4F02171307CCF08091DC
:1016B000380190E02C193D092D5F3F4F02C09595F0
:1016C00087952A95E2F780FF05C04C2F6D2F80E0AB
:1016D0000E94340ADF5F2D2F30E0021713073CF71A
:1016E0000F2EFDEFDF2EF02DDC0E2D2D30E0D0E0A3
:1016F0008E010D5F1F4F02171307CCF08091370149
:1017000090E02C1B3D0B2D5F3F4F02C095958795B8
:101710002A95E2F780FF05C04D2D6F2D80E00E94D5
:10172000340AD3942D2D30E0021713073CF7DF91D4
:10173000CF911F910F91FF90DF90CF900895CF929E
:10174000DF92EF92FF920F931F93CF93DF93082FB7
:10175000C62F142FC22E90E07C01E40EF11CE81677
:10176000F9069CF0D02FD62ED20E4C2F6D2F81E093
:101770000E94340A4D2D6D2F81E00E94340ADF5FF4
:10178000ED2FF0E0EE16FF0684F78C2F90E07C0141
:10179000EC0CF11CE816F90694F0D02FD10F4C2F69
:1017A000602F81E00E94340A4C2F6D2F81E00E944F
:1017B000340ACF5F2C2F30E0E216F30684F7DF9176
:1017C000CF911F910F91FF90EF90DF90CF900895F0
:1017D0002F923F924F925F926F927F928F929F9241
:1017E000AF92BF92CF92DF92EF92FF920F931F932F
:1017F000CF93DF9300D000D0CDB7DEB730E08901C2
:1018000001501109D901AA0FBB1FBA83A98321E096
:1018100030E06901CA1ADB0A11230CF462C0342ECD
:10182000462E8B83AA24A394B12C88248394912CD4
:10183000E12CF12C532C5E0C452DB42DB00FBC8344
:101840006B2F8B810E94340A632C600E462D742C02
:101850007E0C672D8B810E94340A462D642C6E18F5
:10186000662D8B810E94340A452D542C501A652D0B
:101870008B810E94340A232C2E18422D652D8B81DA
:101880000E94340A532C501A452D662D8B810E94DC
:10189000340A452D672D8B810E94340A422D6C81BC
:1018A0008B810E94340A1C141D045CF0EFEFEE1AC9
:1018B000FE0ACA0CDB1CF2E0AF0EB11C1C141D04A6
:1018C00064F40150110922E0820E911CC401A98127
:1018D000BA818A1B9B0BC80ED91E0E151F050CF072
:1018E000A9CF0F900F900F900F90DF91CF911F9184
:1018F0000F91FF90EF90DF90CF90BF90AF909F90AF
:101900008F907F906F905F904F903F902F900895B1
:10191000EF92FF920F931F93CF93DF9380913C013F
:1019200080933A0180913B01809339010E94E10646
:10193000E62E172FD82FC92F0E941F07082FF92E28
:101940006E2D70E0ED2FF0E0CF0105966817790756
:101950003CF080913C0188231CF08F5F80933C0118
:10196000B897E617F7073CF080913C01833018F0F8
:10197000815080933C01E12FF0E06C2F70E0CB01AF
:101980000A96E817F90744F080913B01882309F48F
:101990008AC0815080933B016E5171096E177F0799
:1019A0003CF080913B01803418F48F5F80933B01C1
:1019B0006091390180913A010E94420B60913B0194
:1019C00080913C010E946C0AB09B74C080913C01E4
:1019D000853108F590913B01953138F410923E0124
:1019E00010923D018731C0F565C0993248F421E07D
:1019F00030E030933E0120933D018731D0F55AC04D
:101A00009D3348F422E030E030933E0120933D01C5
:101A1000873180F44FC0873108F44CC020913D01DC
:101A200030913E012130310521F1B0F022303105F5
:101A300009F040C022E040913B01682F81E00E9404
:101A4000E80B80913701837E90913801937E9093CB
:101A50003801809337012EC02DECF29E212D1124E8
:101A60002695269540913B01682F81E00E94E80B66
:101A700021C04DEC049F212D112426952695F49E1E
:101A8000412D11244695469560913B010E949F0B84
:101A90008091370187789091380197789093380139
:101AA0008093370107C06E5171096E177F070CF0E4
:101AB0007CCF7ECFDF91CF911F910F91FF90EF9060
:101AC00008950E94D30824E144E161E081E00E948E
:101AD0009F0B27E04BE06BE081E00E94E80B24E1E4
:101AE00044E165E181E00E949F0B2CE04CE069E15C
:101AF00085E00E949F0B24E144E169E281E00E94BD
:101B00009F0B22E043E36BE081E00E94E80B21E0C1
:101B100043E36BE081E00E94E80BB19905C00E94AD
:101B2000880C0E94D009F9CF0E94880C0E94D0092D
:101B300008951F920F920FB60F9211248F9381E098
:101B4000809389038F910F900FBE0F901F9018956F
:101B5000E82FF0E0EE0FFF1FE859F84F6591749100
:101B60008EEF93E00E940F180895CF92DF92EF92CC
:101B7000FF921F93CF93DF93EC010E94D308109242
:101B800093031092920388810E94A80D1F921F92C6
:101B90008EEF93E09F938F9386E491E09F938F93D2
:101BA0000E9416180B80DC81C02D0F900F900F90B3
:101BB0000F900F900F90209799F111E00F2EFEEFEC
:101BC000CF2EF3E0DF2EF02D0F2EF6E4EF2EF1E016
:101BD000FF2EF02D88810E94A80D80919203909194
:101BE00093030196909393038093920364E1812F72
:101BF0000E94B1081F921F92DF92CF92FF92EF9244
:101C00000E9416181F5F0D80DE81C02D0F900F906F
:101C10000F900F900F900F90209711F01530D1F684
:101C20000E94BE08DF91CF911F91FF90EF90DF904F
:101C3000CF900895CF93DF93C3E4D4E087E0FE0113
:101C400011928A95E9F787E0EAEAF1E0A0EFB3E0C4
:101C500001900D928A95E1F787E0E1EBF1E0A8E5CC
:101C6000B4E001900D928A95E1F787E0E8EBF1E0AE
:101C7000ACE3B4E001900D928A95E1F787E0EFEBD9
:101C8000F1E0A7E2B4E001900D928A95E1F787E0D8
:101C9000E6ECF1E0AEE1B4E001900D928A95E1F757
:101CA00087E0EDECF1E0AAE4B4E001900D928A95B2
:101CB000E1F787E0E4EDF1E0A7EFB3E001900D92EA
:101CC0008A95E1F787E0EBEDF1E0A1E5B4E0019062
:101CD0000D928A95E1F787E0E2EEF1E0A5E3B4E04A
:101CE00001900D928A95E1F787E0E9EEF1E0AEE22E
:101CF000B4E001900D928A95E1F7E0EFF3E0FC8308
:101D0000EB83A8E5B4E0B683A583ECE3F4E0169694
:101D1000FC93EE93159787E294E096838583AEE17A
:101D2000B4E0B483A383EAE4F4E01696FC93EE9364
:101D3000159727EF33E036832583A1E5B4E0FC0156
:101D4000B483A383EEE2F4E01496FC93EE9313972E
:101D500085E394E096838583D0932604C09325047D
:101D600080E00E94A80D80912504909126040E9495
:101D7000B50DDF91CF9108950E94D3080E941A0EED
:101D80000895809125049091260424E08E319207D5
:101D900059F40E94D30881E090E0909391038093DE
:101DA00090030E94AE09089523E0873F920759F4FB
:101DB0000E94D30881E090E0909391038093900378
:101DC0000E94610D089523E0803F920799F40E94DC
:101DD000D3080E947A150E942D13E0912504F091FA
:101DE00026048181928190932604809325040E9489
:101DF000B50D089524E08835920759F40E94D30860
:101E000081E090E090939103809390030E94DA1414
:101E1000089524E085339207B1F40E94D30810920C
:101E200091031092900380E00E947E09E0912504C6
:101E3000F091260481819281909326048093250459
:101E40000E94B50D089524E08E329207B1F40E94ED
:101E5000D30810929103109290038FEF0E947E0995
:101E6000E0912504F09126048181928190932604CB
:101E7000809325040E94B50D08958A54944011F46E
:101E80000E943111089565E0809145010E94B108DA
:101E90008091900390919103892B29F465E08091C2
:101EA00045010E948A0985E00E9403068C3D90F05E
:101EB00065E0809145010E949C0980914501815017
:101EC00080934501811188C0809192038150809355
:101ED000450182C085E00E9403068F31B8F465E0B9
:101EE000809145010E949C09809145018F5F8093FC
:101EF000450190E020919203309193032817390710
:101F00000CF06AC081E08093450166C084E00E94C5
:101F100003068C3DE8F1E0912504F09126048381CD
:101F20009481892B09F461C00E94BE08E0912504C8
:101F3000F091260493818481909325048093260454
:101F40004091450150E0415051091416150684F4A2
:101F5000E92FF82F80E090E0358126810196E32F6C
:101F6000F22F84179507C4F3309325042093260499
:101F700080912504909126040E94B50D8091450121
:101F80008093940381E0809345010E94C10E24C098
:101F900084E00E9403068F31F8F480919403882333
:101FA00039F00E94D3081092940381E08093450198
:101FB000E0912504F091260481819281892BA9F07A
:101FC0001092910310929003818192819093260444
:101FD000809325040E94B50D2FEF8FE791E02150EB
:101FE00080409040E1F700C000C00895329A3A98CE
:101FF00008953A9A08953A980895009741F0ECECC4
:10200000F4E03197F1F700C000000197C1F708959F
:10201000009729F000C000C000000197D9F708958B
:102020001F93CF93DF93EC01162F9C0140E050E00B
:1020300060E271EA87E090E00E9439163093A003D5
:1020400020939F031C9F90011D9F300D11243695F6
:1020500027953695279536952795A5ECB0E20E94F1
:102060005816929582958F7089279F708927909333
:102070009E0380939D03892BD1F0C0E0D0E00E94A5
:10208000F90F80919F039091A0030E9408100E9475
:10209000FB0F80919F039091A0030E94081021964E
:1020A00080919D0390919E03C817D90740F3DF915B
:1020B000CF911F910895FF920F931F93CF93DF93BA
:1020C00094E090939C03C82FD0E0FE01EE0FFF1F19
:1020D000EE0FFF1FEA5BF64F649160939B03611163
:1020E0000EC049C02F2D30E0FE01E20FF31FEA5B66
:1020F000F64F649160939B0361110AC03CC020E0DD
:1021000030E0F12C08EE13E0CC0FDD1FCC0FDD1F0B
:1021100070E0C8010E94251660939B03FE01E20F48
:10212000F31FEE0FFF1FE25BF64F859194910E9423
:10213000101060919B0370E080E090E00E94BA165E
:1021400026E636E646EA5FE30E941E170E948916DD
:1021500070939A0360939903CB010E94FD0F6091E5
:102160009B0380E090E00E941010F39480919C0308
:10217000F81608F4B7CFDF91CF911F910F91FF9020
:1021800008950F931F93CF93DF93082F811104C0FD
:102190008EE48093980354C08CE28093980350C0DF
:1021A000011116C0212F30E0F901E45AF74F649174
:1021B00070E0CE010E94251660939703F901EE0F9F
:1021C000FF1FE655F74F859194910E94101015C09E
:1021D000212F30E0F901E852F84F649170E0CE0110
:1021E0000E94251660939703F901EE0FFF1FEC5F25
:1021F000F74F859194910E9410106091970370E0C1
:1022000080E090E00E94BA1626E636E646EA5FE3F2
:102210000E941E170E94891670939603609395037F
:10222000CB010E94FD0F6091970380E090E00E9437
:1022300010101F5F80919803181708F4B1CF04C0E5
:1022400010E0C8EED3E0ACCFDF91CF911F910F919A
:10225000089580E00E945B10089581E00E945B1069
:10226000089580E00E94C110089581E00E94C1108D
:10227000089580EB87BB81E58DB908958FB9779B71
:10228000FECF08951FB8779BFECF8FB10895C498F5
:102290000895C49A089540E060EE8FE00E94131301
:1022A0004FEF61E08BE20E9413134FEF65E08CE08B
:1022B0000E9413134FEF60E680E60E9413138B9881
:1022C00085B7886085BF85B78B7F85BF8BB78068F2
:1022D0008BBF089580E30E94C21284FD08C080E392
:1022E0000E94C21285FB882780F990E0089581E062
:1022F00090E008950F931F93CF938C010E946A1171
:10230000892BA9F080E30E94C2121F928F9381E073
:1023100093E09F938F9384E591E09F938F930E9426
:1023200016180F900F900F900F900F900F90F801CC
:1023300040814695469546956FEF81E30E941313C1
:10234000F80140814295440F407E60EE82E30E9496
:102350001313F80141816FE085E30E941313F80124
:102360008181882379F0C0E0F801EC0FF11D4281F2
:102370006FEF86E38C0F0E941313CF5FF80181810A
:10238000C81790F381E80E940813CF911F910F9115
:102390000895AF92BF92CF92DF92EF92FF920F9388
:1023A0001F93CF93DF93CDB7DEB72A970FB6F8947C
:1023B000DEBF0FBECDBF5C010E946A11892BA9F060
:1023C00080E60E94C2121F928F938DE093E09F934C
:1023D0008F9384E591E09F938F930E9416180F903E
:1023E0000F900F900F900F900F9081E60E94C212F5
:1023F000182F82E60E94C212829586958770110F6F
:10240000110F110FD82ED10E85E60E94C2128F70C7
:10241000C82E81F07E0183E0E80EF11C06E60C0D6B
:1024200016E6812F0E94C212F70181937F011F5F80
:102430001013F7CF40E061E08CE20E941313D982C1
:10244000CA828AE0FE013196D50101900D928A95EB
:10245000E1F7C5012A960FB6F894DEBF0FBECDBFD7
:10246000DF91CF911F910F91FF90EF90DF90CF9070
:10247000BF90AF9008958091A103813019F410921C
:10248000A103089580E008951F920F920FB60F9256
:1024900011248F9381E08093A1038F910F900FBE41
:1024A0000F901F9018958034910589F030F4813099
:1024B0009105A9F0089749F010C0811521E0920715
:1024C00041F08115944039F008C082E0089583E01E
:1024D000089584E0089585E0089580E0089581E0FE
:1024E00008950F931F93CF93DF938C01EB018FB56A
:1024F00082608FBD8EB588618EBDC8010E94531267
:102500009EB5892B8EBD8FB580688FBD9E0140E042
:1025100050E060E070E08BE490E00E943916CA0160
:10252000B901980140E050E00E943916C9010197B5
:1025300095BD84BD225031093BBD2ABD89B7806459
:1025400089BFDF91CF911F910F9108950E9447118C
:1025500080EC0E943E110E9449118FEF9FE201978B
:10256000F1F700C000000895CF930E94471180EA60
:102570000E943E110E944211C82F0E9449118C2FC7
:10258000CF910895CF93C82F0E94471183E00E94F6
:102590003E118C2F0E943E110E944211C82F0E94B2
:1025A00049118C2FCF9108950E9439110E94A612D3
:1025B0008EE00E94C212807E8038A1F01F921F928E
:1025C00089E193E09F938F9382E691E09F938F93AD
:1025D0000E9416180F900F900F900F900F900F9071
:1025E00081E0089580E00895CF93DF93C82FD62F20
:1025F0000E94471182E00E943E118D2F0E943E11E1
:102600008C2F0E943E110E944911DF91CF910895B5
:10261000CF93C82F0E9447118C2F0E943E110E9419
:102620004911CF9108951F93CF93DF93182FD62F81
:10263000C42F0E94471185E00E943E11812F0E9405
:102640003E118D2F0E943E118C2F0E943E110E9440
:102650004911DF91CF911F910895CF92DF92EF92B0
:10266000FF920F931F93CF93DF93CDB7DEB72A97D7
:102670000FB6F894DEBF0FBECDBF0E94D3080E94F4
:10268000D00969E170E081E090E00E94B1088DE33B
:1026900093E00E94130862E370E081E090E00E9402
:1026A000B1080E9441150E94130864E170E085E0C2
:1026B00090E00E94B10880E493E00E94130888E84B
:1026C00091E00E947A11809188011F928F938AE491
:1026D00093E09F938F9382E991E09F938F930E9461
:1026E00016180E9429110F900F900F900F900F90C5
:1026F0000F90EE24E394F12C0F2EFAE0CF2EF02D64
:102700000FE514E002C0E82EF92E0E94A7070E94F0
:10271000D009B19905C00E943B12882309F493C0E7
:102720008EE791E00E947A11CE0101960E94C911B4
:10273000FE013196D8018C2D01900D928A95E1F71A
:10274000F801D2800E9441156D2D0E9469140E94EB
:10275000D3080E942D110E94D00969E170E080E049
:1027600090E00E94B10883E593E00E94130869E1BC
:1027700070E082E090E00E94B1088DE593E00E9455
:1027800013086BE470E082E090E00E94B108F80169
:10279000828190E00E94290864E170E085E090E089
:1027A0000E94B10883E693E00E94130864E170E0A0
:1027B00086E090E00E94B10880E493E00E94130854
:1027C000FFEF2FE787E0F15020408040E1F700C0A5
:1027D0000000B09B35C00E94D3080E94D00969E177
:1027E00070E081E090E00E94B1088DE393E00E94E8
:1027F000130862E370E081E090E00E94B1080E945B
:1028000041150E94130864E170E085E090E00E94A9
:10281000B10880E493E00E94130888E891E00E94E8
:102820007A1188E891E00E947A1188E891E00E948C
:102830007A110E942911B1990BC08E2D9F2D05C0D0
:10284000B19906C088CF8E2D9F2DEF2809F05BCF60
:1028500081E02A960FB6F894DEBF0FBECDBFDF91A0
:10286000CF911F910F91FF90EF90DF90CF9008953F
:1028700080E090E0E091A401F091A501E80FF91F3C
:102880001082019685309105A9F780E090E0E091F3
:10289000A201F091A301E80FF91F10820196823383
:1028A0009105A9F70895E091A401F091A501908107
:1028B000981730F0319691E02081281720F401C05C
:1028C00090E0892F08959F5F31969530A9F78FEF9B
:1028D0000895DF92EF92FF920F931F93CF93DF93B0
:1028E000F82E092F162F862F0E9453148F3F09F4BC
:1028F00054C0853098F5A4E1B0E0C5E0D0E0D12C1B
:10290000E12CE091A401F091A501AF014C0F5D1FF6
:102910009E0121503109E20FF31F9081FA0190834B
:10292000BD01645071094D2D5E2D2091A2013091A1
:10293000A301F901E60FF71FE40FF51F90812A0F9D
:102940003B1FF901E40FF51F90834F5F5F4F443049
:10295000510559F7219714978C1798F290E0E09160
:10296000A401F091A501E80FF91F1083880F991FAA
:10297000880F991FAF2DB02F20E030E04D91E091EE
:10298000A201F091A301E80FF91FE20FF31F4083AA
:102990002F5F3F4F2430310589F78091A3038F5F6C
:1029A0008093A303DF91CF911F910F91FF90EF9040
:1029B000DF900895AF92BF92CF92DF92EF92FF9295
:1029C0000F931F93CF93DF930E94D3080E94BE08FA
:1029D00069E180E00E94B1088FE693E00E9413084D
:1029E0008091A303882309F441C0C0E0B12CC12C1D
:1029F0006894AA24A1F8AC0E6EE18A2D0E94B10859
:102A0000DD24D394DC0E8D2D0E94290868E28A2DE6
:102A10000E94B108D0E08E01000F111F000F111F9E
:102A2000EB2CFC2CE091A201F091A301E00FF11F2F
:102A3000EE0DFF1D80810E94FC078FEFE81AF80A57
:102A400084E0E816F10471F760E58A2D0E94B10870
:102A50008091A4019091A501C80FD91F88810E947F
:102A60002908CD2D8091A303D81610F2DF91CF91C4
:102A70001F910F91FF90EF90DF90CF90BF90AF909C
:102A800008958091A0019091A101089585E00E9490
:102A900003068C3DA0F08091A6039091A703181621
:102AA000190644F089E190E09093A7038093A60370
:102AB0008AE5089501979093A7038093A60385E084
:102AC0000E9403068F3190F48091A6039091A70392
:102AD0008931910534F01092A7031092A60381E486
:102AE000089501969093A7038093A6038091A6036F
:102AF0008F5B08951F93CF93DF930E94D3080E94AA
:102B0000D00960E083E00E94B1088AE793E00E9468
:102B100013082FEF8FE797E0215080409040E1F7B6
:102B200000C0000010E264C00E94D00968E283E0A7
:102B30000E94B1088091A0019091A1010E94130808
:102B40006EE185E00E94B1080E9446150E94FC07D4
:102B50002FEF8FEF92E0215080409040E1F700C0CE
:102B600000C0B09B19C08091A4039091A50384304C
:102B7000910594F4C091A001D091A101C80FD91F73
:102B80000E94461588838091A4039091A503019625
:102B90009093A5038093A403B19B2AC08091A403C2
:102BA0009091A503992324F12091A0013091A101D6
:102BB000F901E80FF91F10838091A4039091A503F8
:102BC00001979093A5038093A4032091A0013091D5
:102BD000A101F901E80FF91F10838091A4039091DE
:102BE000A5031816190624F01092A5031092A40349
:102BF00084E00E9403068C3D08F496CFDF91CF91CC
:102C00001F91089580E090E020E2E091A001F09112
:102C1000A101E80FF91F2083019684309105A9F7DF
:102C20000895AA1BBB1B51E107C0AA1FBB1FA61713
:102C3000B70710F0A61BB70B881F991F5A95A9F765
:102C400080959095BC01CD01089597FB072E16F451
:102C5000009407D077FD09D00E94111607FC05D01B
:102C60003EF4909581959F4F0895709561957F4FA3
:102C70000895052E97FB1EF400940E94501657FDF0
:102C800007D00E94671607FC03D04EF40C94501630
:102C900050954095309521953F4F4F4F5F4F089588
:102CA00090958095709561957F4F8F4F9F4F0895B8
:102CB000A29FB001B39FC001A39F700D811D11247D
:102CC000911DB29F700D811D1124911D0895A1E2E7
:102CD0001A2EAA1BBB1BFD010DC0AA1FBB1FEE1F96
:102CE000FF1FA217B307E407F50720F0A21BB30BE1
:102CF000E40BF50B661F771F881F991F1A9469F75D
:102D000060957095809590959B01AC01BD01CF01B8
:102D100008950E94FD1688F09F5798F0B92F9927C3
:102D2000B751B0F0E1F0660F771F881F991F1AF0B6
:102D3000BA95C9F714C0B13091F00E941717B1E0ED
:102D400008950C941717672F782F8827B85F39F0EC
:102D5000B93FCCF3869577956795B395D9F73EF44F
:102D600090958095709561957F4F8F4F9F4F0895F7
:102D7000E89409C097FB3EF4909580957095619515
:102D80007F4F8F4F9F4F9923A9F0F92F96E9BB27CB
:102D90009395F695879577956795B795F111F8CF47
:102DA000FAF4BB0F11F460FF1BC06F5F7F4F8F4FB2
:102DB0009F4F16C0882311F096E911C0772321F0A8
:102DC0009EE8872F762F05C0662371F096E8862F40
:102DD00070E060E02AF09A95660F771F881FDAF797
:102DE000880F9695879597F9089557FD9058440F49
:102DF000551F59F05F3F71F04795880F97FB991F5A
:102E000061F09F3F79F08795089512161306140616
:102E1000551FF2CF4695F1DF08C0161617061806A3
:102E2000991FF1CF86957105610508940895E8947E
:102E3000BB2766277727CB0197F908950E943117A2
:102E40000C94A2170E94941738F00E949B1720F050
:102E5000952311F00C948B170C94911711240C945A
:102E600018170E94F51670F3959FC1F3950F50E067
:102E7000551F629FF001729FBB27F00DB11D639F2C
:102E8000AA27F00DB11DAA1F649F6627B00DA11DD2
:102E9000661F829F2227B00DA11D621F739FB00D78
:102EA000A11D621F839FA00D611D221F749F3327E8
:102EB000A00D611D231F849F600D211D822F762F81
:102EC0006A2F11249F5750409AF0F1F088234AF05E
:102ED000EE0FFF1FBB1F661F771F881F91505040CA
:102EE000A9F79E3F510580F00C948B170C9418178E
:102EF0005F3FE4F3983ED4F3869577956795B79551
:102F0000F795E7959F5FC1F7FE2B880F911D96956A
:102F1000879597F9089597F99F6780E870E060E0DA
:102F200008959FEF80EC089500240A941616170662
:102F300018060906089500240A94121613061406AA
:102F400005060895092E0394000C11F4882352F00D
:102F5000BB0F40F4BF2B11F460FF04C06F5F7F4FC5
:102F60008F4F9F4F08958F929F92AF92BF92CF92B3
:102F7000DF92EF92FF92CF93DF93EC01688179812A
:102F80008A819B81611571058105910521F464E2B7
:102F900079ED8BE597E02DE133EF41E050E00E94C1
:102FA000391649015A019B01AC01A7EAB1E40E941C
:102FB000A61A6B017C01ACEEB4EFA50194010E944E
:102FC000B41ADC01CB018C0D9D1DAE1DBF1DB7FFDA
:102FD00003C00197A109B04888839983AA83BB8362
:102FE0009F77DF91CF91FF90EF90DF90CF90BF90D0
:102FF000AF909F908F9008950E94B317089586EA2E
:1030000091E00E94B3170895A0E0B0E08093A6017C
:103010009093A701A093A801B093A9010895FB0183
:10302000DC0105900D920020E1F70895A0E0B0E0EA
:10303000ECE1F8E10C94C91AAE01475F5F4F6F8174
:1030400078858D819E810E942818E2E00C94E51A13
:10305000ACE0B0E0EEE2F8E10C94B91A7C016B014F
:103060008A01FC0117821682838181FFBDC1CE01D6
:1030700001964C01F7019381F60193FD859193FF31
:1030800081916F01882309F4ABC1853239F493FD36
:10309000859193FF81916F01853229F4B70190E00A
:1030A0000E94101AE7CF512C312C20E02032A0F4DE
:1030B0008B3269F030F4803259F0833269F4206148
:1030C0002CC08D3239F0803339F4216026C0226063
:1030D000246023C0286021C027FD27C030ED380FB1
:1030E0003A3078F426FF06C0FAE05F9E300D1124D6
:1030F000532E13C08AE0389E300D1124332E2062E7
:103100000CC08E3221F426FD6BC1206406C08C36C3
:1031100011F4206802C0883641F4F60193FD8591D0
:1031200093FF81916F018111C1CF982F9F7D95549D
:10313000933028F40C5F1F4FFFE3F9830DC08336F3
:1031400031F0833771F0833509F05BC022C0F8019C
:10315000808189830E5F1F4F44244394512C540176
:1031600015C03801F2E06F0E711CF801A080B1802B
:1031700026FF03C0652D70E002C06FEF7FEFC50131
:103180002C870E94051A2C0183012C852F77222E73
:1031900017C03801F2E06F0E711CF801A080B180F9
:1031A00026FF03C0652D70E002C06FEF7FEFC50101
:1031B0002C870E94FA192C012C852068222E83016D
:1031C00023FC1BC0832D90E048165906B0F4B701CC
:1031D00080E290E00E94101A3A94F4CFF50127FCA7
:1031E000859127FE81915F01B70190E00E94101A3E
:1031F00031103A94F1E04F1A51084114510471F71B
:10320000E5C0843611F0893639F5F80127FF07C08B
:1032100060817181828193810C5F1F4F08C0608142
:103220007181072E000C880B990B0E5F1F4F2F76B4
:10323000722E97FF09C090958095709561957F4F8C
:103240008F4F9F4F2068722E2AE030E0A4010E9429
:10325000481AA82EA81844C0853729F42F7EB22E0C
:103260002AE030E025C0F22FF97FBF2E8F36C1F063
:1032700018F4883579F0B4C0803719F0883721F018
:10328000AFC02F2F2061B22EB4FE0DC08B2D8460F5
:10329000B82E09C024FF0AC09F2F9660B92E06C021
:1032A00028E030E005C020E130E002C020E132E05B
:1032B000F801B7FE07C060817181828193810C5F44
:1032C0001F4F06C06081718180E090E00E5F1F4F4C
:1032D000A4010E94481AA82EA818FB2DFF777F2E64
:1032E00076FE0BC0372D3E7FA51450F474FE0AC045
:1032F00072FC08C0372D3E7E05C0BA2C372D03C0A6
:10330000BA2C01C0B52C34FF0DC0FE01EA0DF11D31
:103310008081803311F4397E09C032FF06C0B39436
:10332000B39404C0832F867809F0B39433FD13C09F
:1033300030FF06C05A2CB31418F4530C5B18B32C8E
:10334000B31468F4B70180E290E03C870E94101A41
:10335000B3943C85F5CFB31410F43B1801C0312C65
:1033600034FF12C0B70180E390E03C870E94101A3E
:103370003C8532FF17C031FD03C088E790E002C0F2
:1033800088E590E0B7010CC0832F867859F031FFB3
:1033900002C08BE201C080E237FD8DE2B70190E010
:1033A0000E94101AA51438F4B70180E390E00E943F
:1033B000101A5A94F7CFAA94F401EA0DF11D8081F6
:1033C000B70190E00E94101AA110F5CF332009F444
:1033D00051CEB70180E290E00E94101A3A94F6CFE5
:1033E000F7018681978102C08FEF9FEF2C96E2E173
:1033F0000C94D51AFC010590615070400110D8F76B
:10340000809590958E0F9F1F0895FC01615070402C
:1034100001900110D8F7809590958E0F9F1F089509
:103420000F931F93CF93DF93FB01238121FD03C0F3
:103430008FEF9FEF28C022FF16C04681578124815D
:1034400035814217530744F4A081B1819D012F5F5C
:103450003F4F318320838C93268137812F5F3F4FED
:103460003783268310C0EB01092F182F0084F185C4
:10347000E02D0995892BE1F68E819F8101969F832E
:103480008E83812F902FDF91CF911F910F910895FF
:10349000FA01AA27283051F1203181F1E8946F9385
:1034A0006E7F6E5F7F4F8F4F9F4FAF4FB1E03ED02B
:1034B000B4E03CD0670F781F891F9A1FA11D680FC9
:1034C000791F8A1F911DA11D6A0F711D811D911DFC
:1034D000A11D20D009F468943F912AE0269F112471
:1034E0003019305D3193DEF6CF010895462F4770D5
:1034F000405D4193B3E00FD0C9F7F6CF462F4F7030
:10350000405D4A3318F0495D31FD4052419302D08D
:10351000A9F7EACFB4E0A695979587957795679533
:10352000BA95C9F700976105710508959B01AC0133
:103530000A2E06945795479537952795BA95C9F75A
:10354000620F731F841F951FA01D08950E945816B7
:10355000A59F900DB49F900DA49F800D911D1124E7
:103560000895B7FF0C94A61A0E94A61A821B930B0B
:1035700008952F923F924F925F926F927F928F9217
:103580009F92AF92BF92CF92DF92EF92FF920F93F2
:103590001F93CF93DF93CDB7DEB7CA1BDB0B0FB6FC
:1035A000F894DEBF0FBECDBF09942A8839884888B9
:1035B0005F846E847D848C849B84AA84B984C8844F
:1035C000DF80EE80FD800C811B81AA81B981CE0F46
:1035D000D11D0FB6F894DEBF0FBECDBFED0108952B
:0435E000F894FFCF8D
:1035E40000000002000000001105000000000000BF
:1035F40000020000000011050000000004040601A0
:10360400020304050600000400000000020000009C
:1036140000110500000000FFFF20402040020000D0
:103624001800120010010000000200000000FC0756
:10363400000000000000000200000000110500006E
:10364400000000000002000000001105000000005E
:10365400010001000500000000000000000002005D
:10366400000000000000000003010600000000004C
:10367400000000000002000000001105000000002E
:10368400301C091C001C0100000001430400000060
:10369400000243040000000003430400000000048F
:1036A400430400000000053C0400000000063C0444
:1036B40000000000073C040000000008270400008C
:1036C4000000095104000000000A51040000000039
:1036D400696E69740A0D00534E5420646174613A32
:1036E40020253034752C20616464723A20253034EE
:1036F40058200A0D0052435620646174613A202513
:103704003034752C20616464723A2025303458209A
:103714000A0D005374617274205352414D20746534
:1037240073743A2564200A0D005772697465206524
:1037340072726F723A206578745F72616D5B256492
:103744005D3D25303258202873686F756C642062A3
:10375400652025303258290A0D0052657472696556
:1037640076206572726F723A206578745F72616D4B
:103774005B2534645D3D25303258202873686F75AD
:103784006C642062652025303258290A0D0053529A
:10379400414D207465737420646F6E65207769747D
:1037A400680A0D253464206572726F72732028577D
:1037B400522070686173652920260A0D253464201F
:1037C4006572726F7273202852455452207068617A
:1037D4007365290A0D004A6F79583A2564200D0A49
:1037E4000057525F4552202534780D0A0052445F39
:1037F4004552202534780D0A004D43503235313579
:10380400204E4F5420636F6E666967206D6F646548
:10381400206166746572207273740D0A00474F004C
:103824004C4546543D515549540049443A20255885
:103834000D0A0047414D45204F5645520053434F12
:1038440052450052494748543D5245545259004844
:1038540069676873636F726573004E616D653A20C2
:02386400000062
:00000001FF
