:100000000C9460050C947D050C947D050C947D0585
:100010000C947D050C947D050C947D050C947D0558
:100020000C947D050C947D050C947D050C947D0548
:100030000C947D050C947D050C947D050C947D0538
:100040000C947D050C947D050C947D050C947D0528
:100050000C947D050C947D050C947D050C947D0518
:100060000C947D050C947D050C947D050C947D0508
:100070000000000000000000000000000000000080
:100080000000000000000000000000000000000070
:100090000000000000000000000000000000000060
:1000A0000000000000000000000000000000000050
:1000B000C0C0C0C0C0C0C0C0C0C0000000000000C0
:1000C0000000000000000000000000000000000030
:1000D000000000000000C0C0C0C0C0C0C0C0C0C0A0
:1000E000C000000000000000000000000000000050
:1000F000000000000000000000C0C0C0F8F8F8F8E0
:10010000F8FEFEFEFEFEFEFEFEFEFEFEFEFEFEFE15
:10011000FEF8F8F8F8F8C0C0C000000000000000C9
:100120000000000000F8F8F8FEFEFEFEFE3E3E3F36
:100130003F3FFFFFFFFFFFFF3F3F3F3E3EFEFEFE14
:10014000FEFEF8F8F800000000000000F8F8F8FEE5
:10015000FEFEFEFE3E3E3F3F3FFFFFFFFFFFFF3F35
:100160003F3F3E3EFEFEFEFEFEF8F8F800000000B7
:100170000000000038383E3E3EFFFFFFF9F9FFFF68
:10018000FF3F3F3F3939FFFFFFFFFFFF39393F3F57
:100190003FFFFFFFF9F9FFFFFF3E3E3E383800000A
:1001A0000000000000070707C7C7FFFFFF3E3E3EF5
:1001B0003E3ECFC7C7C7C7CF3E3E3E3E3EFFFFFFD6
:1001C000C7C7070707000000000000000707070770
:1001D00007C7C7C7FEFEFE3E3ECFC7C7C7C7CF3E55
:1001E0003EFEFEFEC7C7C70707070707000000005F
:1001F00000000000000000000001010107070101EC
:1002000001000000000000010101010000000000E9
:1002100000010101070701010100000000000000CA
:1002200000000000000000000101070707060606A5
:100230000000000101010100000006060607070793
:100240000101000000000000000000000606060694
:10025000060101010101000000000101010100008F
:10026000000001010101010606060606000000006B
:1002700000000000000000000000181818E0E00076
:1002800000000000000000C0E0E0181818000000A6
:100290000000000000000000C0E0E00000001818AE
:1002A000E0E0E00000000000000000E0E0E01818DE
:1002B000000000E0E0C000000000000000000000BE
:1002C00000E0E0E0F8F8F8F8F8E0E0C00000000036
:1002D000000000000000000000000000E0E0F8F86E
:1002E000F8F8F8F8E0E0000000000000000000006E
:1002F0000000000000E0E0F8F8F8FFFFFFE7E7FF8C
:10030000FFFFFFFFFFFFFFE7E7E7FFFFFFF8F8E072
:10031000E0E0000000000000FFFFFFF8F8FCFFFF36
:10032000E7E7E7FFFFFFFFFFFFFFFFE7E7E7FFFF6D
:10033000FCF8F8FFFFFF000000000000F8F8FFFFE6
:10034000FFE7E7E7FFFFFFFFFFE7E7E7FFFFFCF857
:10035000F80000000000F8F8F8FFFFFFE7E7FFFFF4
:10036000FFFFFFFFE7E7FFFFFFF8F8F800000000DE
:1003700000000000001F1F0000001F1F1FE7E7E72D
:10038000E7E7070707E7E7E7E7E71F1F1F00001F8B
:100390001F1F000000000000000000E7E7E71F1F2C
:1003A00007070707070707070707070707071F1FAD
:1003B000E7E7E70000000000000000001818E7E78A
:1003C000E70000000707070707000000E7E7181825
:1003D000180000000000C0E0E0181818E7E718183F
:1003E00018181818E7E7181818E0E0C00000000017
:1003F00000000000000000000000000000000000FD
:1004000000000000000000000000000000000000EC
:1004100000000000000000000000000000000000DC
:1004200000000000000000000000000000000000CC
:1004300000000000000000000000000000000000BC
:1004400000000000000000000000000000000000AC
:10045000000000000000000000000000000000009C
:10046000000000000000000000000000000000008C
:1004700000000000005C00000C000C007C287C28C0
:1004800058DC68002410480028542840000C000064
:10049000007884008478000054385400107C1000E8
:1004A00080400000101010000040000060100C00A0
:1004B00038543800487C40004864580044542C00AC
:1004C0001C107C005C5424003854240064140C007C
:1004D00068542C0048543800004800008048000050
:1004E000102844002828280044281000045408003C
:1004F00038445C00781478007C5428003844280084
:100500007C4438007C5444007C140400384474005B
:100510007C107C00447C440020403C007C106C003B
:100520007C4040007C187C0078103C003844380047
:100530007C1408003844B8007C1468004854240037
:10054000047C04007C407C003C603C007C307C00EF
:100550006C106C000C700C0064544C00007C440067
:100560000C106000447C00000804080080808000BB
:1005700000040800304878007C48300030484800CB
:1005800030487C00306850001078140090A8780043
:100590007C08700050744000808074007C106800FB
:1005A000447C4000781078007808700030483000B3
:1005B000F82810003048F80078100800505828003B
:1005C000083C4800384078003840380078207800EF
:1005D0004830480098A07800486858001078840097
:1005E000007C00008478100008040804000000006B
:1005F0000000005F00000007000700147F147F1454
:10060000242A7F2A12231308646236495522500097
:1006100005030000001C2241000041221C00082AA2
:100620001C2A0808083E0808005030000008080886
:100630000808006060000020100804023E5149458F
:100640003E00427F400042615149462141454B31C5
:100650001814127F1027454545393C4A4949300155
:10066000710905033649494936064949291E0036AC
:1006700036000000563600000008142241141414FD
:10068000141441221408000201510906324979412B
:100690003E7E1111117E7F494949363E414141223A
:1006A0007F4141221C7F494949417F090901013E9F
:1006B000414151327F0808087F00417F41002040BE
:1006C000413F017F081422417F404040407F0204A7
:1006D000027F7F0408107F3E4141413E7F090909A6
:1006E000063E4151215E7F09192946464949493153
:1006F00001017F01013F4040403F1F2040201F7FFC
:100700002018207F631408146303047804036151E4
:1007100049454300007F4141020408102041417FC8
:100720000000040201020440404040400001020475
:100730000020545454787F4844443838444444207A
:10074000384444487F3854545418087E090102083C
:100750001454543C7F0804047800447D4000204039
:10076000443D00007F10284400417F40007C041875
:1007700004787C0804047838444444387C14141405
:1007800008081414187C7C080404084854545420A5
:10079000043F4440203C4040207C1C2040201C3C26
:1007A0004030403C44281028440C5050503C446495
:1007B000544C44000836410000007F0000004136E0
:1007C0000800020103020100000000000000000018
:1007D000065F5F060000000007070007070000141F
:1007E0007F7F147F7F1400242E6B6B3A120000462B
:1007F0006630180C666200307A4F5D377A48000424
:1008000007030000000000001C3E634100000000E0
:1008100041633E1C000000082A3E1C1C3E2A0808BA
:10082000083E3E0808000000A0E06000000000084C
:100830000808080808000000006060000000006070
:1008400030180C060301003E7F594D7F3E000042E8
:10085000427F7F40400000627359496F660000226A
:100860006349497F360000181C16137F7F1000274C
:100870006745457D3900003C7E4B497930000003D7
:100880006371190F070000367F49497F3600000663
:100890004F49693F1E000000006C6C000000000022
:1008A000A0EC6C00000000081C366341000000143E
:1008B00014141414140000004163361C08000002D4
:1008C0000351590F0600003E7F415D5D1F1E007CF5
:1008D0007E13137E7C0000417F7F49497F36001CD8
:1008E0003E634141632200417F7F41637F1C0041A1
:1008F0007F7F495D416300417F7F491D0103001CEB
:100900003E6341517372007F7F08087F7F000000C3
:10091000417F7F41000000307040417F3F01004136
:100920007F7F081C776300417F7F41406070007FBC
:100930007F060C067F7F007F7F060C187F7F001CE0
:100940003E6341633E1C00417F7F49090F06001E44
:100950003F21717F5E0000417F7F19396F4600267D
:10096000674D597B32000003417F7F410300007FC8
:100970007F40407F7F00001F3F60603F1F00007F7F
:100980007F3018307F7F0063771C081C7763000777
:100990004F78784F0700006773594D476371000027
:1009A0007F7F41410000000103060C183060000009
:1009B00041417F7F000000080C0603060C08008000
:1009C0008080808080808000000307040000002079
:1009D0007454543C784000413F7F44447C38003894
:1009E0007C44446C280000307848493F7F40003800
:1009F0007C54545C180000487E7F49030200009834
:100A0000BCA4A4F87C0400417F7F08047C7800002B
:100A1000447D7D4000000040C484FD7D0000004115
:100A20007F7F10386C440000417F7F400000007CD5
:100A30007C0C180C7C78007C7C04047C78000038EA
:100A40007C44447C38000084FCF8A4243C18001842
:100A50003C24A4F8FC8400447C78441C1800004822
:100A60005C54547424000000043E7F442400003C85
:100A70007C40403C7C40001C3C60603C1C00003CD6
:100A80007C6030607C3C00446C3810386C44009CC6
:100A9000BCA0A0FC7C00004C64745C4C64000008AA
:100AA000083E7741410000000000777700000041D8
:100AB00041773E0808000002030103020301000021
:100AC00011241FBECFEFD4E0DEBFCDBF14E0A0E005
:100AD000B1E0EAEEF1E202C005900D92AE31B1074D
:100AE000D9F724E0AEE1B4E001C01D92A034B20712
:100AF000E1F70E947F050C94F3100C9400008FE145
:100B000090E00E94BC050E94C7050E94C3050E9498
:100B1000CD050E94B2060E94CD0684E00E94C00668
:100B200090E00E94D006909321048093200485E0F9
:100B30000E94C00690E00E94D00690931F0480930C
:100B40001E040E9456080E94420A0E94780B0E94CE
:100B5000860B0E94470A2FEF8FE791E021508040DB
:100B60009040E1F700C000C0F4CFB89AC09A089551
:100B7000C0980895C09A089590BD89B988E18AB94E
:100B80008EE880BD08955D9BFECF8CB908958CB131
:100B90008CB1809326048CB1089585B7806885BF99
:100BA00080B7806280BF0895FB01F85E80837F93E9
:100BB0006F939F938F9383E891E09F938F9380E04F
:100BC00091E09F938F930E94B30D8DB79EB70896C7
:100BD0000FB6F8949EBF0FBE8DBF0895CF93FC0152
:100BE000F85EC0819F938F931F92CF9385EA91E027
:100BF0009F938F9380E091E09F938F930E94B30D1A
:100C00008DB79EB708960FB6F8949EBF0FBE8DBFE6
:100C10008C2FCF910895AF92BF92CF92DF92EF9237
:100C2000FF920F931F93CF93DF938BEC91E09F93F1
:100C30008F9380E091E09F938F930E94B30D0E9469
:100C4000A30D6C010E94A80D0F900F900F900F90B4
:100C5000A12CB12CC0E0D0E00F2EF6EEEF2EF1E08B
:100C6000FF2EF02D00E011E00E94A30DF501F85ECB
:100C7000808320812817B1F099279F938F931F922B
:100C80002F93BF92AF92FF92EF921F930F930E9408
:100C9000B30D21968DB79EB70A960FB6F8949EBFF6
:100CA0000FBE8DBF9FEFA91AB90AA11488E0B8063C
:100CB000D9F6C6010E94A80D00E010E0E12CF12C4D
:100CC0000F2EFFE1AF2EF2E0BF2EF02D0F2EF0E041
:100CD000CF2EF1E0DF2EF02D0E94A30DF801F85E7B
:100CE00020812817C1F099279F938F931F922F93EC
:100CF0001F930F93BF92AF92DF92CF920E94B30DDA
:100D00009FEFE91AF90A8DB79EB70A960FB6F894C5
:100D10009EBF0FBE8DBF0F5F1F4F011598E01907D3
:100D2000D9F6FF92EF92DF93CF938DE592E09F93F8
:100D30008F9380E091E09F938F930E94B30D8DB7C6
:100D40009EB708960FB6F8949EBF0FBE8DBFDF9179
:100D5000CF911F910F91FF90EF90DF90CF90BF90B8
:100D6000AF90089585B7806885BF80B7806280BFE7
:100D7000309886B7816086BF8BB780628BBF08953D
:100D80000000E82FF0E0FC5E80832899FECF84E12C
:100D90008A95F1F7809100140895B89AB99A089548
:100DA00008950F931F93CF93DF93FB018901BC013B
:100DB000641B750B24E6269FC001279F900D11240C
:100DC000BA010E94020C362F472FC7E2D4E0688395
:100DD0007983E01BF10B2E9FC0012F9F900D1124F2
:100DE000B8010E94020C7B836A834F933F9389EB87
:100DF00092E09F938F930E94C50D8B818F938A8180
:100E00008F9383ED92E09F938F930E94C50D609125
:100E10002704709128048091290490912A042DB709
:100E20003EB7285F3F4F0FB6F8943EBF0FBE2DBFB1
:100E3000DF91CF911F910F9108958F3B91058CF118
:100E40006F3B71058CF0681779073CF481E090E006
:100E5000909333048093320470C082E090E09093CA
:100E600033048093320469C0603471059CF4660FCA
:100E7000771F681779073CF481E090E09093330482
:100E8000809332045AC084E090E0909333048093BE
:100E9000320453C081E090E0909333048093320495
:100EA0004CC0803491058CF56F3B71059CF0880F28
:100EB000991F681779073CF483E090E0909333041E
:100EC000809332043AC082E090E0909333048093A0
:100ED000320433C0603471058CF4681779073CF430
:100EE00083E090E0909333048093320426C084E042
:100EF00090E090933304809332041FC083E090E02D
:100F0000909333048093320418C06F3B71053CF01A
:100F100082E090E090933304809332040EC06034FA
:100F200071053CF484E090E09093330480933204A4
:100F300004C01092330410923204809133048F93D2
:100F4000809132048F938CEE92E09F938F930E9456
:100F5000C50D0F900F900F900F90089587E090E0CF
:100F60000E94C0069F938F938DEF92E09F938F9383
:100F70000E94C50D86E090E00E94C0069F938F936B
:100F800080E193E09F938F930E94C50D8DB79EB72C
:100F900008960FB6F8949EBF0FBE8DBF0895E091DE
:100FA0001001F091110180830895E0910E01F091FC
:100FB0000F0180830895082E000C990B8097880FED
:100FC000991F880F991F880F991FFC01E953F84F4B
:100FD0008153984F2491A0910E01B0910F012C9351
:100FE0003196E817F907B1F70895CF93DF93EC0135
:100FF0008881882331F021960E94DB078991811135
:10100000FBCFDF91CF91089580932C04883088F432
:101010008055E0911001F09111018083E091100161
:10102000F09111011082E0911001F091110180E125
:101030008083089580932B0488237CF0982F9F70E1
:1010400082958F70805FE0911001F0911101908383
:10105000E0911001F091110180830895CF93C62F84
:101060000E9404088C2F0E941A08CF9108951092B4
:101070002C0410922B0460E080E00E942E0808955A
:101080000E94040880E0E0910E01F0910F011082AF
:101090008F5F8038C1F70895CF93C0E08C2F0E94F6
:1010A0004008CF5FC830D1F7CF910895E09110018B
:1010B000F09111018EEA8083E0911001F09111010D
:1010C00081EA8083E0911001F09111018AED808323
:1010D000E0911001F091110182E18083E091100113
:1010E000F091110188EC8083E0911001F0911101E1
:1010F00088EA8083E0911001F09111018FE38083F1
:10110000E0911001F091110185ED8083E0911001D3
:10111000F091110180E88083E0911001F0911101BC
:1011200081E88083E0911001F091110180E58083D6
:10113000E0911001F091110189ED8083E09110019F
:10114000F091110181E28083E0911001F091110191
:1011500080E28083E0911001F091110182E08083B0
:10116000E0911001F09111018BED8083E09110016D
:10117000F091110180E38083E0911001F091110161
:101180008DEA8083E0911001F09111011082E091CD
:101190001001F091110184EA8083E0911001F09137
:1011A000110186EA8083E0911001F09111018FEA2C
:1011B0008083E0911001F091110180EB8083E09138
:1011C0001001F09111011082E0911001F0911101D4
:1011D00080E180830E944C080E9437080895E091C6
:1011E0001001F091110191E89083E0911001F091CC
:1011F0001101808308950E942E08E0910E01F09164
:101200000F0188E18083E0910E01F0910F0180834E
:10121000E0910E01F0910F019EE79083E0910E01A5
:10122000F0910F019CE39083E0910E01F0910F018A
:10123000808308950E942E08E0910E01F0910F0125
:101240001082E0910E01F0910F011082E0910E01E9
:10125000F0910F011082E0910E01F0910F011082C8
:10126000E0910E01F0910F01108208951F93CF932A
:10127000DF930E944C08C0E7D0E010E060E0812FCF
:101280000E942E089E0120583F4FFE019491E0914C
:101290000E01F0910F0190832196C217D307A9F791
:1012A0001F5FE901183051F7DF91CF911F91089529
:1012B0000F931F93CF93DF938C01EB0182E090E0BB
:1012C0000E942A0CFC0111830083D383C283158200
:1012D000148217821682DF91CF911F910F9108958A
:1012E000FC01758364830895FC0177836683089508
:1012F000EF92FF921F93CF93DF93EC010E94370888
:101300001092300410922F041F921F9289818F93A4
:1013100088818F9383E191E09F938F930E94B30D17
:101320000C80DD81C02D0F900F900F900F900F90CB
:101330000F908E819F81892BA1F111E00F2EF3E197
:10134000EF2EF1E0FF2EF02D80912F0490913004CC
:1013500001969093300480932F0464E1812F0E94C2
:101360002E081F921F9289818F9388818F93FF92FD
:10137000EF920E94B30D87EA91E60197F1F700C062
:1013800000000E80DF81C02D0F900F900F900F9006
:101390000F900F908E819F81892B19F01F5F17305E
:1013A00099F6DF91CF911F91FF90EF9008956F9282
:1013B0007F928F929F92AF92BF92CF92DF92EF92E5
:1013C000FF920F931F93CF93DF9360E070E086E26C
:1013D00093E00E945809EC01BC0186E393E00E946F
:1013E00058095C01BE018BE393E00E9458096C012F
:1013F000BE0185E493E00E9458098C01BE018CE493
:1014000093E00E9458097C01B80184E593E00E94B2
:1014100058094C01B80180E693E00E9458093C014C
:10142000B70186E693E00E945809BD82AC82F501BF
:10143000D782C682F60117830683F801F782E68217
:1014400095828482F40177826682F7019583848392
:10145000D0933504C0933404CE010E947809809162
:10146000340490913504DF91CF911F910F91FF903B
:10147000EF90DF90CF90BF90AF909F908F907F9034
:101480006F9008950E944C080E94D7090895CF9349
:10149000DF9365E0809112010E942E0865E0809143
:1014A00012010E94FB0885E00E94C0068F3F89F46C
:1014B00065E0809112010E941A0980911201815009
:1014C0008093120181117BC080912F0480931201BF
:1014D00076C085E00E94C0068630B8F465E0809151
:1014E00012010E941A09809112018F5F80931201EC
:1014F00090E020912F0430913004281739070CF028
:101500005EC081E0809312015AC084E00E94C00650
:101510008F3F89F580913104811151C00E944C08A0
:10152000809112018093310481E080931201E09157
:101530003404F091350484819581892B21F4CF0105
:101540000E9478093CC00480F581E02DF0933504B9
:10155000E093340480E090E0268137810196F90120
:1015600081309105C9F73093350420933404C901C3
:101570000E94780924C084E00E94C0068630F8F4F6
:10158000809131048823D9F00E944C0810923104D4
:1015900081E080931201E0913404F091350482815E
:1015A0009381892B21F4CF010E94780908C08281A0
:1015B000938190933504809334040E9478092FE935
:1015C00086E891E0215080409040E1F700C00000A3
:1015D000809112011F928F9381E793E09F938F93E5
:1015E000C1E2D1E0DF93CF930E94B30D809131042B
:1015F0001F928F9385E893E09F938F93DF93CF9310
:101600000E94B30D8DB79EB70C960FB6F8949EBF8F
:101610000FBE8DBFDF91CF910895FF920F931F935F
:10162000CF93DF93F0903104F80E60E080E00E94E9
:101630002E08CF2DD0E08E01000F111FF801EC0F06
:10164000FD1FEE0FFF1FEE0FFF1FE15DFE4F8081BC
:1016500091810E94F5070C0F1D1F000F111F000F35
:10166000111FF801E15DFE4FC801855C9E4F20E02F
:1016700030E0419151914C51544011F02F5F3F4F58
:10168000E817F907B1F730932E0420932D04223088
:101690003105B0F00F5C1E4FC1E0D0E064E18C2F4B
:1016A0000E942E08F801819191918F010E94F50707
:1016B000219680912D0490912E04C817D90770F3BC
:1016C0001F92FF9287E993E09F938F9381E291E0CD
:1016D0009F938F930E94B30D0F900F900F900F90D8
:1016E0000F900F90DF91CF911F910F91FF90089570
:1016F00080EB87BB81E58DB908958FB9779BFECFCD
:1017000008951FB8779BFECF8FB108950E94B30B49
:1017100040E460EE8FE00E94EA0B0895FC019281A4
:10172000992321F080E08F5F8913FDCF0895C4983D
:1017300080EC0E947D0BC49A0895C49880EA0E94B0
:101740007D0B0E94810BC49A0895CF93C82FC49833
:1017500083E00E947D0B8C2F0E947D0B0E94810BE9
:10176000C49ACF9108950E94780B0E94970B8EE047
:101770000E94A50B807E8038A1F01F921F9289EEF7
:1017800093E09F938F938BE691E09F938F930E94BA
:10179000B30D0F900F900F900F900F900F9081E06E
:1017A000089580E00895CF93DF93C82FD62FC49873
:1017B00082E00E947D0B8D2F0E947D0B8C2F0E945A
:1017C0007D0BC49ADF91CF910895C4980E947D0B40
:1017D000C49A08951F93CF93DF93182FD62FC42F49
:1017E000C49885E00E947D0B812F0E947D0B8D2F78
:1017F0000E947D0B8C2F0E947D0BC49ADF91CF91AC
:101800001F91089597FB072E16F4009407D077FDDB
:1018100009D00E94160C07FC05D03EF490958195E6
:101820009F4F0895709561957F4F0895AA1BBB1B2C
:1018300051E107C0AA1FBB1FA617B70710F0A61BD0
:10184000B70B881F991F5A95A9F780959095BC01F1
:10185000CD010895CF93DF938230910510F482E09B
:1018600090E0E0913804F091390420E030E0C0E0ED
:10187000D0E0309711F14081518148175907C0F0ED
:101880004817590761F482819381209719F09B834F
:101890008A832BC0909339048093380426C0211585
:1018A000310519F04217530718F49A01BE01DF0100
:1018B000EF010280F381E02DDCCF2115310509F124
:1018C000281B390B2430310590F412968D919C9190
:1018D00013976115710521F0FB019383828304C086
:1018E0009093390480933804FD01329644C0FD0181
:1018F000E20FF31F81939193225031092D933C9372
:101900003AC02091360430913704232B41F42091C2
:101910007B0130917C013093370420933604209171
:10192000790130917A012115310541F42DB73EB787
:1019300040917D0150917E01241B350BE0913604CE
:10194000F0913704E217F307A0F42E1B3F0B281782
:10195000390778F0AC014E5F5F4F2417350748F028
:101960004E0F5F1F50933704409336048193919339
:1019700002C0E0E0F0E0CF01DF91CF9108950F9336
:101980001F93CF93DF93009709F48CC0FC0132972B
:101990001382128200913804109139040115110547
:1019A00081F420813181820F931F20913604309180
:1019B00037042817390779F5F0933704E093360494
:1019C00071C0D80140E050E0AE17BF0750F4129646
:1019D0002D913C911397AD012115310509F1D901E4
:1019E000F3CF9D01DA013383228360817181860FF9
:1019F000971F8217930769F4EC0128813981260F1C
:101A0000371F2E5F3F4F318320838A819B819383D1
:101A10008283452B29F4F0933904E093380442C0C3
:101A20001396FC93EE931297ED01499159919E0103
:101A3000240F351FE217F30771F480819181840F21
:101A4000951F029611969C938E9382819381139693
:101A50009C938E931297E0E0F0E0D80112968D915E
:101A60009C911397009719F0F8018C01F6CF8D9196
:101A70009C9198012E5F3F4F820F931F2091360457
:101A8000309137042817390769F4309729F41092F8
:101A900039041092380402C0138212821093370462
:101AA00000933604DF91CF911F910F9108958F928B
:101AB0009F92AF92BF92CF92DF92EF92FF92CF931D
:101AC000DF93EC01688179818A819B8161157105C1
:101AD0008105910521F464E279ED8BE597E02DE134
:101AE00033EF41E050E00E94591049015A019B0137
:101AF000AC01A7EAB1E40E9478106B017C01ACEE66
:101B0000B4EFA50194010E948610DC01CB018C0D7D
:101B10009D1DAE1DBF1DB7FF03C00197A109B048B1
:101B200088839983AA83BB839F77DF91CF91FF90AE
:101B3000EF90DF90CF90BF90AF909F908F900895DF
:101B40000E94570D08958FE791E00E94570D089568
:101B5000A0E0B0E080937F0190938001A093810189
:101B6000B09382010895A0E0B0E0E9EBFDE00C94B1
:101B70009B10AE01475F5F4F6F8178858D819E819D
:101B80000E94DB0DE2E00C94B710A0E0B0E0EBECBB
:101B9000FDE00C949B10AE014B5F5F4FFA01619129
:101BA0007191AF0180913C0490913D040E94DB0D46
:101BB000E2E00C94B710ACE0B0E0E1EEFDE00C9494
:101BC0008B107C016B018A01FC01178216828381D4
:101BD00081FFBDC1CE0101964C01F7019381F60151
:101BE00093FD859193FF81916F01882309F4ABC127
:101BF000853239F493FD859193FF81916F01853290
:101C000029F4B70190E00E94C30FE7CF512C312C8B
:101C100020E02032A0F48B3269F030F4803259F0A9
:101C2000833269F420612CC08D3239F0803339F46D
:101C3000216026C02260246023C0286021C027FDC7
:101C400027C030ED380F3A3078F426FF06C0FAE0AE
:101C50005F9E300D1124532E13C08AE0389E300D44
:101C60001124332E20620CC08E3221F426FD6BC16C
:101C7000206406C08C3611F4206802C0883641F416
:101C8000F60193FD859193FF81916F018111C1CF81
:101C9000982F9F7D9554933028F40C5F1F4FFFE3DE
:101CA000F9830DC0833631F0833771F0833509F045
:101CB0005BC022C0F801808189830E5F1F4F4424DE
:101CC0004394512C540115C03801F2E06F0E711C81
:101CD000F801A080B18026FF03C0652D70E002C02E
:101CE0006FEF7FEFC5012C870E94B80F2C01830195
:101CF0002C852F77222E17C03801F2E06F0E711C51
:101D0000F801A080B18026FF03C0652D70E002C0FD
:101D10006FEF7FEFC5012C870E94AD0F2C012C8542
:101D20002068222E830123FC1BC0832D90E04816DF
:101D30005906B0F4B70180E290E00E94C30F3A94D4
:101D4000F4CFF50127FC859127FE81915F01B70152
:101D500090E00E94C30F31103A94F1E04F1A5108FD
:101D60004114510471F7E5C0843611F0893639F514
:101D7000F80127FF07C060817181828193810C5F28
:101D80001F4F08C060817181072E000C880B990BD2
:101D90000E5F1F4F2F76722E97FF09C0909580958A
:101DA000709561957F4F8F4F9F4F2068722E2AE06C
:101DB00030E0A4010E94FB0FA82EA81844C085376C
:101DC00029F42F7EB22E2AE030E025C0F22FF97FD1
:101DD000BF2E8F36C1F018F4883579F0B4C0803743
:101DE00019F0883721F0AFC02F2F2061B22EB4FE3A
:101DF0000DC08B2D8460B82E09C024FF0AC09F2F10
:101E00009660B92E06C028E030E005C020E130E041
:101E100002C020E132E0F801B7FE07C060817181A5
:101E2000828193810C5F1F4F06C06081718180E0C9
:101E300090E00E5F1F4FA4010E94FB0FA82EA81870
:101E4000FB2DFF777F2E76FE0BC0372D3E7FA5142E
:101E500050F474FE0AC072FC08C0372D3E7E05C0E7
:101E6000BA2C372D03C0BA2C01C0B52C34FF0DC0DD
:101E7000FE01EA0DF11D8081803311F4397E09C025
:101E800032FF06C0B394B39404C0832F867809F060
:101E9000B39433FD13C030FF06C05A2CB31418F4AA
:101EA000530C5B18B32CB31468F4B70180E290E0D4
:101EB0003C870E94C30FB3943C85F5CFB31410F454
:101EC0003B1801C0312C34FF12C0B70180E390E011
:101ED0003C870E94C30F3C8532FF17C031FD03C011
:101EE00088E790E002C088E590E0B7010CC0832F3E
:101EF000867859F031FF02C08BE201C080E237FDE5
:101F00008DE2B70190E00E94C30FA51438F4B70129
:101F100080E390E00E94C30F5A94F7CFAA94F40193
:101F2000EA0DF11D8081B70190E00E94C30FA1105E
:101F3000F5CF332009F451CEB70180E290E00E9442
:101F4000C30F3A94F6CFF7018681978102C08FEFD5
:101F50009FEF2C96E2E10C94A710FC0105906150D4
:101F600070400110D8F7809590958E0F9F1F0895AF
:101F7000FC016150704001900110D8F78095909558
:101F80008E0F9F1F08950F931F93CF93DF93FB0135
:101F9000238121FD03C08FEF9FEF28C022FF16C0D1
:101FA00046815781248135814217530744F4A0812B
:101FB000B1819D012F5F3F4F318320838C93268118
:101FC00037812F5F3F4F3783268310C0EB01092FE6
:101FD000182F0084F185E02D0995892BE1F68E817B
:101FE0009F8101969F838E83812F902FDF91CF91C8
:101FF0001F910F910895FA01AA27283051F120313D
:1020000081F1E8946F936E7F6E5F7F4F8F4F9F4F8C
:10201000AF4FB1E03ED0B4E03CD0670F781F891FCE
:102020009A1FA11D680F791F8A1F911DA11D6A0F9C
:10203000711D811D911DA11D20D009F468943F914F
:102040002AE0269F11243019305D3193DEF6CF014E
:102050000895462F4770405D4193B3E00FD0C9F714
:10206000F6CF462F4F70405D4A3318F0495D31FD81
:102070004052419302D0A9F7EACFB4E0A6959795D4
:10208000879577956795BA95C9F7009761057105AA
:1020900008959B01AC010A2E0694579547953795F4
:1020A0002795BA95C9F7620F731F841F951FA01D4E
:1020B0000895052E97FB1EF400940E94701057FDA2
:1020C00007D00E94C21007FC03D04EF40C9470108D
:1020D00050954095309521953F4F4F4F5F4F089554
:1020E00090958095709561957F4F8F4F9F4F089584
:1020F0000E94E410A59F900DB49F900DA49F800DA9
:10210000911D11240895B7FF0C9478100E94781047
:10211000821B930B08952F923F924F925F926F9282
:102120007F928F929F92AF92BF92CF92DF92EF9267
:10213000FF920F931F93CF93DF93CDB7DEB7CA1BE8
:10214000DB0B0FB6F894DEBF0FBECDBF09942A8813
:10215000398848885F846E847D848C849B84AA84BB
:10216000B984C884DF80EE80FD800C811B81AA8148
:10217000B981CE0FD11D0FB6F894DEBF0FBECDBF13
:10218000ED010895A1E21A2EAA1BBB1BFD010DC093
:10219000AA1FBB1FEE1FFF1FA217B307E407F50717
:1021A00020F0A21BB30BE40BF50B661F771F881FF3
:1021B000991F1A9469F760957095809590959B0189
:1021C000AC01BD01CF010895A29FB001B39FC00132
:1021D000A39F700D811D1124911DB29F700D811D53
:0A21E0001124911D0895F894FFCF1B
:1021EA000000000200000000C30500000000001209
:1021FA000010010000000200000000DB07000000E0
:10220A00000000000200000000C3050000000026D4
:10221A00033603A80345034C031C043603AF03B17A
:10222A0003B3031C041C04A803AF03B103B303B52F
:10223A00031C04B7035403B103B303B50339034CB6
:10224A0003BF036603CB03D503DF030000000200CC
:10225A00000000C305000000000000400420000147
:10226A0000000053454E5420646174613A202530C1
:10227A0034752C20616464726573733A2025303496
:10228A0058200A0D00524543454956454420646189
:10229A0074613A20253034752C2061646472657348
:1022AA00733A2025303458200A0D00537461727431
:1022BA00696E67205352414D20746573742E2E2E19
:1022CA002564200A0D00577269746520706861736D
:1022DA0065206572726F723A206578745F72616DFB
:1022EA005B25645D203D2025303258202873686FB5
:1022FA00756C642062652025303258290A0D005217
:10230A00657472696576616C2070686173652065B1
:10231A0072726F723A206578745F72616D5B2534F0
:10232A00645D203D2025303258202873686F756C13
:10233A00642062652025303258290A0D0053524123
:10234A004D207465737420636F6D706C6574656479
:10235A0020776974680A0D253464206572726F7279
:10236A007320696E2077726974652070686173657D
:10237A0020616E640A0D253464206572726F72736F
:10238A0020696E2072657472696576616C20706866
:10239A00617365200A200A0D004C4546542F5249A4
:1023AA0047485420534944453A2025346420202084
:1023BA00202000444F574E2F555020534944453A48
:1023CA002025346420202020200A0D00444952454B
:1023DA004354494F4E3A202564200A0D00536C6934
:1023EA00646572204C4546543A2025346420200006
:1023FA00536C696465722052494748543A2025341F
:10240A0064200A0A0D002D2D2D4D61696E204D653F
:10241A006E752D2D2D0047616D65004869676873DB
:10242A00636F726500457874726173004F707469E6
:10243A006F6E730053637265656E736176657200C1
:10244A00536F6E6773004272696768746E6573735F
:10245A0000706F696E74657255503A202534642095
:10246A002020202000706F696E7465724C523A20E9
:10247A00253464200A0D006D656E4E756D3A20256F
:10248A00346420202020200053636F72657300613A
:10249A00006200630064004861636B696E67004311
:1024AA0068616E676520666F6E7400737562325F6D
:1024BA006F70743300737562325F6F7074340073B7
:1024CA007562325F6F707435004D43503235313565
:1024DA00206973204E4F5420696E20636F6E6669BF
:1024EA006775726174696F6E206D6F6465206166CD
:0E24FA00746572207265736574210D0A00000E
:00000001FF
