:100000000C9460050C947D050C947D050C947D0585
:100010000C947D050C947D050C947D050C947D0558
:100020000C947D050C947D050C947D050C947D0548
:100030000C947D050C947D050C947D050C947D0538
:100040000C947D050C947D050C947D050C947D0528
:100050000C947D050C947D050C947D050C947D0518
:100060000C947D050C947D050C947D050C947D0508
:100070000000000000000000000000000000000080
:100080000000000000000000000000000000000070
:100090000000000000000000000000000000000060
:1000A0000000000000000000000000000000000050
:1000B000C0C0C0C0C0C0C0C0C0C0000000000000C0
:1000C0000000000000000000000000000000000030
:1000D000000000000000C0C0C0C0C0C0C0C0C0C0A0
:1000E000C000000000000000000000000000000050
:1000F000000000000000000000C0C0C0F8F8F8F8E0
:10010000F8FEFEFEFEFEFEFEFEFEFEFEFEFEFEFE15
:10011000FEF8F8F8F8F8C0C0C000000000000000C9
:100120000000000000F8F8F8FEFEFEFEFE3E3E3F36
:100130003F3FFFFFFFFFFFFF3F3F3F3E3EFEFEFE14
:10014000FEFEF8F8F800000000000000F8F8F8FEE5
:10015000FEFEFEFE3E3E3F3F3FFFFFFFFFFFFF3F35
:100160003F3F3E3EFEFEFEFEFEF8F8F800000000B7
:100170000000000038383E3E3EFFFFFFF9F9FFFF68
:10018000FF3F3F3F3939FFFFFFFFFFFF39393F3F57
:100190003FFFFFFFF9F9FFFFFF3E3E3E383800000A
:1001A0000000000000070707C7C7FFFFFF3E3E3EF5
:1001B0003E3ECFC7C7C7C7CF3E3E3E3E3EFFFFFFD6
:1001C000C7C7070707000000000000000707070770
:1001D00007C7C7C7FEFEFE3E3ECFC7C7C7C7CF3E55
:1001E0003EFEFEFEC7C7C70707070707000000005F
:1001F00000000000000000000001010107070101EC
:1002000001000000000000010101010000000000E9
:1002100000010101070701010100000000000000CA
:1002200000000000000000000101070707060606A5
:100230000000000101010100000006060607070793
:100240000101000000000000000000000606060694
:10025000060101010101000000000101010100008F
:10026000000001010101010606060606000000006B
:1002700000000000000000000000181818E0E00076
:1002800000000000000000C0E0E0181818000000A6
:100290000000000000000000C0E0E00000001818AE
:1002A000E0E0E00000000000000000E0E0E01818DE
:1002B000000000E0E0C000000000000000000000BE
:1002C00000E0E0E0F8F8F8F8F8E0E0C00000000036
:1002D000000000000000000000000000E0E0F8F86E
:1002E000F8F8F8F8E0E0000000000000000000006E
:1002F0000000000000E0E0F8F8F8FFFFFFE7E7FF8C
:10030000FFFFFFFFFFFFFFE7E7E7FFFFFFF8F8E072
:10031000E0E0000000000000FFFFFFF8F8FCFFFF36
:10032000E7E7E7FFFFFFFFFFFFFFFFE7E7E7FFFF6D
:10033000FCF8F8FFFFFF000000000000F8F8FFFFE6
:10034000FFE7E7E7FFFFFFFFFFE7E7E7FFFFFCF857
:10035000F80000000000F8F8F8FFFFFFE7E7FFFFF4
:10036000FFFFFFFFE7E7FFFFFFF8F8F800000000DE
:1003700000000000001F1F0000001F1F1FE7E7E72D
:10038000E7E7070707E7E7E7E7E71F1F1F00001F8B
:100390001F1F000000000000000000E7E7E71F1F2C
:1003A00007070707070707070707070707071F1FAD
:1003B000E7E7E70000000000000000001818E7E78A
:1003C000E70000000707070707000000E7E7181825
:1003D000180000000000C0E0E0181818E7E718183F
:1003E00018181818E7E7181818E0E0C00000000017
:1003F00000000000000000000000000000000000FD
:1004000000000000000000000000000000000000EC
:1004100000000000000000000000000000000000DC
:1004200000000000000000000000000000000000CC
:1004300000000000000000000000000000000000BC
:1004400000000000000000000000000000000000AC
:10045000000000000000000000000000000000009C
:10046000000000000000000000000000000000008C
:1004700000000000005C00000C000C007C287C28C0
:1004800058DC68002410480028542840000C000064
:10049000007884008478000054385400107C1000E8
:1004A00080400000101010000040000060100C00A0
:1004B00038543800487C40004864580044542C00AC
:1004C0001C107C005C5424003854240064140C007C
:1004D00068542C0048543800004800008048000050
:1004E000102844002828280044281000045408003C
:1004F00038445C00781478007C5428003844280084
:100500007C4438007C5444007C140400384474005B
:100510007C107C00447C440020403C007C106C003B
:100520007C4040007C187C0078103C003844380047
:100530007C1408003844B8007C1468004854240037
:10054000047C04007C407C003C603C007C307C00EF
:100550006C106C000C700C0064544C00007C440067
:100560000C106000447C00000804080080808000BB
:1005700000040800304878007C48300030484800CB
:1005800030487C00306850001078140090A8780043
:100590007C08700050744000808074007C106800FB
:1005A000447C4000781078007808700030483000B3
:1005B000F82810003048F80078100800505828003B
:1005C000083C4800384078003840380078207800EF
:1005D0004830480098A07800486858001078840097
:1005E000007C00008478100008040804000000006B
:1005F0000000005F00000007000700147F147F1454
:10060000242A7F2A12231308646236495522500097
:1006100005030000001C2241000041221C00082AA2
:100620001C2A0808083E0808005030000008080886
:100630000808006060000020100804023E5149458F
:100640003E00427F400042615149462141454B31C5
:100650001814127F1027454545393C4A4949300155
:10066000710905033649494936064949291E0036AC
:1006700036000000563600000008142241141414FD
:10068000141441221408000201510906324979412B
:100690003E7E1111117E7F494949363E414141223A
:1006A0007F4141221C7F494949417F090901013E9F
:1006B000414151327F0808087F00417F41002040BE
:1006C000413F017F081422417F404040407F0204A7
:1006D000027F7F0408107F3E4141413E7F090909A6
:1006E000063E4151215E7F09192946464949493153
:1006F00001017F01013F4040403F1F2040201F7FFC
:100700002018207F631408146303047804036151E4
:1007100049454300007F4141020408102041417FC8
:100720000000040201020440404040400001020475
:100730000020545454787F4844443838444444207A
:10074000384444487F3854545418087E090102083C
:100750001454543C7F0804047800447D4000204039
:10076000443D00007F10284400417F40007C041875
:1007700004787C0804047838444444387C14141405
:1007800008081414187C7C080404084854545420A5
:10079000043F4440203C4040207C1C2040201C3C26
:1007A0004030403C44281028440C5050503C446495
:1007B000544C44000836410000007F0000004136E0
:1007C0000800020103020100000000000000000018
:1007D000065F5F060000000007070007070000141F
:1007E0007F7F147F7F1400242E6B6B3A120000462B
:1007F0006630180C666200307A4F5D377A48000424
:1008000007030000000000001C3E634100000000E0
:1008100041633E1C000000082A3E1C1C3E2A0808BA
:10082000083E3E0808000000A0E06000000000084C
:100830000808080808000000006060000000006070
:1008400030180C060301003E7F594D7F3E000042E8
:10085000427F7F40400000627359496F660000226A
:100860006349497F360000181C16137F7F1000274C
:100870006745457D3900003C7E4B497930000003D7
:100880006371190F070000367F49497F3600000663
:100890004F49693F1E000000006C6C000000000022
:1008A000A0EC6C00000000081C366341000000143E
:1008B00014141414140000004163361C08000002D4
:1008C0000351590F0600003E7F415D5D1F1E007CF5
:1008D0007E13137E7C0000417F7F49497F36001CD8
:1008E0003E634141632200417F7F41637F1C0041A1
:1008F0007F7F495D416300417F7F491D0103001CEB
:100900003E6341517372007F7F08087F7F000000C3
:10091000417F7F41000000307040417F3F01004136
:100920007F7F081C776300417F7F41406070007FBC
:100930007F060C067F7F007F7F060C187F7F001CE0
:100940003E6341633E1C00417F7F49090F06001E44
:100950003F21717F5E0000417F7F19396F4600267D
:10096000674D597B32000003417F7F410300007FC8
:100970007F40407F7F00001F3F60603F1F00007F7F
:100980007F3018307F7F0063771C081C7763000777
:100990004F78784F0700006773594D476371000027
:1009A0007F7F41410000000103060C183060000009
:1009B00041417F7F000000080C0603060C08008000
:1009C0008080808080808000000307040000002079
:1009D0007454543C784000413F7F44447C38003894
:1009E0007C44446C280000307848493F7F40003800
:1009F0007C54545C180000487E7F49030200009834
:100A0000BCA4A4F87C0400417F7F08047C7800002B
:100A1000447D7D4000000040C484FD7D0000004115
:100A20007F7F10386C440000417F7F400000007CD5
:100A30007C0C180C7C78007C7C04047C78000038EA
:100A40007C44447C38000084FCF8A4243C18001842
:100A50003C24A4F8FC8400447C78441C1800004822
:100A60005C54547424000000043E7F442400003C85
:100A70007C40403C7C40001C3C60603C1C00003CD6
:100A80007C6030607C3C00446C3810386C44009CC6
:100A9000BCA0A0FC7C00004C64745C4C64000008AA
:100AA000083E7741410000000000777700000041D8
:100AB00041773E0808000002030103020301000021
:100AC00011241FBECFEFD4E0DEBFCDBF12E0A0E007
:100AD000B1E0ECEAFEE102C005900D92AE3EB10736
:100AE000D9F723E0AEEEB2E001C01D92A434B20704
:100AF000E1F70E947F050C94540F0C9400008FE1E5
:100B000090E00E94BA050E94C5050E94C1050E949E
:100B1000CB050E94B0060E94CB0684E00E94BE0670
:100B200090E00E94CE069093F1028093F00285E05F
:100B30000E94BE0690E00E94CE069093EF02809342
:100B4000EE020E9404080E94EA090E94EF090E9436
:100B5000FD092FEF8FE791E0215080409040E1F7B1
:100B600000C000C0F6CFB89AC09A0895C098089502
:100B7000C09A089590BD89B988E18AB98EE880BD90
:100B800008955D9BFECF8CB908958CB18CB1809394
:100B9000F6028CB1089585B7806885BF80B7806202
:100BA00080BF0895FB01F85E80837F936F939F93CE
:100BB0008F9389E391E09F938F9380E091E09F93DF
:100BC0008F930E942A0C8DB79EB708960FB6F894A3
:100BD0009EBF0FBE8DBF0895CF93FC01F85EC0810C
:100BE0009F938F931F92CF938BE591E09F938F9369
:100BF00080E091E09F938F930E942A0C8DB79EB75F
:100C000008960FB6F8949EBF0FBE8DBF8C2FCF9164
:100C10000895AF92BF92CF92DF92EF92FF920F931F
:100C20001F93CF93DF9381E891E09F938F9380E0B0
:100C300091E09F938F930E942A0C0E941A0C6C01E2
:100C40000E941F0C0F900F900F900F90A12CB12CB1
:100C5000C0E0D0E00F2EFCE9EF2EF1E0FF2EF02DEA
:100C600000E011E00E941A0CF501F85E80832081FB
:100C70002817B1F099279F938F931F922F93BF92BC
:100C8000AF92FF92EF921F930F930E942A0C21962E
:100C90008DB79EB70A960FB6F8949EBF0FBE8DBF54
:100CA0009FEFA91AB90AA11488E0B806D9F6C601BF
:100CB0000E941F0C00E010E0E12CF12C0F2EF5ED4E
:100CC000AF2EF1E0BF2EF02D0F2EF0E0CF2EF1E091
:100CD000DF2EF02D0E941A0CF801F85E20812817F3
:100CE000C1F099279F938F931F922F931F930F9378
:100CF000BF92AF92DF92CF920E942A0C9FEFE91A27
:100D0000F90A8DB79EB70A960FB6F8949EBF0FBE2C
:100D10008DBF0F5F1F4F011598E01907D9F6FF929D
:100D2000EF92DF93CF9383E192E09F938F9380E0E4
:100D300091E09F938F930E942A0C8DB79EB70896DF
:100D40000FB6F8949EBF0FBE8DBFDF91CF911F915C
:100D50000F91FF90EF90DF90CF90BF90AF900895EC
:100D600085B7806885BF80B7806280BF309886B7BE
:100D7000816086BF8BB780628BBF08950000E82F2B
:100D8000F0E0FC5E80832899FECF84E18A95F1F73C
:100D9000809100140895B89AB99A089508951F9300
:100DA000CF93DF93FB01C7EFD2E0BC01641B750B4F
:100DB00014E6169FC001179F900D1124BA010E94DE
:100DC000790A79836883E21BF30B1E9FC0011F9F82
:100DD000900D1124B9010E94790A7B836A83609186
:100DE000F7027091F8028091F9029091FA02DF9176
:100DF000CF911F9108958F3B91058CF16F3B710549
:100E00008CF0681779073CF481E090E090933D0303
:100E100080933C03089582E090E090933D0380939B
:100E20003C030895603471059CF4660F771F6817C2
:100E300079073CF481E090E090933D0380933C037C
:100E4000089584E090E090933D0380933C030895DF
:100E500081E090E090933D0380933C0308958034BB
:100E600091058CF56F3B71059CF0880F991F6817F1
:100E700079073CF483E090E090933D0380933C033A
:100E8000089582E090E090933D0380933C030895A1
:100E9000603471058CF4681779073CF483E090E0C6
:100EA00090933D0380933C03089584E090E09093F9
:100EB0003D0380933C03089583E090E090933D03CD
:100EC00080933C0308956F3B71053CF082E090E015
:100ED00090933D0380933C030895603471053CF486
:100EE00084E090E090933D0380933C03089510923A
:100EF0003D0310923C0308950895E0911001F09194
:100F0000110180830895E0910E01F0910F0180831B
:100F10000895082E000C990B8097880F991F880F51
:100F2000991F880F991FFC01E953F84F8153984F7F
:100F30002491A0910E01B0910F012C933196E817E6
:100F4000F907B1F70895CF93DF93EC0188818823E7
:100F500031F021960E94890789918111FBCFDF91A1
:100F6000CF9108958093FC02883088F48055E091F9
:100F70001001F09111018083E0911001F0911101B5
:100F80001082E0911001F091110180E180830895B9
:100F90008093FB0288237CF0982F9F7082958F703E
:100FA000805FE0911001F09111019083E0911001B8
:100FB000F091110180830895CF93C62F0E94B2074C
:100FC0008C2F0E94C807CF9108951092FC021092B6
:100FD000FB0260E080E00E94DC0708950E94B207F7
:100FE00080E0E0910E01F0910F0110828F5F803858
:100FF000C1F70895CF93C0E08C2F0E94EE07CF5F1A
:10100000C830D1F7CF910895E0911001F09111010E
:101010008EEA8083E0911001F091110181EA8083D2
:10102000E0911001F09111018AED8083E0911001AF
:10103000F091110182E18083E0911001F0911101A2
:1010400088EC8083E0911001F091110188EA80839F
:10105000E0911001F09111018FE38083E091100184
:10106000F091110185ED8083E0911001F091110163
:1010700080E88083E0911001F091110181E8808384
:10108000E0911001F091110180E58083E091100161
:10109000F091110189ED8083E0911001F09111012F
:1010A00081E28083E0911001F091110180E2808360
:1010B000E0911001F091110182E08083E091100134
:1010C000F09111018BED8083E0911001F0911101FD
:1010D00080E38083E0911001F09111018DEA80831B
:1010E000E0911001F09111011082E0911001F09156
:1010F000110184EA8083E0911001F091110186EAE8
:101100008083E0911001F09111018FEA8083E091DA
:101110001001F091110180EB8083E0911001F091BA
:1011200011011082E0911001F091110180E18083A2
:101130000E94FA070E94E5070895E0911001F091DE
:10114000110191E89083E0911001F09111018083E9
:1011500008950E94DC07E0910E01F0910F0188E1F3
:101160008083E0910E01F0910F018083E0910E01E8
:10117000F0910F019EE79083E0910E01F0910F0135
:101180009CE39083E0910E01F0910F01808308951C
:101190000E94DC07E0910E01F0910F011082E091B6
:1011A0000E01F0910F011082E0910E01F0910F01FC
:1011B0001082E0910E01F0910F011082E0910E017A
:1011C000F0910F01108208951F93CF93DF930E9437
:1011D000FA07C0E7D0E010E060E0812F0E94DC0752
:1011E0009E0120583F4FFE019491E0910E01F09135
:1011F0000F0190832196C217D307A9F71F5FE9015A
:10120000183051F7DF91CF911F9108950F931F93DD
:10121000CF93DF938C01EB0182E090E00E94A10A62
:10122000FC0111830083D383C28315821482178249
:101230001682DF91CF911F910F910895FC01778362
:1012400066830895FC01758364830895EF92FF928D
:101250001F93CF93DF93EC010E94E5071092FE02EB
:101260001092FD021F921F9289818F9388818F9324
:1012700083E191E09F938F930E942A0C0C80DD8183
:10128000C02D0F900F900F900F900F900F908E81A8
:101290009F81892B71F111E00F2EF3E1EF2EF1E028
:1012A000FF2EF02D8091FD029091FE020196909309
:1012B000FE028093FD0264E1812F0E94DC071F92F1
:1012C0001F9289818F9388818F93FF92EF920E9462
:1012D0002A0C0E80DF81C02D0F900F900F900F9081
:1012E0000F900F908E819F81892B19F01F5F153011
:1012F000C9F6DF91CF911F91FF90EF9008956F9203
:101300007F928F929F92AF92BF92CF92DF92EF9295
:10131000FF920F931F93CF93DF9360E070E08FE60F
:1013200092E00E940609EC01BC018FE792E00E9466
:1013300006095C01BE0184E892E00E9406096C0186
:10134000BE018EE892E00E9406098C01BE0185E98B
:1013500092E00E9406097C01B8018DE992E00E94AA
:1013600006094C01B80189EA92E00E9406093C0195
:10137000B7018FEA92E00E940609BD82AC82F501B6
:10138000D782C682F60117830683F801F782E682C8
:1013900095828482F40177826682F7019583848343
:1013A000D0933F03C0933E03CE010E942609809153
:1013B0003E0390913F03DF91CF911F910F91FF90DA
:1013C000EF90DF90CF90BF90AF909F908F907F90E5
:1013D0006F9008950E94FA070E947F09089580EB9C
:1013E00087BB81E58DB908958FB9779BFECF0895AE
:1013F0001FB8779BFECF8FB108950E942A0A40E460
:1014000060EE8FE00E94610A0895FC0192819923A9
:1014100021F080E08F5F8913FDCF0895C49880ECA0
:101420000E94F409C49A0895C49880EA0E94F409BD
:101430000E94F809C49A0895CF93C82FC49883E0F6
:101440000E94F4098C2F0E94F4090E94F809C49AA2
:10145000CF9108950E94EF090E940E0A8EE00E942B
:101460001C0A807E8038A1F01F921F928AEB92E0C6
:101470009F938F9381E291E09F938F930E942A0C18
:101480000F900F900F900F900F900F9081E00895A4
:1014900080E00895CF93DF93C82FD62FC49882E0C1
:1014A0000E94F4098D2F0E94F4098C2F0E94F409E8
:1014B000C49ADF91CF910895C4980E94F409C49A08
:1014C00008951F93CF93DF93182FD62FC42FC4985E
:1014D00085E00E94F409812F0E94F4098D2F0E945B
:1014E000F4098C2F0E94F409C49ADF91CF911F91C7
:1014F000089597FB072E16F4009407D077FD09D0C6
:101500000E948D0A07FC05D03EF4909581959F4F6F
:101510000895709561957F4F0895AA1BBB1B51E1FB
:1015200007C0AA1FBB1FA617B70710F0A61BB70B53
:10153000881F991F5A95A9F780959095BC01CD01F8
:101540000895CF93DF938230910510F482E090E00C
:10155000E0914203F091430320E030E0C0E0D0E0AE
:10156000309711F14081518148175907C0F0481751
:10157000590761F482819381209719F09B838A83B4
:101580002BC0909343038093420326C0211531055D
:1015900019F04217530718F49A01BE01DF01EF0159
:1015A0000280F381E02DDCCF2115310509F1281BE4
:1015B000390B2430310590F412968D919C9113973C
:1015C0006115710521F0FB019383828304C0909320
:1015D000430380934203FD01329644C0FD01E20FB4
:1015E000F31F81939193225031092D933C933AC07C
:1015F0002091400330914103232B41F4209131018C
:1016000030913201309341032093400320912F0108
:10161000309130012115310541F42DB73EB740918D
:10162000330150913401241B350BE0914003F091BC
:101630004103E217F307A0F42E1B3F0B28173907CD
:1016400078F0AC014E5F5F4F2417350748F04E0F1E
:101650005F1F50934103409340038193919302C0D5
:10166000E0E0F0E0CF01DF91CF9108950F931F9359
:10167000CF93DF93009709F48CC0FC01329713825B
:10168000128200914203109143030115110581F468
:1016900020813181820F931F2091400330914103BB
:1016A0002817390779F5F0934103E093400371C09F
:1016B000D80140E050E0AE17BF0750F412962D91CC
:1016C0003C911397AD012115310509F1D901F3CFF3
:1016D0009D01DA013383228360817181860F971F18
:1016E0008217930769F4EC0128813981260F371F8F
:1016F0002E5F3F4F318320838A819B819383828336
:10170000452B29F4F0934303E093420342C0139620
:10171000FC93EE931297ED01499159919E01240F8C
:10172000351FE217F30771F480819181840F951FB3
:10173000029611969C938E938281938113969C932B
:101740008E931297E0E0F0E0D80112968D919C9173
:101750001397009719F0F8018C01F6CF8D919C91A9
:1017600098012E5F3F4F820F931F209140033091CD
:1017700041032817390769F4309729F4109243037D
:101780001092420302C0138212821093410300930D
:101790004003DF91CF911F910F9108958F929F92F7
:1017A000AF92BF92CF92DF92EF92FF92CF93DF93EF
:1017B000EC01688179818A819B81611571058105C0
:1017C000910521F464E279ED8BE597E02DE133EFAB
:1017D00041E050E00E94BA0E49015A019B01AC0160
:1017E000A7EAB1E40E94D90E6B017C01ACEEB4EF24
:1017F000A50194010E94E70EDC01CB018C0D9D1D1B
:10180000AE1DBF1DB7FF03C00197A109B048888373
:101810009983AA83BB839F77DF91CF91FF90EF904D
:10182000DF90CF90BF90AF909F908F9008950E94CF
:10183000CE0B089585E391E00E94CE0B0895A0E0C1
:10184000B0E08093350190933601A0933701B093B7
:1018500038010895A0E0B0E0E0E3FCE00C94FC0E59
:10186000AE01475F5F4F6F8178858D819E810E94B9
:101870003C0CE2E00C94180FACE0B0E0E2E4FCE0D9
:101880000C94EC0E7C016B018A01FC01178216821C
:10189000838181FFBDC1CE0101964C01F701938187
:1018A000F60193FD859193FF81916F01882309F4DF
:1018B000ABC1853239F493FD859193FF81916F011E
:1018C000853229F4B70190E00E94240EE7CF512C15
:1018D000312C20E02032A0F48B3269F030F48032D9
:1018E00059F0833269F420612CC08D3239F0803395
:1018F00039F4216026C02260246023C0286021C002
:1019000027FD27C030ED380F3A3078F426FF06C0A7
:10191000FAE05F9E300D1124532E13C08AE0389EEA
:10192000300D1124332E20620CC08E3221F426FD9E
:101930006BC1206406C08C3611F4206802C0883662
:1019400041F4F60193FD859193FF81916F0181111F
:10195000C1CF982F9F7D9554933028F40C5F1F4F73
:10196000FFE3F9830DC0833631F0833771F083359F
:1019700009F05BC022C0F801808189830E5F1F4F90
:1019800044244394512C540115C03801F2E06F0EE9
:10199000711CF801A080B18026FF03C0652D70E0A6
:1019A00002C06FEF7FEFC5012C870E94190E2C013A
:1019B00083012C852F77222E17C03801F2E06F0E9D
:1019C000711CF801A080B18026FF03C0652D70E076
:1019D00002C06FEF7FEFC5012C870E940E0E2C0115
:1019E0002C852068222E830123FC1BC0832D90E0D0
:1019F00048165906B0F4B70180E290E00E94240E28
:101A00003A94F4CFF50127FC859127FE81915F017F
:101A1000B70190E00E94240E31103A94F1E04F1A81
:101A200051084114510471F7E5C0843611F089362C
:101A300039F5F80127FF07C06081718182819381A8
:101A40000C5F1F4F08C060817181072E000C880B4E
:101A5000990B0E5F1F4F2F76722E97FF09C090953E
:101A60008095709561957F4F8F4F9F4F2068722EA4
:101A70002AE030E0A4010E945C0EA82EA81844C001
:101A8000853729F42F7EB22E2AE030E025C0F22FD0
:101A9000F97FBF2E8F36C1F018F4883579F0B4C0C5
:101AA000803719F0883721F0AFC02F2F2061B22E78
:101AB000B4FE0DC08B2D8460B82E09C024FF0AC06F
:101AC0009F2F9660B92E06C028E030E005C020E1C7
:101AD00030E002C020E132E0F801B7FE07C06081CB
:101AE0007181828193810C5F1F4F06C0608171817B
:101AF00080E090E00E5F1F4FA4010E945C0EA82EB4
:101B0000A818FB2DFF777F2E76FE0BC0372D3E7F6A
:101B1000A51450F474FE0AC072FC08C0372D3E7E36
:101B200005C0BA2C372D03C0BA2C01C0B52C34FF28
:101B30000DC0FE01EA0DF11D8081803311F4397E64
:101B400009C032FF06C0B394B39404C0832F8678D3
:101B500009F0B39433FD13C030FF06C05A2CB31400
:101B600018F4530C5B18B32CB31468F4B70180E27B
:101B700090E03C870E94240EB3943C85F5CFB314CB
:101B800010F43B1801C0312C34FF12C0B70180E3C0
:101B900090E03C870E94240E3C8532FF17C031FD47
:101BA00003C088E790E002C088E590E0B7010CC070
:101BB000832F867859F031FF02C08BE201C080E2AA
:101BC00037FD8DE2B70190E00E94240EA51438F491
:101BD000B70180E390E00E94240E5A94F7CFAA94B4
:101BE000F401EA0DF11D8081B70190E00E94240EFE
:101BF000A110F5CF332009F451CEB70180E290E077
:101C00000E94240E3A94F6CFF7018681978102C094
:101C10008FEF9FEF2C96E2E10C94080FFC010590EA
:101C2000615070400110D8F7809590958E0F9F1FDE
:101C30000895FC016150704001900110D8F7809523
:101C400090958E0F9F1F08950F931F93CF93DF934F
:101C5000FB01238121FD03C08FEF9FEF28C022FFEE
:101C600016C046815781248135814217530744F4B9
:101C7000A081B1819D012F5F3F4F318320838C93E1
:101C8000268137812F5F3F4F3783268310C0EB01BA
:101C9000092F182F0084F185E02D0995892BE1F695
:101CA0008E819F8101969F838E83812F902FDF915C
:101CB000CF911F910F910895FA01AA27283051F171
:101CC000203181F1E8946F936E7F6E5F7F4F8F4F6D
:101CD0009F4FAF4FB1E03ED0B4E03CD0670F781FCC
:101CE000891F9A1FA11D680F791F8A1F911DA11DB1
:101CF0006A0F711D811D911DA11D20D009F46894EA
:101D00003F912AE0269F11243019305D3193DEF691
:101D1000CF010895462F4770405D4193B3E00FD047
:101D2000C9F7F6CF462F4F70405D4A3318F0495D32
:101D300031FD4052419302D0A9F7EACFB4E0A69515
:101D40009795879577956795BA95C9F70097610537
:101D5000710508959B01AC010A2E0694579547958D
:101D600037952795BA95C9F7620F731F841F951F82
:101D7000A01D0895052E97FB1EF400940E94D10E1D
:101D800057FD07D00E94230F07FC03D04EF40C949C
:101D9000D10E50954095309521953F4F4F4F5F4F55
:101DA000089590958095709561957F4F8F4F9F4FC7
:101DB00008950E94450FA59F900DB49F900DA49F7C
:101DC000800D911D11240895B7FF0C94D90E0E9427
:101DD000D90E821B930B08952F923F924F925F92E0
:101DE0006F927F928F929F92AF92BF92CF92DF922B
:101DF000EF92FF920F931F93CF93DF93CDB7DEB790
:101E0000CA1BDB0B0FB6F894DEBF0FBECDBF099423
:101E10002A88398848885F846E847D848C849B847A
:101E2000AA84B984C884DF80EE80FD800C811B8188
:101E3000AA81B981CE0FD11D0FB6F894DEBF0FBEB7
:101E4000CDBFED010895A1E21A2EAA1BBB1BFD0117
:101E50000DC0AA1FBB1FEE1FFF1FA217B307E40789
:101E6000F50720F0A21BB30BE40BF50B661F771FE1
:101E7000881F991F1A9469F76095709580959095C1
:101E80009B01AC01BD01CF010895A29FB001B39F9A
:101E9000C001A39F700D811D1124911DB29F700D73
:0C1EA000811D1124911D0895F894FFCFBE
:101EAC000000000200000000C1050000000000124C
:101EBC000010010000000200000000890700000073
:101ECC00000000000200000000C10500000000003E
:101EDC0000440320000100000053454E542064616F
:101EEC0074613A20253034752C20616464726573FA
:101EFC00733A2025303458200A0D00524543454989
:101F0C0056454420646174613A20253034752C2088
:101F1C00616464726573733A2025303458200A0D5D
:101F2C00005374617274696E67205352414D207472
:101F3C006573742E2E2E2564200A0D005772697459
:101F4C0065207068617365206572726F723A2065E6
:101F5C0078745F72616D5B25645D203D20253032A5
:101F6C0058202873686F756C6420626520253032A8
:101F7C0058290A0D0052657472696576616C20707F
:101F8C0068617365206572726F723A206578745F50
:101F9C0072616D5B2534645D203D20253032582004
:101FAC002873686F756C642062652025303258295F
:101FBC000A0D005352414D207465737420636F6D8C
:101FCC00706C6574656420776974680A0D253464D7
:101FDC00206572726F727320696E207772697465F6
:101FEC0020706861736520616E640A0D253464206D
:101FFC006572726F727320696E2072657472696596
:10200C0076616C207068617365200A200A0D002DC2
:10201C002D2D4D61696E204D656E752D2D2D004752
:10202C00616D65004869676873636F726500457818
:10203C0074726173004F7074696F6E7300536372C6
:10204C0065656E736176657200536F6E67730042DF
:10205C0072696768746E657373004D435032353125
:10206C0035206973204E4F5420696E20636F6E6665
:10207C00696775726174696F6E206D6F646520613C
:0E208C0066746572207265736574210D0A001A
:00000001FF
