:100000000C9460050C947D050C947D050C947D0585
:100010000C947D050C947D050C947D050C947D0558
:100020000C947D050C947D050C947D050C947D0548
:100030000C947D050C947D050C947D050C947D0538
:100040000C947D050C947D050C947D050C947D0528
:100050000C947D050C947D050C947D050C947D0518
:100060000C947D050C947D050C947D050C947D0508
:100070000000000000000000000000000000000080
:100080000000000000000000000000000000000070
:100090000000000000000000000000000000000060
:1000A0000000000000000000000000000000000050
:1000B000C0C0C0C0C0C0C0C0C0C0000000000000C0
:1000C0000000000000000000000000000000000030
:1000D000000000000000C0C0C0C0C0C0C0C0C0C0A0
:1000E000C000000000000000000000000000000050
:1000F000000000000000000000C0C0C0F8F8F8F8E0
:10010000F8FEFEFEFEFEFEFEFEFEFEFEFEFEFEFE15
:10011000FEF8F8F8F8F8C0C0C000000000000000C9
:100120000000000000F8F8F8FEFEFEFEFE3E3E3F36
:100130003F3FFFFFFFFFFFFF3F3F3F3E3EFEFEFE14
:10014000FEFEF8F8F800000000000000F8F8F8FEE5
:10015000FEFEFEFE3E3E3F3F3FFFFFFFFFFFFF3F35
:100160003F3F3E3EFEFEFEFEFEF8F8F800000000B7
:100170000000000038383E3E3EFFFFFFF9F9FFFF68
:10018000FF3F3F3F3939FFFFFFFFFFFF39393F3F57
:100190003FFFFFFFF9F9FFFFFF3E3E3E383800000A
:1001A0000000000000070707C7C7FFFFFF3E3E3EF5
:1001B0003E3ECFC7C7C7C7CF3E3E3E3E3EFFFFFFD6
:1001C000C7C7070707000000000000000707070770
:1001D00007C7C7C7FEFEFE3E3ECFC7C7C7C7CF3E55
:1001E0003EFEFEFEC7C7C70707070707000000005F
:1001F00000000000000000000001010107070101EC
:1002000001000000000000010101010000000000E9
:1002100000010101070701010100000000000000CA
:1002200000000000000000000101070707060606A5
:100230000000000101010100000006060607070793
:100240000101000000000000000000000606060694
:10025000060101010101000000000101010100008F
:10026000000001010101010606060606000000006B
:1002700000000000000000000000181818E0E00076
:1002800000000000000000C0E0E0181818000000A6
:100290000000000000000000C0E0E00000001818AE
:1002A000E0E0E00000000000000000E0E0E01818DE
:1002B000000000E0E0C000000000000000000000BE
:1002C00000E0E0E0F8F8F8F8F8E0E0C00000000036
:1002D000000000000000000000000000E0E0F8F86E
:1002E000F8F8F8F8E0E0000000000000000000006E
:1002F0000000000000E0E0F8F8F8FFFFFFE7E7FF8C
:10030000FFFFFFFFFFFFFFE7E7E7FFFFFFF8F8E072
:10031000E0E0000000000000FFFFFFF8F8FCFFFF36
:10032000E7E7E7FFFFFFFFFFFFFFFFE7E7E7FFFF6D
:10033000FCF8F8FFFFFF000000000000F8F8FFFFE6
:10034000FFE7E7E7FFFFFFFFFFE7E7E7FFFFFCF857
:10035000F80000000000F8F8F8FFFFFFE7E7FFFFF4
:10036000FFFFFFFFE7E7FFFFFFF8F8F800000000DE
:1003700000000000001F1F0000001F1F1FE7E7E72D
:10038000E7E7070707E7E7E7E7E71F1F1F00001F8B
:100390001F1F000000000000000000E7E7E71F1F2C
:1003A00007070707070707070707070707071F1FAD
:1003B000E7E7E70000000000000000001818E7E78A
:1003C000E70000000707070707000000E7E7181825
:1003D000180000000000C0E0E0181818E7E718183F
:1003E00018181818E7E7181818E0E0C00000000017
:1003F00000000000000000000000000000000000FD
:1004000000000000000000000000000000000000EC
:1004100000000000000000000000000000000000DC
:1004200000000000000000000000000000000000CC
:1004300000000000000000000000000000000000BC
:1004400000000000000000000000000000000000AC
:10045000000000000000000000000000000000009C
:10046000000000000000000000000000000000008C
:1004700000000000005C00000C000C007C287C28C0
:1004800058DC68002410480028542840000C000064
:10049000007884008478000054385400107C1000E8
:1004A00080400000101010000040000060100C00A0
:1004B00038543800487C40004864580044542C00AC
:1004C0001C107C005C5424003854240064140C007C
:1004D00068542C0048543800004800008048000050
:1004E000102844002828280044281000045408003C
:1004F00038445C00781478007C5428003844280084
:100500007C4438007C5444007C140400384474005B
:100510007C107C00447C440020403C007C106C003B
:100520007C4040007C187C0078103C003844380047
:100530007C1408003844B8007C1468004854240037
:10054000047C04007C407C003C603C007C307C00EF
:100550006C106C000C700C0064544C00007C440067
:100560000C106000447C00000804080080808000BB
:1005700000040800304878007C48300030484800CB
:1005800030487C00306850001078140090A8780043
:100590007C08700050744000808074007C106800FB
:1005A000447C4000781078007808700030483000B3
:1005B000F82810003048F80078100800505828003B
:1005C000083C4800384078003840380078207800EF
:1005D0004830480098A07800486858001078840097
:1005E000007C00008478100008040804000000006B
:1005F0000000005F00000007000700147F147F1454
:10060000242A7F2A12231308646236495522500097
:1006100005030000001C2241000041221C00082AA2
:100620001C2A0808083E0808005030000008080886
:100630000808006060000020100804023E5149458F
:100640003E00427F400042615149462141454B31C5
:100650001814127F1027454545393C4A4949300155
:10066000710905033649494936064949291E0036AC
:1006700036000000563600000008142241141414FD
:10068000141441221408000201510906324979412B
:100690003E7E1111117E7F494949363E414141223A
:1006A0007F4141221C7F494949417F090901013E9F
:1006B000414151327F0808087F00417F41002040BE
:1006C000413F017F081422417F404040407F0204A7
:1006D000027F7F0408107F3E4141413E7F090909A6
:1006E000063E4151215E7F09192946464949493153
:1006F00001017F01013F4040403F1F2040201F7FFC
:100700002018207F631408146303047804036151E4
:1007100049454300007F4141020408102041417FC8
:100720000000040201020440404040400001020475
:100730000020545454787F4844443838444444207A
:10074000384444487F3854545418087E090102083C
:100750001454543C7F0804047800447D4000204039
:10076000443D00007F10284400417F40007C041875
:1007700004787C0804047838444444387C14141405
:1007800008081414187C7C080404084854545420A5
:10079000043F4440203C4040207C1C2040201C3C26
:1007A0004030403C44281028440C5050503C446495
:1007B000544C44000836410000007F0000004136E0
:1007C0000800020103020100000000000000000018
:1007D000065F5F060000000007070007070000141F
:1007E0007F7F147F7F1400242E6B6B3A120000462B
:1007F0006630180C666200307A4F5D377A48000424
:1008000007030000000000001C3E634100000000E0
:1008100041633E1C000000082A3E1C1C3E2A0808BA
:10082000083E3E0808000000A0E06000000000084C
:100830000808080808000000006060000000006070
:1008400030180C060301003E7F594D7F3E000042E8
:10085000427F7F40400000627359496F660000226A
:100860006349497F360000181C16137F7F1000274C
:100870006745457D3900003C7E4B497930000003D7
:100880006371190F070000367F49497F3600000663
:100890004F49693F1E000000006C6C000000000022
:1008A000A0EC6C00000000081C366341000000143E
:1008B00014141414140000004163361C08000002D4
:1008C0000351590F0600003E7F415D5D1F1E007CF5
:1008D0007E13137E7C0000417F7F49497F36001CD8
:1008E0003E634141632200417F7F41637F1C0041A1
:1008F0007F7F495D416300417F7F491D0103001CEB
:100900003E6341517372007F7F08087F7F000000C3
:10091000417F7F41000000307040417F3F01004136
:100920007F7F081C776300417F7F41406070007FBC
:100930007F060C067F7F007F7F060C187F7F001CE0
:100940003E6341633E1C00417F7F49090F06001E44
:100950003F21717F5E0000417F7F19396F4600267D
:10096000674D597B32000003417F7F410300007FC8
:100970007F40407F7F00001F3F60603F1F00007F7F
:100980007F3018307F7F0063771C081C7763000777
:100990004F78784F0700006773594D476371000027
:1009A0007F7F41410000000103060C183060000009
:1009B00041417F7F000000080C0603060C08008000
:1009C0008080808080808000000307040000002079
:1009D0007454543C784000413F7F44447C38003894
:1009E0007C44446C280000307848493F7F40003800
:1009F0007C54545C180000487E7F49030200009834
:100A0000BCA4A4F87C0400417F7F08047C7800002B
:100A1000447D7D4000000040C484FD7D0000004115
:100A20007F7F10386C440000417F7F400000007CD5
:100A30007C0C180C7C78007C7C04047C78000038EA
:100A40007C44447C38000084FCF8A4243C18001842
:100A50003C24A4F8FC8400447C78441C1800004822
:100A60005C54547424000000043E7F442400003C85
:100A70007C40403C7C40001C3C60603C1C00003CD6
:100A80007C6030607C3C00446C3810386C44009CC6
:100A9000BCA0A0FC7C00004C64745C4C64000008AA
:100AA000083E7741410000000000777700000041D8
:100AB00041773E0808000002030103020301000021
:100AC00011241FBECFEFD4E0DEBFCDBF13E0A0E006
:100AD000B1E0E4EFF0E202C005900D92AA39B1074F
:100AE000D9F723E0AAE9B3E001C01D92A33FB20702
:100AF000E1F70E947F050C9478100C940000CF93CE
:100B0000DF93CDB7DEB72A970FB6F894DEBF0FBEDE
:100B1000CDBF8FE190E00E94D1050E94DC050E94CC
:100B2000D8050E94DE050E94D1060E94EC0684E0F2
:100B30000E94DF0690E00E94EF0690939D03809351
:100B40009C0385E00E94DF0690E00E94EF069093F0
:100B50009B0380939A030E946D080E94530A0E948F
:100B6000580A0E94660A8AE0E7E4F1E0DE01119685
:100B700001900D928A95E1F7CE0101960E946E0ACE
:100B80002FEF8FE797E0215080409040E1F700C0C1
:100B90000000F2CFB89AC09A0895C0980895C09AFC
:100BA000089590BD89B988E18AB98EE880BD08951D
:100BB0005D9BFECF8CB908958CB1089585B7806890
:100BC00085BF80B7806280BF0895FB01F85E808397
:100BD0007F936F939F938F9381E591E09F938F9382
:100BE00080E091E09F938F930E94380D8DB79EB760
:100BF00008960FB6F8949EBF0FBE8DBF0895CF9391
:100C0000FC01F85EC0819F938F931F92CF9383E77F
:100C100091E09F938F9380E091E09F938F930E9448
:100C2000380D8DB79EB708960FB6F8949EBF0FBECD
:100C30008DBF8C2FCF9108957F928F929F92AF920C
:100C4000BF92CF92DF92EF92FF920F931F93CF93B9
:100C5000DF9389E991E09F938F9380E091E09F93E8
:100C60008F930E94380D0E94280D7C010E942D0D4B
:100C70000F900F900F900F90A12CB12CC12CD12C64
:100C800004EB11E0C0E0D1E00E94280DF501F85E10
:100C9000808320812817C1F099279F938F931F92FB
:100CA0002F93BF92AF921F930F93DF93CF930E9426
:100CB000380D8FEFC81AD80A8DB79EB70A960FB6AF
:100CC000F8949EBF0FBE8DBF9FEFA91AB90AA11459
:100CD00088E0B806C9F6C7010E942D0DC0E0D0E03B
:100CE000A12CB12C0F2EFDEEEF2EF1E0FF2EF02DFA
:100CF0000F2EF0E08F2EF1E09F2EF02D0E94280D98
:100D0000FE01F85E7080781619F18C0111271F938F
:100D10000F931F927F92DF93CF93FF92EF929F9258
:100D20008F920E94380D1F930F931F927F92DF9333
:100D3000CF93FF92EF920E944A0D9FEFA91AB90A32
:100D40008DB79EB742960FB6F8949EBF0FBE8DBF6B
:100D50002196C11598E0D90789F6BF92AF92DF922C
:100D6000CF928BE292E09F938F9380E091E09F93EC
:100D70008F930E94380D8DB79EB708960FB6F894E2
:100D80009EBF0FBE8DBFDF91CF911F910F91FF903E
:100D9000EF90DF90CF90BF90AF909F908F907F901B
:100DA000089585B7806885BF80B7806280BF30981E
:100DB00086B7816086BF8BB780628BBF08950000C5
:100DC000E82FF0E0FC5E80832899FECF84E18A95CD
:100DD000F1F7809100140895B89AB99A089508958A
:100DE0000F931F93CF93DF93FB018901BC01641B19
:100DF000750B24E6269FC001279F900D1124BA0190
:100E00000E94870B362F472FC2EAD3E0688379838D
:100E1000E01BF10B2E9FC0012F9F900D1124B801F4
:100E20000E94870B7B836A834F933F9387E892E00E
:100E30009F938F930E944A0D8B818F938A818F930A
:100E400081EA92E09F938F930E944A0D6091A203E2
:100E50007091A3038091A4039091A5032DB73EB791
:100E6000285F3F4F0FB6F8943EBF0FBE2DBFDF91F6
:100E7000CF911F910F9108958F3B91058CF16F3B9E
:100E800071058CF0681779073CF481E090E090934D
:100E9000E6038093E50370C082E090E09093E60360
:100EA0008093E50369C0603471059CF4660F771F79
:100EB000681779073CF481E090E09093E603809313
:100EC000E5035AC084E090E09093E6038093E50345
:100ED00053C081E090E09093E6038093E5034CC01B
:100EE000803491058CF56F3B71059CF0880F991F3C
:100EF000681779073CF483E090E09093E6038093D1
:100F0000E5033AC082E090E09093E6038093E50326
:100F100033C0603471058CF4681779073CF483E0C2
:100F200090E09093E6038093E50326C084E090E090
:100F30009093E6038093E5031FC083E090E09093D5
:100F4000E6038093E50318C06F3B71053CF082E037
:100F500090E09093E6038093E5030EC06034710542
:100F60003CF484E090E09093E6038093E50304C0B2
:100F70001092E6031092E5038091E6038F9380912F
:100F8000E5038F938AEB92E09F938F930E944A0D23
:100F90000F900F900F900F90089587E090E00E94BF
:100FA000DF069F938F938BEC92E09F938F930E9429
:100FB0004A0D86E090E00E94DF069F938F938EEDAE
:100FC00092E09F938F930E944A0D8DB79EB708962B
:100FD0000FB6F8949EBF0FBE8DBF0895E09110012B
:100FE000F091110180830895E0910E01F0910F01BD
:100FF00080830895082E000C990B8097880F991F05
:10100000880F991F880F991FFC01E953F84F8153EE
:10101000984F2491A0910E01B0910F012C9331961D
:10102000E817F907B1F70895CF93DF93EC018881B2
:10103000882331F021960E94FA0789918111FBCF14
:10104000DF91CF910895883088F48055E0911001A8
:10105000F09111018083E0911001F0911101108253
:10106000E0911001F091110180E1808308958823BF
:101070007CF0982F9F7082958F70805FE0911001B7
:10108000F09111019083E0911001F09111018083A2
:101090000895CF93C62F0E9423088C2F0E943708F3
:1010A000CF91089560E080E00E94490808950E9471
:1010B000230880E0E0910E01F0910F0110828F5F14
:1010C0008038C1F70895CF93C0E08C2F0E94570855
:1010D000CF5FC830D1F7CF910895E0911001F09122
:1010E00011018EEA8083E0911001F091110181EAF3
:1010F0008083E0911001F09111018AED8083E091ED
:101100001001F091110182E18083E0911001F091D2
:10111000110188EC8083E0911001F091110188EABF
:101120008083E0911001F09111018FE38083E091C1
:101130001001F091110185ED8083E0911001F09193
:10114000110180E88083E0911001F091110181E8A4
:101150008083E0911001F091110180E58083E0919E
:101160001001F091110189ED8083E0911001F0915F
:10117000110181E28083E0911001F091110180E280
:101180008083E0911001F091110182E08083E09171
:101190001001F09111018BED8083E0911001F0912D
:1011A000110180E38083E0911001F09111018DEA3B
:1011B0008083E0911001F09111011082E091100103
:1011C000F091110184EA8083E0911001F091110106
:1011D00086EA8083E0911001F09111018FEA80830B
:1011E000E0911001F091110180EB8083E0911001FA
:1011F000F09111011082E0911001F091110180E154
:1012000080830E9463080E9452080895E0911001B3
:10121000F091110191E89083E0911001F09111019A
:10122000808308950E944908E0910E01F0910F011A
:1012300088E18083E0910E01F0910F018083E091BD
:101240000E01F0910F019EE79083E0910E01F09165
:101250000F019CE39083E0910E01F0910F018083D8
:1012600008950E944908E0910E01F0910F0110824B
:10127000E0910E01F0910F011082E0910E01F091CA
:101280000F011082E0910E01F0910F011082E091A8
:101290000E01F0910F01108208951F93CF93DF93F9
:1012A0000E946308C0E7D0E010E060E0812F0E9458
:1012B00049089E0120583F4FFE019491E0910E0194
:1012C000F0910F0190832196C217D307A9F71F5FF2
:1012D000E901183051F7DF91CF911F9108950F93D5
:1012E0001F93CF93DF938C01EB0182E090E00E948B
:1012F000AF0BFC0111830083D383C2831582148258
:1013000017821682DF91CF911F910F910895FC01F2
:10131000778366830895FC01758364830895EF9253
:10132000FF921F93CF93DF93EC010E94520810921B
:10133000A7031092A6031F921F9289818F93888121
:101340008F9383E191E09F938F930E94380D0C80DF
:10135000DD81C02D0F900F900F900F900F900F9088
:101360008E819F81892B71F111E00F2EF3E1EF2E19
:10137000F1E0FF2EF02D8091A6039091A703019636
:101380009093A7038093A60364E1812F0E944908EC
:101390001F921F9289818F9388818F93FF92EF9282
:1013A0000E94380D0E80DF81C02D0F900F900F909E
:1013B0000F900F900F908E819F81892B19F01F5FE6
:1013C0001530C9F6DF91CF911F91FF90EF900895EE
:1013D0006F927F928F929F92AF92BF92CF92DF9245
:1013E000EF92FF920F931F93CF93DF9360E070E033
:1013F00084EF92E00E946F09EC01BC0184E093E06D
:101400000E946F095C01BE0189E093E00E946F09B0
:101410006C01BE0183E193E00E946F098C01BE0163
:101420008AE193E00E946F097C01B80182E293E0B7
:101430000E946F094C01B8018EE293E00E946F098F
:101440003C01B70184E393E00E946F09BD82AC8246
:10145000F501D782C682F60117830683F801F78269
:10146000E68295828482F40177826682F701958311
:101470008483D093E803C093E703CE010E948F09D1
:101480008091E7039091E803DF91CF911F910F9135
:10149000FF90EF90DF90CF90BF90AF909F908F9094
:1014A0007F906F9008950E9463080E94E809089554
:1014B00080EB87BB81E58DB908958FB9779BFECF0F
:1014C00008951FB8779BFECF8FB108950E94380B07
:1014D00040E460EE8FE00E946F0B0895EF92FF9260
:1014E0000F931F93CF937C01FC0140814695469555
:1014F00046956FEF81E30E946F0BF70140814295A3
:10150000440F407E60EE82E30E946F0BF701418141
:101510006FE085E30E946F0B81E30E942A0BC82FC6
:1015200082E30E942A0B2C2F30E0220F331F220F60
:10153000331F220F331F829586958770A901480FAC
:10154000511DCA019F934F938FE393E09F938F9315
:1015500081E291E09F938F930E94380D87010E5F87
:101560001F4F0F900F900F900F900F900F90C0E0B3
:10157000F7019181C91710F0F8011082F80141912B
:101580008F016FEF86E38C0F0E946F0BCF5FC83027
:1015900079F781E80E946A0BCF911F910F91FF901C
:1015A000EF900895AF92BF92DF92EF92FF920F9368
:1015B0001F93CF93DF935C0181E30E942A0BC82F16
:1015C00082E30E942A0B829586958770CC0FCC0F00
:1015D000CC0FD82EDC0EC0E0D0E00F2EF0E5EF2EC1
:1015E000F3E0FF2EF02D01E211E08C2F8A590E94CA
:1015F0002A0B1F928F93DF93CF93FF92EF921F934B
:101600000F930E94380D2196EDB7FEB738960FB6AE
:10161000F894FEBF0FBEEDBFC830D10531F7F5011C
:10162000D082C501DF91CF911F910F91FF90EF9074
:10163000DF90BF90AF900895C49880EC0E945D0A3F
:10164000C49A0895C49880EA0E945D0A0E94610AC3
:10165000C49A0895CF93C82FC49883E00E945D0A6E
:101660008C2F0E945D0A0E94610AC49ACF9108954E
:101670000E94580A0E941C0B8EE00E942A0B807E5A
:101680008038A1F01F921F9286E693E09F938F937C
:101690008FE291E09F938F930E94380D0F900F90EF
:1016A0000F900F900F900F9081E0089580E00895C3
:1016B000CF93DF93C82FD62FC49882E00E945D0A93
:1016C0008D2F0E945D0A8C2F0E945D0AC49ADF91C3
:1016D000CF910895C4980E945D0AC49A08951F93FB
:1016E000CF93DF93182FD62FC42FC49885E00E9484
:1016F0005D0A812F0E945D0A8D2F0E945D0A8C2F4A
:101700000E945D0AC49ADF91CF911F91089597FBC3
:10171000072E16F4009407D077FD09D00E949B0B8A
:1017200007FC05D03EF4909581959F4F08957095E4
:1017300061957F4F0895AA1BBB1B51E107C0AA1FEB
:10174000BB1FA617B70710F0A61BB70B881F991F62
:101750005A95A9F780959095BC01CD010895CF9336
:10176000DF938230910510F482E090E0E091EB038A
:10177000F091EC0320E030E0C0E0D0E0309711F1D0
:101780004081518148175907C0F04817590761F443
:1017900082819381209719F09B838A832BC0909339
:1017A000EC038093EB0326C02115310519F0421795
:1017B000530718F49A01BE01DF01EF010280F381A3
:1017C000E02DDCCF2115310509F1281B390B243020
:1017D000310590F412968D919C91139761157105C6
:1017E00021F0FB019383828304C09093EC038093E8
:1017F000EB03FD01329644C0FD01E20FF31F81931C
:101800009193225031092D933C933AC02091E903E2
:101810003091EA03232B41F420913F0130914001A4
:101820003093EA032093E90320913D0130913E017A
:101830002115310541F42DB73EB74091410150913A
:101840004201241B350BE091E903F091EA03E21712
:10185000F307A0F42E1B3F0B2817390778F0AC01D3
:101860004E5F5F4F2417350748F04E0F5F1F5093B0
:10187000EA034093E9038193919302C0E0E0F0E032
:10188000CF01DF91CF9108950F931F93CF93DF93F3
:10189000009709F48CC0FC013297138212820091E8
:1018A000EB031091EC030115110581F420813181C6
:1018B000820F931F2091E9033091EA03281739071B
:1018C00079F5F093EA03E093E90371C0D80140E0B1
:1018D00050E0AE17BF0750F412962D913C9113972C
:1018E000AD012115310509F1D901F3CF9D01DA01CF
:1018F0003383228360817181860F971F821793073C
:1019000069F4EC0128813981260F371F2E5F3F4F84
:10191000318320838A819B8193838283452B29F4A1
:10192000F093EC03E093EB0342C01396FC93EE9329
:101930001297ED01499159919E01240F351FE2172D
:10194000F30771F480819181840F951F029611969F
:101950009C938E938281938113969C938E9312977E
:10196000E0E0F0E0D80112968D919C9113970097DA
:1019700019F0F8018C01F6CF8D919C9198012E5FA2
:101980003F4F820F931F2091E9033091EA032817FC
:10199000390769F4309729F41092EC031092EB03A5
:1019A00002C0138212821093EA030093E903DF91CD
:1019B000CF911F910F9108958F929F92AF92BF92F6
:1019C000CF92DF92EF92FF92CF93DF93EC01688189
:1019D00079818A819B81611571058105910521F4C9
:1019E00064E279ED8BE597E02DE133EF41E050E0E3
:1019F0000E94DE0F49015A019B01AC01A7EAB1E444
:101A00000E94FD0F6B017C01ACEEB4EFA5019401C7
:101A10000E940B10DC01CB018C0D9D1DAE1DBF1D66
:101A2000B7FF03C00197A109B04888839983AA83AF
:101A3000BB839F77DF91CF91FF90EF90DF90CF90A6
:101A4000BF90AF909F908F9008950E94DC0C0895F6
:101A500083E491E00E94DC0C0895A0E0B0E0809364
:101A6000430190934401A0934501B093460108952A
:101A7000A0E0B0E0EEE3FDE00C942010AE01475F83
:101A80005F4F6F8178858D819E810E94600DE2E0BD
:101A90000C943C10A0E0B0E0E0E5FDE00C942010D8
:101AA000AE014B5F5F4FFA0161917191AF0180917F
:101AB000EF039091F0030E94600DE2E00C943C1063
:101AC000ACE0B0E0E6E6FDE00C9410107C016B01A8
:101AD0008A01FC0117821682838181FFBDC1CE017C
:101AE00001964C01F7019381F60193FD859193FFD7
:101AF00081916F01882309F4ABC1853239F493FDDC
:101B0000859193FF81916F01853229F4B70190E0AF
:101B10000E94480FE7CF512C312C20E02032A0F456
:101B20008B3269F030F4803259F0833269F42061ED
:101B30002CC08D3239F0803339F4216026C0226008
:101B4000246023C0286021C027FD27C030ED380F56
:101B50003A3078F426FF06C0FAE05F9E300D11247B
:101B6000532E13C08AE0389E300D1124332E20628C
:101B70000CC08E3221F426FD6BC1206406C08C3669
:101B800011F4206802C0883641F4F60193FD859176
:101B900093FF81916F018111C1CF982F9F7D955443
:101BA000933028F40C5F1F4FFFE3F9830DC0833699
:101BB00031F0833771F0833509F05BC022C0F80142
:101BC000808189830E5F1F4F44244394512C54011C
:101BD00015C03801F2E06F0E711CF801A080B180D1
:101BE00026FF03C0652D70E002C06FEF7FEFC501D7
:101BF0002C870E943D0F2C0183012C852F77222EEC
:101C000017C03801F2E06F0E711CF801A080B1809E
:101C100026FF03C0652D70E002C06FEF7FEFC501A6
:101C20002C870E94320F2C012C852068222E8301E4
:101C300023FC1BC0832D90E048165906B0F4B70171
:101C400080E290E00E94480F3A94F4CFF50127FC1F
:101C5000859127FE81915F01B70190E00E94480FB6
:101C600031103A94F1E04F1A51084114510471F7C0
:101C7000E5C0843611F0893639F5F80127FF07C031
:101C800060817181828193810C5F1F4F08C06081E8
:101C90007181072E000C880B990B0E5F1F4F2F765A
:101CA000722E97FF09C090958095709561957F4F32
:101CB0008F4F9F4F2068722E2AE030E0A4010E94CF
:101CC000800FA82EA81844C0853729F42F7EB22E85
:101CD0002AE030E025C0F22FF97FBF2E8F36C1F009
:101CE00018F4883579F0B4C0803719F0883721F0BE
:101CF000AFC02F2F2061B22EB4FE0DC08B2D84609B
:101D0000B82E09C024FF0AC09F2F9660B92E06C0C6
:101D100028E030E005C020E130E002C020E132E000
:101D2000F801B7FE07C060817181828193810C5FE9
:101D30001F4F06C06081718180E090E00E5F1F4FF1
:101D4000A4010E94800FA82EA818FB2DFF777F2EDC
:101D500076FE0BC0372D3E7FA51450F474FE0AC0EA
:101D600072FC08C0372D3E7E05C0BA2C372D03C04B
:101D7000BA2C01C0B52C34FF0DC0FE01EA0DF11DD7
:101D80008081803311F4397E09C032FF06C0B394DC
:101D9000B39404C0832F867809F0B39433FD13C045
:101DA00030FF06C05A2CB31418F4530C5B18B32C34
:101DB000B31468F4B70180E290E03C870E94480FBA
:101DC000B3943C85F5CFB31410F43B1801C0312C0B
:101DD00034FF12C0B70180E390E03C870E94480FB7
:101DE0003C8532FF17C031FD03C088E790E002C098
:101DF00088E590E0B7010CC0832F867859F031FF59
:101E000002C08BE201C080E237FD8DE2B70190E0B5
:101E10000E94480FA51438F4B70180E390E00E94B7
:101E2000480F5A94F7CFAA94F401EA0DF11D80816E
:101E3000B70190E00E94480FA110F5CF332009F4BC
:101E400051CEB70180E290E00E94480F3A94F6CF5D
:101E5000F7018681978102C08FEF9FEF2C96E2E118
:101E60000C942C10FC010590615070400110D8F7C3
:101E7000809590958E0F9F1F0895FC0161507040D2
:101E800001900110D8F7809590958E0F9F1F0895AF
:101E90000F931F93CF93DF93FB01238121FD03C099
:101EA0008FEF9FEF28C022FF16C046815781248103
:101EB00035814217530744F4A081B1819D012F5F02
:101EC0003F4F318320838C93268137812F5F3F4F93
:101ED0003783268310C0EB01092F182F0084F1856A
:101EE000E02D0995892BE1F68E819F8101969F83D4
:101EF0008E83812F902FDF91CF911F910F910895A5
:101F0000FA01AA27283051F1203181F1E8946F932A
:101F10006E7F6E5F7F4F8F4F9F4FAF4FB1E03ED0D0
:101F2000B4E03CD0670F781F891F9A1FA11D680F6E
:101F3000791F8A1F911DA11D6A0F711D811D911DA1
:101F4000A11D20D009F468943F912AE0269F112416
:101F50003019305D3193DEF6CF010895462F47707A
:101F6000405D4193B3E00FD0C9F7F6CF462F4F70D5
:101F7000405D4A3318F0495D31FD4052419302D033
:101F8000A9F7EACFB4E0A6959795879577956795D9
:101F9000BA95C9F700976105710508959B01AC01D9
:101FA0000A2E06945795479537952795BA95C9F700
:101FB000620F731F841F951FA01D0895052E97FBA8
:101FC0001EF400940E94F50F57FD07D00E944710A1
:101FD00007FC03D04EF40C94F50F509540953095C6
:101FE00021953F4F4F4F5F4F089590958095709585
:101FF00061957F4F8F4F9F4F08950E946910A59F55
:10200000900DB49F900DA49F800D911D11240895F3
:10201000B7FF0C94FD0F0E94FD0F821B930B0895D8
:102020002F923F924F925F926F927F928F929F92E8
:10203000AF92BF92CF92DF92EF92FF920F931F93D6
:10204000CF93DF93CDB7DEB7CA1BDB0B0FB6F89487
:10205000DEBF0FBECDBF09942A88398848885F84C7
:102060006E847D848C849B84AA84B984C884DF8038
:10207000EE80FD800C811B81AA81B981CE0FD11D1C
:102080000FB6F894DEBF0FBECDBFED010895A1E2FB
:102090001A2EAA1BBB1BFD010DC0AA1FBB1FEE1FE2
:1020A000FF1FA217B307E407F50720F0A21BB30B2D
:1020B000E40BF50B661F771F881F991F1A9469F7A9
:1020C00060957095809590959B01AC01BD01CF0105
:1020D0000895A29FB001B39FC001A39F700D811D01
:1020E0001124911DB29F700D811D1124911D089521
:0420F000F894FFCF92
:1020F4000000000200000000D805000000000012EB
:102104000010010000000200000000FA07000000B7
:10211400000000000200000000D8050000000000DC
:1021240000000200000000D805000000000000F3D9
:10213400032000010000001308070203040506073A
:102144000853454E5420646174613A202530347537
:102154002C20616464726573733A202530345820EE
:102164000A0D005245434549564544206461746153
:102174003A20253034752C20616464726573733A97
:102184002025303458200A0D005374617274696E2E
:1021940067205352414D20746573742E2E2E25648E
:1021A400200A0D0057726974652070686173652098
:1021B4006572726F723A206578745F72616D5B2527
:1021C400645D203D2025303258202873686F756C7B
:1021D400642062652025303258290A0D0052657446
:1021E40072696576616C20706861736520657272CE
:1021F4006F723A206578745F72616D5B2534645D3B
:10220400203D2025303258202873686F756C642077
:1022140062652025303258290A0D005352414D2061
:102224007465737420636F6D706C65746564207776
:102234006974680A0D253464206572726F727320A4
:10224400696E2077726974652070686173652061B6
:102254006E640A0D253464206572726F727320698E
:102264006E2072657472696576616C207068617342
:1022740065200A200A0D004C4546542F5249474810
:102284005420534944453A202534642020202020FA
:1022940000444F574E2F555020534944453A20256A
:1022A400346420202020200A0D0044495245435420
:1022B400494F4E3A202564200A0D00536C69646529
:1022C40072204C4546543A20253464202000536C37
:1022D400696465722052494748543A202534642081
:1022E4000A0A0D002D2D2D4D61696E204D656E7508
:1022F4002D2D2D0047616D65004869676873636F14
:10230400726500457874726173004F7074696F6E02
:10231400730053637265656E736176657200536F03
:102324006E6773004272696768746E657373002028
:1023340043414E5F69643A2025303458200A0D0029
:102344004D43505F5258423044202534783A20257A
:102354003478200D0A004D435032353135206973ED
:10236400204E4F5420696E20636F6E6669677572E4
:102374006174696F6E206D6F646520616674657247
:0A238400207265736574210D0A00D4
:00000001FF
