:100000000C9429060C9446060C9446060C9446065D
:100010000C9446060C9446060C9446060C94460630
:100020000C9446060C9446060C9446060C94460620
:100030000C9446060C9446060C9446060C94460610
:100040000C9446060C9446060C9446060C94460600
:100050000C9446060C9446060C9446060C944606F0
:100060000C9446060C9446060C9446060C944606E0
:100070000000000000000000000000000000000080
:100080000000000000000000000000000000000070
:100090000000000000000000000000000000000060
:1000A0000000000000000000000000000000000050
:1000B000C0C0C0C0C0C0C0C0C0C0000000000000C0
:1000C0000000000000000000000000000000000030
:1000D000000000000000C0C0C0C0C0C0C0C0C0C0A0
:1000E000C000000000000000000000000000000050
:1000F000000000000000000000C0C0C0F8F8F8F8E0
:10010000F8FEFEFEFEFEFEFEFEFEFEFEFEFEFEFE15
:10011000FEF8F8F8F8F8C0C0C000000000000000C9
:100120000000000000F8F8F8FEFEFEFEFE3E3E3F36
:100130003F3FFFFFFFFFFFFF3F3F3F3E3EFEFEFE14
:10014000FEFEF8F8F800000000000000F8F8F8FEE5
:10015000FEFEFEFE3E3E3F3F3FFFFFFFFFFFFF3F35
:100160003F3F3E3EFEFEFEFEFEF8F8F800000000B7
:100170000000000038383E3E3EFFFFFFF9F9FFFF68
:10018000FF3F3F3F3939FFFFFFFFFFFF39393F3F57
:100190003FFFFFFFF9F9FFFFFF3E3E3E383800000A
:1001A0000000000000070707C7C7FFFFFF3E3E3EF5
:1001B0003E3ECFC7C7C7C7CF3E3E3E3E3EFFFFFFD6
:1001C000C7C7070707000000000000000707070770
:1001D00007C7C7C7FEFEFE3E3ECFC7C7C7C7CF3E55
:1001E0003EFEFEFEC7C7C70707070707000000005F
:1001F00000000000000000000001010107070101EC
:1002000001000000000000010101010000000000E9
:1002100000010101070701010100000000000000CA
:1002200000000000000000000101070707060606A5
:100230000000000101010100000006060607070793
:100240000101000000000000000000000606060694
:10025000060101010101000000000101010100008F
:10026000000001010101010606060606000000006B
:1002700000000000000000000000181818E0E00076
:1002800000000000000000C0E0E0181818000000A6
:100290000000000000000000C0E0E00000001818AE
:1002A000E0E0E00000000000000000E0E0E01818DE
:1002B000000000E0E0C000000000000000000000BE
:1002C00000E0E0E0F8F8F8F8F8E0E0C00000000036
:1002D000000000000000000000000000E0E0F8F86E
:1002E000F8F8F8F8E0E0000000000000000000006E
:1002F0000000000000E0E0F8F8F8FFFFFFE7E7FF8C
:10030000FFFFFFFFFFFFFFE7E7E7FFFFFFF8F8E072
:10031000E0E0000000000000FFFFFFF8F8FCFFFF36
:10032000E7E7E7FFFFFFFFFFFFFFFFE7E7E7FFFF6D
:10033000FCF8F8FFFFFF000000000000F8F8FFFFE6
:10034000FFE7E7E7FFFFFFFFFFE7E7E7FFFFFCF857
:10035000F80000000000F8F8F8FFFFFFE7E7FFFFF4
:10036000FFFFFFFFE7E7FFFFFFF8F8F800000000DE
:1003700000000000001F1F0000001F1F1FE7E7E72D
:10038000E7E7070707E7E7E7E7E71F1F1F00001F8B
:100390001F1F000000000000000000E7E7E71F1F2C
:1003A00007070707070707070707070707071F1FAD
:1003B000E7E7E70000000000000000001818E7E78A
:1003C000E70000000707070707000000E7E7181825
:1003D000180000000000C0E0E0181818E7E718183F
:1003E00018181818E7E7181818E0E0C00000000017
:1003F00000000000000000000000000000000000FD
:1004000000000000000000000000000000000000EC
:1004100000000000000000000000000000000000DC
:1004200000000000000000000000000000000000CC
:1004300000000000000000000000000000000000BC
:1004400000000000000000000000000000000000AC
:10045000000000000000000000000000000000009C
:10046000000000000000000000000000000000008C
:1004700000000000005C00000C000C007C287C28C0
:1004800058DC68002410480028542840000C000064
:10049000007884008478000054385400107C1000E8
:1004A00080400000101010000040000060100C00A0
:1004B00038543800487C40004864580044542C00AC
:1004C0001C107C005C5424003854240064140C007C
:1004D00068542C0048543800004800008048000050
:1004E000102844002828280044281000045408003C
:1004F00038445C00781478007C5428003844280084
:100500007C4438007C5444007C140400384474005B
:100510007C107C00447C440020403C007C106C003B
:100520007C4040007C187C0078103C003844380047
:100530007C1408003844B8007C1468004854240037
:10054000047C04007C407C003C603C007C307C00EF
:100550006C106C000C700C0064544C00007C440067
:100560000C106000447C00000804080080808000BB
:1005700000040800304878007C48300030484800CB
:1005800030487C00306850001078140090A8780043
:100590007C08700050744000808074007C106800FB
:1005A000447C4000781078007808700030483000B3
:1005B000F82810003048F80078100800505828003B
:1005C000083C4800384078003840380078207800EF
:1005D0004830480098A07800486858001078840097
:1005E000007C00008478100008040804000000006B
:1005F0000000005F00000007000700147F147F1454
:10060000242A7F2A12231308646236495522500097
:1006100005030000001C2241000041221C00082AA2
:100620001C2A0808083E0808005030000008080886
:100630000808006060000020100804023E5149458F
:100640003E00427F400042615149462141454B31C5
:100650001814127F1027454545393C4A4949300155
:10066000710905033649494936064949291E0036AC
:1006700036000000563600000008142241141414FD
:10068000141441221408000201510906324979412B
:100690003E7E1111117E7F494949363E414141223A
:1006A0007F4141221C7F494949417F090901013E9F
:1006B000414151327F0808087F00417F41002040BE
:1006C000413F017F081422417F404040407F0204A7
:1006D000027F7F0408107F3E4141413E7F090909A6
:1006E000063E4151215E7F09192946464949493153
:1006F00001017F01013F4040403F1F2040201F7FFC
:100700002018207F631408146303047804036151E4
:1007100049454300007F4141020408102041417FC8
:100720000000040201020440404040400001020475
:100730000020545454787F4844443838444444207A
:10074000384444487F3854545418087E090102083C
:100750001454543C7F0804047800447D4000204039
:10076000443D00007F10284400417F40007C041875
:1007700004787C0804047838444444387C14141405
:1007800008081414187C7C080404084854545420A5
:10079000043F4440203C4040207C1C2040201C3C26
:1007A0004030403C44281028440C5050503C446495
:1007B000544C44000836410000007F0000004136E0
:1007C0000800020103020100000000000000000018
:1007D000065F5F060000000007070007070000141F
:1007E0007F7F147F7F1400242E6B6B3A120000462B
:1007F0006630180C666200307A4F5D377A48000424
:1008000007030000000000001C3E634100000000E0
:1008100041633E1C000000082A3E1C1C3E2A0808BA
:10082000083E3E0808000000A0E06000000000084C
:100830000808080808000000006060000000006070
:1008400030180C060301003E7F594D7F3E000042E8
:10085000427F7F40400000627359496F660000226A
:100860006349497F360000181C16137F7F1000274C
:100870006745457D3900003C7E4B497930000003D7
:100880006371190F070000367F49497F3600000663
:100890004F49693F1E000000006C6C000000000022
:1008A000A0EC6C00000000081C366341000000143E
:1008B00014141414140000004163361C08000002D4
:1008C0000351590F0600003E7F415D5D1F1E007CF5
:1008D0007E13137E7C0000417F7F49497F36001CD8
:1008E0003E634141632200417F7F41637F1C0041A1
:1008F0007F7F495D416300417F7F491D0103001CEB
:100900003E6341517372007F7F08087F7F000000C3
:10091000417F7F41000000307040417F3F01004136
:100920007F7F081C776300417F7F41406070007FBC
:100930007F060C067F7F007F7F060C187F7F001CE0
:100940003E6341633E1C00417F7F49090F06001E44
:100950003F21717F5E0000417F7F19396F4600267D
:10096000674D597B32000003417F7F410300007FC8
:100970007F40407F7F00001F3F60603F1F00007F7F
:100980007F3018307F7F0063771C081C7763000777
:100990004F78784F0700006773594D476371000027
:1009A0007F7F41410000000103060C183060000009
:1009B00041417F7F000000080C0603060C08008000
:1009C0008080808080808000000307040000002079
:1009D0007454543C784000413F7F44447C38003894
:1009E0007C44446C280000307848493F7F40003800
:1009F0007C54545C180000487E7F49030200009834
:100A0000BCA4A4F87C0400417F7F08047C7800002B
:100A1000447D7D4000000040C484FD7D0000004115
:100A20007F7F10386C440000417F7F400000007CD5
:100A30007C0C180C7C78007C7C04047C78000038EA
:100A40007C44447C38000084FCF8A4243C18001842
:100A50003C24A4F8FC8400447C78441C1800004822
:100A60005C54547424000000043E7F442400003C85
:100A70007C40403C7C40001C3C60603C1C00003CD6
:100A80007C6030607C3C00446C3810386C44009CC6
:100A9000BCA0A0FC7C00004C64745C4C64000008AA
:100AA000083E7741410000000000777700000041D8
:100AB00041773E0808000002030103020301000C15
:100AC0000C0C0C0C0C06030C0C0C0C0C0C06030C84
:100AD0000C0C0C0C0C06030C0C0C0C0C0C0606126B
:100AE00012120606060606061212121212120A0A3E
:100AF0000A0A0A0A03030306010B02DC00B801E933
:100B000000D2010000000006010B02DC00B801E980
:100B100000D20100000000AF005D01930026019C9F
:100B200000370100000000AF005D01930026019C2A
:100B300000370100000000370115012601150137BB
:100B4000013701D000C4001501060172015D01A545
:100B500000D201B8019F013701F700E900DC00D0A5
:100B6000000000000000000C0C0C0C0C0C0C0C0C19
:100B70000C0C0C0C0C0C0C0C0C0C0C0C0C0C0C0CB5
:100B80000C0C0C0C0C0C0C0909090C0C0C0C0C0CAE
:100B90000C0C0C0C0C0C0C0C0C0C0C0C0C0C0C0C95
:100BA0000C0C0C0C0C0C0909090C0C0C0C0C0C0C8E
:100BB0000C0C0C0C0C4D0A4D0A00004D0A00002DC7
:100BC000084D0A0000400C00000000000020060054
:100BD00000000000002D08000000002006000000BA
:100BE00000270500000000E0060000B807000049EB
:100BF00007E006000020064D0A400CC00D0000EA88
:100C00000A400C00004D0A00002D082D09B807000D
:100C10000000002D08000000002006000000002752
:100C20000500000000E0060000B80700004907E0EA
:100C300006000020064D0A400CC00D0000EA0A40E4
:100C40000C00004D0A00002D082D09B80700000017
:100C5000000011241FBECFEFD4E0DEBFCDBF13E0F4
:100C6000A0E0B1E0E0E1FFE202C005900D92A43BFC
:100C7000B107D9F724E0A4EBB3E001C01D92AE3573
:100C8000B207E1F70E9448060C9486170C94000006
:100C9000CF93DF93CDB7DEB72A970FB6F894DEBFB8
:100CA0000FBECDBF8FE190E00E94BE060E94CB0632
:100CB0000E94BE070E94D9070E94230A0E949A0F31
:100CC0000E9471100E9483101F921F928AEA91E085
:100CD0009F938F9380E091E09F938F930E9496144F
:100CE000FE0131968AE0DF011D928A95E9F786E1DF
:100CF000898382E08A8391E09B838C830F900F909D
:100D00000F900F900F900F900F2EF7EBAF2EF1E09A
:100D1000BF2EF02D00E011E00F2EF2ECCF2EF1E00F
:100D2000DF2EF02D0E94A708F62EE72E0E94E50880
:100D3000FB82EC821F92FF92BF92AF921F930F93A0
:100D40000E9496148C811F928F93DF92CF921F93F3
:100D50000F930E949614CE0101960E94FE100E94ED
:100D6000870E0FB6F894DEBF0FBECDBFDBCFB89AAB
:100D7000C09A0895C0980895C09A089590BD89B901
:100D800088E18AB98EE880BD08955D9BFECF8CB95D
:100D900008958CB1089585B7806885BF80B780625B
:100DA00080BF0895FB01F85E80837F936F931F924D
:100DB0008F938FEC91E09F938F938EE091E09F93C0
:100DC0008F930E9496148DB79EB708960FB6F8942D
:100DD0009EBF0FBE8DBF0895CF93FC01F85EC0810A
:100DE0009F938F931F92CF9381EF91E09F938F9367
:100DF0008EE091E09F938F930E9496148DB79EB7DB
:100E000008960FB6F8949EBF0FBE8DBF8C2FCF9162
:100E100008957F928F929F92AF92BF92CF92DF926E
:100E2000EF92FF920F931F93CF93DF9387E192E0AE
:100E30009F938F938EE091E09F938F930E949614DF
:100E40000E9486147C010E948B140F900F900F90CB
:100E50000F90A12CB12CC12CD12C02E312E0CEE0DA
:100E6000D1E00E948614F501F85E80832081281766
:100E7000C1F099279F938F931F922F93BF92AF92A8
:100E80001F930F93DF93CF930E9496148FEFC81A8E
:100E9000D80A8DB79EB70A960FB6F8949EBF0FBEBC
:100EA0008DBF9FEFA91AB90AA11488E0B806C9F648
:100EB000C7010E948B14C0E0D0E0A12CB12C0F2EF2
:100EC000FBE6EF2EF2E0FF2EF02D0F2EFEE08F2E30
:100ED000F1E09F2EF02D0E948614FE01F85E7080D6
:100EE000781619F18C0111271F930F931F927F928F
:100EF000DF93CF93FF92EF929F928F920E9496146E
:100F00001F930F931F927F92DF93CF93FF92EF92E5
:100F10000E94A8149FEFA91AB90A8DB79EB74296EE
:100F20000FB6F8949EBF0FBE8DBF2196C11598E0F5
:100F3000D90789F6BF92AF92DF92CF9289EA92E009
:100F40009F938F938EE091E09F938F930E949614CE
:100F50008DB79EB708960FB6F8949EBF0FBE8DBF93
:100F6000DF91CF911F910F91FF90EF90DF90CF9085
:100F7000BF90AF909F908F907F90089585B78068C5
:100F800085BF80B7806280BF309886B7816086BF9A
:100F90008BB780628BBF08950000E82FF0E0FC5E05
:100FA00080832899FECF84E18A95F1F7809100141F
:100FB0000895EF92FF921F93CF93DF93B89AB99A57
:100FC00080911C01882371F110E0C12FD0E084E0F2
:100FD0000E94CC079E01265F3B4F7901F901808377
:100FE00085E00E94CC07CA5FDB4F8883F7019081C0
:100FF0002091B6033091B703290F311D3093B70309
:101000002093B6032091B4033091B503A901480F92
:10101000511D5093B5034093B4031F5F80911C0191
:10102000181798F2E2E0F4E080910A04828380913C
:1010300006048383DF91CF911F91FF90EF90089575
:10104000CF93DF938091B80390E0EC01C65FDB4F54
:1010500048812091B6033091B703241B31093093A6
:10106000B7032093B603FC01EA5FFB4F2081809118
:10107000B4039091B503821B91099093B5038093BB
:10108000B40384E00E94CC078883C091B803D0E009
:1010900085E00E94CC07CA5FDB4F88839091B8033C
:1010A000292F30E0F901E65FFB4F80814091B603C4
:1010B0005091B703480F511D5093B7034093B603A7
:1010C000F901EA5FFB4F8081E091B403F091B50331
:1010D000E80FF11DF093B503E093B4039F5F909385
:1010E000B80320911C01921710F01092B80330E061
:1010F000CA01B9010E949812EB01CF01B9010E9407
:101100009812AB019E0133278091040490E0BC014A
:101110006F5F7F4F2617370731F001972817390780
:1011200011F0C09302049A0133278091050490E0E6
:10113000BC016F5F7F4F2617370731F001972817E3
:10114000390711F040930304DF91CF9108950E9475
:10115000200860910204709103048091040490912E
:1011600005040895CF9386E00E94CC07C82F87E03E
:101170000E94CC0790E02091B90330E0A9014450CF
:101180005109481759072CF42C5F3F4F82179307DA
:101190002CF087E00E94CC078093B9038C2F90E05D
:1011A0002091BA0330E0A90144505109481759076A
:1011B0002CF42C5F3F4F821793072CF086E00E949F
:1011C000CC078093BA03CF9108950E94B208809112
:1011D000B9039091BA0308958F3B91058CF16F3B51
:1011E00071058CF0681779073CF481E090E09093EA
:1011F0001E0180931D016CC082E090E090931E015F
:1012000080931D0165C0603471059CF4660F771FE3
:10121000681779073CF481E090E090931E01809379
:101220001D0156C083E090E090931E0180931D0144
:101230004FC081E090E090931E0180931D0148C053
:10124000803491055CF56F3B71058CF0880F991F18
:10125000681779072CF410921E0110921D0138C0F6
:1012600082E090E090931E0180931D0131C06034B4
:1012700071057CF4681779072CF410921E01109206
:101280001D0126C083E090E090931E0180931D0114
:101290001FC010921E0110921D011AC06F3B7105F4
:1012A0003CF082E090E090931E0180931D0110C0FD
:1012B000603471053CF483E090E090931E018093CC
:1012C0001D0106C084E090E090931E0180931D01F3
:1012D00080911D0190911E010895E0912B01F091E4
:1012E0002C0180830895E0912901F0912A018083E7
:1012F00008958093BC031092BB03883088F4805516
:10130000E0912B01F0912C018083E0912B01F09171
:101310002C011082E0912B01F0912C0180E180835F
:1013200008958093BB0388237CF0982F9F7082954B
:101330008F70805FE0912B01F0912C019083E09100
:101340002B01F0912C0180830895CF93C62F0E942A
:1013500079098C2F0E949109CF9108951092BC03B6
:101360001092BB0360E080E00E94A5090895E0911F
:101370002B01F0912C0191E89083E0912B01F091E9
:101380002C01808308959091BB032091BC03E091D0
:101390002701F091280130E8239FE00DF11D112471
:1013A000E90FF11D80839F5F1AF09093BB030895AE
:1013B0001092BB0308950F931F93CF93DF93082FD1
:1013C000880F110B00521109000F111F000F111F80
:1013D000000F111FE801C953D84F0153184FFE01E8
:1013E00084910E94C3092196C017D107C1F7DF91EC
:1013F000CF911F910F910895CF93DF93EC018881D6
:10140000882331F021960E94DB0989918111FBCF5D
:10141000DF91CF910895CF930E947909C0E080E0D9
:101420000E94C309CF5FC038D1F7CF910895CF9301
:10143000C0E08C2F0E940B0ACF5FC830D1F70E940A
:10144000AE09CF910895E0912B01F0912C018EEA25
:101450008083E0912B01F0912C0181EA8083E0915F
:101460002B01F0912C018AED8083E0912B01F0910A
:101470002C0182E18083E0912B01F0912C0188EC1A
:101480008083E0912B01F0912C0188EA8083E09128
:101490002B01F0912C018FE38083E0912B01F091DF
:1014A0002C0185ED8083E0912B01F0912C0180E8E7
:1014B0008083E0912B01F0912C0181E88083E09101
:1014C0002B01F0912C0180E58083E0912B01F091BC
:1014D0002C0189ED8083E0912B01F0912C0181E2B8
:1014E0008083E0912B01F0912C0180E28083E091D8
:1014F0002B01F0912C0182E08083E0912B01F0918F
:101500002C018BED8083E0912B01F0912C0180E385
:101510008083E0912B01F0912C018DEA8083E09192
:101520002B01F0912C011082E0912B01F0912C0104
:1015300084EA8083E0912B01F0912C0186EA80837C
:10154000E0912B01F0912C018FEA8083E0912B0137
:10155000F0912C0180EB8083E0912B01F0912C0124
:101560001082E0912B01F0912C0180E180830E9498
:10157000170A0E94AE0908950E94A50988E10E94F9
:10158000C30988E10E94C3098EE70E94C3098CE366
:101590000E94C30988E10E94C30908950E94A50919
:1015A00080E00E94C30980E00E94C30980E00E949D
:1015B000C30980E00E94C30980E00E94C309089526
:1015C000FF920F931F93CF93DF930E94170AC0E7F8
:1015D000D0E0F12CF092BC038E0100581F4FFE01A9
:1015E00084910E94C3092196C017D107C1F7F394D3
:1015F000E801F8E0FF12EECFDF91CF911F910F913C
:10160000FF900895FF920F931F93CF93DF93C0E055
:10161000D0E010E0F12C00E0812F0E9479092F2DFD
:10162000302FE0912701F0912801EC0FFD1FE20F10
:10163000F31F9081E0912901F0912A0190832F5F9F
:101640003F4F2038310569F71F5FC058DF4F183012
:1016500019F7DF91CF911F910F91FF90089540E00E
:1016600050E060E090E014C0E0912701F091280183
:10167000E40FF51FE20FF31F80832F5F3F4F2038E9
:10168000310591F740585F4F411524E0520719F09A
:10169000262F392FE9CF0895CF93C0E08C2F0E94D9
:1016A000790985E093E00E94FC09CF5FC830B1F76B
:1016B000CF9108956623ACF1403498F5942F969518
:1016C0009695969547708823B1F0E0912701F091A7
:1016D000280180E8989FE00DF11D1124E60FF11D0F
:1016E00081E090E002C0880F991F4A95E2F790814F
:1016F000892B80830895E0912701F091280180E8EB
:10170000989FE00DF11D1124E60FF11D81E090E09E
:1017100002C0880F991F4A95E2F78095908189232E
:10172000808308957F928F929F92AF92BF92CF92C3
:10173000DF92EF92FF920F931F93CF93DF93982E38
:10174000862E062F069506950695862F87700F2EF6
:10175000FDEF7F2EF02D790C272D30E0C92DD0E044
:101760006E0193E0C90ED11CC216D3060CF448C01A
:1017700090E8099F8001112441E050E07A0102C005
:10178000EE0CFF1C8A95E2F7AA24A394B12CE091F9
:101790002701F0912801E00FF11FE20FF31F808174
:1017A00090E08E219F21892B81F42C1B3D0B2D5F16
:1017B0003F4FC50102C0880F991F2A95E2F790910B
:1017C0002001892B8093200110C02C1B3D0B2D5F25
:1017D0003F4FC50102C0880F991F2A95E2F78095F7
:1017E00090912001892380932001482D672D81E06D
:1017F0000E945A0B7394272D30E0C216D3063CF694
:101800000F2EFDEFBF2EF02DB80C2B2D30E0082D44
:1018100010E0780183E0E80EF11CE216F3060CF408
:1018200049C0CC24C394D12CE0912701F091280128
:101830008B2D86958695869590E8899FE00DF11D04
:101840001124EC0FFD1F808190E04B2D477002C0EA
:10185000959587954A95E2F780FD10C0201B310BC6
:101860002D5F3F4FC60102C0880F991F2A95E2F7EE
:1018700090911F01892B80931F0110C0201B310BF9
:101880002D5F3F4FC60102C0880F991F2A95E2F7CE
:10189000809590911F01892380931F014B2D692D05
:1018A00081E00E945A0BB3942B2D30E0E216F30630
:1018B0000CF0BACFDF91CF911F910F91FF90EF9075
:1018C000DF90CF90BF90AF909F908F907F900895C2
:1018D000CF92DF92FF920F931F93CF93DF93F82E57
:1018E000C62FDDEFD80F2D2F30E0C82ED12C86016A
:1018F0000D5F1F4F02171307CCF08091200190E07D
:101900002C193D092D5F3F4F02C0959587952A956B
:10191000E2F780FF05C04C2F6D2F80E00E945A0B2C
:10192000DF5F2D2F30E0021713073CF70F2EFDEF7E
:10193000DF2EF02DDC0E2D2D30E0D0E08E010D5F7E
:101940001F4F02171307CCF080911F0190E02C1B52
:101950003D0B2D5F3F4F02C0959587952A95E2F785
:1019600080FF05C04D2D6F2D80E00E945A0BD3944F
:101970002D2D30E0021713073CF7DF91CF911F9117
:101980000F91FF90DF90CF900895CF92DF92EF926A
:10199000FF920F931F93CF93DF93082FC62F142F1F
:1019A000C22E90E07C01E40EF11CE816F9069CF0D2
:1019B000D02FD62ED20E4C2F6D2F81E00E945A0BC5
:1019C0004D2D6D2F81E00E945A0BDF5FED2FF0E06F
:1019D000EE16FF0684F78C2F90E07C01EC0CF11CD6
:1019E000E816F90694F0D02FD10F4C2F602F81E02C
:1019F0000E945A0B4C2F6D2F81E00E945A0BCF5F33
:101A00002C2F30E0E216F30684F7DF91CF911F917F
:101A10000F91FF90EF90DF90CF9008952F923F921B
:101A20004F925F926F927F928F929F92AF92BF92EE
:101A3000CF92DF92EF92FF920F931F93CF93DF939A
:101A400000D000D0CDB7DEB730E0890101501109D8
:101A5000D901AA0FBB1FBA83A98321E030E0690135
:101A6000CA1ADB0A11230CF462C0342E462E8B8373
:101A7000AA24A394B12C88248394912CE12CF12CDA
:101A8000532C5E0C452DB42DB00FBC836B2F8B8176
:101A90000E945A0B632C600E462D742C7E0C672D11
:101AA0008B810E945A0B462D642C6E18662D8B81FB
:101AB0000E945A0B452D542C501A652D8B810E9483
:101AC0005A0B232C2E18422D652D8B810E945A0B08
:101AD000532C501A452D662D8B810E945A0B452D93
:101AE000672D8B810E945A0B422D6C818B810E9445
:101AF0005A0B1C141D045CF0EFEFEE1AFE0ACA0C20
:101B0000DB1CF2E0AF0EB11C1C141D0464F4015088
:101B1000110922E0820E911CC401A981BA818A1B9D
:101B20009B0BC80ED91E0E151F050CF0A9CF0F90E8
:101B30000F900F900F90DF91CF911F910F91FF9019
:101B4000EF90DF90CF90BF90AF909F908F907F905D
:101B50006F905F904F903F902F900895EF92FF927B
:101B60000F931F93CF93DF938091240180932201E1
:101B700080912301809321010E94A708E62E172F50
:101B8000D82FC92F0E94E508082FF92E6E2D70E07E
:101B9000ED2FF0E0CF010596681779073CF08091B2
:101BA000240188231CF08F5F80932401B897E617E7
:101BB000F7073CF080912401833018F08150809326
:101BC0002401E12FF0E06C2F70E0CB010A96E817BA
:101BD000F90744F080912301882309F48AC08150D9
:101BE000809323016E5171096E177F073CF080913D
:101BF0002301803418F48F5F8093230160912101C9
:101C0000809122010E94680C60912301809124013F
:101C10000E94920BB09B74C080912401853108F51D
:101C200090912301953138F41092260110922501EC
:101C30008731C0F565C0993248F421E030E0309337
:101C40002601209325018731D0F55AC09D3348F4F1
:101C500022E030E03093260120932501873180F483
:101C60004FC0873108F44CC02091250130912601E6
:101C70002130310521F1B0F02230310509F040C0AA
:101C800022E040912301682F81E00E940E0D809197
:101C90001F01837E90912001937E90932001809379
:101CA0001F012EC02DECF29E212D11242695269584
:101CB00040912301682F81E00E940E0D21C04DEC60
:101CC000049F212D112426952695F49E412D112443
:101CD00046954695609123010E94C50C80911F0195
:101CE00087789091200197789093200180931F012D
:101CF00007C06E5171096E177F070CF07CCF7ECF45
:101D0000DF91CF911F910F91FF90EF9008950E9466
:101D1000170A24E144E161E081E00E94C50C27E05C
:101D20004BE06BE081E00E940E0D24E144E165E1AF
:101D300081E00E94C50C2CE04CE069E185E00E9446
:101D4000C50C24E144E169E281E00E94C50C22E077
:101D500043E36BE081E00E940E0D21E043E36BE082
:101D600081E00E940E0DB19905C00E94AE0D0E9447
:101D7000020BF9CF0E94AE0D0E94020B0895EF9264
:101D8000FF921F93CF93DF93EC010E94170A1092EA
:101D9000C4031092C3031F921F9289818F9388817D
:101DA0008F938EE291E09F938F930E9496140C8004
:101DB000DD81C02D0F900F900F900F900F900F901E
:101DC000209761F111E00F2EFEE2EF2EF1E0FF2EE1
:101DD000F02D8091C3039091C40301969093C403A6
:101DE0008093C30364E1812F0E94A5091F921F9273
:101DF00089818F9388818F93FF92EF920E9496142E
:101E00001F5F0E80DF81C02D0F900F900F900F90FD
:101E10000F900F90209711F01530D9F60E94AE095F
:101E2000DF91CF911F91FF90EF900895CF93DF93B3
:101E3000C8E3D4E08AE093E0998388831B821A8206
:101E40001F821E8288E0EAE6F1E0AEE0B4E0019095
:101E50000D928A95E1F788E0E2E7F1E0A0E5B4E0D1
:101E600001900D928A95E1F788E0EAE7F1E0A0E3BE
:101E7000B4E001900D928A95E1F788E0E2E8F1E0A4
:101E8000A8E2B4E001900D928A95E1F788E0EAE8D3
:101E9000F1E0AEE1B4E001900D928A95E1F788E0BF
:101EA000E2E9F1E0A0E4B4E001900D928A95E1F757
:101EB00088E0EAE9F1E0A6E1B4E001900D928A95AC
:101EC000E1F788E0E2EAF1E0A8E4B4E001900D92E5
:101ED0008A95E1F7EEE0F4E0FD83EC83A0E5B4E061
:101EE000B783A683E0E3F4E01796FC93EE9316978E
:101EF000A8E2B4E0B783A6838EE194E0958384835F
:101F000020E434E0FC013783268386E194E0F90184
:101F10009783868388E494E015969C938E93149718
:101F2000D0932704C0932604CE010E94BF0EDF91F8
:101F3000CF9108950E94170A0E94160F089580916C
:101F400026049091270424E08E31920759F40E94D0
:101F5000170A81E090E09093C2038093C1030E942E
:101F6000E00A08958651944051F40E94170A81E0D6
:101F700090E09093C2038093C1030E94870E08955E
:101F800065E080912D010E94A5098091C103909187
:101F9000C203892B29F465E080912D010E94BC0ABF
:101FA00085E00E94CC078C3D90F065E080912D018A
:101FB0000E94CE0A80912D01815080932D018111C4
:101FC00086C08091C303815080932D0180C085E03D
:101FD0000E94CC078F31B8F465E080912D010E94FA
:101FE000CE0A80912D018F5F80932D0190E020918A
:101FF000C3033091C403281739070CF068C081E08F
:1020000080932D0164C084E00E94CC078C3DE8F1F0
:10201000E0912604F091270484819581892B09F4AD
:102020005FC00E94AE09E0912604F09127049481DC
:102030008581909326048093270440912D0150E0E0
:10204000415051091416150684F4E92FF82F80E049
:1020500090E0368127810196E32FF22F84179507B0
:10206000C4F3309326042093270480912604909192
:1020700027040E94BF0E80912D018093C50381E04B
:1020800080932D010E949F0F22C084E00E94CC0704
:102090008F31E8F48091C503882339F00E94170A34
:1020A0001092C50381E080932D01E0912604F09108
:1020B000270482819381009799F01092C2031092B5
:1020C000C10390932704809326040E94BF0E2FEF34
:1020D0008FE791E0215080409040E1F700C000C0C0
:1020E000089580EB87BB81E58DB908958FB9779B03
:1020F000FECF08951FB8779BFECF8FB10895C49887
:102100000895C49A08950E947B1140E060EE8FE02C
:102110000E94BA114FEF61E08BE20E94BA114FEFBB
:1021200060E680E60E94BA110895AF92BF92CF9206
:10213000DF92EF92FF920F931F93CF93DF93CDB770
:10214000DEB72A970FB6F894DEBF0FBECDBF5C0195
:1021500081E60E946911182F82E60E94691182951A
:1021600086958770110F110F110FD82ED10E85E6AD
:102170000E9469118F70C82E81F07E0183E0E80E05
:10218000F11C06E60C0D16E6812F0E946911F7017D
:1021900081937F011F5F1013F7CF40E061E08CE275
:1021A0000E94BA11D982CA828AE0FE013196D50115
:1021B00001900D928A95E1F7C5012A960FB6F89421
:1021C000DEBF0FBECDBFDF91CF911F910F91FF906A
:1021D000EF90DF90CF90BF90AF90089580E30E9482
:1021E000691184FD08C080E30E94691185FB88277E
:1021F00080F990E0089581E090E008950F931F9397
:10220000CF938C010E94EE10892BA9F080E30E94ED
:1022100069111F928F938BE593E09F938F938CE3CB
:1022200091E09F938F930E9496140F900F900F90C0
:102230000F900F900F90F801408146954695469576
:102240006FEF81E30E94BA11F80140814295440F7B
:10225000407E60EE82E30E94BA11F80141816FE096
:1022600085E30E94BA11F8018181882379F0C0E0EA
:10227000F801EC0FF11D42816FEF86E38C0F0E9495
:10228000BA11CF5FF8018181C81790F381E80E94ED
:10229000AF11CF911F910F9108950E947F1080EC94
:1022A0000E9476100E94811083EC99E00197F1F76B
:1022B00000C000000895CF930E947F1080EA0E9422
:1022C00076100E947A10C82F0E9481108C2FCF9117
:1022D0000895CF93C82F0E947F1083E00E9476104C
:1022E0008C2F0E9476100E947A10C82F0E948110B5
:1022F0008C2FCF9108950E9471100E944D118EE095
:102300000E946911807E8038A1F01F921F9281E7A0
:1023100093E09F938F938AE491E09F938F930E9421
:1023200096140F900F900F900F900F900F9081E0E8
:10233000089580E00895CF93DF93C82FD62F0E9491
:102340007F1082E00E9476108D2F0E9476108C2FD5
:102350000E9476100E948110DF91CF910895CF9353
:10236000C82F0E947F108C2F0E9476100E9481102F
:10237000CF9108951F93CF93DF93182FD62FC42F9B
:102380000E947F1085E00E947610812F0E947610B7
:102390008D2F0E9476108C2F0E9476100E94811043
:1023A000DF91CF911F910895BB9AC3980895C39A66
:1023B0000895C3980895882341F0ECECF4E0319738
:1023C000F1F700C000008150C1F70895009729F08F
:1023D00000C000C000000197D9F70895EF92FF9266
:1023E0000F931F93CF93DF93EC01F62E9C0140E0F7
:1023F00050E060E271EA87E090E00E94C01289013B
:10240000FC9E9001FD9E300D112436952795369542
:10241000279536952795A5ECB0E20E94DF127C0146
:10242000F694E794F694E794F694E794F694E79498
:10243000E114F10481F0C0E0D0E00E94D711C8019E
:102440000E94E6110E94D911C8010E94E61121964E
:10245000CE15DF0591F7DF91CF911F910F91FF907E
:10246000EF900895AF92BF92CF92DF92EF92FF92DA
:102470000F931F93CF93DF931F921F9285EA93E0F0
:102480009F938F9388E591E09F938F930E9496147A
:102490000F2EF7E6EF2EFBE0FF2EF02DC5EBDBE075
:1024A0000F2EF1E5AF2EFCE0BF2EF02D0F900F9018
:1024B0000F900F900F900F900F2EF8EECF2EF3E0AD
:1024C000DF2EF02DF701649170E0C6010E94AC127E
:1024D0008B01FE01859194910E94EE11B80177273E
:1024E000072E000C880B990B0E94411326E636E656
:1024F00046EA5FE30E94A5130E941013862F0E94F4
:10250000DB11602F80E090E00E94EE11FFEFEF1AE8
:10251000FF0A2296CA15DB05A9F6DF91CF911F911C
:102520000F91FF90EF90DF90CF90BF90AF90089504
:10253000AA1BBB1B51E107C0AA1FBB1FA617B707E9
:1025400010F0A61BB70B881F991F5A95A9F7809505
:102550009095BC01CD01089597FB072E16F40094C9
:1025600007D077FD09D00E94981207FC05D03EF4F1
:10257000909581959F4F0895709561957F4F08952F
:10258000052E97FB1EF400940E94D71257FD07D02A
:102590000E94EE1207FC03D04EF40C94D712509513
:1025A0004095309521953F4F4F4F5F4F089590953F
:1025B0008095709561957F4F8F4F9F4F0895A29F93
:1025C000B001B39FC001A39F700D811D1124911D07
:1025D000B29F700D811D1124911D0895A1E21A2E44
:1025E000AA1BBB1BFD010DC0AA1FBB1FEE1FFF1FB7
:1025F000A217B307E407F50720F0A21BB30BE40B07
:10260000F50B661F771F881F991F1A9469F760954D
:102610007095809590959B01AC01BD01CF01089507
:102620000E94841388F09F5798F0B92F9927B751CB
:10263000B0F0E1F0660F771F881F991F1AF0BA9566
:10264000C9F714C0B13091F00E949E13B1E0089513
:102650000C949E13672F782F8827B85F39F0B93F05
:10266000CCF3869577956795B395D9F73EF4909519
:102670008095709561957F4F8F4F9F4F0895E89497
:1026800009C097FB3EF490958095709561957F4FBA
:102690008F4F9F4F9923A9F0F92F96E9BB27939568
:1026A000F695879577956795B795F111F8CFFAF478
:1026B000BB0F11F460FF1BC06F5F7F4F8F4F9F4FA9
:1026C00016C0882311F096E911C0772321F09EE807
:1026D000872F762F05C0662371F096E8862F70E06D
:1026E00060E02AF09A95660F771F881FDAF7880F47
:1026F0009695879597F9089557FD9058440F551F63
:1027000059F05F3F71F04795880F97FB991F61F073
:102710009F3F79F087950895121613061406551FEA
:10272000F2CF4695F1DF08C0161617061806991F56
:10273000F1CF86957105610508940895E894BB274B
:1027400066277727CB0197F908950E94B8130C9458
:1027500029140E941B1438F00E94221420F09523A3
:1027600011F00C9412140C94181411240C949F134F
:102770000E947C1370F3959FC1F3950F50E0551F95
:10278000629FF001729FBB27F00DB11D639FAA27C6
:10279000F00DB11DAA1F649F6627B00DA11D661F15
:1027A000829F2227B00DA11D621F739FB00DA11D36
:1027B000621F839FA00D611D221F749F3327A00DF0
:1027C000611D231F849F600D211D822F762F6A2F8C
:1027D00011249F5750409AF0F1F088234AF0EE0FF1
:1027E000FF1FBB1F661F771F881F91505040A9F71E
:1027F0009E3F510580F00C9412140C949F135F3F80
:10280000E4F3983ED4F3869577956795B795F79559
:10281000E7959F5FC1F7FE2B880F911D96958795D1
:1028200097F9089597F99F6780E870E060E0089550
:102830009FEF80EC089500240A94161617061806D8
:102840000906089500240A941216130614060506B4
:102850000895092E0394000C11F4882352F0BB0F45
:1028600040F4BF2B11F460FF04C06F5F7F4F8F4FA8
:102870009F4F08958F929F92AF92BF92CF92DF9217
:10288000EF92FF92CF93DF93EC01688179818A8187
:102890009B81611571058105910521F464E279ED53
:1028A0008BE597E02DE133EF41E050E00E94C0124C
:1028B00049015A019B01AC01A7EAB1E40E943C170F
:1028C0006B017C01ACEEB4EFA50194010E944A17A4
:1028D000DC01CB018C0D9D1DAE1DBF1DB7FF03C0DC
:1028E0000197A109B04888839983AA83BB839F7706
:1028F000DF91CF91FF90EF90DF90CF90BF90AF909E
:102900009F908F9008950E943A14089586E691E072
:102910000E943A140895A0E0B0E08093660190937D
:102920006701A0936801B09369010895A0E0B0E049
:10293000ECE9F4E10C945F17AE01475F5F4F6F81E4
:1029400078858D819E810E94BE14E2E00C947B17F5
:10295000A0E0B0E0EEEAF4E10C945F17AE014B5F4B
:102960005F4FFA0161917191AF0180915A0490918A
:102970005B040E94BE14E2E00C947B17ACE0B0E074
:10298000E4ECF4E10C944F177C016B018A01FC012B
:1029900017821682838181FFBDC1CE0101964C0151
:1029A000F7019381F60193FD859193FF81916F016A
:1029B000882309F4ABC1853239F493FD859193FFE7
:1029C00081916F01853229F4B70190E00E94A6162B
:1029D000E7CF512C312C20E02032A0F48B3269F06B
:1029E00030F4803259F0833269F420612CC08D328A
:1029F00039F0803339F4216026C02260246023C07E
:102A0000286021C027FD27C030ED380F3A3078F418
:102A100026FF06C0FAE05F9E300D1124532E13C02E
:102A20008AE0389E300D1124332E20620CC08E3285
:102A300021F426FD6BC1206406C08C3611F4206899
:102A400002C0883641F4F60193FD859193FF819190
:102A50006F018111C1CF982F9F7D9554933028F439
:102A60000C5F1F4FFFE3F9830DC0833631F08337CE
:102A700071F0833509F05BC022C0F8018081898341
:102A80000E5F1F4F44244394512C540115C038014C
:102A9000F2E06F0E711CF801A080B18026FF03C028
:102AA000652D70E002C06FEF7FEFC5012C870E949B
:102AB0009B162C0183012C852F77222E17C03801FD
:102AC000F2E06F0E711CF801A080B18026FF03C0F8
:102AD000652D70E002C06FEF7FEFC5012C870E946B
:102AE00090162C012C852068222E830123FC1BC00C
:102AF000832D90E048165906B0F4B70180E290E0CB
:102B00000E94A6163A94F4CFF50127FC859127FE82
:102B100081915F01B70190E00E94A61631103A94AE
:102B2000F1E04F1A51084114510471F7E5C08436A1
:102B300011F0893639F5F80127FF07C060817181EE
:102B4000828193810C5F1F4F08C060817181072EC5
:102B5000000C880B990B0E5F1F4F2F76722E97FF7C
:102B600009C090958095709561957F4F8F4F9F4FCD
:102B70002068722E2AE030E0A4010E94DE16A82E02
:102B8000A81844C0853729F42F7EB22E2AE030E001
:102B900025C0F22FF97FBF2E8F36C1F018F488358B
:102BA00079F0B4C0803719F0883721F0AFC02F2FEB
:102BB0002061B22EB4FE0DC08B2D8460B82E09C0EA
:102BC00024FF0AC09F2F9660B92E06C028E030E08F
:102BD00005C020E130E002C020E132E0F801B7FE9C
:102BE00007C060817181828193810C5F1F4F06C095
:102BF0006081718180E090E00E5F1F4FA4010E9410
:102C0000DE16A82EA818FB2DFF777F2E76FE0BC0B0
:102C1000372D3E7FA51450F474FE0AC072FC08C024
:102C2000372D3E7E05C0BA2C372D03C0BA2C01C00B
:102C3000B52C34FF0DC0FE01EA0DF11D80818033FB
:102C400011F4397E09C032FF06C0B394B39404C0B6
:102C5000832F867809F0B39433FD13C030FF06C08C
:102C60005A2CB31418F4530C5B18B32CB31468F437
:102C7000B70180E290E03C870E94A616B3943C85A1
:102C8000F5CFB31410F43B1801C0312C34FF12C03F
:102C9000B70180E390E03C870E94A6163C8532FF96
:102CA00017C031FD03C088E790E002C088E590E0DE
:102CB000B7010CC0832F867859F031FF02C08BE238
:102CC00001C080E237FD8DE2B70190E00E94A616B8
:102CD000A51438F4B70180E390E00E94A6165A9438
:102CE000F7CFAA94F401EA0DF11D8081B70190E0BD
:102CF0000E94A616A110F5CF332009F451CEB701DA
:102D000080E290E00E94A6163A94F6CFF701868101
:102D1000978102C08FEF9FEF2C96E2E10C946B1726
:102D2000FC010590615070400110D8F78095909596
:102D30008E0F9F1F0895FC0161507040019001109B
:102D4000D8F7809590958E0F9F1F08950F931F932E
:102D5000CF93DF93FB01238121FD03C08FEF9FEF12
:102D600028C022FF16C04681578124813581421731
:102D7000530744F4A081B1819D012F5F3F4F318300
:102D800020838C93268137812F5F3F4F37832683A3
:102D900010C0EB01092F182F0084F185E02D099553
:102DA000892BE1F68E819F8101969F838E83812FEF
:102DB000902FDF91CF911F910F910895FA01AA27CB
:102DC000283051F1203181F1E8946F936E7F6E5F6E
:102DD0007F4F8F4F9F4FAF4FB1E03ED0B4E03CD01C
:102DE000670F781F891F9A1FA11D680F791F8A1FFF
:102DF000911DA11D6A0F711D811D911DA11D20D066
:102E000009F468943F912AE0269F11243019305D1F
:102E10003193DEF6CF010895462F4770405D419310
:102E2000B3E00FD0C9F7F6CF462F4F70405D4A335D
:102E300018F0495D31FD4052419302D0A9F7EACF25
:102E4000B4E0A6959795879577956795BA95C9F754
:102E500000976105710508959B01AC010A2E069447
:102E60005795479537952795BA95C9F7620F731F00
:102E7000841F951FA01D08950E94DF12A59F900D2D
:102E8000B49F900DA49F800D911D11240895B7FF4C
:102E90000C943C170E943C17821B930B08952F92B1
:102EA0003F924F925F926F927F928F929F92AF92DA
:102EB000BF92CF92DF92EF92FF920F931F93CF9327
:102EC000DF93CDB7DEB7CA1BDB0B0FB6F894DEBFBE
:102ED0000FBECDBF09942A88398848885F846E84E4
:102EE0007D848C849B84AA84B984C884DF80EE802E
:102EF000FD800C811B81AA81B981CE0FD11D0FB637
:102F0000F894DEBF0FBECDBFED010895F894FFCF5A
:102F10000000000200000000C506000000000000E4
:102F2000000200000000C50600000000040400FFCD
:102F3000FF20402040020000180012001001000095
:102F4000000200000000DB09000000000000000299
:102F500000000000C50600000000000000020000A4
:102F60000000C50600000000000000020000000094
:102F7000C50600000000010000001A03380400002C
:102F800000001F033804000000002903380400007B
:102F90000000300338040000000038033004000053
:102FA000000044033004000000004A033004000025
:102FB00000005003280400000000696E697420645A
:102FC0006F6E65200A0D004A6F79583A20253464E7
:102FD00020004A6F79593A20253464200D0A0053A5
:102FE000454E5420646174613A20253034752C209C
:102FF000616464726573733A2025303458200A0D79
:1030000000524543454956454420646174613A2065
:10301000253034752C20616464726573733A202501
:10302000303458200A0D005374617274696E672041
:103030005352414D20746573742E2E2E2564200A40
:103040000D00577269746520706861736520657240
:10305000726F723A206578745F72616D5B25645D92
:10306000203D2025303258202873686F756C64200D
:1030700062652025303258290A0D00526574726944
:103080006576616C207068617365206572726F721D
:103090003A206578745F72616D5B2534645D203D14
:1030A0002025303258202873686F756C6420626563
:1030B0002025303258290A0D005352414D207465A5
:1030C000737420636F6D706C6574656420776974C8
:1030D000680A0D253464206572726F727320696E00
:1030E00020777269746520706861736520616E6411
:1030F0000A0D253464206572726F727320696E2028
:1031000072657472696576616C20706861736520A0
:103110000A200A0D0048454C4C002D2D2D4D6169AB
:103120006E204D656E752D2D2D0047616D65004833
:1031300069676873636F72650045787472617300C4
:103140004F7074696F6E730053637265656E73615F
:1031500076657200536F6E6773005061696E74001C
:103160004272696768746E657373004552524F52BC
:1031700052525252525252525220253478200D0A45
:10318000004D435032353135206973204E4F542065
:10319000696E20636F6E66696775726174696F6EC0
:1031A000206D6F6465206166746572207265736559
:1031B00074210D0A004D6172696F205468656D6558
:0431C000200A0D00D4
:00000001FF
