:100000000C94B4030C94D1030C94C00E0C94D10343
:100010000C94D1030C94D1030C94D1030C94D10310
:100020000C94D1030C94D1030C94D1030C94D10300
:100030000C94D1030C94D1030C94D1030C94D103F0
:100040000C94D1030C94D1030C94D1030C94D103E0
:100050000C94D1030C94D1030C94D1030C94D103D0
:100060000C94D1030C94D1030C94D1030C94D103C0
:100070000000000000000000000000000000000080
:100080000000000000000000000000000000000070
:100090000000000000000000000000000000000060
:1000A0000000000000000000000000000000000050
:1000B000C0C0C0C0C0C0C0C0C0C0000000000000C0
:1000C0000000000000000000000000000000000030
:1000D000000000000000C0C0C0C0C0C0C0C0C0C0A0
:1000E000C000000000000000000000000000000050
:1000F000000000000000000000C0C0C0F8F8F8F8E0
:10010000F8FEFEFEFEFEFEFEFEFEFEFEFEFEFEFE15
:10011000FEF8F8F8F8F8C0C0C000000000000000C9
:100120000000000000F8F8F8FEFEFEFEFE3E3E3F36
:100130003F3FFFFFFFFFFFFF3F3F3F3E3EFEFEFE14
:10014000FEFEF8F8F800000000000000F8F8F8FEE5
:10015000FEFEFEFE3E3E3F3F3FFFFFFFFFFFFF3F35
:100160003F3F3E3EFEFEFEFEFEF8F8F800000000B7
:100170000000000038383E3E3EFFFFFFF9F9FFFF68
:10018000FF3F3F3F3939FFFFFFFFFFFF39393F3F57
:100190003FFFFFFFF9F9FFFFFF3E3E3E383800000A
:1001A0000000000000070707C7C7FFFFFF3E3E3EF5
:1001B0003E3ECFC7C7C7C7CF3E3E3E3E3EFFFFFFD6
:1001C000C7C7070707000000000000000707070770
:1001D00007C7C7C7FEFEFE3E3ECFC7C7C7C7CF3E55
:1001E0003EFEFEFEC7C7C70707070707000000005F
:1001F00000000000000000000001010107070101EC
:1002000001000000000000010101010000000000E9
:1002100000010101070701010100000000000000CA
:1002200000000000000000000101070707060606A5
:100230000000000101010100000006060607070793
:100240000101000000000000000000000606060694
:10025000060101010101000000000101010100008F
:10026000000001010101010606060606000000006B
:1002700000000000000000000000181818E0E00076
:1002800000000000000000C0E0E0181818000000A6
:100290000000000000000000C0E0E00000001818AE
:1002A000E0E0E00000000000000000E0E0E01818DE
:1002B000000000E0E0C000000000000000000000BE
:1002C00000E0E0E0F8F8F8F8F8E0E0C00000000036
:1002D000000000000000000000000000E0E0F8F86E
:1002E000F8F8F8F8E0E0000000000000000000006E
:1002F0000000000000E0E0F8F8F8FFFFFFE7E7FF8C
:10030000FFFFFFFFFFFFFFE7E7E7FFFFFFF8F8E072
:10031000E0E0000000000000FFFFFFF8F8FCFFFF36
:10032000E7E7E7FFFFFFFFFFFFFFFFE7E7E7FFFF6D
:10033000FCF8F8FFFFFF000000000000F8F8FFFFE6
:10034000FFE7E7E7FFFFFFFFFFE7E7E7FFFFFCF857
:10035000F80000000000F8F8F8FFFFFFE7E7FFFFF4
:10036000FFFFFFFFE7E7FFFFFFF8F8F800000000DE
:1003700000000000001F1F0000001F1F1FE7E7E72D
:10038000E7E7070707E7E7E7E7E71F1F1F00001F8B
:100390001F1F000000000000000000E7E7E71F1F2C
:1003A00007070707070707070707070707071F1FAD
:1003B000E7E7E70000000000000000001818E7E78A
:1003C000E70000000707070707000000E7E7181825
:1003D000180000000000C0E0E0181818E7E718183F
:1003E00018181818E7E7181818E0E0C00000000017
:1003F00000000000000000000000000000000000FD
:1004000000000000000000000000000000000000EC
:1004100000000000000000000000000000000000DC
:1004200000000000000000000000000000000000CC
:1004300000000000000000000000000000000000BC
:1004400000000000000000000000000000000000AC
:10045000000000000000000000000000000000009C
:10046000000000000000000000000000000000008C
:10047000000000000000000000065F5F06000000B2
:100480000007070007070000147F7F147F7F140018
:10049000242E6B6B3A120000466630180C66620020
:1004A000307A4F5D377A48000407030000000000EF
:1004B000001C3E63410000000041633E1C00000040
:1004C000082A3E1C1C3E2A0808083E3E0808000078
:1004D00000A0E0600000000008080808080800000C
:1004E00000006060000000006030180C060301008E
:1004F0003E7F594D7F3E000042427F7F40400000DA
:10050000627359496F660000226349497F360000D3
:10051000181C16137F7F1000276745457D390000A2
:100520003C7E4B4979300000036371190F070000CE
:10053000367F49497F360000064F49693F1E00005B
:1005400000006C6C0000000000A0EC6C00000000DB
:10055000081C366341000000141414141414000025
:10056000004163361C080000020351590F060000C9
:100570003E7F415D5D1F1E007C7E13137E7C00006C
:10058000417F7F49497F36001C3E63414163220021
:10059000417F7F41637F1C00417F7F495D41630054
:1005A000417F7F491D0103001C3E6341517372006E
:1005B0007F7F08087F7F000000417F7F41000000AF
:1005C000307040417F3F0100417F7F081C7763000E
:1005D000417F7F41406070007F7F060C067F7F0077
:1005E0007F7F060C187F7F001C3E6341633E1C002A
:1005F000417F7F49090F06001E3F21717F5E000089
:10060000417F7F19396F460026674D597B320000C4
:1006100003417F7F410300007F7F40407F7F0000D8
:100620001F3F60603F1F00007F7F3018307F7F00DA
:1006300063771C081C776300074F78784F0700002A
:100640006773594D47637100007F7F41410000008F
:100650000103060C183060000041417F7F0000005C
:10066000080C0603060C0800808080808080808053
:100670000000030704000000207454543C7840003C
:10068000413F7F44447C3800387C44446C2800005F
:10069000307848493F7F4000387C54545C18000053
:1006A000487E7F490302000098BCA4A4F87C0400A3
:1006B000417F7F08047C780000447D7D400000007D
:1006C00040C484FD7D000000417F7F10386C4400F1
:1006D00000417F7F400000007C7C0C180C7C78007F
:1006E0007C7C04047C780000387C44447C38000026
:1006F00084FCF8A4243C1800183C24A4F8FC8400D2
:10070000447C78441C180000485C54547424000055
:1007100000043E7F442400003C7C40403C7C400080
:100720001C3C60603C1C00003C7C6030607C3C00F9
:10073000446C3810386C44009CBCA0A0FC7C0000C9
:100740004C64745C4C64000008083E774141000032
:1007500000000077770000004141773E0808000064
:10076000020301030203010011241FBECFEFD4E0F6
:10077000DEBFCDBF13E0A0E0B1E0E2E6FBE202C0E5
:1007800005900D92A83FB107D9F724E0A8EFB3E098
:1007900001C01D92A13EB207E1F70E94D3030C9461
:1007A000AF150C940000F8948FE190E00E940704CC
:1007B0000E9414040E9407050E941B050E947907ED
:1007C0000E94F00C0E94CE0D0E9414100E94E00DB9
:1007D0001F921F928AEE91E09F938F9380E091E0A9
:1007E0009F938F930E946F1278940F900F900F90A9
:1007F0000F900F900F900E941D0D0E945808FBCF84
:10080000B89AC09A0895C0980895C09A089590BD66
:1008100089B988E18AB98EE880BD08955D9BFECFD5
:100820008CB908958CB1089585B7806885BF80B76D
:10083000806280BF0895FB01F85E80837F936F9391
:100840001F928F9387EF91E09F938F938EE091E0BB
:100850009F938F930E946F128DB79EB708960FB625
:10086000F8949EBF0FBE8DBF0895CF93FC01F85E34
:10087000C0819F938F931F92CF9389E192E09F93C2
:100880008F938EE091E09F938F930E946F128DB7AC
:100890009EB708960FB6F8949EBF0FBE8DBF8C2FE3
:1008A000CF9108957F928F929F92AF92BF92CF92F5
:1008B000DF92EF92FF920F931F93CF93DF938FE31B
:1008C00092E09F938F938EE091E09F938F930E948D
:1008D0006F120E945F127C010E9464120F900F90B1
:1008E0000F900F90A12CB12CC12CD12C0AE512E055
:1008F000CEE0D1E00E945F12F501F85E8083208196
:100900002817C1F099279F938F931F922F93BF921F
:10091000AF921F930F93DF93CF930E946F128FEFCD
:10092000C81AD80A8DB79EB70A960FB6F8949EBF1C
:100930000FBE8DBF9FEFA91AB90AA11488E0B806AF
:10094000C9F6C7010E946412C0E0D0E0A12CB12C0E
:100950000F2EF3E9EF2EF2E0FF2EF02D0F2EFEE02A
:100960008F2EF1E09F2EF02D0E945F12FE01F85EA7
:100970007080781619F18C0111271F930F931F9225
:100980007F92DF93CF93FF92EF929F928F920E947C
:100990006F121F930F931F927F92DF93CF93FF925B
:1009A000EF920E9481129FEFA91AB90A8DB79EB7E4
:1009B00042960FB6F8949EBF0FBE8DBF2196C1150B
:1009C00098E0D90789F6BF92AF92DF92CF9281ED7E
:1009D00092E09F938F938EE091E09F938F930E947C
:1009E0006F128DB79EB708960FB6F8949EBF0FBED4
:1009F0008DBFDF91CF911F910F91FF90EF90DF900E
:100A0000CF90BF90AF909F908F907F90089585B7C3
:100A1000806885BF80B7806280BF08950000E82F9E
:100A2000F0E0FC5E80832899FECF84E18A95F1F79F
:100A3000809100140895EF92FF921F93CF93DF935C
:100A4000B89AB99A80911C01882371F110E0C12FE6
:100A5000D0E084E00E940E059E012D5A3B4F7901A3
:100A6000F901808385E00E940E05C15BDB4F88831E
:100A7000F70190812091FA033091FB03290F311D7A
:100A80003093FB032093FA032091F8033091F9038C
:100A9000A901480F511D5093F9034093F8031F5FBC
:100AA00080911C01181798F2EBE4F4E08091560451
:100AB0008283809152048383DF91CF911F91FF90B5
:100AC000EF900895CF93DF938091FC0390E0EC01C9
:100AD000CD5ADB4F48812091FA033091FB03241B50
:100AE00031093093FB032093FA03FC01E15BFB4FD8
:100AF00020818091F8039091F903821B91099093D2
:100B0000F9038093F80384E00E940E058883C09166
:100B1000FC03D0E085E00E940E05C15BDB4F8883BB
:100B20009091FC03292F30E0F901ED5AFB4F8081B1
:100B30004091FA035091FB03480F511D5093FB0362
:100B40004093FA03F901E15BFB4F8081E091F803E8
:100B5000F091F903E80FF11DF093F903E093F80326
:100B60009F5F9093FC0320911C01921710F010924C
:100B7000FC0330E0CA01B9010E94FF11EB01CF0173
:100B8000B9010E94FF11AB019E01332780914D04F2
:100B900090E0BC016F5F7F4F2617370731F0019758
:100BA0002817390711F0C0934B049A01332780911D
:100BB0004E0490E0BC016F5F7F4F2617370731F07E
:100BC00001972817390711F040934C04DF91CF911A
:100BD00008950E94620560914B0470914C048091CD
:100BE0004D0490914E040895CF9386E00E940E0527
:100BF000C82F87E00E940E0590E02091FD0330E0B1
:100C0000A90144505109481759072CF42C5F3F4F54
:100C1000821793072CF087E00E940E058093FD0356
:100C20008C2F90E02091FE0330E0A901445051093F
:100C3000481759072CF42C5F3F4F821793072CF06D
:100C400086E00E940E058093FE03CF9108950E94D6
:100C5000F4058091FD039091FE0308958F3B91056B
:100C60008CF16F3B71058CF0681779073CF481E0DB
:100C700090E090932801809327016CC082E090E07F
:100C8000909328018093270165C0603471059CF41E
:100C9000660F771F681779073CF481E090E0909326
:100CA00028018093270156C083E090E090932801AB
:100CB000809327014FC081E090E0909328018093BA
:100CC000270148C0803491055CF56F3B71058CF0BD
:100CD000880F991F681779072CF410922801109239
:100CE000270138C082E090E090932801809327018B
:100CF00031C0603471057CF4681779072CF41092C8
:100D000028011092270126C083E090E090932801EB
:100D1000809327011FC010922801109227011AC04A
:100D20006F3B71053CF082E090E090932801809346
:100D3000270110C0603471053CF483E090E090938B
:100D400028018093270106C084E090E09093280159
:100D500080932701809127019091280108950E9496
:100D600062050E94F405EDE1F1E0ABE4B4E08C91A2
:100D7000828311968C9183838091FD038483CF01BC
:100D80000E94680E0895E0913501F091360180834C
:100D90000895E0913301F0913401808308958093A8
:100DA00000041092FF03883088F48055E0913501EB
:100DB000F09136018083E0913501F0913601108287
:100DC000E0913501F091360180E1808308958093B0
:100DD000FF0388237CF0982F9F7082958F70805F2F
:100DE000E0913501F09136019083E0913501F09169
:100DF000360180830895CF93C62F0E94CF068C2F93
:100E00000E94E706CF910895109200041092FF030C
:100E100060E080E00E94FB060895E0913501F091CA
:100E2000360191E89083E0913501F091360180839D
:100E300008959091FF0320910004E0913101F09119
:100E4000320130E8239FE00DF11D1124E90FF11D5F
:100E500080839F5F1AF09093FF0308951092FF0321
:100E600008950F931F93CF93DF93082F880F110BD3
:100E700000521109000F111F000F111F000F111F49
:100E8000E801C059DB4F08581B4FFE0184910E94B6
:100E900019072196C017D107C1F7DF91CF911F9194
:100EA0000F910895CF93DF93EC018881882331F06F
:100EB00021960E94310789918111FBCFDF91CF915B
:100EC0000895CF930E94CF06C0E080E00E941907EA
:100ED000CF5FC038D1F7CF910895CF93C0E08C2F6A
:100EE0000E946107CF5FC830D1F70E940407CF91FD
:100EF0000895E0913501F09136018EEA8083E0910A
:100F00003501F091360181EA8083E0913501F0915D
:100F100036018AED8083E0913501F091360182E15E
:100F20008083E0913501F091360188EC8083E09177
:100F30003501F091360188EA8083E0913501F09126
:100F400036018FE38083E0913501F091360185ED24
:100F50008083E0913501F091360180E88083E09153
:100F60003501F091360181E88083E0913501F091FF
:100F7000360180E58083E0913501F091360189EDFD
:100F80008083E0913501F091360181E28083E09128
:100F90003501F091360180E28083E0913501F091D6
:100FA000360182E08083E0913501F09136018BEDCE
:100FB0008083E0913501F091360180E38083E091F8
:100FC0003501F09136018DEA8083E0913501F09191
:100FD00036011082E0913501F091360184EA808378
:100FE000E0913501F091360186EA8083E091350188
:100FF000F09136018FEA8083E0913501F09136015E
:1010000080EB8083E0913501F09136011082E09110
:101010003501F091360180E180830E946D070E94C6
:10102000040708950E94FB0688E10E94190788E1E1
:101030000E9419078EE70E9419078CE30E94190786
:1010400088E10E94190708950E94FB0680E00E9433
:10105000190780E00E94190780E00E94190780E0CC
:101060000E94190780E00E9419070895FF920F93CC
:101070001F93CF93DF930E946D07C0E7D0E0F12C60
:10108000F09200048E0100581F4FFE0184910E94CF
:1010900019072196C017D107C1F7F394E801F8E0CA
:1010A000FF12EECFDF91CF911F910F91FF90089526
:1010B000FF920F931F93CF93DF93C0E0D0E010E037
:1010C000F12C00E0812F0E94CF062F2D302FE091D0
:1010D0003101F0913201EC0FFD1FE20FF31F9081FF
:1010E000E0913301F091340190832F5F3F4F20381E
:1010F000310569F71F5FC058DF4F183019F7DF91CE
:10110000CF911F910F91FF90089540E050E060E073
:1011100090E014C0E0913101F0913201E40FF51F2D
:10112000E20FF31F80832F5F3F4F2038310591F787
:1011300040585F4F411524E0520719F0262F392FF0
:10114000E9CF0895CF93C0E08C2F0E94CF068DE2A7
:1011500093E00E945207CF5FC830B1F7CF91089556
:101160006623ACF1403498F5942F96959695969514
:1011700047708823B1F0E0913101F091320180E8AD
:10118000989FE00DF11D1124E60FF11D81E090E024
:1011900002C0880F991F4A95E2F79081892B8083BE
:1011A0000895E0913101F091320180E8989FE00DBF
:1011B000F11D1124E60FF11D81E090E002C0880FBF
:1011C000991F4A95E2F7809590818923808308953D
:1011D0007F928F929F92AF92BF92CF92DF92EF92C7
:1011E000FF920F931F93CF93DF93982E862E062F97
:1011F000069506950695862F87700F2EFDEF7F2E9C
:10120000F02D790C272D30E0C92DD0E06E0193E050
:10121000C90ED11CC216D3060CF448C090E8099F31
:101220008001112441E050E07A0102C0EE0CFF1C65
:101230008A95E2F7AA24A394B12CE0913101F091B0
:101240003201E00FF11FE20FF31F808190E08E2149
:101250009F21892B81F42C1B3D0B2D5F3F4FC50136
:1012600002C0880F991F2A95E2F790912A01892BD5
:1012700080932A0110C02C1B3D0B2D5F3F4FC501F1
:1012800002C0880F991F2A95E2F7809590912A0154
:10129000892380932A01482D672D81E00E94B008A0
:1012A0007394272D30E0C216D3063CF60F2EFDEFC7
:1012B000BF2EF02DB80C2B2D30E0082D10E078015A
:1012C00083E0E80EF11CE216F3060CF449C0CC24CE
:1012D000C394D12CE0913101F09132018B2D869590
:1012E0008695869590E8899FE00DF11D1124EC0FFD
:1012F000FD1F808190E04B2D477002C0959587952A
:101300004A95E2F780FD10C0201B310B2D5F3F4F47
:10131000C60102C0880F991F2A95E2F79091290112
:10132000892B8093290110C0201B310B2D5F3F4F6B
:10133000C60102C0880F991F2A95E2F78095909107
:1013400029018923809329014B2D692D81E00E9479
:10135000B008B3942B2D30E0E216F3060CF0BACFB0
:10136000DF91CF911F910F91FF90EF90DF90CF9081
:10137000BF90AF909F908F907F900895CF92DF9213
:10138000FF920F931F93CF93DF93F82EC62FDDEFBD
:10139000D80F2D2F30E0C82ED12C86010D5F1F4FA6
:1013A00002171307CCF080912A0190E02C193D0917
:1013B0002D5F3F4F02C0959587952A95E2F780FFF4
:1013C00005C04C2F6D2F80E00E94B008DF5F2D2FED
:1013D00030E0021713073CF70F2EFDEFDF2EF02D44
:1013E000DC0E2D2D30E0D0E08E010D5F1F4F021777
:1013F0001307CCF08091290190E02C1B3D0B2D5F51
:101400003F4F02C0959587952A95E2F780FF05C06A
:101410004D2D6F2D80E00E94B008D3942D2D30E02B
:10142000021713073CF7DF91CF911F910F91FF90A7
:10143000DF90CF900895CF92DF92EF92FF920F93BB
:101440001F93CF93DF93082FC62F142FC22E90E047
:101450007C01E40EF11CE816F9069CF0D02FD62E84
:10146000D20E4C2F6D2F81E00E94B0084D2D6D2FB4
:1014700081E00E94B008DF5FED2FF0E0EE16FF067E
:1014800084F78C2F90E07C01EC0CF11CE816F90637
:1014900094F0D02FD10F4C2F602F81E00E94B00824
:1014A0004C2F6D2F81E00E94B008CF5F2C2F30E0D1
:1014B000E216F30684F7DF91CF911F910F91FF9011
:1014C000EF90DF90CF9008952F923F924F925F92CE
:1014D0006F927F928F929F92AF92BF92CF92DF9244
:1014E000EF92FF920F931F93CF93DF9300D000D022
:1014F000CDB7DEB730E0890101501109D901AA0F3B
:10150000BB1FBA83A98321E030E06901CA1ADB0A54
:1015100011230CF462C0342E462E8B83AA24A3948C
:10152000B12C88248394912CE12CF12C532C5E0C4B
:10153000452DB42DB00FBC836B2F8B810E94B0085A
:10154000632C600E462D742C7E0C672D8B810E94BF
:10155000B008462D642C6E18662D8B810E94B00851
:10156000452D542C501A652D8B810E94B008232CD8
:101570002E18422D652D8B810E94B008532C501AD5
:10158000452D662D8B810E94B008452D672D8B81DE
:101590000E94B008422D6C818B810E94B0081C14FF
:1015A0001D045CF0EFEFEE1AFE0ACA0CDB1CF2E041
:1015B000AF0EB11C1C141D0464F40150110922E08B
:1015C000820E911CC401A981BA818A1B9B0BC80E93
:1015D000D91E0E151F050CF0A9CF0F900F900F907C
:1015E0000F90DF91CF911F910F91FF90EF90DF90BF
:1015F000CF90BF90AF909F908F907F906F905F90B3
:101600004F903F902F900895EF92FF920F931F936A
:10161000CF93DF9380912E0180932C0180912D0137
:1016200080932B010E94E905E62E172FD82FC92F92
:101630000E942706082FF92E6E2D70E0ED2FF0E0A6
:10164000CF010596681779073CF080912E01882319
:101650001CF08F5F80932E01B897E617F7073CF0D8
:1016600080912E01833018F0815080932E01E12F5C
:10167000F0E06C2F70E0CB010A96E817F90744F010
:1016800080912D01882309F48AC0815080932D0117
:101690006E5171096E177F073CF080912D018034E7
:1016A00018F48F5F80932D0160912B0180912C01A4
:1016B0000E94BE0960912D0180912E010E94E808D0
:1016C000B09B74C080912E01853108F590912D0159
:1016D000953138F41092300110922F018731C0F506
:1016E00065C0993248F421E030E030933001209316
:1016F0002F018731D0F55AC09D3348F422E030E005
:101700003093300120932F01873180F44FC087310F
:1017100008F44CC020912F01309130012130310567
:1017200021F1B0F02230310509F040C022E04091B3
:101730002D01682F81E00E94640A80912901837E37
:1017400090912A01937E90932A01809329012EC0C3
:101750002DECF29E212D11242695269540912D01E8
:10176000682F81E00E94640A21C04DEC049F212D66
:10177000112426952695F49E412D112446954695D3
:1017800060912D010E941B0A809129018778909118
:101790002A01977890932A018093290107C06E51FE
:1017A00071096E177F070CF07CCF7ECFDF91CF9150
:1017B0001F910F91FF90EF9008950E946D0724E113
:1017C00044E161E081E00E941B0A27E04BE06BE00E
:1017D00081E00E94640A24E144E165E181E00E9425
:1017E0001B0A2CE04CE069E185E00E941B0A24E121
:1017F00044E169E281E00E941B0A22E043E36BE0DE
:1018000081E00E94640A21E043E36BE081E00E94F2
:10181000640AB19905C00E94040B0E945808F9CFD0
:101820000E94040B0E9458080895EF92FF921F93A4
:10183000CF93DF93EC010E946D0710920804109281
:1018400007041F921F9289818F9388818F9388E369
:1018500091E09F938F930E946F120C80DD81C02DC9
:101860000F900F900F900F900F900F90209761F1B5
:1018700011E00F2EF8E3EF2EF1E0FF2EF02D809116
:10188000070490910804019690930804809307043C
:1018900064E1812F0E94FB061F921F9289818F9322
:1018A00088818F93FF92EF920E946F121F5F0E80CC
:1018B000DF81C02D0F900F900F900F900F900F9021
:1018C000209711F01530D9F60E940407DF91CF91CF
:1018D0001F91FF90EF900895CF93DF93C1E8D4E07C
:1018E00082E393E0998388831B821A821F821E827F
:1018F00088E0E4EAF1E0A7E5B4E001900D928A9572
:10190000E1F788E0ECEAF1E0A9E9B4E001900D929A
:101910008A95E1F788E0E4EBF1E0A9E7B4E0019013
:101920000D928A95E1F788E0ECEBF1E0A1E7B4E0F5
:1019300001900D928A95E1F788E0E4ECF1E0A7E6EA
:10194000B4E001900D928A95E1F788E0ECECF1E0CB
:10195000A9E8B4E001900D928A95E1F788E0E4ED02
:10196000F1E0AFE5B4E001900D928A95E1F788E0EF
:10197000ECEDF1E0A1E9B4E001900D928A95E1F778
:10198000E7E5F4E0FD83EC83A9E9B4E0B783A6833F
:10199000E9E7F4E01796FC93EE931697A1E7B4E01D
:1019A000B783A68387E694E09583848329E834E0AF
:1019B000FC01378326838FE594E0F90197838683C2
:1019C00081E994E015969C938E931497D0937004BC
:1019D000C0936F04CE010E94150CDF91CF91089542
:1019E0000E946D070E946C0C089580916F04909185
:1019F000700424E08736920759F40E946D0781E055
:101A000090E090930604809305040E9436080895A0
:101A100024E08F35920759F40E946D0781E090E031
:101A200090930604809305040E94DD0B089587556A
:101A3000944011F40E947E0F089565E08091370173
:101A40000E94FB068091050490910604892B29F4DD
:101A500065E0809137010E94120885E00E940E0522
:101A60008C3D90F065E0809137010E9424088091C0
:101A70003701815080933701811186C0809107041E
:101A800081508093370180C085E00E940E058F3120
:101A9000B8F465E0809137010E94240880913701F5
:101AA0008F5F8093370190E0209107043091080404
:101AB000281739070CF068C081E08093370164C0B3
:101AC00084E00E940E058C3DE8F1E0916F04F091F6
:101AD000700484819581892B09F45FC00E940407FA
:101AE000E0916F04F09170049481858190936F046C
:101AF000809370044091370150E041505109141611
:101B0000150684F4E92FF82F80E090E036812781D4
:101B10000196E32FF22F84179507C4F330936F04D7
:101B20002093700480916F04909170040E94150CB2
:101B3000809137018093090481E0809337010E94EE
:101B4000F50C22C084E00E940E058F31E8F48091EC
:101B50000904882339F00E946D071092090481E07E
:101B600080933701E0916F04F0917004828193813A
:101B7000009799F010920604109205049093700457
:101B800080936F040E94150C2FEF8FE791E0215096
:101B900080409040E1F700C000C0089580EB87BB13
:101BA00081E58DB908958FB9779BFECF08951FB851
:101BB000779BFECF8FB10895C4980895C49A089575
:101BC00040E060EE8FE00E94640F4FEF61E08BE237
:101BD0000E94640F4FEF65E08CE00E94640F4FEFAE
:101BE00060E680E60E94640F8B9885B7886085BFA9
:101BF00085B78B7F85BF8BB780688BBF0895AF9209
:101C0000BF92CF92DF92EF92FF920F931F93CF93E9
:101C1000DF93CDB7DEB72A970FB6F894DEBF0FBEBD
:101C2000CDBF5C0181E60E94130F182F82E60E944F
:101C3000130F829586958770110F110F110FD82EF3
:101C4000D10E85E60E94130F8F70C82E81F07E01A1
:101C500083E0E80EF11C06E60C0D16E6812F0E94CB
:101C6000130FF70181937F011F5F1013F7CF40E03F
:101C700061E08CE20E94640FD982CA828AE0FE0190
:101C80003196D50101900D928A95E1F7C5012A960A
:101C90000FB6F894DEBF0FBECDBFDF91CF911F917D
:101CA0000F91FF90EF90DF90CF90BF90AF9008958D
:101CB00080E30E94130F84FD08C080E30E94130F8D
:101CC00085FB882780F990E0089581E090E00895F1
:101CD0000F931F93CF938C010E94580E892BA9F06C
:101CE00080E30E94130F1F928F9383E893E09F93EA
:101CF0008F9386E491E09F938F930E946F120F90D1
:101D00000F900F900F900F900F90F8014081469523
:101D1000469546956FEF81E30E94640FF80140817C
:101D20004295440F407E60EE82E30E94640FF8010A
:101D300041816FE085E30E94640FF801818188236F
:101D400079F0C0E0F801EC0FF11D42816FEF86E3FE
:101D50008C0F0E94640FCF5FF8018181C81790F348
:101D600081E80E94590FCF911F910F9108958091A2
:101D70000A04813019F410920A04089580E008954D
:101D80001F920F920FB60F9211242F933F934F93F0
:101D90005F936F937F938F939F93AF93BF93EF93D3
:101DA000FF9381E080930A041F921F9280E993E0E1
:101DB0009F938F9386E491E09F938F930E946F127D
:101DC0000F900F900F900F900F900F90FF91EF9149
:101DD000BF91AF919F918F917F916F915F914F9143
:101DE0003F912F910F900FBE0F901F9018950E945A
:101DF000DC0D80EC0E94D30D0E94DE0D8FEF9FE280
:101E00000197F1F700C000000895CF930E94DC0D08
:101E100080EA0E94D30D0E94D70DC82F0E94DE0DCC
:101E20008C2FCF910895CF93C82F0E94DC0D83E0B3
:101E30000E94D30D8C2F0E94D30D0E94D70DC82F66
:101E40000E94DE0D8C2FCF9108950E94CE0D0E942E
:101E5000F70E8EE00E94130F807E8038A1F01F9253
:101E60001F9286E993E09F938F9384E591E09F937F
:101E70008F930E946F120F900F900F900F900F9002
:101E80000F9081E0089580E00895CF93DF93C82FED
:101E9000D62F0E94DC0D82E00E94D30D8D2F0E9470
:101EA000D30D8C2F0E94D30D0E94DE0DDF91CF91B8
:101EB0000895CF93C82F0E94DC0D8C2F0E94D30D64
:101EC0000E94DE0DCF9108951F93CF93DF93182FBB
:101ED000D62FC42F0E94DC0D85E00E94D30D812FE8
:101EE0000E94D30D8D2F0E94D30D8C2F0E94D30DF5
:101EF0000E94DE0DDF91CF911F910895EF92FF9226
:101F00000F931F93CF93DF93CDB7DEB72A970FB60A
:101F1000F894DEBF0FBECDBF8CE691E00E94680E44
:101F20000F2EFAECEF2EF3E0FF2EF02D06E711E076
:101F30001F921F92FF92EF921F930F930E946F12B6
:101F40000E94AF060F900F900F900F900F900F9080
:101F5000B19904C00E94B70E882351F3CE010196B7
:101F60000E94FF0D8AE0FE013196A1EAB4E00190E3
:101F70000D928A95E1F701EA14E0F80182811F923F
:101F80008F9385ED93E09F938F9386E791E09F93E6
:101F90008F930E946F120F900F900F900F900F90E1
:101FA0000F90F80182812A960FB6F894DEBF0FBE1B
:101FB000CDBFDF91CF911F910F91FF90EF900895CA
:101FC00085E00E940E058C3DA0F080910D0490915B
:101FD0000E041816190644F089E190E090930E045F
:101FE00080930D048AE50895019790930E048093E1
:101FF0000D0485E00E940E058F3190F480910D0450
:1020000090910E048931910534F010920E041092D3
:102010000D0481E40895019690930E0480930D04BD
:1020200080910D048F5B0895E3ECF4E0118210823F
:102030001382128215821482A1EBB4E011961C92D5
:102040001E9213961C921E9212971596FC93EE9375
:102050001497EBEAF4E01182108213821282B583A6
:10206000A483A7EBB4E011961C921E9213961C92C7
:102070001E9212971596FC93EE931497EFECF4E0F2
:102080001182108213821282B583A483A9ECB4E07A
:1020900011961C921E9213961C921E9212971596E0
:1020A000FC93EE93149786E0E4EEF1E0A5EDB4E046
:1020B00001900D928A95E1F7EDEBF4E01182108228
:1020C000138212821582148208950F931F93CF9367
:1020D0000E94580805ED14E0C1E01EC064E18C2F99
:1020E0000E94FB068C2F90E00E94520768E18C2F23
:1020F0000E94FB06F801808191810E94520768E2EC
:102100008C2F0E94FB06F801828193810E94520766
:10211000CF5FF80104811581F80184819581892BB5
:10212000E9F6C830D8F20E940407CF911F910F91B1
:1021300008955F926F927F928F929F92AF92BF921B
:10214000CF92DF92EF92FF920F931F93CF93DF9383
:10215000CDB7DEB72E970FB6F894DEBF0FBECDBF5A
:102160000E94580860E083E00E94FB061F921F92C5
:1021700087EE93E09F938F9382E991E09F938F93F3
:102180000E946F120F900F900F900F900F900F9072
:102190007E0127E0E20EF11C0F2EF0EEAF2EFFE0E5
:1021A000BF2EF02D0F2EFEEECF2EF3E0DF2EF02D02
:1021B00004E811E06894552455F80F2EF3EF6F2EC4
:1021C000F3E07F2EF02D6BC00E94580868E283E098
:1021D0000E94FB06C7010E9452076EE185E00E9443
:1021E000FB060E94E00F0E9431078FEF9FEF22E075
:1021F000815090402040E1F700C000C0B09B17C064
:1022000080900B0490900C0485E0881691047CF477
:102210000E94E00FF701E80DF91D808380910B0407
:1022200090910C04019690930C0480930B04BF9240
:10223000AF92DF92CF921F930F930E946F120F9075
:102240000F900F900F900F900F90B19B1AC080913C
:102250000B0490910C049923A4F0F701E80FF91FE7
:102260005082019790930C0480930B04F701E80FC0
:10227000F91F50821816190624F010920C041092BF
:102280000B04FF92EF927F926F921F930F930E9425
:102290006F120F900F900F900F900F900F90B09BB8
:1022A00093CFB09B91CFCE0107969093BE048093BD
:1022B000BD0486E0EDEBF4E0DE01119601900D9295
:1022C0008A95E1F729813A814B815C816D817E811C
:1022D00080E090E02E960FB6F894DEBF0FBECDBF23
:1022E000DF91CF911F910F91FF90EF90DF90CF90F2
:1022F000BF90AF909F908F907F906F905F90089568
:10230000DC01FB01908122813381B183A08312968D
:102310004D915C91139753834283158214821496D6
:10232000ED91FC911597892F990F990B91838083DB
:10233000C90199279383828364817581CF010E94AB
:1023400080110895E091D904F091DA04309711F1E9
:1023500024E0873D920709F058F421E030E00DC0F9
:10236000BF016E5F7F4FFA016817790730F402C032
:1023700021E030E0822F932F08952F5F3F4F44815B
:1023800055814115510549F02730310549F780E065
:1023900090E0089580E090E0089580E090E0089556
:1023A000EF92FF920F931F93CF93DF937C018B01EA
:1023B000CB010E94A2110097D9F0823091056CF0F8
:1023C00021E030E0C5EDD4E00C80DD81C02D2F5F31
:1023D0003F4F28173907C1F702C0C5EDD4E06C8123
:1023E0007D81CE010E948011F982E8821B830A83DD
:1023F000DF91CF911F910F91FF90EF900895AA1B4D
:10240000BB1B51E107C0AA1FBB1FA617B70710F0DF
:10241000A61BB70B881F991F5A95A9F78095909511
:10242000BC01CD0108958F929F92AF92BF92CF923F
:10243000DF92EF92FF92CF93DF93EC016881798175
:102440008A819B81611571058105910521F464E202
:1024500079ED8BE597E02DE133EF41E050E00E940C
:10246000151549015A019B01AC01A7EAB1E40E948C
:1024700034156B017C01ACEEB4EFA50194010E9410
:102480004215DC01CB018C0D9D1DAE1DBF1DB7FF9C
:1024900003C00197A109B04888839983AA83BB83AD
:1024A0009F77DF91CF91FF90EF90DF90CF90BF901B
:1024B000AF909F908F9008950E941312089580EA24
:1024C00091E00E9413120895A0E0B0E08093A00173
:1024D0009093A101A093A201B093A3010895A0E05D
:1024E000B0E0E5E7F2E10C945715AE01475F5F4FAE
:1024F0006F8178858D819E810E949712E2E00C9415
:102500007315A0E0B0E0E7E8F2E10C945715AE01D6
:102510004B5F5F4FFA0161917191AF018091DD04D2
:102520009091DE040E949712E2E00C947315ACE0E7
:10253000B0E0EDE9F2E10C9447157C016B018A01F2
:10254000FC0117821682838181FFBDC1CE010196F5
:102550004C01F7019381F60193FD859193FF8191E1
:102560006F01882309F4ABC1853239F493FD85915D
:1025700093FF81916F01853229F4B70190E00E94A9
:102580007F14E7CF512C312C20E02032A0F48B3285
:1025900069F030F4803259F0833269F420612CC044
:1025A0008D3239F0803339F4216026C022602460F6
:1025B00023C0286021C027FD27C030ED380F3A30F6
:1025C00078F426FF06C0FAE05F9E300D1124532EEA
:1025D00013C08AE0389E300D1124332E20620CC0C7
:1025E0008E3221F426FD6BC1206406C08C3611F4B6
:1025F000206802C0883641F4F60193FD859193FF6F
:1026000081916F018111C1CF982F9F7D9554933097
:1026100028F40C5F1F4FFFE3F9830DC0833631F0C0
:10262000833771F0833509F05BC022C0F8018081E7
:1026300089830E5F1F4F44244394512C540115C0CD
:102640003801F2E06F0E711CF801A080B18026FF06
:1026500003C0652D70E002C06FEF7FEFC5012C87CE
:102660000E9474142C0183012C852F77222E17C011
:102670003801F2E06F0E711CF801A080B18026FFD6
:1026800003C0652D70E002C06FEF7FEFC5012C879E
:102690000E9469142C012C852068222E830123FCC2
:1026A0001BC0832D90E048165906B0F4B70180E2B4
:1026B00090E00E947F143A94F4CFF50127FC8591B5
:1026C00027FE81915F01B70190E00E947F143110D5
:1026D0003A94F1E04F1A51084114510471F7E5C0E2
:1026E000843611F0893639F5F80127FF07C060817B
:1026F0007181828193810C5F1F4F08C0608171815D
:10270000072E000C880B990B0E5F1F4F2F76722E31
:1027100097FF09C090958095709561957F4F8F4F79
:102720009F4F2068722E2AE030E0A4010E94B71467
:10273000A82EA81844C0853729F42F7EB22E2AE08F
:1027400030E025C0F22FF97FBF2E8F36C1F018F48C
:10275000883579F0B4C0803719F0883721F0AFC0E0
:102760002F2F2061B22EB4FE0DC08B2D8460B82EA9
:1027700009C024FF0AC09F2F9660B92E06C028E02A
:1027800030E005C020E130E002C020E132E0F80195
:10279000B7FE07C060817181828193810C5F1F4FFA
:1027A00006C06081718180E090E00E5F1F4FA40140
:1027B0000E94B714A82EA818FB2DFF777F2E76FE57
:1027C0000BC0372D3E7FA51450F474FE0AC072FC76
:1027D00008C0372D3E7E05C0BA2C372D03C0BA2C59
:1027E00001C0B52C34FF0DC0FE01EA0DF11D808142
:1027F000803311F4397E09C032FF06C0B394B3941C
:1028000004C0832F867809F0B39433FD13C030FFE2
:1028100006C05A2CB31418F4530C5B18B32CB31421
:1028200068F4B70180E290E03C870E947F14B39483
:102830003C85F5CFB31410F43B1801C0312C34FFA4
:1028400012C0B70180E390E03C870E947F143C8572
:1028500032FF17C031FD03C088E790E002C088E571
:1028600090E0B7010CC0832F867859F031FF02C089
:102870008BE201C080E237FD8DE2B70190E00E945B
:102880007F14A51438F4B70180E390E00E947F1410
:102890005A94F7CFAA94F401EA0DF11D8081B70193
:1028A00090E00E947F14A110F5CF332009F451CE9F
:1028B000B70180E290E00E947F143A94F6CFF701CE
:1028C0008681978102C08FEF9FEF2C96E2E10C94F6
:1028D0006315FC010590615070400110D8F7809598
:1028E00090958E0F9F1F0895FC01615070400190DC
:1028F0000110D8F7809590958E0F9F1F08950F9324
:102900001F93CF93DF93FB01238121FD03C08FEF42
:102910009FEF28C022FF16C0468157812481358150
:102920004217530744F4A081B1819D012F5F3F4FAF
:10293000318320838C93268137812F5F3F4F3783EC
:10294000268310C0EB01092F182F0084F185E02D9C
:102950000995892BE1F68E819F8101969F838E8355
:10296000812F902FDF91CF911F910F910895FA0140
:10297000AA27283051F1203181F1E8946F936E7FBE
:102980006E5F7F4F8F4F9F4FAF4FB1E03ED0B4E0AF
:102990003CD0670F781F891F9A1FA11D680F791FF0
:1029A0008A1F911DA11D6A0F711D811D911DA11D01
:1029B00020D009F468943F912AE0269F1124301911
:1029C000305D3193DEF6CF010895462F4770405DAC
:1029D0004193B3E00FD0C9F7F6CF462F4F70405D5B
:1029E0004A3318F0495D31FD4052419302D0A9F7B6
:1029F000EACFB4E0A6959795879577956795BA95B0
:102A0000C9F700976105710508959B01AC010A2E75
:102A100006945795479537952795BA95C9F7620F4C
:102A2000731F841F951FA01D0895052E97FB1EF48C
:102A300000940E942C1557FD07D00E947E1507FCBC
:102A400003D04EF40C942C1550954095309521955B
:102A50003F4F4F4F5F4F08959095809570956195CA
:102A60007F4F8F4F9F4F08950E94A015A59F900DF7
:102A7000B49F900DA49F800D911D11240895B7FF60
:102A80000C9434150E943415821B930B08952F92D9
:102A90003F924F925F926F927F928F929F92AF92EE
:102AA000BF92CF92DF92EF92FF920F931F93CF933B
:102AB000DF93CDB7DEB7CA1BDB0B0FB6F894DEBFD2
:102AC0000FBECDBF09942A88398848885F846E84F8
:102AD0007D848C849B84AA84B984C884DF80EE8042
:102AE000FD800C811B81AA81B981CE0FD11D0FB64B
:102AF000F894DEBF0FBECDBFED010895A1E21A2EFE
:102B0000AA1BBB1BFD010DC0AA1FBB1FEE1FFF1F91
:102B1000A217B307E407F50720F0A21BB30BE40BE1
:102B2000F50B661F771F881F991F1A9469F7609528
:102B30007095809590959B01AC01BD01CF010895E2
:102B4000A29FB001B39FC001A39F700D811D1124EE
:102B5000911DB29F700D811D1124911D0895F8944F
:022B6000FFCFA5
:102B620000000002000000000E040000000000004F
:102B72000002000000000E04000000000402030135
:102B8200020300000000000400FFFF20402040027A
:102B920000001800120010010000000200000000F6
:102BA20031070000000000000002000000000E04D7
:102BB2000000000000000002000000000E040000FF
:102BC20000000400000000000000000003010600F5
:102BD20000000000000000000002000000000E04DF
:102BE2000000000000000002000000000E040000CF
:102BF2000000000000020000000031070000000099
:102C02000100000042038104000000004703810428
:102C120000000000510381040000000058038104F9
:102C22000000000060037904000000006C037904D6
:102C320000000000720379040000000078037104B0
:102C420000000000E2030A00C904696E697420648E
:102C52006F6E65200A0D0053454E54206461746105
:102C62003A20253034752C20616464726573733A9E
:102C72002025303458200A0D005245434549564517
:102C82004420646174613A20253034752C206164DB
:102C920064726573733A2025303458200A0D00534C
:102CA20074617274696E67205352414D207465736A
:102CB200742E2E2E2564200A0D0057726974652029
:102CC2007068617365206572726F723A20657874FC
:102CD2005F72616D5B25645D203D20253032582096
:102CE2002873686F756C642062652025303258291C
:102CF2000A0D0052657472696576616C20706861B4
:102D02007365206572726F723A206578745F7261C2
:102D12006D5B2534645D203D2025303258202873B8
:102D2200686F756C642062652025303258290A0D5F
:102D3200005352414D207465737420636F6D706C43
:102D42006574656420776974680A0D2534642065AA
:102D520072726F727320696E207772697465207067
:102D62006861736520616E640A0D253464206572A2
:102D7200726F727320696E20726574726965766112
:102D82006C207068617365200A200A0D0048454C6A
:102D92004C002D2D2D4D61696E204D656E752D2DCA
:102DA2002D0047616D65004869676873636F7265DE
:102DB20000457874726173004F7074696F6E7300AE
:102DC20053637265656E736176657200536F6E67E9
:102DD20073005061696E74004272696768746E654F
:102DE2007373004552524F5220253478200D0A0049
:102DF2004D21200D0A004D43503235313520697383
:102E0200204E4F5420696E20636F6E66696775723B
:102E12006174696F6E206D6F64652061667465729E
:102E2200207265736574210D0A00506C6179696EB8
:102E320067200D0A0073636F72653A202564200DC6
:102E42000A004E554C4C004E616D653A20002564D7
:082E52000D0A0025730D0A00B2
:00000001FF
