:100000000C944F080C9470080C9470080C947008B1
:100010000C9470080C9470080C9470080C94700880
:100020000C9470080C9470080C9470080C94700870
:100030000C9470080C9470080C9470080C94700860
:100040000C9470080C9470080C9470080C94700850
:100050000C9470080C9470080C9470080C94700840
:100060000C9470080C9470080C9470080C94700830
:100070000C9470080C9470080C9470080C94700820
:100080000C94A3110C9470080C9470080C947008D4
:100090000C9470080C9470080C9470080C94C90EA1
:1000A0000C9470080C9470080C9470080C947008F0
:1000B0000C9470080C9470080C9470080C94301216
:1000C0000C9470080C9470080C9470080C947008D0
:1000D0000C9470080C9470080C9470080C947008C0
:1000E0000C947008E80E3A0F3A0F3A0F3A0F3A0F95
:1000F0003A0F3A0FE80E3A0F3A0F3A0F3A0F3A0F0B
:100100003A0F3A0FEA0E3A0F3A0F3A0F3A0F3A0FF8
:100110003A0F3A0F3A0F3A0F3A0F3A0F3A0F3A0F97
:100120003A0F3A0FEA0E3A0F3A0F3A0F3A0F3A0FD8
:100130003A0F3A0F3A0F3A0F3A0F3A0F3A0F3A0F77
:100140003A0F3A0F360F3A0F3A0F3A0F3A0F3A0F6B
:100150003A0F3A0F130F3A0F3A0F3A0F3A0F3A0F7E
:100160003A0F3A0F3A0F3A0F3A0F3A0F3A0F3A0F47
:100170003A0F3A0F070F3A0F3A0F3A0F3A0F3A0F6A
:100180003A0F3A0F250F0C94250F0C94070F0C947F
:10019000360F0C94CB080C94C3080C94E80E0C9406
:1001A000130F0C94EA0E0C943A0F0C0C0C0C0C0C64
:1001B0000C0C0C0C0C0C0C0C0C0C0C0C0C0C0C0C7F
:1001C0000C0C0C0C0C0C0C0C0C0C0909090C0C0C78
:1001D0000C0C0C0C0C0C0C0C0C0C0C0C0C0C0C0C5F
:1001E0000C0C0C0C0C0C0C0C0C0909090C0C0C0C58
:1001F0000C0C0C0C0C0C0C0C00000000000000009F
:1002000000000000000000000000000000000000EE
:1002100000000000000000000000000000000C0CC6
:100220000C0C0C0C06030C0C0C0C0C0C06030C0C2C
:100230000C0C0C0C06030C0C0C0C0C0C060612120D
:10024000120606060606061212121212120A0A0AEE
:100250000A0A0A03031E000000000000000000005C
:10026000000000000000000000000000000000008E
:10027000000000000000000000000000000000007E
:10028000000000000000000000000000000000006E
:10029000000018180C0C0C180C1818180C180C0C62
:1002A0000C0C180C18180C181818180C180C181816
:1002B000180C0C180818180808180C18180C00004E
:1002C000000000000000000000000000000000002E
:1002D000000000000000000000000000000000001E
:1002E000000000000000000000000000000000000E
:1002F00000000000000000000000000000000000FE
:1003000000000000000002020204080602040806C1
:10031000020802020204080602040806020802108B
:10032000040408020804060604040804020804047D
:10033000060402080402040402080406020802106B
:10034000040408020804060604040804020804045D
:100350000604020804020204020408040200000069
:10036000000000000000000000000000000000008D
:10037000000000000000000000000808080808084D
:1003800004080808080808040808080808080808F5
:1003900008080808080804080808080808040808E5
:1003A00008080808040808080808080808080808D1
:1003B00008080804080808080808040808080808C5
:1003C00008040808080808080808080808080808B1
:1003D00004080808080808040808080808080408A9
:1003E0000808080808080808080808080804040499
:1003F00004040404020404040404040204040404C1
:1004000004040204040404040402040404040404B0
:1004100002040404040404020000000000000000C0
:1004200000000000000000000000000000000000CC
:1004300000000000000000000000000000000000BC
:1004400000000000000000000000000000000000AC
:10045000000000000000000000000000000000009C
:100460000000020404080404040204040804040450
:100470000404040804080404010402040408040435
:100480000402040408040404040404080408040422
:10049000010408040404020404080404040204041B
:1004A000080404040404040804080404010000000F
:1004B000000000000000000000000000000000003C
:1004C000000000000000000000000000000000002C
:1004D0000000000000000204020202020202040402
:1004E00004040204020202020204020202020202E4
:1004F00004040404020402020202020402020204CE
:1005000002020404020404020202020202040202C1
:1005100002020202040404040204020202020000B5
:1005200000000000000000000000000000000000CB
:1005300000000000000000000000000000000000BB
:10054000000000000000000000000202020202029F
:100550000202020202020204040204020202020275
:100560000202020202020202040402040202020265
:100570000204040202020404020202020104020252
:10058000020202020202020202020204040200004B
:10059000000000000000000000000000000000005B
:1005A000000000000000000000000000000000004B
:1005B0000000000000000000000000000000020237
:1005C000020202020102020202010202020202020D
:1005D00002020102020202010204040202020404F5
:1005E00002020104040204040204040404020204DA
:1005F00002020202020201020202020101000000E4
:1006000000000000000000000000000000000000EA
:1006100000000000000000000000000000000000DA
:1006200000000000000000000000000000000000CA
:10063000000001101004040110100808040110103B
:10064000040402041010080808080404101004042C
:10065000011010080804011010040402041010080E
:100660000808080410100410100808080804040200
:10067000080410100100000000000000000000004D
:10068000000000000000000000000000000000006A
:10069000000000000000000000000000000000005A
:1006A0000000000000004D0A4D0A00004D0A000045
:1006B0002D084D0A0000400C00000000000020063C
:1006C0000000000000002D080000000020060000CF
:1006D0000000270500000000E0060000B807000049
:1006E0004907E006000020064D0A400CC00D00003E
:1006F000EA0A400C00004D0A00002D082D09B80739
:10070000000000002D08000000002006000000008E
:10071000270500000000E0060000B80700004907B8
:10072000E006000020064D0A400CC00D0000EA0A59
:10073000400C00004D0A00002D082D09B8070000EC
:1007400000000000000000000000000000000000A9
:100750000000000000000000000000000000000099
:100760000000000000000000000000000000000089
:100770000000000000000000000000000000000079
:100780000000000000000000000000000000060162
:100790000B02DC00B801E900D201000000000601F4
:1007A0000B02DC00B801E900D20100000000AF003C
:1007B0005D01930026019C00370100000000AF009E
:1007C0005D01930026019C00370100000000370105
:1007D00015012601150137013701D000C4001501AC
:1007E000060172015D01A500D201B8019F01370128
:1007F000F700E900DC00D00000000000000000006D
:1008000000000000000000000000000000000000E8
:1008100000000000000000000000000000000000D8
:1008200000000000000000000000000000000000C8
:1008300000000000000000000000000000000000B8
:1008400000000000000000000000000000000000A8
:100850000000000000000000000000000000000098
:100860000000000000000000000000000000000088
:100870000000000000004B021003100310031003DF
:10088000E402E40293024B0293024B024B020B027E
:10089000DC037003880100000B02DC037003880195
:1008A0000000100300001003100300001003E40216
:1008B0000000930293024B024B020B020B020B024D
:1008C0004B024B027003DC0370038801100300002D
:1008D0000000000000000000000000000000000018
:1008E0000000000000000000000000000000000008
:1008F00000000000000000000000000000000000F8
:1009000000000000000000000000000000000000E7
:1009100000000000000000000000000000000000D7
:1009200000000000000000000000000000000000C7
:1009300000000000000000000000000000000000B7
:1009400000000000000000000000000000000000A7
:10095000000000000000000000000000000088010E
:100960008801880137010000D201880137010000A9
:10097000D20188010000260126012601370100006E
:10098000E900B9009C000000E900C40000008801F3
:100990000000C400C40000008801000072015D0175
:1009A0004A0137014A010000D0008B00000083009B
:1009B000F700E900DC00E90000009C00B9009C00A1
:1009C000B900E9000000C400E90026010000880128
:1009D0000000C400C40000008801000072015D0135
:1009E0004A0137014A010000D0008B00000083005B
:1009F000F700E900DC00E90000009C00B9009C0061
:100A0000E900C4009C000000E900C40000000000F0
:100A100000000000000000000000000000000000D6
:100A200000000000000000000000000000000000C6
:100A300000000000000000000000000000000000B6
:100A4000000000000000B8018801B8014A01060159
:100A50004A01DC00B8018801B8014A0106014A01D7
:100A6000DC00B801EE010B02EE010B02B801EE0151
:100A7000B801EE018801B8018801B8015D01B80133
:100A8000B8018801B8014A0106014A01DC00B80139
:100A90008801B8014A0106014A01DC00B801EE01F3
:100AA0000B02EE010B02B801EE01B801EE01880164
:100AB000B8018801B801EE010B0293024B029302C8
:100AC0000B0288010B024A0193024B0293020B02B4
:100AD00088010B024A019302E4021003E4021003AE
:100AE0009302E4029302E4024B0293024B0293024C
:100AF0000B02930293024B0293020B0288010B023A
:100B00004A0193024B0293020B0288010B024A0135
:100B10009302E4021003E40210039302E40293023E
:100B2000E4024B0293024B02EE014B0293020601D8
:100B3000060188018801B801B80188015D015D01E5
:100B40004A014A01260126010601880188015D014A
:100B50005D014A014A012601880188015D015D01AC
:100B60004A014A0126010601060188018801B801EF
:100B7000B80188015D015D014A014A012601260193
:100B8000060100000000000000000000000000005E
:100B90000000000000000000000000000000000055
:100BA0000000000000000000000000000000000045
:100BB0000000000000000000000000000000000035
:100BC0000000000000000000000000000000000025
:100BD0000000000000000000000000000000000015
:100BE0000000000000000000000000000000000005
:100BF00000000000000000000000000000000000F5
:100C000000000000000000000000000000000000E4
:100C1000000000000000B8010B02B801B8014B024F
:100C2000B8018801B8019302B801B801BA02930271
:100C30000B02B80193027003B801880188014A01D0
:100C4000EE01B8010000B8010B02B801B8014B0277
:100C5000B8018801B8019302B801B801BA02930241
:100C60000B02B80193027003B801880188014A01A0
:100C7000EE01B8010000DC00C400A5009300B8013B
:100C80000B02B801B8014B02B8018801B801930208
:100C9000B801B801BA0293020B02B80193027003C3
:100CA000B801880188014A01EE01B8010000000086
:100CB0000000000000000000000000000000000034
:100CC0000000000000000000000000000000000024
:100CD0000000000000000000000000000000000014
:100CE0000000000000000000000000000000000004
:100CF00000000000000000000000000000001003E1
:100D0000BA0293024B020B024B0293020B024B02FC
:100D10009302BA024B0293024B020B02EE010B024A
:100D200000001003BA0293024B020B024B02930223
:100D30000B024B029302BA024B0293024B020B02CC
:100D4000EE010B0200004B029302BA024B02930227
:100D5000BA0210034B029302BA0210037003DC03C1
:100D60001704DC037003100300001003BA0293029F
:100D70004B020B024B0293020B024B029302BA028C
:100D80004B0293024B020B02EE010B02000000002B
:100D90000000000000000000000000000000000053
:100DA0000000000000000000000000000000000043
:100DB0000000000000000000000000000000000033
:100DC0000000000000000000000000000000000023
:100DD0000000000000000000000000000000000013
:100DE0000000000000004A014A015D0188018801FD
:100DF0005D014A0126010601060126014A014A0158
:100E000000002601260100004A014A015D01880117
:100E100088015D014A0126010601060126014A01F9
:100E200026010000060106010000260126014A01F4
:100E3000060126014A015D014A01060126014A0117
:100E40005D014A01260106012601C40000004A0195
:100E50004A015D01880188015D014A012601060100
:100E6000060126014A0126010000060106010000D4
:100E70000000000000000000000000000000000072
:100E80000000000000000000000000000000000062
:100E90000000000000000000000000000000000052
:100EA0000000000000000000000000000000000042
:100EB0000000000000000000000000000000000032
:100EC00000000000000000000000000000000B0215
:100ED0000B020B028801B801B8018801930293024A
:100EE0004B024B020B02000088010B020B020B02AB
:100EF0008801B801B8018801930293024B024B02AA
:100F00000B020000880188010B020B020B02880112
:100F100088010B020B0288010B020B020B020B0271
:100F20000B020B020B020B020B020B020B020B0259
:100F300000000B020B020B028801B801B801880106
:100F4000930293024B024B020B02000000000000D0
:100F50000000000000000000000000000000000091
:100F60000000000000000000000000000000000081
:100F70000000000000000000000000000000000071
:100F80000000000000000000000000000000000061
:100F90000000000000000000000000000000000051
:100FA0000000000000000000000000000000000041
:100FB000000000000000DC0093024B029302B80125
:100FC000AF00BA029302BA0293024B029300BA0234
:100FD0009302BA02B801C40000004B020B024B029C
:100FE0000B02EE014B020B02DC0093024B02930258
:100FF000B801AF00BA029302BA0293024B02930007
:10100000BA029302BA02B801C40000004B020B02FC
:101010004B020B02EE014B020B02EE010B024B02E4
:101020000B024B0293024B020B02EE01B801BA0213
:1010300093029302BA0293024B0293020000000053
:1010400000000000000000000000000000000000A0
:101050000000000000000000000000000000000090
:101060000000000000000000000000000000000080
:101070000000000000000000000000000000000070
:101080000000000000000000000000000000000060
:10109000000000000000000000000000000011241B
:1010A0001FBECFEFD1E2DEBFCDBF00E00CBF13E02B
:1010B000A0E0B2E0E0E4F3E300E00BBF02C0079081
:1010C0000D92A831B107D9F723E0A8E1B3E001C040
:1010D0001D92A837B207E1F70E9472080C949E197E
:1010E0000C940000CF93DF93CDB7DEB7A6970FB671
:1010F000F894DEBF0FBECDBFF89487E690E00E9463
:10110000D3081F921F928BE692E09F938F9380E00B
:1011100092E09F938F930E9497150E94480D0E9422
:10112000A40A0E94BA0A0E945E0E0E94220D0E942A
:10113000E4080E94B60F0E94B2110E94FE1164E101
:1011400070E0CE0101960E94F50F0E94500F789436
:101150000F900F900F900F900F900F90CE014D9623
:101160000E94CC0A8D8D833011F40E945212CE0160
:1011700043960E94CC0AF2CF089A109A08951098CC
:101180000895109A0895E0ECF0E0908195FFFDCF6E
:101190008093C6000895E0ECF0E080818823ECF7AE
:1011A0008091C60008959093C5008093C40088E1A3
:1011B0008093C1008EE08093C2006BEC78E083ECFA
:1011C00098E00E944C150895809A8898EAE7F0E02C
:1011D000808180688083ACE7B0E08C91806C8C93D8
:1011E0008081876080830895EAE7F0E080818064F1
:1011F0008083808184FFFDCF2091780080917900E9
:1012000090E0982F8827820F911D0895EF92FF920A
:101210001F93CF93DF93209A219A80910E02882307
:1012200081F110E0C12FD0E084E090E00E94F4084A
:101230009E01255B3C4F7901F901808385E090E0B8
:101240000E94F408C95BDC4F8883F70190812091EC
:101250001A0330911B03290F311D30931B03209378
:101260001A032091180330911903A901480F511D49
:1012700050931903409318031F5F80910E021817B3
:1012800088F2E3E4F3E080914B038283809147038B
:101290008383DF91CF911F91FF90EF900895CF93BB
:1012A000DF9380911C0390E0EC01C55BDC4F48812B
:1012B00020911A0330911B03241B310930931B0327
:1012C00020931A03FC01E95BFC4F208180911803F5
:1012D00090911903821B910990931903809318032D
:1012E00084E090E00E94F4088883C0911C03D0E061
:1012F00085E090E00E94F408C95BDC4F8883909100
:101300001C03292F30E0F901E55BFC4F80814091FF
:101310001A0350911B03480F511D50931B03409318
:101320001A03F901E95BFC4F8081E0911803F09109
:101330001903E80FF11DF0931903E09318039F5F61
:1013400090931C0320910E02921710F010921C0330
:1013500030E0CA01B9010E942213EB01CF01B901AB
:101360000E942213AB019E0133278091450390E038
:10137000BC016F5F7F4F2617370731F001972817A1
:10138000390711F0C09343039A0133278091460334
:1013900090E0BC016F5F7F4F2617370731F0019750
:1013A0002817390711F040934403DF91CF91089536
:1013B0000E944F096091430370914403809145035B
:1013C000909146030895CF93DF9386E090E00E94CA
:1013D000F408EC0187E090E00E94F408992720913E
:1013E0001D0330E0A90144505109481759072CF456
:1013F0002C5F3F4F8217930734F087E090E00E9404
:10140000F40880931D03CE01992720911E0330E03C
:10141000A90144505109481759072CF42C5F3F4F3C
:101420008217930734F086E090E00E94F4088093DE
:101430001E03DF91CF9108950E94E30980911D035F
:1014400090911E0308958F3B91058CF16F3B7105C0
:101450008CF0681779073CF481E090E090931002DB
:1014600080930F026CC082E090E090931002809312
:101470000F0265C0603471059CF4660F771F681712
:1014800079073CF481E090E09093100280930F0282
:1014900056C083E090E09093100280930F024FC0FB
:1014A00081E090E09093100280930F0248C0803456
:1014B00091055CF56F3B71058CF0880F991F6817DB
:1014C00079072CF41092100210920F0238C082E0BB
:1014D00090E09093100280930F0231C06034710548
:1014E0007CF4681779072CF41092100210920F0206
:1014F00026C083E090E09093100280930F021FC0FB
:101500001092100210920F021AC06F3B71053CF04E
:1015100082E090E09093100280930F0210C060343C
:1015200071053CF483E090E09093100280930F02E9
:1015300006C084E090E09093100280930F028091A7
:101540000F0290911002089587E884B981E58CBD5F
:1015500008958EBD0DB407FEFDCF089581E00E9471
:10156000A90A0DB407FEFDCF8EB508952F980895F2
:101570002F9A08950E94B20B40E060EE8FE00E9427
:10158000F10B4FEF61E08BE20E94F10B4FEF60E651
:1015900080E60E94F10B0895AF92BF92CF92DF9246
:1015A000EF92FF920F931F93CF93DF93CDB7DEB7E8
:1015B0002A970FB6F894DEBF0FBECDBF5C0181E65F
:1015C0000E94A00B182F82E60E94A00B82958695A0
:1015D0008770110F110F110FD82ED10E85E60E94C2
:1015E000A00B8F70C82E81F07E0183E0E80EF11C05
:1015F00006E60C0D16E6812F0E94A00BF7018193E1
:101600007F011F5F1013F7CF40E061E08CE20E9482
:10161000F10BD982CA828AE0FE013196D501019090
:101620000D928A95E1F7C5012A960FB6F894DEBFB0
:101630000FBECDBFDF91CF911F910F91FF90EF9023
:10164000DF90CF90BF90AF90089580E30E94A00BF1
:1016500084FD08C080E30E94A00B85FB882780F9E9
:1016600090E0089581E090E008950F931F93CF9349
:101670008C010E94250B892BA9F080E30E94A00B0E
:101680001F928F9383E792E09F938F9381E192E083
:101690009F938F930E9497150F900F900F900F902C
:1016A0000F900F90F80140814695469546956FEF53
:1016B00081E30E94F10BF80140814295440F407E86
:1016C00060EE82E30E94F10BF80141816FE085E357
:1016D0000E94F10BF8018181882379F0C0E0F801C4
:1016E000EC0FF11D42816FEF86E38C0F0E94F10B2E
:1016F000CF5FF8018181C81790F381E80E94E60B63
:10170000CF911F910F9108950E94B60A80EC0E941C
:10171000A90A0E94B80A8FE39CE90197F1F700C07B
:1017200000000895CF930E94B60A80EA0E94A90A99
:101730000E94AE0AC82F0E94B80A8C2FCF9108953C
:10174000CF93C82F0E94B60A83E00E94A90A8C2F6B
:101750000E94A90A0E94AE0AC82F0E94B80A8C2FC4
:10176000CF9108950E94A40A0E94840B8EE00E94EB
:10177000A00B807E8038A1F01F921F9280E892E03B
:101780009F938F938FE192E09F938F930E94971581
:101790000F900F900F900F900F900F9081E0089591
:1017A00080E00895CF93DF93C82FD62F0E94B60A0A
:1017B00082E00E94A90A8D2F0E94A90A8C2F0E9404
:1017C000A90A0E94B80ADF91CF910895CF93C82F3C
:1017D0000E94B60A8C2F0E94A90A0E94B80ACF91D3
:1017E00008951F93CF93DF93182FD62FC42F0E94F5
:1017F000B60A85E00E94A90A812F0E94A90A8D2FAE
:101800000E94A90A8C2F0E94A90A0E94B80ADF919F
:10181000CF911F9108958034910589F030F4813083
:101820009105A9F0089749F010C0811521E09207B1
:1018300041F08115944039F008C082E0089583E0BA
:10184000089584E0089585E0089580E0089581E09A
:101850000895CF92DF92EF92FF920F931F93CF9351
:10186000DF938C016B01C0E8D0E0888182608883BF
:101870000F2EF1E8EF2EF12CF02DF7018081886119
:101880008083C8010E940B0CF7019081892B808313
:10189000888180688883259A960140E050E060E066
:1018A00074E284EF90E00E944A13CA01B9019801E2
:1018B00040E050E00E944A132150310930938700E4
:1018C000209386001092890010928800DF91CF91BA
:1018D0001F910F91FF90EF90DF90CF900895CF92DE
:1018E000DF92EF92FF920F931F93CF93DF938C01C0
:1018F0006B01C0E9D0E08881826088830F2EF1E916
:10190000EF2EF12CF02DF701808188618083C801D2
:101910000E940B0CF7019081892B8083888180685D
:1019200088836B9A960140E050E060E074E284EFB7
:1019300090E00E944A13CA01B901980140E050E0CA
:101940000E944A132150310930939700209396004A
:1019500080E290E09093990080939800E1E7F0E0B6
:10196000808182608083DF91CF911F910F91FF90E2
:10197000EF90DF90CF900895CF92DF92EF92FF9299
:101980000F931F93CF93DF938C016B01C0E2D1E0E3
:101990008881826088830F2EF1E2EF2EFF24F3947A
:1019A000F02DF701808188618083C8010E940B0CB3
:1019B000F7019081892B8083888180688883EAE0A1
:1019C000F1E0808188608083960140E050E060E033
:1019D00074E284EF90E00E944A13CA01B9019801B1
:1019E00040E050E00E944A13215031093093270112
:1019F0002093260180E290E09093290180932801B2
:101A0000E3E7F0E0808182608083DF91CF911F91D6
:101A10000F91FF90EF90DF90CF900895089522E00E
:101A2000843B920731F470E07093890060938800E2
:101A30000895885B924029F470E070939900609358
:101A40009800089562E370E080E091E00E94290C24
:101A50000895682F70E080E090E00E94531423E323
:101A600033E343E35EE30E94DF1420E030E040E62E
:101A700052E40E94B6130E942214653608F064E610
:101A8000683308F468E384EB92E00E940F0D089538
:101A90006A9A72980895729A0895729808950097B4
:101AA00041F0EFE9FFE03197F1F700C00000019746
:101AB000C1F70895009731F025E02A95F1F700006D
:101AC0000197D1F70895EF92FF920F931F93CF9351
:101AD000DF93EC01F62E9C0140E050E060E271EAF9
:101AE00087E090E00E944A138901FC9E9001FD9ED0
:101AF000300D1124369527953695279536952795DF
:101B0000A5ECB0E20E9471137C01F694E794F69480
:101B1000E794F694E794F694E794E114F10481F0E5
:101B2000C0E0D0E00E944B0DC8010E945A0D0E94F7
:101B30004D0DC8010E945A0D2196CE15DF0591F773
:101B4000DF91CF911F910F91FF90EF900895AF9289
:101B5000BF92CF92DF92EF92FF920F931F93CF939A
:101B6000DF93E82E1F92C4E7CF938CEB92E09F9314
:101B70008F938DE292E09F938F930E949715CE9D55
:101B8000F0011124E655FE4FE4910F900F900F9055
:101B90000F900F900F90EE2309F445C088EEE89E59
:101BA000E0011124CA55D94F84E7E89E7001112441
:101BB00000E010E00F2EF8EECF2EF3E0DF2EF02D38
:101BC0000BC0F80131968F01EE0DFF1DE655FE4F5B
:101BD000E4912296EE2349F16E2F70E0C6010E9437
:101BE00036135B01FE01859194910E94630DB5014E
:101BF0007727072E000C880B990B0E94531426E6BA
:101C000036E646EA5FE30E94DF140E942214CB010D
:101C10000E944F0D6A2D80E090E00E94630D033713
:101C2000110579F614C000E010E01F930F938AECC1
:101C300092E09F938F938DE292E09F938F930E9407
:101C400097150F900F900F900F900F900F90DF91BE
:101C5000CF911F910F91FF90EF90DF90CF90BF90A9
:101C6000AF90089580E00E94A70D089581E00E9442
:101C7000A70D089582E00E94A70D089583E00E94B9
:101C8000A70D089584E00E94A70D089585E00E94A5
:101C9000A70D089586E00E94A70D089587E00E9491
:101CA000A70D089588E00E94A70D089589E00E947D
:101CB000A70D08958AE00E94A70D08958CE08093F7
:101CC000B8008FEF8093BB0084E08093BC00089540
:101CD0008091BC0081700895ECEBF0E0808180FD84
:101CE000FDCF80913B020895CF93DF93EC01ECEBA5
:101CF000F0E0908190FDFDCF609322039881909356
:101D0000230390FD13C0623088F0FE013196A4E2F7
:101D1000B3E06250262F30E02E5F3F4FCE01820F9E
:101D2000931F21912D93E817F907D9F710922003FB
:101D300088EF80933B0285EA8093BC00DF91CF91CE
:101D40000895ECEBF0E0808180FDFDCF1092200340
:101D500088EF80933B0285EA8093BC000895ECEB0A
:101D6000F0E0208120FDFDCF2091200320FF0DC059
:101D7000662359F023E233E0A82FB92FF9018191AE
:101D80008D938E2F821B8617D0F380912003817054
:101D900008951F920F920FB60F9211240BB60F9257
:101DA0002F933F938F939F93AF93BF93EF93FF93A3
:101DB000E091B9008E2F90E0FC013897E135F105F4
:101DC00008F058C08827EE58FF4F8F4F0C946913C6
:101DD00010922103E091210380912203E81770F40F
:101DE00081E08E0F80932103F0E0ED5DFC4F808158
:101DF0008093BB0085E88093BC0043C080912003A2
:101E000081608093200384E98093BC003AC0E09114
:101E1000210381E08E0F809321038091BB00F0E0CD
:101E2000ED5DFC4F80832091210330E080912203FF
:101E300090E001972817390724F485EC8093BC00C3
:101E400020C085E88093BC001CC08091BB00E0915D
:101E50002103F0E0ED5DFC4F8083809120038160E1
:101E60008093200384E98093BC000BC085EA8093B3
:101E7000BC0007C08091B90080933B0284E080934E
:101E8000BC00FF91EF91BF91AF919F918F913F91D6
:101E90002F910F900BBE0F900FBE0F901F901895B3
:101EA000E2E0F1E080818F7B80832FEF89EF90E08B
:101EB000215080409040E1F700C0000080818064A4
:101EC00080830895E2E0F1E080818F7D80838081CE
:101ED000877F80832FEF39EF80E0215030408040B2
:101EE000E1F700C00000A6E0B1E08C91908198601D
:101EF00090839FEF29EF30E0915020403040E1F790
:101F000000C000002C9190819062908390E0982F07
:101F10008827820F911D08958091270390912803AF
:101F200008958130910541F0029759F4E2E0F1E023
:101F300080818D7F80830895E2E0F1E0808182607E
:101F400080830895EFE4F3E090E59083118282832B
:101F50002FEF80E792E0215080409040E1F700C0F1
:101F6000000063E0CF010E94740E0895E1E0F1E00B
:101F7000808180618083A2E0B1E08C9180618C934C
:101F8000808182608083808180628083808188609C
:101F9000808380818064808380E00E94A20F0E9401
:101FA000500F0895181619063CF421E030E03093E4
:101FB0002A032093290310C0992354F422E030E02F
:101FC00030932A032093290391958195910904C0A8
:101FD00010922A03109229030E94A20F80912903D4
:101FE00090912A030E94910F0895CF93DF93EC0103
:101FF00080E091E00E946F0C1A821B821C821D827D
:102000001982188280E690E09F838E8388E090E0BA
:102010009987888782E090E09B878A8781E591E0B5
:102020009D878C8787EC91E7ACE1B7E08E879F872F
:10203000A88BB98BDF91CF910895DF92EF92FF9239
:102040000F931F93CF93DF93FC01D62E7A018091DB
:102050003D03813009F05CC110923D03062F10E072
:10206000CA0163E270E00E943613EB01061B170BF6
:1020700010933C0300933B03C8010996439720F457
:1020800012821382148215828485958580179107A8
:102090003CF48FEF9FE790933A038093390321C07C
:1020A000919581959109081719073CF481E090E812
:1020B00090933A038093390314C083E090E0B80111
:1020C0000E94361386819781680F791F069FC00191
:1020D000079F900D169F900D112490933A038093C3
:1020E0003903012E000C220B330B82819381A481D2
:1020F000B581A9019801280F391F4A1F5B1F209342
:102100002B0330932C0340932D0350932E0386858D
:102110009785A089B18982179307A407B5078CF426
:102120004FEF5FEF6FEF7FE3409333035093340340
:10213000609335037093360382839383A483B583BE
:102140002DC0B095A095909581959F4FAF4FBF4FF3
:10215000281739074A075B078CF441E050E060E03C
:1021600070EC4093330350933403609335037093C2
:10217000360382839383A483B58310C02283338381
:1021800044835583A085B1850E94801360933303F7
:10219000709334038093350390933603808191814B
:1021A0008E199F0942855385489F9001499F300DA4
:1021B000589F300D11243093380320933703F18258
:1021C000E0828091390390913A03092E000CAA0B0A
:1021D000BB0B4091330350913403609135037091F0
:1021E0003603840F951FA61FB71F409137035091E8
:1021F0003803052E000C660B770B840F951FA61F66
:10220000B71FAC01BD01BB2324F441585F4F6F4F92
:102210007F4F689416F8759567955795479516946E
:10222000D1F749375105610571056CF088E790E0F9
:10223000A0E0B0E080932F0390933003A09331038C
:10224000B093320347C048388FEF580768077807C4
:102250006CF488E89FEFAFEFBFEF80932F0390936C
:102260003003A0933103B093320334C0DB01CA01C1
:102270004597A109B1098297A105B10568F487E3E3
:1022800090E0A0E0B0E080932F0390933003A09300
:102290003103B09332031EC0DB01CA01C696A11DF3
:1022A000B11D8297A105B10548F040932F035093CB
:1022B000300360933103709332030CC089EC9FEFBD
:1022C000AFEFBFEF80932F0390933003A0933103C0
:1022D000B09332031F92DF928AED92E09F938F9327
:1022E0000CE312E01F930F930E949715DF93CF9397
:1022F00089EE92E09F938F931F930F930E949715FF
:102300008DB79EB70C960FB6F8949EBF0FBE8DBFCB
:1023100080912F0390913003DF91CF911F910F9106
:10232000FF90EF90DF900895FC01128213821482D7
:102330001582089581E090E008950E94620F9195C2
:102340008195910908951F920F920FB60F92112453
:102350008F9381E080933D038F910F900FBE0F907C
:102360001F901895269A2E9808952E9A08952E98C3
:1023700008950E94B5112FEF89E698E12150804021
:102380009040E1F700C000000E94B7110895CF937C
:10239000DF93C0914103D0E0CE5ADC4F2881809179
:1023A0003F0390914003821B9109909340038093D7
:1023B0003F030E94F408888390914103E92FF0E0E5
:1023C000EE5AFC4F808120913F0330914003280F4B
:1023D000311D3093400320933F039F5F909341034F
:1023E00060914A02961710F01092410370E0C90103
:1023F0000E942213862FDF91CF910895CF93809171
:102400004A028823C1F0C0E00E94F408EC2FF0E0FB
:10241000EE5AFC4F808320913F0330914003A90185
:10242000480F511D5093400340933F03CF5F80916D
:102430004A02C81748F30E94C71180933E03CF9108
:1024400008950E94C711482F50E020913E0330E0CC
:102450002253310981E0421753070CF080E00895C0
:102460001F920F920FB60F9211248F938091420307
:102470008F5F809342038F910F900FBE0F901F903C
:1024800018951092420361E070E080E091E00E94B4
:10249000BC0C08950E94211291E0811101C090E0CE
:1024A000892F08953F924F925F926F927F928F9201
:1024B0009F92AF92BF92CF92DF92EF92FF920F93D3
:1024C0001F93CF93DF93CDB7DEB72A970FB6F8945B
:1024D000DEBF0FBECDBF0E94411281E090E090931D
:1024E0005602809355020F2EFFEFEF2EF2E0FF2EE3
:1024F000F02D07E512E00F2EFBE48F2EF2E09F2E69
:10250000F02D0F2EF6E03F2EF02D0F2EFCE0AF2E1B
:10251000F3E0BF2EF02D0F2EFAE6CF2EF3E0DF2EE4
:10252000F02D0F2EF6E56F2EF3E07F2EF02D1F928B
:102530001F92FF92EF921F930F930E949715CE0167
:1025400001960E94CC0A59804B800F900F900F90FB
:102550000F900F900F9082E058121CC0F60140823D
:102560008C8181838D81F3018083842D0E94290DCC
:102570000E94620F44275527481B590B642D88E59C
:1025800093E00E941D100E94D20F0E944A128823DD
:10259000D1F122C0F60180810E94290D0E94620FB4
:1025A00044275527481B590B642D88E593E00E946A
:1025B0001D100E94D20FF5E05F1207C00E94B911F2
:1025C0000E944A128823F9F007C00E944A12811122
:1025D00003C084E0581217C0F40132821F921F9288
:1025E000BF92AF921F930F930E949715C4010E9450
:1025F000350B10925602109255020F900F900F90CB
:102600000F900F900F908091550290915602892B58
:1026100009F08DCF2A960FB6F894DEBF0FBECDBF5E
:10262000DF91CF911F910F91FF90EF90DF90CF90AE
:10263000BF90AF909F908F907F906F905F904F90E2
:102640003F900895AA1BBB1B51E107C0AA1FBB1FE7
:10265000A617B70710F0A61BB70B881F991F5A952E
:10266000A9F780959095BC01CD01089597FB072EA1
:1026700016F4009407D077FD09D00E94221307FCBE
:1026800005D03EF4909581959F4F08957095619582
:102690007F4F0895052E97FB1EF400940E9461134E
:1026A00057FD07D00E94881307FC03D04EF40C940A
:1026B000611350954095309521953F4F4F4F5F4F97
:1026C000089590958095709561957F4F8F4F9F4F9E
:1026D0000895EE0FFF1F881F8BBF0790F691E02D26
:1026E0001994A29FB001B39FC001A39F700D811DDB
:1026F0001124911DB29F700D811D1124911D08950B
:10270000B7FF0C94AA130E94AA13821B930B08957F
:10271000A1E21A2EAA1BBB1BFD010DC0AA1FBB1FE5
:10272000EE1FFF1FA217B307E407F50720F0A21B57
:10273000B30BE40BF50B661F771F881F991F1A94C4
:1027400069F760957095809590959B01AC01BD01EE
:10275000CF0108950E947113A59F900DB49F900D15
:10276000A49F800D911D112408955058BB27AA27BE
:102770000E94CD130C94A5140E94971438F00E9467
:102780009E1420F039F49F3F19F426F40C9494140D
:102790000EF4E095E7FB0C948E14E92F0E94B6141A
:1027A00058F3BA17620773078407950720F079F486
:1027B000A6F50C94D8140EF4E0950B2EBA2FA02D8C
:1027C0000B01B90190010C01CA01A0011124FF27DE
:1027D000591B99F0593F50F4503E68F11A16F040D9
:1027E000A22F232F342F4427585FF3CF46953795D8
:1027F0002795A795F0405395C9F77EF41F16BA0B9D
:10280000620B730B840BBAF09150A1F0FF0FBB1F4A
:10281000661F771F881FC2F70EC0BA0F621F731F93
:10282000841F48F4879577956795B795F7959E3FF0
:1028300008F0B0CF9395880F08F09927EE0F979581
:10284000879508950E94BE1488F09F5798F0B92F7D
:102850009927B751B0F0E1F0660F771F881F991FD5
:102860001AF0BA95C9F714C0B13091F00E94D8148B
:10287000B1E008950C94D814672F782F8827B85F9B
:1028800039F0B93FCCF3869577956795B395D9F72D
:102890003EF490958095709561957F4F8F4F9F4F37
:1028A0000895E89409C097FB3EF490958095709543
:1028B00061957F4F8F4F9F4F9923A9F0F92F96E98C
:1028C000BB279395F695879577956795B795F11101
:1028D000F8CFFAF4BB0F11F460FF1BC06F5F7F4F9E
:1028E0008F4F9F4F16C0882311F096E911C07723B0
:1028F00021F09EE8872F762F05C0662371F096E8B9
:10290000862F70E060E02AF09A95660F771F881F87
:10291000DAF7880F9695879597F9089597F99F6745
:1029200080E870E060E008959FEF80EC0895002457
:102930000A941616170618060906089500240A9424
:1029400012161306140605060895092E0394000CAA
:1029500011F4882352F0BB0F40F4BF2B11F460FF39
:1029600004C06F5F7F4F8F4F9F4F089557FD905862
:10297000440F551F59F05F3F71F04795880F97FB43
:10298000991F61F09F3F79F08795089512161306FD
:102990001406551FF2CF4695F1DF08C0161617062C
:1029A0001806991FF1CF8695710561050894089561
:1029B000E894BB2766277727CB0197F908950E94F3
:1029C000F2140C94A5140E94971438F00E949E14DF
:1029D00020F0952311F00C948E140C94941411246F
:1029E0000C94D9140E94B61470F3959FC1F3950FFF
:1029F00050E0551F629FF001729FBB27F00DB11D83
:102A0000639FAA27F00DB11DAA1F649F6627B00D12
:102A1000A11D661F829F2227B00DA11D621F739FFB
:102A2000B00DA11D621F839FA00D611D221F749F09
:102A30003327A00D611D231F849F600D211D822F50
:102A4000762F6A2F11249F5750409AF0F1F0882377
:102A50004AF0EE0FFF1FBB1F661F771F881F9150A4
:102A60005040A9F79E3F510580F00C948E140C94B1
:102A7000D9145F3FE4F3983ED4F386957795679534
:102A8000B795F795E7959F5FC1F7FE2B880F911DCE
:102A90009695879597F908950F931F93CF93DF939A
:102AA000009731F46115710519F480E090E03AC0A7
:102AB0008B01EC016EE070E081E090E00E94A217D3
:102AC000FC01892B91F380E883830115110571F0D6
:102AD0001387028781E8838380916E0390916F034F
:102AE000892B21F4F0936F03E0936E032097C9F0D4
:102AF000D187C087838182608383809170039091A6
:102B00007103892B71F4F0937103E093700380914A
:102B1000720390917303892B21F4F0937303E09374
:102B20007203CF01DF91CF911F910F910895CF9341
:102B3000DF93CDB7DEB7AE01465F5F4F688579851D
:102B40008E819F810E94A715DF91CF9108952F92CA
:102B50003F924F925F926F927F928F929F92AF922D
:102B6000BF92CF92DF92EF92FF920F931F93CF937A
:102B7000DF93CDB7DEB72C970FB6F894DEBF0FBE4C
:102B8000CDBF7C016B018A01FC0117821682838113
:102B900081FFBDC1CE0101964C01F7019381F60181
:102BA00093FD859193FF81916F01882309F4ABC157
:102BB000853239F493FD859193FF81916F018532C0
:102BC00029F4B70190E00E940819E7CF512C312C6D
:102BD00020E02032A0F48B3269F030F4803259F0DA
:102BE000833269F420612CC08D3239F0803339F49E
:102BF000216026C02260246023C0286021C027FDF8
:102C000027C030ED380F3A3078F426FF06C0FAE0DE
:102C10005F9E300D1124532E13C08AE0389E300D74
:102C20001124332E20620CC08E3221F426FD6BC19C
:102C3000206406C08C3611F4206802C0883641F446
:102C4000F60193FD859193FF81916F018111C1CFB1
:102C5000982F9F7D9554933028F40C5F1F4FFFE30E
:102C6000F9830DC0833631F0833771F0833509F075
:102C70005BC022C0F801808189830E5F1F4F44240E
:102C80004394512C540115C03801F2E06F0E711CB1
:102C9000F801A080B18026FF03C0652D70E002C05E
:102CA0006FEF7FEFC5012C870E94FD182C01830177
:102CB0002C852F77222E17C03801F2E06F0E711C81
:102CC000F801A080B18026FF03C0652D70E002C02E
:102CD0006FEF7FEFC5012C870E94EB182C012C852C
:102CE0002068222E830123FC1BC0832D90E0481610
:102CF0005906B0F4B70180E290E00E9408193A94B6
:102D0000F4CFF50127FC859127FE81915F01B70182
:102D100090E00E94081931103A94F1E04F1A5108DE
:102D20004114510471F7E5C0843611F0893639F544
:102D3000F80127FF07C060817181828193810C5F58
:102D40001F4F08C060817181072E000C880B990B02
:102D50000E5F1F4F2F76722E97FF09C090958095BA
:102D6000709561957F4F8F4F9F4F2068722E2AE09C
:102D700030E0A4010E944019A82EA81844C085374D
:102D800029F42F7EB22E2AE030E025C0F22FF97F01
:102D9000BF2E8F36C1F018F4883579F0B4C0803773
:102DA00019F0883721F0AFC02F2F2061B22EB4FE6A
:102DB0000DC08B2D8460B82E09C024FF0AC09F2F40
:102DC0009660B92E06C028E030E005C020E130E072
:102DD00002C020E132E0F801B7FE07C060817181D6
:102DE000828193810C5F1F4F06C06081718180E0FA
:102DF00090E00E5F1F4FA4010E944019A82EA81852
:102E0000FB2DFF777F2E76FE0BC0372D3E7FA5145E
:102E100050F474FE0AC072FC08C0372D3E7E05C017
:102E2000BA2C372D03C0BA2C01C0B52C34FF0DC00D
:102E3000FE01EA0DF11D8081803311F4397E09C055
:102E400032FF06C0B394B39404C0832F867809F090
:102E5000B39433FD13C030FF06C05A2CB31418F4DA
:102E6000530C5B18B32CB31468F4B70180E290E004
:102E70003C870E940819B3943C85F5CFB31410F435
:102E80003B1801C0312C34FF12C0B70180E390E041
:102E90003C870E9408193C8532FF17C031FD03C0F2
:102EA00088E790E002C088E590E0B7010CC0832F6E
:102EB000867859F031FF02C08BE201C080E237FD15
:102EC0008DE2B70190E00E940819A51438F4B7010B
:102ED00080E390E00E9408195A94F7CFAA94F40175
:102EE000EA0DF11D8081B70190E00E940819A11040
:102EF000F5CF332009F451CEB70180E290E00E9473
:102F000008193A94F6CFF7018681978102C08FEFB6
:102F10009FEF2C960FB6F894DEBF0FBECDBFDF91AA
:102F2000CF911F910F91FF90EF90DF90CF90BF90C6
:102F3000AF909F908F907F906F905F904F903F9059
:102F40002F9008950F931F93CF93DF93869F800157
:102F5000879F100D969F100D1124C8010E94BE1767
:102F6000EC01009729F0A80160E070E00E94F618DB
:102F7000CE01DF91CF911F910F910895CF93DF93F1
:102F80008230910510F482E090E0E0917603F091B8
:102F9000770320E030E0C0E0D0E0309711F14081CD
:102FA000518148175907C0F04817590761F48281C9
:102FB0009381209719F09B838A832BC0909377038A
:102FC0008093760326C02115310519F04217530767
:102FD00018F49A01BE01DF01EF010280F381E02DB8
:102FE000DCCF2115310509F1281B390B24303105BF
:102FF00090F412968D919C9113976115710521F0B3
:10300000FB019383828304C09093770380937603BC
:10301000FD01329644C0FD01E20FF31F81939193AD
:10302000225031092D933C933AC020917403309182
:103030007503232B41F4209167023091680230938D
:103040007503209374032091650230916602211567
:10305000310541F42DB73EB74091690250916A02A3
:10306000241B350BE0917403F0917503E217F3070D
:10307000A0F42E1B3F0B2817390778F0AC014E5FE8
:103080005F4F2417350748F04E0F5F1F50937503AD
:10309000409374038193919302C0E0E0F0E0CF018C
:1030A000DF91CF9108950F931F93CF93DF930097F4
:1030B00009F48CC0FC0132971382128200917603CE
:1030C000109177030115110581F420813181820F60
:1030D000931F20917403309175032817390779F5F0
:1030E000F0937503E093740371C0D80140E050E0A1
:1030F000AE17BF0750F412962D913C911397AD0176
:103100002115310509F1D901F3CF9D01DA0133838E
:10311000228360817181860F971F8217930769F45C
:10312000EC0128813981260F371F2E5F3F4F3183F5
:1031300020838A819B8193838283452B29F4F0939A
:103140007703E093760342C01396FC93EE931297B5
:10315000ED01499159919E01240F351FE217F307A4
:1031600071F480819181840F951F029611969C9332
:103170008E938281938113969C938E931297E0E0B5
:10318000F0E0D80112968D919C911397009719F059
:10319000F8018C01F6CF8D919C9198012E5F3F4FE5
:1031A000820F931F209174033091750328173907FC
:1031B00069F4309729F4109277031092760302C0D5
:1031C000138212821093750300937403DF91CF91E1
:1031D0001F910F910895FC010590615070400110FE
:1031E000D8F7809590958E0F9F1F0895DC0101C040
:1031F0006D9341505040E0F70895FC0161507040DC
:1032000001900110D8F7809590958E0F9F1F08951B
:103210000F931F93CF93DF93FB01238121FD03C005
:103220008FEF9FEF28C022FF16C04681578124816F
:1032300035814217530744F4A081B1819D012F5F6E
:103240003F4F318320838C93268137812F5F3F4FFF
:103250003783268310C0EB01092F182F0084F185D6
:10326000E02D1995892BE1F68E819F8101969F8330
:103270008E83812F902FDF91CF911F910F91089511
:10328000FA01AA27283051F1203181F1E8946F9397
:103290006E7F6E5F7F4F8F4F9F4FAF4FB1E03ED03D
:1032A000B4E03CD0670F781F891F9A1FA11D680FDB
:1032B000791F8A1F911DA11D6A0F711D811D911D0E
:1032C000A11D20D009F468943F912AE0269F112483
:1032D0003019305D3193DEF6CF010895462F4770E7
:1032E000405D4193B3E00FD0C9F7F6CF462F4F7042
:1032F000405D4A3318F0495D31FD4052419302D0A0
:10330000A9F7EACFB4E0A695979587957795679545
:10331000BA95C9F700976105710508959B01AC0145
:103320000A2E06945795479537952795BA95C9F76C
:10333000620F731F841F951FA01D0895F894FFCF7F
:103340000000000200000000C308000000000404A8
:10335000000000000200000000C3080000000000A0
:1033600000000200000000C3080000000000000090
:103370000200000000C30800000000F80000000286
:1033800000000000C308000000000401010000006C
:10339000000000000001000000000200000000C367
:1033A0000800000000000078032000494E49542026
:1033B0000A0D004552524F5220253478200D0A0044
:1033C0004D435032353135206973204E4F542069BA
:1033D0006E20636F6E66696775726174696F6E20C7
:1033E0006D6F6465206166746572207265736574C3
:1033F000210D0A00504235005045330053495A45CB
:10340000202534642020200A0D00746869734E6FF3
:10341000746520253464200A0D002C2073657450D7
:103420006F696E7420253464002C2070726F6365A0
:10343000737356616C756520253464200D0A002075
:103440002020506C6179696E670D0A0053636F72BA
:08345000652073656E74210014
:00000001FF
