:100000000C944F080C9470080C9470080C947008B1
:100010000C9470080C9470080C9470080C94700880
:100020000C9470080C9470080C9470080C94700870
:100030000C9470080C9470080C9470080C94700860
:100040000C9470080C9470080C9470080C94700850
:100050000C9470080C9470080C9470080C94700840
:100060000C9470080C9470080C9470080C94700830
:100070000C9470080C9470080C9470080C94700820
:100080000C9463110C9470080C9470080C94700814
:100090000C9470080C9470080C9470080C94D90E91
:1000A0000C9470080C9470080C9470080C947008F0
:1000B0000C9470080C9470080C9470080C94F01157
:1000C0000C9470080C9470080C9470080C947008D0
:1000D0000C9470080C9470080C9470080C947008C0
:1000E0000C947008F80E4A0F4A0F4A0F4A0F4A0F35
:1000F0004A0F4A0FF80E4A0F4A0F4A0F4A0F4A0F8B
:100100004A0F4A0FFA0E4A0F4A0F4A0F4A0F4A0F78
:100110004A0F4A0F4A0F4A0F4A0F4A0F4A0F4A0F17
:100120004A0F4A0FFA0E4A0F4A0F4A0F4A0F4A0F58
:100130004A0F4A0F4A0F4A0F4A0F4A0F4A0F4A0FF7
:100140004A0F4A0F460F4A0F4A0F4A0F4A0F4A0FEB
:100150004A0F4A0F230F4A0F4A0F4A0F4A0F4A0FFE
:100160004A0F4A0F4A0F4A0F4A0F4A0F4A0F4A0FC7
:100170004A0F4A0F170F4A0F4A0F4A0F4A0F4A0FEA
:100180004A0F4A0F350F0C94350F0C94170F0C942F
:10019000460F0C94DB080C94D3080C94F80E0C94C6
:1001A000230F0C94FA0E0C944A0F0C0C0C0C0C0C34
:1001B0000C0C0C0C0C0C0C0C0C0C0C0C0C0C0C0C7F
:1001C0000C0C0C0C0C0C0C0C0C0C0909090C0C0C78
:1001D0000C0C0C0C0C0C0C0C0C0C0C0C0C0C0C0C5F
:1001E0000C0C0C0C0C0C0C0C0C0909090C0C0C0C58
:1001F0000C0C0C0C0C0C0C0C00000000000000009F
:1002000000000000000000000000000000000000EE
:1002100000000000000000000000000000000C0CC6
:100220000C0C0C0C06030C0C0C0C0C0C06030C0C2C
:100230000C0C0C0C06030C0C0C0C0C0C060612120D
:10024000120606060606061212121212120A0A0AEE
:100250000A0A0A03031E000000000000000000005C
:10026000000000000000000000000000000000008E
:10027000000000000000000000000000000000007E
:10028000000000000000000000000000000000006E
:10029000000018180C0C0C180C1818180C180C0C62
:1002A0000C0C180C18180C181818180C180C181816
:1002B000180C0C180818180808180C18180C00004E
:1002C000000000000000000000000000000000002E
:1002D000000000000000000000000000000000001E
:1002E000000000000000000000000000000000000E
:1002F00000000000000000000000000000000000FE
:1003000000000000000002020204080602040806C1
:10031000020802020204080602040806020802108B
:10032000040408020804060604040804020804047D
:10033000060402080402040402080406020802106B
:10034000040408020804060604040804020804045D
:100350000604020804020204020408040200000069
:10036000000000000000000000000000000000008D
:10037000000000000000000000000808080808084D
:1003800004080808080808040808080808080808F5
:1003900008080808080804080808080808040808E5
:1003A00008080808040808080808080808080808D1
:1003B00008080804080808080808040808080808C5
:1003C00008040808080808080808080808080808B1
:1003D00004080808080808040808080808080408A9
:1003E0000808080808080808080808080804040499
:1003F00004040404020404040404040204040404C1
:1004000004040204040404040402040404040404B0
:1004100002040404040404020000000000000000C0
:1004200000000000000000000000000000000000CC
:1004300000000000000000000000000000000000BC
:1004400000000000000000000000000000000000AC
:10045000000000000000000000000000000000009C
:100460000000020404080404040204040804040450
:100470000404040804080404010402040408040435
:100480000402040408040404040404080408040422
:10049000010408040404020404080404040204041B
:1004A000080404040404040804080404010000000F
:1004B000000000000000000000000000000000003C
:1004C000000000000000000000000000000000002C
:1004D0000000000000000204020202020202040402
:1004E00004040204020202020204020202020202E4
:1004F00004040404020402020202020402020204CE
:1005000002020404020404020202020202040202C1
:1005100002020202040404040204020202020000B5
:1005200000000000000000000000000000000000CB
:1005300000000000000000000000000000000000BB
:10054000000000000000000000000202020202029F
:100550000202020202020204040204020202020275
:100560000202020202020202040402040202020265
:100570000204040202020404020202020104020252
:10058000020202020202020202020204040200004B
:10059000000000000000000000000000000000005B
:1005A000000000000000000000000000000000004B
:1005B0000000000000000000000000000000020237
:1005C000020202020102020202010202020202020D
:1005D00002020102020202010204040202020404F5
:1005E00002020104040204040204040404020204DA
:1005F00002020202020201020202020101000000E4
:1006000000000000000000000000000000000000EA
:1006100000000000000000000000000000000000DA
:1006200000000000000000000000000000000000CA
:10063000000001101004040110100808040110103B
:10064000040402041010080808080404101004042C
:10065000011010080804011010040402041010080E
:100660000808080410100410100808080804040200
:10067000080410100100000000000000000000004D
:10068000000000000000000000000000000000006A
:10069000000000000000000000000000000000005A
:1006A0000000000000004D0A4D0A00004D0A000045
:1006B0002D084D0A0000400C00000000000020063C
:1006C0000000000000002D080000000020060000CF
:1006D0000000270500000000E0060000B807000049
:1006E0004907E006000020064D0A400CC00D00003E
:1006F000EA0A400C00004D0A00002D082D09B80739
:10070000000000002D08000000002006000000008E
:10071000270500000000E0060000B80700004907B8
:10072000E006000020064D0A400CC00D0000EA0A59
:10073000400C00004D0A00002D082D09B8070000EC
:1007400000000000000000000000000000000000A9
:100750000000000000000000000000000000000099
:100760000000000000000000000000000000000089
:100770000000000000000000000000000000000079
:100780000000000000000000000000000000060162
:100790000B02DC00B801E900D201000000000601F4
:1007A0000B02DC00B801E900D20100000000AF003C
:1007B0005D01930026019C00370100000000AF009E
:1007C0005D01930026019C00370100000000370105
:1007D00015012601150137013701D000C4001501AC
:1007E000060172015D01A500D201B8019F01370128
:1007F000F700E900DC00D00000000000000000006D
:1008000000000000000000000000000000000000E8
:1008100000000000000000000000000000000000D8
:1008200000000000000000000000000000000000C8
:1008300000000000000000000000000000000000B8
:1008400000000000000000000000000000000000A8
:100850000000000000000000000000000000000098
:100860000000000000000000000000000000000088
:100870000000000000004B021003100310031003DF
:10088000E402E40293024B0293024B024B020B027E
:10089000DC037003880100000B02DC037003880195
:1008A0000000100300001003100300001003E40216
:1008B0000000930293024B024B020B020B020B024D
:1008C0004B024B027003DC0370038801100300002D
:1008D0000000000000000000000000000000000018
:1008E0000000000000000000000000000000000008
:1008F00000000000000000000000000000000000F8
:1009000000000000000000000000000000000000E7
:1009100000000000000000000000000000000000D7
:1009200000000000000000000000000000000000C7
:1009300000000000000000000000000000000000B7
:1009400000000000000000000000000000000000A7
:10095000000000000000000000000000000088010E
:100960008801880137010000D201880137010000A9
:10097000D20188010000260126012601370100006E
:10098000E900B9009C000000E900C40000008801F3
:100990000000C400C40000008801000072015D0175
:1009A0004A0137014A010000D0008B00000083009B
:1009B000F700E900DC00E90000009C00B9009C00A1
:1009C000B900E9000000C400E90026010000880128
:1009D0000000C400C40000008801000072015D0135
:1009E0004A0137014A010000D0008B00000083005B
:1009F000F700E900DC00E90000009C00B9009C0061
:100A0000E900C4009C000000E900C40000000000F0
:100A100000000000000000000000000000000000D6
:100A200000000000000000000000000000000000C6
:100A300000000000000000000000000000000000B6
:100A4000000000000000B8018801B8014A01060159
:100A50004A01DC00B8018801B8014A0106014A01D7
:100A6000DC00B801EE010B02EE010B02B801EE0151
:100A7000B801EE018801B8018801B8015D01B80133
:100A8000B8018801B8014A0106014A01DC00B80139
:100A90008801B8014A0106014A01DC00B801EE01F3
:100AA0000B02EE010B02B801EE01B801EE01880164
:100AB000B8018801B801EE010B0293024B029302C8
:100AC0000B0288010B024A0193024B0293020B02B4
:100AD00088010B024A019302E4021003E4021003AE
:100AE0009302E4029302E4024B0293024B0293024C
:100AF0000B02930293024B0293020B0288010B023A
:100B00004A0193024B0293020B0288010B024A0135
:100B10009302E4021003E40210039302E40293023E
:100B2000E4024B0293024B02EE014B0293020601D8
:100B3000060188018801B801B80188015D015D01E5
:100B40004A014A01260126010601880188015D014A
:100B50005D014A014A012601880188015D015D01AC
:100B60004A014A0126010601060188018801B801EF
:100B7000B80188015D015D014A014A012601260193
:100B8000060100000000000000000000000000005E
:100B90000000000000000000000000000000000055
:100BA0000000000000000000000000000000000045
:100BB0000000000000000000000000000000000035
:100BC0000000000000000000000000000000000025
:100BD0000000000000000000000000000000000015
:100BE0000000000000000000000000000000000005
:100BF00000000000000000000000000000000000F5
:100C000000000000000000000000000000000000E4
:100C1000000000000000B8010B02B801B8014B024F
:100C2000B8018801B8019302B801B801BA02930271
:100C30000B02B80193027003B801880188014A01D0
:100C4000EE01B8010000B8010B02B801B8014B0277
:100C5000B8018801B8019302B801B801BA02930241
:100C60000B02B80193027003B801880188014A01A0
:100C7000EE01B8010000DC00C400A5009300B8013B
:100C80000B02B801B8014B02B8018801B801930208
:100C9000B801B801BA0293020B02B80193027003C3
:100CA000B801880188014A01EE01B8010000000086
:100CB0000000000000000000000000000000000034
:100CC0000000000000000000000000000000000024
:100CD0000000000000000000000000000000000014
:100CE0000000000000000000000000000000000004
:100CF00000000000000000000000000000001003E1
:100D0000BA0293024B020B024B0293020B024B02FC
:100D10009302BA024B0293024B020B02EE010B024A
:100D200000001003BA0293024B020B024B02930223
:100D30000B024B029302BA024B0293024B020B02CC
:100D4000EE010B0200004B029302BA024B02930227
:100D5000BA0210034B029302BA0210037003DC03C1
:100D60001704DC037003100300001003BA0293029F
:100D70004B020B024B0293020B024B029302BA028C
:100D80004B0293024B020B02EE010B02000000002B
:100D90000000000000000000000000000000000053
:100DA0000000000000000000000000000000000043
:100DB0000000000000000000000000000000000033
:100DC0000000000000000000000000000000000023
:100DD0000000000000000000000000000000000013
:100DE0000000000000004A014A015D0188018801FD
:100DF0005D014A0126010601060126014A014A0158
:100E000000002601260100004A014A015D01880117
:100E100088015D014A0126010601060126014A01F9
:100E200026010000060106010000260126014A01F4
:100E3000060126014A015D014A01060126014A0117
:100E40005D014A01260106012601C40000004A0195
:100E50004A015D01880188015D014A012601060100
:100E6000060126014A0126010000060106010000D4
:100E70000000000000000000000000000000000072
:100E80000000000000000000000000000000000062
:100E90000000000000000000000000000000000052
:100EA0000000000000000000000000000000000042
:100EB0000000000000000000000000000000000032
:100EC00000000000000000000000000000000B0215
:100ED0000B020B028801B801B8018801930293024A
:100EE0004B024B020B02000088010B020B020B02AB
:100EF0008801B801B8018801930293024B024B02AA
:100F00000B020000880188010B020B020B02880112
:100F100088010B020B0288010B020B020B020B0271
:100F20000B020B020B020B020B020B020B020B0259
:100F300000000B020B020B028801B801B801880106
:100F4000930293024B024B020B02000000000000D0
:100F50000000000000000000000000000000000091
:100F60000000000000000000000000000000000081
:100F70000000000000000000000000000000000071
:100F80000000000000000000000000000000000061
:100F90000000000000000000000000000000000051
:100FA0000000000000000000000000000000000041
:100FB000000000000000DC0093024B029302B80125
:100FC000AF00BA029302BA0293024B029300BA0234
:100FD0009302BA02B801C40000004B020B024B029C
:100FE0000B02EE014B020B02DC0093024B02930258
:100FF000B801AF00BA029302BA0293024B02930007
:10100000BA029302BA02B801C40000004B020B02FC
:101010004B020B02EE014B020B02EE010B024B02E4
:101020000B024B0293024B020B02EE01B801BA0213
:1010300093029302BA0293024B0293020000000053
:1010400000000000000000000000000000000000A0
:101050000000000000000000000000000000000090
:101060000000000000000000000000000000000080
:101070000000000000000000000000000000000070
:101080000000000000000000000000000000000060
:10109000000000000000000000000000000011241B
:1010A0001FBECFEFD1E2DEBFCDBF00E00CBF13E02B
:1010B000A0E0B2E0EAE5F2E300E00BBF02C0079077
:1010C0000D92AE36B107D9F723E0AEE6B3E001C02A
:1010D0001D92AB3BB207E1F70E9472080C942B19EA
:1010E0000C940000CF93DF93CDB7DEB72A970FB6ED
:1010F000F894DEBF0FBECDBFF89487E690E00E9463
:10110000E3081F921F928AE692E09F938F9380E0FC
:1011100092E09F938F930E9424150E94580D0E9485
:10112000B40A0E94CA0A0E946E0E0E94320D0E94EA
:10113000F4080E94C60F0E9472110E94BE1178949A
:101140000F900F900F900F900F900F900F2EF2E7CF
:10115000CF2EF2E0DF2EF02D0F2EF0E0EF2EF2E09A
:10116000FF2EF02DCE0101960E94DC0A19818B81A1
:101170001F928F931F921F93DF92CF92FF92EF9255
:101180000E9424150FB6F894DEBF0FBECDBF1330FA
:1011900049F70E941212E6CF089A109A0895109803
:1011A0000895109A0895E0ECF0E0908195FFFDCF4E
:1011B0008093C6000895E0ECF0E080818823ECF78E
:1011C0008091C60008959093C5008093C40088E183
:1011D0008093C1008EE08093C2006BED78E083EDD8
:1011E00098E00E94D9140895809A8898EAE7F0E080
:1011F000808180688083ACE7B0E08C91806C8C93B8
:101200008081876080830895EAE7F0E080818064D0
:101210008083808184FFFDCF2091780080917900C8
:1012200090E0982F8827820F911D0895EF92FF92EA
:101230001F93CF93DF93209A219A80910E028823E7
:1012400081F110E0C12FD0E084E090E00E94040919
:101250009E0122563C4F7901F901808385E090E0A0
:101260000E940409C656DC4F8883F70190812091C3
:10127000700330917103290F311D30937103209356
:10128000700320916E0330916F03A901480F511D27
:1012900050936F0340936E031F5F80910E021817E7
:1012A00088F2E6E9F3E080919E03828380919A03BD
:1012B0008383DF91CF911F91FF90EF900895CF939B
:1012C000DF938091720390E0EC01C256DC4F4881BD
:1012D0002091700330917103241B31093093710305
:1012E00020937003FC01E656FC4F208180916E0331
:1012F00090916F03821B910990936F0380936E030B
:1013000084E090E00E9404098883C0917203D0E0D9
:1013100085E090E00E940409C656DC4F88839091D6
:101320007203292F30E0F901E256FC4F8081409191
:10133000700350917103480F511D509371034093F6
:101340007003F901E656FC4F8081E0916E03F09145
:101350006F03E80FF11DF0936F03E0936E039F5F3F
:101360009093720320910E02921710F01092720364
:1013700030E0CA01B9010E94C212EB01CF01B901EC
:101380000E94C212AB019E0133278091980390E026
:10139000BC016F5F7F4F2617370731F00197281781
:1013A000390711F0C09396039A013327809199036E
:1013B00090E0BC016F5F7F4F2617370731F0019730
:1013C0002817390711F040939703DF91CF910895C3
:1013D0000E945F0960919603709197038091980332
:1013E000909199030895CF93DF9386E090E00E9457
:1013F0000409EC0187E090E00E94040999272091FC
:10140000730330E0A90144505109481759072CF4DF
:101410002C5F3F4F8217930734F087E090E00E94E3
:10142000040980937303CE0199272091740330E05F
:10143000A90144505109481759072CF42C5F3F4F1C
:101440008217930734F086E090E00E9404098093AD
:101450007403DF91CF9108950E94F3098091730383
:101460009091740308958F3B91058CF16F3B71054A
:101470008CF0681779073CF481E090E090931002BB
:1014800080930F026CC082E090E0909310028093F2
:101490000F0265C0603471059CF4660F771F6817F2
:1014A00079073CF481E090E09093100280930F0262
:1014B00056C083E090E09093100280930F024FC0DB
:1014C00081E090E09093100280930F0248C0803436
:1014D00091055CF56F3B71058CF0880F991F6817BB
:1014E00079072CF41092100210920F0238C082E09B
:1014F00090E09093100280930F0231C06034710528
:101500007CF4681779072CF41092100210920F02E5
:1015100026C083E090E09093100280930F021FC0DA
:101520001092100210920F021AC06F3B71053CF02E
:1015300082E090E09093100280930F0210C060341C
:1015400071053CF483E090E09093100280930F02C9
:1015500006C084E090E09093100280930F02809187
:101560000F0290911002089587E884B981E58CBD3F
:1015700008958EBD0DB407FEFDCF089581E00E9451
:10158000B90A0DB407FEFDCF8EB508952F980895C2
:101590002F9A08950E94C20B40E060EE8FE00E94F7
:1015A000010C4FEF61E08BE20E94010C4FEF60E60F
:1015B00080E60E94010C0895AF92BF92CF92DF9215
:1015C000EF92FF920F931F93CF93DF93CDB7DEB7C8
:1015D0002A970FB6F894DEBF0FBECDBF5C0181E63F
:1015E0000E94B00B182F82E60E94B00B8295869560
:1015F0008770110F110F110FD82ED10E85E60E94A2
:10160000B00B8F70C82E81F07E0183E0E80EF11CD4
:1016100006E60C0D16E6812F0E94B00BF7018193B0
:101620007F011F5F1013F7CF40E061E08CE20E9462
:10163000010CD982CA828AE0FE013196D50101905F
:101640000D928A95E1F7C5012A960FB6F894DEBF90
:101650000FBECDBFDF91CF911F910F91FF90EF9003
:10166000DF90CF90BF90AF90089580E30E94B00BC1
:1016700084FD08C080E30E94B00B85FB882780F9B9
:1016800090E0089581E090E008950F931F93CF9329
:101690008C010E94350B892BA9F080E30E94B00BCE
:1016A0001F928F938DE892E09F938F9381E192E058
:1016B0009F938F930E9424150F900F900F900F907F
:1016C0000F900F90F80140814695469546956FEF33
:1016D00081E30E94010CF80140814295440F407E55
:1016E00060EE82E30E94010CF80141816FE085E326
:1016F0000E94010CF8018181882379F0C0E0F80193
:10170000EC0FF11D42816FEF86E38C0F0E94010CFC
:10171000CF5FF8018181C81790F381E80E94F60B32
:10172000CF911F910F9108950E94C60A80EC0E94EC
:10173000B90A0E94C80A8FE39CE90197F1F700C03B
:1017400000000895CF930E94C60A80EA0E94B90A59
:101750000E94BE0AC82F0E94C80A8C2FCF910895FC
:10176000CF93C82F0E94C60A83E00E94B90A8C2F2B
:101770000E94B90A0E94BE0AC82F0E94C80A8C2F74
:10178000CF9108950E94B40A0E94940B8EE00E94AB
:10179000B00B807E8038A1F01F921F928AE992E000
:1017A0009F938F938FE192E09F938F930E942415D4
:1017B0000F900F900F900F900F900F9081E0089571
:1017C00080E00895CF93DF93C82FD62F0E94C60ADA
:1017D00082E00E94B90A8D2F0E94B90A8C2F0E94C4
:1017E000B90A0E94C80ADF91CF910895CF93C82FFC
:1017F0000E94C60A8C2F0E94B90A0E94C80ACF9183
:1018000008951F93CF93DF93182FD62FC42F0E94D4
:10181000C60A85E00E94B90A812F0E94B90A8D2F5D
:101820000E94B90A8C2F0E94B90A0E94C80ADF914F
:10183000CF911F9108958034910589F030F4813063
:101840009105A9F0089749F010C0811521E0920791
:1018500041F08115944039F008C082E0089583E09A
:10186000089584E0089585E0089580E0089581E07A
:101870000895CF92DF92EF92FF920F931F93CF9331
:10188000DF938C016B01C0E8D0E08881826088839F
:101890000F2EF1E8EF2EF12CF02DF70180818861F9
:1018A0008083C8010E941B0CF7019081892B8083E3
:1018B000888180688883259A960140E050E060E046
:1018C00074E284EF90E00E94EA12CA01B901980123
:1018D00040E050E00E94EA12215031093093870025
:1018E000209386001092890010928800DF91CF919A
:1018F0001F910F91FF90EF90DF90CF900895CF92BE
:10190000DF92EF92FF920F931F93CF93DF938C019F
:101910006B01C0E9D0E08881826088830F2EF1E9F5
:10192000EF2EF12CF02DF701808188618083C801B2
:101930000E941B0CF7019081892B8083888180682D
:1019400088836B9A960140E050E060E074E284EF97
:1019500090E00E94EA12CA01B901980140E050E00B
:101960000E94EA122150310930939700209396008B
:1019700080E290E09093990080939800E1E7F0E096
:10198000808182608083DF91CF911F910F91FF90C2
:10199000EF90DF90CF900895CF92DF92EF92FF9279
:1019A0000F931F93CF93DF938C016B01C0E2D1E0C3
:1019B0008881826088830F2EF1E2EF2EFF24F3945A
:1019C000F02DF701808188618083C8010E941B0C83
:1019D000F7019081892B8083888180688883EAE081
:1019E000F1E0808188608083960140E050E060E013
:1019F00074E284EF90E00E94EA12CA01B9019801F2
:101A000040E050E00E94EA12215031093093270152
:101A10002093260180E290E0909329018093280191
:101A2000E3E7F0E0808182608083DF91CF911F91B6
:101A30000F91FF90EF90DF90CF900895089522E0EE
:101A40008E3C920731F470E07093890060938800B7
:101A50000895825D924029F470E07093990060933C
:101A60009800089562E370E080E091E00E94390CF4
:101A70000895682F70E080E090E00E94E01323E377
:101A800033E343E35EE30E946C1420E030E040E681
:101A900052E40E9443130E94AF13653608F064E6D7
:101AA000683308F468E38EEC92E00E941F0D0895FD
:101AB0006A9A72980895729A089572980895009794
:101AC00041F0EFE9FFE03197F1F700C00000019726
:101AD000C1F70895009731F025E02A95F1F700004D
:101AE0000197D1F70895EF92FF920F931F93CF9331
:101AF000DF93EC01F62E9C0140E050E060E271EAD9
:101B000087E090E00E94EA128901FC9E9001FD9E10
:101B1000300D1124369527953695279536952795BE
:101B2000A5ECB0E20E9411137C01F694E794F694C0
:101B3000E794F694E794F694E794E114F10481F0C5
:101B4000C0E0D0E00E945B0DC8010E946A0D0E94B7
:101B50005D0DC8010E946A0D2196CE15DF0591F733
:101B6000DF91CF911F910F91FF90EF900895AF9269
:101B7000BF92CF92DF92EF92FF920F931F93CF937A
:101B8000DF93E82E1F92C4E7CF9386ED92E09F93F8
:101B90008F938DE292E09F938F930E942415CE9DA8
:101BA000F0011124E655FE4FE4910F900F900F9035
:101BB0000F900F900F90EE2309F445C088EEE89E39
:101BC000E0011124CA55D94F84E7E89E7001112421
:101BD00000E010E00F2EF8EECF2EF3E0DF2EF02D18
:101BE0000BC0F80131968F01EE0DFF1DE655FE4F3B
:101BF000E4912296EE2349F16E2F70E0C6010E9417
:101C0000D6125B01FE01859194910E94730DB5017E
:101C10007727072E000C880B990B0E94E01326E60D
:101C200036E646EA5FE30E946C140E94AF13CB01D4
:101C30000E945F0D6A2D80E090E00E94730D0337D3
:101C4000110579F614C000E010E01F930F9384EEA5
:101C500092E09F938F938DE292E09F938F930E94E7
:101C600024150F900F900F900F900F900F90DF9111
:101C7000CF911F910F91FF90EF90DF90CF90BF9089
:101C8000AF90089580E00E94B70D089581E00E9412
:101C9000B70D089582E00E94B70D089583E00E9479
:101CA000B70D089584E00E94B70D089585E00E9465
:101CB000B70D089586E00E94B70D089587E00E9451
:101CC000B70D089588E00E94B70D089589E00E943D
:101CD000B70D08958AE00E94B70D08958CE08093B7
:101CE000B8008FEF8093BB0084E08093BC00089520
:101CF0008091BC0081700895ECEBF0E0808180FD64
:101D0000FDCF80913B020895CF93DF93EC01ECEB84
:101D1000F0E0908190FDFDCF6093780398819093DF
:101D2000790390FD13C0623088F0FE013196AAE776
:101D3000B3E06250262F30E02E5F3F4FCE01820F7E
:101D4000931F21912D93E817F907D9F71092760385
:101D500088EF80933B0285EA8093BC00DF91CF91AE
:101D60000895ECEBF0E0808180FDFDCF10927603CA
:101D700088EF80933B0285EA8093BC000895ECEBEA
:101D8000F0E0208120FDFDCF2091760320FF0DC0E3
:101D9000662359F029E733E0A82FB92FF901819183
:101DA0008D938E2F821B8617D0F3809176038170DE
:101DB00008951F920F920FB60F9211240BB60F9237
:101DC0002F933F938F939F93AF93BF93EF93FF9383
:101DD000E091B9008E2F90E0FC013897E135F105D4
:101DE00008F058C08827EE58FF4F8F4F0C94091306
:101DF00010927703E091770380917803E81770F4ED
:101E000081E08E0F80937703F0E0E758FC4F8081EC
:101E10008093BB0085E88093BC0043C0809176032B
:101E200081608093760384E98093BC003AC0E0919E
:101E3000770381E08E0F809377038091BB00F0E001
:101E4000E758FC4F80832091770330E0809178033E
:101E500090E001972817390724F485EC8093BC00A3
:101E600020C085E88093BC001CC08091BB00E0913D
:101E70007703F0E0E758FC4F808380917603816020
:101E80008093760384E98093BC000BC085EA80933D
:101E9000BC0007C08091B90080933B0284E080932E
:101EA000BC00FF91EF91BF91AF919F918F913F91B6
:101EB0002F910F900BBE0F900FBE0F901F90189593
:101EC000E2E0F1E080818F7B80832FEF89EF90E06B
:101ED000215080409040E1F700C000008081806484
:101EE00080830895E2E0F1E080818F7D80838081AE
:101EF000877F80832FEF39EF80E021503040804092
:101F0000E1F700C00000A6E0B1E08C9190819860FC
:101F100090839FEF29EF30E0915020403040E1F76F
:101F200000C000002C9190819062908390E0982FE7
:101F30008827820F911D089580917D0390917E03E3
:101F400008958130910541F0029759F4E2E0F1E003
:101F500080818D7F80830895E2E0F1E0808182605E
:101F600080830895E2EAF3E090E590831182828312
:101F70002FEF80E792E0215080409040E1F700C0D1
:101F8000000063E0CF010E94840E0895E1E0F1E0DB
:101F9000808180618083A2E0B1E08C9180618C932C
:101FA000808182608083808180628083808188607C
:101FB000808380818064808380E00E94B20F0E94D1
:101FC000600F0895181619063CF421E030E03093B4
:101FD000800320937F0310C0992354F422E030E063
:101FE0003093800320937F0391958195910904C0DC
:101FF0001092800310927F030E94B20F80917F03A2
:10200000909180030E94A10F0895FF920F931F9358
:10201000CF93DF93182FEB0180E091E00E947F0CBB
:1020200088EE93E0BE010E94C212EB01709383031D
:10203000609382031230B9F01330E1F0113009F0EF
:1020400047C060913C0270E080E090E00E94E013A5
:1020500020E030E040E05FE30E946C140E94AF1388
:1020600060938A0335C084E080938A0385E080937F
:1020700089032EC060913C0270E080E090E00E94F5
:10208000E0132AE939E949E15FE30E946C140E94F8
:10209000AF1360938A03262F30E0C901880F991F80
:1020A0006C2F7D2F0E94D61260938903C29FC001BE
:1020B000C39F900DD29F900D112499230CF4079685
:1020C00095958795959587959595879580938803A0
:1020D000DF91CF911F910F91FF900895AF92BF9222
:1020E000DF92EF92FF920F931F93CF93DF939C01A8
:1020F00090918103913009F0D8C0EB0189011092D1
:1021000081030E94720F9C01EE24FF24E81AF90A51
:10211000CE016FEF70E00E94D612609FE001619FD8
:10212000D00D709FD00D1124C9018C0F9D1F68EC3C
:1021300070E00E94D6129B0170938E0360938D0312
:10214000CB010A96459720F01092870310928603E0
:10215000E0918603F0918703E20FF31FF09387036A
:10216000E093860380918B0390918C035901A81A08
:10217000B90AB0928503A092840340918203D09063
:102180008303842F9D2D68EE73E00E94D612809108
:102190008A03829F8001839F100D112480918903FF
:1021A000869FD001879FB00D1124EA9FC001EB9F4D
:1021B000900DFA9F900D1124080F191F509188035C
:1021C0005A9DC0015B9D900D11240E94D612600F94
:1021D000711F7093900360938F0330938C0320934F
:1021E0008B03DF924F93FF93EF93FF92EF92DF9376
:1021F000CF933F932F9384EF92E09F938F938DE340
:1022000092E09F938F930E94241580918F03909169
:1022100090032DB73EB7225F3F4F0FB6F8943EBFF5
:102220000FBE2DBF863991053CF086E990E0909372
:10223000900380938F0323C09C012A5031092832D8
:10224000310538F482E390E09093900380938F03FC
:1022500016C09C012F5C3F4F2832310538F48EECBC
:102260009FEF9093900380938F0309C08B369F4F0D
:1022700034F48AE69FEF9093900380938F038091CC
:1022800090038F9380918F038F938DE393E09F93BF
:102290008F938DE392E09F938F930E9424150F906C
:1022A0000F900F900F900F900F9080918F0390914F
:1022B0009003DF91CF911F910F91FF90EF90DF90EE
:1022C000BF90AF9008951F920F920FB60F921124F6
:1022D0008F9381E0809381038F910F900FBE0F90B9
:1022E0001F901895269A2E9808952E9A08952E9844
:1022F00008950E9475112FEF89E698E121508040E2
:102300009040E1F700C000000E9477110895CF933C
:10231000DF93C0919403D0E0CB55DC4F28818091AE
:10232000920390919303821B91099093930380935E
:1023300092030E940409888390919403E92FF0E0AE
:10234000EB55FC4F80812091920330919303280F2D
:10235000311D30939303209392039F5F90939403D6
:1023600060914B02961710F01092940370E0C9012F
:102370000E94C212862FDF91CF910895CF93809152
:102380004B028823C1F0C0E00E940409EC2FF0E06A
:10239000EB55FC4F80832091920330919303A90168
:1023A000480F511D5093930340939203CF5F809148
:1023B0004B02C81748F30E94871180939103CF9175
:1023C00008950E948711482F50E02091910330E03A
:1023D0002253310981E0421753070CF080E0089541
:1023E0001F920F920FB60F9211248F938091950335
:1023F0008F5F809395038F910F900FBE0F901F906A
:1024000018951092950361E070E080E091E00E94E1
:10241000CC0C08950E94E11191E0811101C090E07F
:10242000892F08955F926F927F928F929F92AF92C1
:10243000BF92CF92DF92EF92FF920F931F93CF93B1
:10244000DF93CDB7DEB72A970FB6F894DEBF0FBE85
:10245000CDBF0E9401128091AF039091B003892BF0
:1024600009F47AC00F2EF4E5EF2EF3E0FF2EF02DE5
:1024700006E512E00F2EFBEACF2EF3E0DF2EF02D63
:102480000F2EF9EA6F2EF3E07F2EF02D0F2EFCE4D5
:102490008F2EF2E09F2EF02D0F2EF1E6AF2EF3E0FF
:1024A000BF2EF02D1F921F92FF92EF921F930F935A
:1024B0000E942415CE0101960E94DC0A59800F90DB
:1024C0000F900F900F900F900F9082E058120FC056
:1024D0008B81F60180839C8191839D81F3019083A0
:1024E0000E94390D0E940A12882379F115C0F60165
:1024F00080810E94390DF5E05F1207C00E947911BA
:102500000E940A12882309F107C00E940A12811151
:1025100003C084E0581219C080919503F4018283AE
:102520001F921F92BF92AF921F930F930E94241588
:10253000C4010E94450B1092B0031092AF030F909C
:102540000F900F900F900F900F908091AF0390918C
:10255000B003892B09F0A6CF2A960FB6F894DEBFF8
:102560000FBECDBFDF91CF911F910F91FF90EF90E4
:10257000DF90CF90BF90AF909F908F907F906F90A3
:102580005F900895AA1BBB1B51E107C0AA1FBB1F88
:10259000A617B70710F0A61BB70B881F991F5A95EF
:1025A000A9F780959095BC01CD01089597FB072E62
:1025B00016F4009407D077FD09D00E94C21207FCE0
:1025C00005D03EF4909581959F4F08957095619543
:1025D0007F4F0895052E97FB1EF400940E9401136F
:1025E00057FD07D00E94201307FC03D04EF40C9433
:1025F000011350954095309521953F4F4F4F5F4FB8
:10260000089590958095709561957F4F8F4F9F4F5E
:102610000895EE0FFF1F881F8BBF0790F691E02DE6
:102620001994A29FB001B39FC001A39F700D811D9B
:102630001124911DB29F700D811D1124911D0895CB
:10264000A1E21A2EAA1BBB1BFD010DC0AA1FBB1FB6
:10265000EE1FFF1FA217B307E407F50720F0A21B28
:10266000B30BE40BF50B661F771F881F991F1A9495
:1026700069F760957095809590959B01AC01BD01BF
:10268000CF0108955058BB27AA270E945A130C94D3
:1026900032140E94241438F00E942B1420F039F4D4
:1026A0009F3F19F426F40C9421140EF4E095E7FBF7
:1026B0000C941B14E92F0E94431458F3BA176207B5
:1026C00073078407950720F079F4A6F50C94651438
:1026D0000EF4E0950B2EBA2FA02D0B01B90190013D
:1026E0000C01CA01A0011124FF27591B99F0593F81
:1026F00050F4503E68F11A16F040A22F232F342FC9
:102700004427585FF3CF469537952795A795F04016
:102710005395C9F77EF41F16BA0B620B730B840B2B
:10272000BAF09150A1F0FF0FBB1F661F771F881FE3
:10273000C2F70EC0BA0F621F731F841F48F487953B
:1027400077956795B795F7959E3F08F0B0CF93952D
:10275000880F08F09927EE0F9795879508950E94A6
:102760004B1488F09F5798F0B92F9927B751B0F0C4
:10277000E1F0660F771F881F991F1AF0BA95C9F705
:1027800014C0B13091F00E946514B1E008950C942A
:102790006514672F782F8827B85F39F0B93FCCF3DD
:1027A000869577956795B395D9F73EF49095809582
:1027B000709561957F4F8F4F9F4F0895E89409C0A2
:1027C00097FB3EF490958095709561957F4F8F4F64
:1027D0009F4F9923A9F0F92F96E9BB279395F6957A
:1027E000879577956795B795F111F8CFFAF4BB0FF8
:1027F00011F460FF1BC06F5F7F4F8F4F9F4F16C05C
:10280000882311F096E911C0772321F09EE8872FE5
:10281000762F05C0662371F096E8862F70E060E0A1
:102820002AF09A95660F771F881FDAF7880F96951A
:10283000879597F9089597F99F6780E870E060E0C1
:1028400008959FEF80EC089500240A941616170649
:1028500018060906089500240A9412161306140691
:1028600005060895092E0394000C11F4882352F0F4
:10287000BB0F40F4BF2B11F460FF04C06F5F7F4FAC
:102880008F4F9F4F089557FD9058440F551F59F093
:102890005F3F71F04795880F97FB991F61F09F3F4D
:1028A00079F087950895121613061406551FF2CF76
:1028B0004695F1DF08C0161617061806991FF1CFC6
:1028C00086957105610508940895E894BB276627ED
:1028D0007727CB0197F908950E947F140C94321446
:1028E0000E94241438F00E942B1420F0952311F03C
:1028F0000C941B140C94211411240C9466140E9443
:10290000431470F3959FC1F3950F50E0551F629FDC
:10291000F001729FBB27F00DB11D639FAA27F00D38
:10292000B11DAA1F649F6627B00DA11D661F829F5F
:102930002227B00DA11D621F739FB00DA11D621F44
:10294000839FA00D611D221F749F3327A00D611D61
:10295000231F849F600D211D822F762F6A2F112443
:102960009F5750409AF0F1F088234AF0EE0FFF1F76
:10297000BB1F661F771F881F91505040A9F79E3FCD
:10298000510580F00C941B140C9466145F3FE4F323
:10299000983ED4F3869577956795B795F795E79523
:1029A0009F5FC1F7FE2B880F911D9695879597F92C
:1029B00008950F931F93CF93DF93009731F4611520
:1029C000710519F480E090E03AC08B01EC016EE0F3
:1029D00070E081E090E00E942F17FC01892B91F3B9
:1029E00080E883830115110571F01387028781E860
:1029F00083838091B1039091B203892B21F4F093EA
:102A0000B203E093B1032097C9F0D187C0878381D7
:102A1000826083838091B3039091B403892B71F416
:102A2000F093B403E093B3038091B5039091B603A0
:102A3000892B21F4F093B603E093B503CF01DF9126
:102A4000CF911F910F910895CF93DF93CDB7DEB74C
:102A5000AE01465F5F4F688579858E819F810E94B8
:102A60003415DF91CF9108952F923F924F925F924C
:102A70006F927F928F929F92AF92BF92CF92DF928E
:102A8000EF92FF920F931F93CF93DF93CDB7DEB7F3
:102A90002C970FB6F894DEBF0FBECDBF7C016B0143
:102AA0008A01FC0117821682838181FFBDC1CE019C
:102AB00001964C01F7019381F60193FD859193FFF7
:102AC00081916F01882309F4ABC1853239F493FDFC
:102AD000859193FF81916F01853229F4B70190E0D0
:102AE0000E949518E7CF512C312C20E02032A0F421
:102AF0008B3269F030F4803259F0833269F420610E
:102B00002CC08D3239F0803339F4216026C0226028
:102B1000246023C0286021C027FD27C030ED380F76
:102B20003A3078F426FF06C0FAE05F9E300D11249B
:102B3000532E13C08AE0389E300D1124332E2062AC
:102B40000CC08E3221F426FD6BC1206406C08C3689
:102B500011F4206802C0883641F4F60193FD859196
:102B600093FF81916F018111C1CF982F9F7D955463
:102B7000933028F40C5F1F4FFFE3F9830DC08336B9
:102B800031F0833771F0833509F05BC022C0F80162
:102B9000808189830E5F1F4F44244394512C54013C
:102BA00015C03801F2E06F0E711CF801A080B180F1
:102BB00026FF03C0652D70E002C06FEF7FEFC501F7
:102BC0002C870E948A182C0183012C852F77222EB6
:102BD00017C03801F2E06F0E711CF801A080B180BF
:102BE00026FF03C0652D70E002C06FEF7FEFC501C7
:102BF0002C870E9478182C012C852068222E8301B6
:102C000023FC1BC0832D90E048165906B0F4B70191
:102C100080E290E00E9495183A94F4CFF50127FCE9
:102C2000859127FE81915F01B70190E00E94951880
:102C300031103A94F1E04F1A51084114510471F7E0
:102C4000E5C0843611F0893639F5F80127FF07C051
:102C500060817181828193810C5F1F4F08C0608108
:102C60007181072E000C880B990B0E5F1F4F2F767A
:102C7000722E97FF09C090958095709561957F4F52
:102C80008F4F9F4F2068722E2AE030E0A4010E94EF
:102C9000CD18A82EA81844C0853729F42F7EB22E4F
:102CA0002AE030E025C0F22FF97FBF2E8F36C1F029
:102CB00018F4883579F0B4C0803719F0883721F0DE
:102CC000AFC02F2F2061B22EB4FE0DC08B2D8460BB
:102CD000B82E09C024FF0AC09F2F9660B92E06C0E7
:102CE00028E030E005C020E130E002C020E132E021
:102CF000F801B7FE07C060817181828193810C5F0A
:102D00001F4F06C06081718180E090E00E5F1F4F11
:102D1000A4010E94CD18A82EA818FB2DFF777F2EA6
:102D200076FE0BC0372D3E7FA51450F474FE0AC00A
:102D300072FC08C0372D3E7E05C0BA2C372D03C06B
:102D4000BA2C01C0B52C34FF0DC0FE01EA0DF11DF7
:102D50008081803311F4397E09C032FF06C0B394FC
:102D6000B39404C0832F867809F0B39433FD13C065
:102D700030FF06C05A2CB31418F4530C5B18B32C54
:102D8000B31468F4B70180E290E03C870E94951884
:102D9000B3943C85F5CFB31410F43B1801C0312C2B
:102DA00034FF12C0B70180E390E03C870E94951881
:102DB0003C8532FF17C031FD03C088E790E002C0B8
:102DC00088E590E0B7010CC0832F867859F031FF79
:102DD00002C08BE201C080E237FD8DE2B70190E0D6
:102DE0000E949518A51438F4B70180E390E00E9482
:102DF00095185A94F7CFAA94F401EA0DF11D808139
:102E0000B70190E00E949518A110F5CF332009F486
:102E100051CEB70180E290E00E9495183A94F6CF27
:102E2000F7018681978102C08FEF9FEF2C960FB636
:102E3000F894DEBF0FBECDBFDF91CF911F910F91F0
:102E4000FF90EF90DF90CF90BF90AF909F908F90CA
:102E50007F906F905F904F903F902F9008950F93C9
:102E60001F93CF93DF93869F8001879F100D969FBE
:102E7000100D1124C8010E944B17EC01009729F096
:102E8000A80160E070E00E948318CE01DF91CF912D
:102E90001F910F910895CF93DF938230910510F425
:102EA00082E090E0E091B903F091BA0320E030E0D5
:102EB000C0E0D0E0309711F14081518148175907A7
:102EC000C0F04817590761F482819381209719F067
:102ED0009B838A832BC09093BA038093B90326C047
:102EE0002115310519F04217530718F49A01BE0154
:102EF000DF01EF010280F381E02DDCCF21153105E8
:102F000009F1281B390B2430310590F412968D916C
:102F10009C9113976115710521F0FB0193838283C6
:102F200004C09093BA038093B903FD01329644C064
:102F3000FD01E20FF31F81939193225031092D93EC
:102F40003C933AC02091B7033091B803232B41F44E
:102F500020916602309167023093B8032093B70343
:102F600020916402309165022115310541F42DB79D
:102F70003EB74091680250916902241B350BE091E5
:102F8000B703F091B803E217F307A0F42E1B3F0B31
:102F90002817390778F0AC014E5F5F4F24173507CB
:102FA00048F04E0F5F1F5093B8034093B7038193CF
:102FB000919302C0E0E0F0E0CF01DF91CF9108955E
:102FC0000F931F93CF93DF93009709F48CC0FC01FC
:102FD0003297138212820091B9031091BA0301153E
:102FE000110581F420813181820F931F2091B70355
:102FF0003091B8032817390779F5F093B803E093B7
:10300000B70371C0D80140E050E0AE17BF0750F4DD
:1030100012962D913C911397AD012115310509F1BF
:10302000D901F3CF9D01DA0133832283608171815D
:10303000860F971F8217930769F4EC012881398165
:10304000260F371F2E5F3F4F318320838A819B815C
:1030500093838283452B29F4F093BA03E093B90359
:1030600042C01396FC93EE931297ED01499159914A
:103070009E01240F351FE217F30771F480819181BF
:10308000840F951F029611969C938E938281938153
:1030900013969C938E931297E0E0F0E0D80112967D
:1030A0008D919C911397009719F0F8018C01F6CF40
:1030B0008D919C9198012E5F3F4F820F931F20911D
:1030C000B7033091B8032817390769F4309729F40A
:1030D0001092BA031092B90302C0138212821093A5
:1030E000B8030093B703DF91CF911F910F9108951B
:1030F000FC010590615070400110D8F780959095C3
:103100008E0F9F1F0895DC0101C06D934150504008
:10311000E0F70895FC016150704001900110D8F76C
:10312000809590958E0F9F1F08950F931F93CF93B7
:10313000DF93FB01238121FD03C08FEF9FEF28C0A8
:1031400022FF16C0468157812481358142175307DB
:1031500044F4A081B1819D012F5F3F4F31832083D3
:103160008C93268137812F5F3F4F3783268310C092
:10317000EB01092F182F0084F185E02D1995892B7B
:10318000E1F68E819F8101969F838E83812F902F00
:10319000DF91CF911F910F910895FA01AA2728304E
:1031A00051F1203181F1E8946F936E7F6E5F7F4F14
:1031B0008F4F9F4FAF4FB1E03ED0B4E03CD0670F90
:1031C000781F891F9A1FA11D680F791F8A1F911DE3
:1031D000A11D6A0F711D811D911DA11D20D009F433
:1031E00068943F912AE0269F11243019305D319375
:1031F000DEF6CF010895462F4770405D4193B3E05E
:103200000FD0C9F7F6CF462F4F70405D4A3318F004
:10321000495D31FD4052419302D0A9F7EACFB4E0B5
:10322000A6959795879577956795BA95C9F700976D
:103230006105710508959B01AC010A2E069457950E
:10324000479537952795BA95C9F7620F731F841F65
:0A325000951FA01D0895F894FFCF0C
:10325A000000000200000000D3080000000004047F
:10326A00000000000200000000D308000000000077
:10327A0000000200000000D3080000000000000067
:10328A000200000000D30800000000F8030000005C
:10329A000200000000D30800000000040101000041
:1032AA000000000000000000000200000000D30837
:1032BA00000000000000BB032000494E4954200AC8
:1032CA000D005061636B65742049443A20255820EB
:1032DA0009446174613A202564200D0A004552525E
:1032EA004F5220253478200D0A004D435032353193
:1032FA0035206973204E4F5420696E20636F6E66C5
:10330A00696775726174696F6E206D6F646520619B
:10331A0066746572207265736574210D0A005042E5
:10332A0035005045330053495A452025346420203E
:10333A00200A0D00746869734E6F74652025346421
:10334A00200A0D006572726F72202534642C207376
:10335A006574706F696E74202534642C206D656104
:10336A0073757265645F76616C7565202534642CAB
:10337A0020696E74656772616C202534642C207034
:10338A006572696F6420253464200D0A0052454134
:10339A004C205049445F6F757470757420253464ED
:1033AA00200D0A002020202020506C6179696E6768
:0E33BA000053636F72652073656E742100000E
:00000001FF
