:100000000C94D5000C94F6000C94F6000C94F600B9
:100010000C94F6000C94F6000C94F6000C94F60088
:100020000C94F6000C94F6000C94F6000C94F60078
:100030000C94F6000C94F6000C94F6000C94F60068
:100040000C94F6000C94F6000C94F6000C94F60058
:100050000C94F6000C94F6000C94F6000C94F60048
:100060000C94F6000C94F6000C94F6000C94F60038
:100070000C94F6000C94F6000C94F6000C94F60028
:100080000C9441090C94F6000C94F6000C94F600C4
:100090000C94F6000C94F6000C94F6000C946A068E
:1000A0000C94F6000C94F6000C94F6000C94F600F8
:1000B0000C94F6000C94F6000C94F6000C94010AD3
:1000C0000C94F6000C94F6000C94F6000C94F600D8
:1000D0000C94F6000C94F6000C94F6000C94F600C8
:1000E0000C94F6008906DB06DB06DB06DB06DB0686
:1000F000DB06DB068906DB06DB06DB06DB06DB064A
:10010000DB06DB068B06DB06DB06DB06DB06DB0637
:10011000DB06DB06DB06DB06DB06DB06DB06DB06D7
:10012000DB06DB068B06DB06DB06DB06DB06DB0617
:10013000DB06DB06DB06DB06DB06DB06DB06DB06B7
:10014000DB06DB06D706DB06DB06DB06DB06DB06AB
:10015000DB06DB06B406DB06DB06DB06DB06DB06BE
:10016000DB06DB06DB06DB06DB06DB06DB06DB0687
:10017000DB06DB06A806DB06DB06DB06DB06DB06AA
:10018000DB06DB06C6060C94C6060C9464010C94D0
:100190005C010C94B4060C94A8060C9489060C948B
:1001A0008B060C94DB060C94D70611241FBECFEFF0
:1001B000D1E2DEBFCDBF00E00CBF13E0A0E0B2E0B3
:1001C000EEE2F3E200E00BBF02C007900D92AA300E
:1001D000B107D9F723E0AAE0B3E001C01D92AA3726
:1001E000B207E1F70E94F8000C9495110C940000FE
:1001F000CF93DF93CDB7DEB72A970FB6F894DEBF63
:100200000FBECDBFF89487E690E00E946C011F926C
:100210001F928DE592E09F938F9380E092E09F93F1
:100220008F930E948E0D0E943D030E9453030E94F3
:10023000FF050E94F5050E947D010E947D070E9436
:1002400050090E94680978940F900F900F900F90BA
:100250000F900F900F2EF7E6EF2EF2E0FF2EF02D0D
:1002600000E012E0CE0101960E94C2030E948D01BF
:100270009F938F93FF92EF921F930F930E948E0D87
:100280002FEF83EC99E0215080409040E1F700C0CF
:1002900000000F900F900F900F900F900F9089819A
:1002A000833001F70E943B0ADDCF089A109A089527
:1002B00010980895109A0895E0ECF0E0908195FF71
:1002C000FDCF8093C6000895E0ECF0E080818823A4
:1002D000ECF78091C60008959093C5008093C40008
:1002E00088E18093C1008EE08093C20064E671E0F3
:1002F0008CE591E00E94430D0895809A8898EAE782
:10030000F0E0808180688083ACE7B0E08C91806C05
:100310008C938081876080830895EAE7F0E0808194
:1003200080648083808184FFFDCF2091780080915C
:10033000790090E0982F8827820F911D0895EF9201
:10034000FF921F93CF93DF93209A219A80910E0200
:10035000882381F110E0C12FD0E084E090E00E947A
:100360008D019E012F5B3C4F7901F901808385E06F
:1003700090E00E948D01C35CDC4F8883F70190817F
:1003800020910C0330910D03290F311D30930D0383
:1003900020930C0320910A0330910B03A901480F0D
:1003A000511D50930B0340930A031F5F80910E026F
:1003B000181788F2E9E3F3E080914103828380918A
:1003C0003D038383DF91CF911F91FF90EF900895BC
:1003D000CF93DF9380910E0390E0EC01CF5BDC4F75
:1003E000488120910C0330910D03241B3109309377
:1003F0000D0320930C03FC01E35CFC4F20818091F2
:100400000A0390910B03821B910990930B03809335
:100410000A0384E090E00E948D018883C0910E035E
:10042000D0E085E090E00E948D01C35CDC4F8883C2
:1004300090910E03292F30E0F901EF5BFC4F808192
:1004400040910C0350910D03480F511D50930D0323
:1004500040930C03F901E35CFC4F8081E0910A03B7
:10046000F0910B03E80FF11DF0930B03E0930A03E7
:100470009F5F90930E0320910E02921710F010923E
:100480000E0330E0CA01B9010E94190BEB01CF0144
:10049000B9010E94190BAB019E01332780913B03E8
:1004A00090E0BC016F5F7F4F2617370731F001974F
:1004B0002817390711F0C09339039A013327809127
:1004C0003C0390E0BC016F5F7F4F2617370731F088
:1004D00001972817390711F040933A03DF91CF9124
:1004E00008950E94E8016091390370913A03809168
:1004F0003B0390913C030895CF93DF9386E090E017
:100500000E948D01EC0187E090E00E948D01992707
:1005100020910F0330E0A9014450510948175907B1
:100520002CF42C5F3F4F8217930734F087E090E064
:100530000E948D0180930F03CE0199272091100313
:1005400030E0A90144505109481759072CF42C5F99
:100550003F4F8217930734F086E090E00E948D01B0
:1005600080931003DF91CF9108950E947C028091C7
:100570000F039091100308958F3B91058CF16F3B11
:1005800071058CF0681779073CF481E090E0909356
:10059000100280930F026CC082E090E090931002F2
:1005A00080930F0265C0603471059CF4660F771F5D
:1005B000681779073CF481E090E0909310028093F3
:1005C0000F0256C083E090E09093100280930F02D8
:1005D0004FC081E090E09093100280930F0248C0DA
:1005E000803491055CF56F3B71058CF0880F991F85
:1005F000681779072CF41092100210920F0238C07D
:1006000082E090E09093100280930F0231C060343A
:1006100071057CF4681779072CF41092100210927F
:100620000F0226C083E090E09093100280930F02A7
:100630001FC01092100210920F021AC06F3B71057A
:100640003CF082E090E09093100280930F0210C083
:10065000603471053CF483E090E090931002809345
:100660000F0206C084E090E09093100280930F0286
:1006700080910F0290911002089587E884B981E576
:100680008CBD08958EBD0DB407FEFDCF089581E0A9
:100690000E9442030DB407FEFDCF8EB508952F983A
:1006A00008952F9A08950E94620440E060EE8FE062
:1006B0000E94A1044FEF61E08BE20E94A1044FEF82
:1006C00060E680E60E94A104089580E30E94500441
:1006D00084FD07C080E30E94500485FB882780F9D1
:1006E000089581E008950F931F93CF938C010E948A
:1006F00065038823A9F080E30E9450041F928F9322
:1007000081E792E09F938F9381E192E09F938F9393
:100710000E948E0D0F900F900F900F900F900F90E2
:10072000F80140814695469546956FEF81E30E941A
:10073000A104F80140814295440F407E60EE82E3BF
:100740000E94A104F80141816FE085E30E94A104A9
:10075000F8018181882379F0C0E0F801EC0FF11DE8
:1007600042816FEF86E38C0F0E94A104CF5FF801F6
:100770008181C81790F381E80E949604CF911F9160
:100780000F910895AF92BF92CF92DF92EF92FF92B6
:100790000F931F93CF93DF93CDB7DEB72A970FB692
:1007A000F894DEBF0FBECDBF5C010E9465038823B5
:1007B000A9F080E60E9450041F928F938EE792E08A
:1007C0009F938F9381E192E09F938F930E948E0D70
:1007D0000F900F900F900F900F900F9081E60E9456
:1007E0005004182F82E60E945004829586958770E7
:1007F000110F110F110FD82ED10E85E60E94500453
:100800008F70C82E81F07E0183E0E80EF11C06E6B1
:100810000C0D16E6812F0E945004F70181937F0191
:100820001F5F1013F7CF40E061E08CE20E94A1044B
:10083000D982CA828AE0FE013196D50101900D92DB
:100840008A95E1F7C5012A960FB6F894DEBF0FBE70
:10085000CDBFDF91CF911F910F91FF90EF90DF906F
:10086000CF90BF90AF9008950E944F0380EC0E94FC
:1008700042030E9451038FE39CE90197F1F700C006
:1008800000000895CF930E944F0380EA0E94420324
:100890000E944703C82F0E9451038C2FCF910895C7
:1008A000CF93C82F0E944F0383E00E9442038C2FF6
:1008B0000E9442030E944703C82F0E9451038C2FBD
:1008C000CF9108950E943D030E9434048EE00E945F
:1008D0005004807E8038A1F01F921F928BE892E036
:1008E0009F938F938FE192E09F938F930E948E0D41
:1008F0000F900F900F900F900F900F9081E0089540
:1009000080E00895CF93DF93C82FD62F0E944F0326
:1009100082E00E9442038D2F0E9442038C2F0E948E
:1009200042030E945103DF91CF910895CF93C82FC6
:100930000E944F038C2F0E9442030E945103CF91CB
:1009400008951F93CF93DF93182FD62FC42F0E94A3
:100950004F0385E00E944203812F0E9442038D2FA6
:100960000E9442038C2F0E9442030E945103DF9198
:10097000CF911F9108958034910589F030F4813032
:100980009105A9F0089749F010C0811521E0920760
:1009900041F08115944039F008C082E0089583E069
:1009A000089584E0089585E0089580E0089581E049
:1009B0000895CF92DF92EF92FF920F931F93CF9300
:1009C000DF938C016B01C0E8D0E08881826088836E
:1009D0000F2EF1E8EF2EF12CF02DF70180818861C8
:1009E0008083C8010E94BB04F7019081892B80831A
:1009F000888180688883259A960140E050E060E015
:100A000074E284EF90E00E94410BCA01B9019801A1
:100A100040E050E00E94410B2150310930938700A3
:100A2000209386001092890010928800DF91CF9168
:100A30001F910F91FF90EF90DF90CF900895CF928C
:100A4000DF92EF92FF920F931F93CF93DF938C016E
:100A50006B01C0E9D0E08881826088830F2EF1E9C4
:100A6000EF2EF12CF02DF701808188618083C80181
:100A70000E94BB04F7019081892B80838881806864
:100A800088836B9A960140E050E060E074E284EF66
:100A900090E00E94410BCA01B901980140E050E08A
:100AA0000E94410BC9010197909397008093960093
:100AB000225031093093990020939800E1E7F0E04B
:100AC000808182608083DF91CF911F910F91FF9091
:100AD000EF90DF90CF900895CF92DF92EF92FF9248
:100AE0000F931F93CF93DF938C016B01C0E2D1E092
:100AF0008881826088830F2EF1E2EF2EFF24F39429
:100B0000F02DF701808188618083C8010E94BB04B9
:100B1000F7019081892B8083888180688883960182
:100B200040E050E060E074E284EF90E00E94410B0E
:100B3000CA01B901980140E050E00E94410BC9018F
:100B40000197909327018093260122503109309319
:100B5000290120932801E3E7F0E08081826080830F
:100B6000DF91CF911F910F91FF90EF90DF90CF9089
:100B70000895089522E08F3B920731F470E070935E
:100B80008900609388000895835C924029F470E0A6
:100B900070939900609398000895682F70E080E04A
:100BA00090E00E944A0C23E333E343E35EE30E94B8
:100BB000D60C20E030E040E652E40E94AD0B0E94EB
:100BC000190C60931203653620F084E680931203BB
:100BD00005C0683318F488E3809312036091120310
:100BE0008FEB92E00E94BA05089562E370E080E026
:100BF00091E00E94D9048BE40E94CD0508958CE019
:100C00008093B8008FEF8093BB0084E08093BC009A
:100C100008958091BC0081700895ECEBF0E0808134
:100C200080FDFDCF80912D020895CF93DF93EC01DD
:100C3000ECEBF0E0908190FDFDCF6093150398817F
:100C40009093160390FD13C0623088F0FE01319638
:100C5000A7E1B3E06250262F30E02E5F3F4FCE0178
:100C6000820F931F21912D93E817F907D9F710925E
:100C7000130388EF80932D0285EA8093BC00DF91F7
:100C8000CF910895ECEBF0E0808180FDFDCF1092D4
:100C9000130388EF80932D0285EA8093BC000895AA
:100CA000ECEBF0E0208120FDFDCF2091130320FF2D
:100CB0000DC0662359F026E133E0A82FB92FF901C2
:100CC00081918D938E2F821B8617D0F38091130311
:100CD000817008951F920F920FB60F9211240BB6D8
:100CE0000F922F933F938F939F93AF93BF93EF9365
:100CF000FF93E091B9008E2F90E0FC013897E13529
:100D0000F10508F058C08827EE58FF4F8F4F0C941C
:100D1000600B10921403E091140380911503E817FF
:100D200070F481E08E0F80931403F0E0EA5EFC4FD4
:100D300080818093BB0085E88093BC0043C0809194
:100D4000130381608093130384E98093BC003AC04D
:100D5000E091140381E08E0F809314038091BB0017
:100D6000F0E0EA5EFC4F80832091140330E0809134
:100D7000150390E001972817390724F485EC809338
:100D8000BC0020C085E88093BC001CC08091BB00E3
:100D9000E0911403F0E0EA5EFC4F8083809113033E
:100DA00081608093130384E98093BC000BC085EAC3
:100DB0008093BC0007C08091B90080932D0284E02D
:100DC0008093BC00FF91EF91BF91AF919F918F9164
:100DD0003F912F910F900BBE0F900FBE0F901F9061
:100DE0001895E2E0F1E080818F7B80832FEF89EF1F
:100DF00090E0215080409040E1F700C000008081E9
:100E0000806480830895E2E0F1E080818F7D8083BB
:100E10008081877F80832FEF39EF80E02150304041
:100E20008040E1F700C00000A6E0B1E08C91908125
:100E3000986090839FEF29EF30E091502040304040
:100E4000E1F700C000002C9190819062908390E0C7
:100E5000982F8827820F911D089580911A039091F1
:100E60001B0308958130910541F0029759F4E2E0A7
:100E7000F1E080818D7F80830895E2E0F1E0808160
:100E8000826080830895E5E4F3E090E59083118229
:100E9000828363E0CF010E9415060895CF93DF930C
:100EA000EC01181619063CF481E090E090931D03C4
:100EB00080931C0310C0992354F482E090E0909337
:100EC0001D0380931C03D195C195D10904C01092D4
:100ED0001D0310921C0380911C0390911D030E941E
:100EE00032078FE99FE00197F1F700C000008C2FD7
:100EF0000E944307DF91CF910895E1E0F1E0808106
:100F000080618083A2E0B1E08C9180618C938081CC
:100F1000826080838081806280838081886080831A
:100F200080818064808380E090E00E944E070E9470
:100F3000F10608958CE99FEF0E944E072FEF8DE395
:100F400099E4215080409040E1F700C000000E94E9
:100F5000F10680E090E00E944E0784E690E00E9457
:100F60004E072FEF8DE399E4215080409040E1F748
:100F700000C000000E94030791958195910990930C
:100F80001B0380931A030895CF93DF93EC0180E055
:100F900091E00E941F051A821B821C821D82198209
:100FA000188280E690E09F838E838CE090E09987A2
:100FB000888782E090E09B878A8781E591E09D8722
:100FC0008C8784EC9EE4ACEEB4E08E879F87A88B80
:100FD000B98BDF91CF9108950F931F93CF93DF9338
:100FE000FC01EA0180913003813009F041C1109287
:100FF0003003062F10E0CA0164E270E00E942D0B5E
:10100000061B170B10932F0300932E03C80109969C
:10101000439720F412821382148215828485958569
:10102000801791073CF48FEF9FE790932D038093F7
:101030002C0321C0919581959109081719073CF45B
:1010400081E090E890932D0380932C0314C083E0FB
:1010500090E0B8010E942D0B86819781680F791F5F
:10106000069FC001079F900D169F900D112490932D
:101070002D0380932C03012E000C220B330B828155
:101080009381A481B581A9019801280F391F4A1FB6
:101090005B1F20931E0330931F0340932003509344
:1010A000210386859785A089B18982179307A407B4
:1010B000B5078CF44FEF5FEF6FEF7FE340932603AC
:1010C00050932703609328037093290382839383AB
:1010D000A483B5832DC0B095A095909581959F4F21
:1010E000AF4FBF4F281739074A075B078CF441E021
:1010F00050E060E070EC4093260350932703609328
:1011000028037093290382839383A483B58310C03B
:101110002283338344835583A085B1850E94680B65
:1011200060932603709327038093280390932903E9
:10113000808191818C1B9D0B42855385489F900136
:10114000499F300D589F300D112430932B0320936D
:101150002A03D183C08340912C0350912D03052E87
:10116000000C660B770B8091260390912703A091CA
:101170002803B0912903480F591F6A1F7B1F8091D4
:101180002A0390912B03092E000CAA0BBB0B480FCE
:10119000591F6A1F7B1FDB01CA01772324F4815882
:1011A0009F4FAF4FBF4F689416F8B595A795979589
:1011B00087951694D1F789379105A105B1056CF093
:1011C00088E790E0A0E0B0E08093220390932303AF
:1011D000A0932403B09325034BC088382FEF9207C8
:1011E000A207B2076CF488E89FEFAFEFBFEF8093E0
:1011F000220390932303A0932403B093250338C0C4
:10120000AC01BD01455151096109710942325105D5
:101210006105710568F487E390E0A0E0B0E0809399
:10122000220390932303A0932403B093250320C0AB
:10123000AC01BD014A5C5F4F6F4F7F4F4232510599
:101240006105710548F08093220390932303A093D6
:101250002403B09325030CC089EC9FEFAFEFBFEFE1
:101260008093220390932303A0932403B093250338
:101270008091220390912303DF91CF911F910F91D1
:1012800008951F920F920FB60F9211248F9381E051
:10129000809330038F910F900FBE0F901F90189581
:1012A000269A2E9808952E9A08952E9808950E94B1
:1012B00053098FE39CE90197F1F700C000000E94F9
:1012C00055098FE39CE90197F1F700C000000895EC
:1012D0001F93CF93DF9387EA91E60197F1F700C060
:1012E000000080912E028823F9F010E0C12FD0E099
:1012F0000E948D01FE01E85BFC4F808387EA91E646
:101300000197F1F700C00000208180913203909195
:101310003303820F911D90933303809332031F5F39
:1013200080912E02181710F380914B0380933103A4
:101330001F928F9387EC92E09F938F938FE292E0BE
:101340009F938F930E948E0D0F900F900F900F9090
:101350000F900F90DF91CF911F910895CF93DF935E
:10136000C0913403D0E0C85BDC4F28818091320308
:1013700090913303821B910990933303809332033E
:101380000E948D01888390913403E92FF0E0E85B9F
:10139000FC4F80812091320330913303280F311D9F
:1013A00030933303209332039F5F90933403609113
:1013B0002E02961710F01092340370E0C9010E94BB
:1013C000190B862FDF91CF910895CF930E94AE091C
:1013D000C82F1F928F9386ED92E09F938F938FE299
:1013E00092E09F938F930E948E0D81E00F900F905B
:1013F0000F900F900F900F90CC3308F080E0CF91BA
:1014000008951F920F920FB60F9211248F9380911F
:1014100038038F5F809338038F910F900FBE0F902A
:101420001F9018951092380364E170E08AE593E00C
:101430000E94C4070E949A0761E070E080E091E09A
:101440000E946C0508950E94E509882399F01F9277
:101450001F9284EE92E09F938F9389E492E09F9392
:101460008F930E948E0D0F900F900F900F900F9002
:101470000F9081E008955F926F927F928F929F927A
:10148000AF92BF92CF92DF92EF92FF920F931F9392
:10149000CF93DF93CDB7DEB72A970FB6F894DEBFB0
:1014A0000FBECDBF0E94120A2FE78AE196E02150BD
:1014B00080409040E1F700C0000081E090E0909310
:1014C0004802809347020F2EFFEEEF2EF2E0FF2E30
:1014D000F02D09E412E00F2EFCE68F2EF3E09F2E94
:1014E000F02D0F2EFCE4AF2EF3E0BF2EF02D0F2ECB
:1014F000F8E5CF2EF3E0DF2EF02D0F2EFCEF6F2E50
:10150000F2E07F2EF02D74C0CE0101960E94C2033E
:10151000FE013196AEE4B3E0852D01900D928A95DF
:10152000E1F7809138031F928F93FF92EF921F9300
:101530000F930E948E0D0F900F900F900F900F90B1
:101540000F9080914E038430A1F4EEE4F3E08281A9
:10155000D4018C93838111968C938481D5018C93D3
:10156000858111968C938681D6018C938781119603
:101570008C930E94030744275527481B590B50930F
:10158000370340933603F5016181609335038AE5A3
:1015900093E00E94EC070E944E07D4018C910E94B8
:1015A000CD05F6018181882319F00E94530902C0FC
:1015B0000E9455090E94230A8823F1F01F921F926E
:1015C0007F926F921F930F930E948E0D809138032C
:1015D00080933F028DE392E00E94730310924802D1
:1015E000109247020F900F900F900F900F900F9056
:1015F0000F2EFAE05F2EF02D809147029091480265
:10160000892B09F081CF2A960FB6F894DEBF0FBE62
:10161000CDBFDF91CF911F910F91FF90EF90DF90A1
:10162000CF90BF90AF909F908F907F906F905F9082
:101630000895AA1BBB1B51E107C0AA1FBB1FA61719
:10164000B70710F0A61BB70B881F991F5A95A9F76B
:1016500080959095BC01CD01089597FB072E16F457
:10166000009407D077FD09D00E94190B07FC05D024
:101670003EF4909581959F4F0895709561957F4FA9
:101680000895052E97FB1EF400940E94580B57FDF9
:1016900007D00E94700B07FC03D04EF40C94580B3B
:1016A00050954095309521953F4F4F4F5F4F08958E
:1016B00090958095709561957F4F8F4F9F4F0895BE
:1016C000EE0FFF1F881F8BBF0790F691E02D199436
:1016D000B7FF0C94920B0E94920B821B930B089500
:1016E000A1E21A2EAA1BBB1BFD010DC0AA1FBB1F26
:1016F000EE1FFF1FA217B307E407F50720F0A21B98
:10170000B30BE40BF50B661F771F881F991F1A9404
:1017100069F760957095809590959B01AC01BD012E
:10172000CF0108950E949D0BA59F900DB49F900D31
:10173000A49F800D911D11240895A29FB001B39F15
:10174000C001A39F700D811D1124911DB29F700DCA
:10175000811D1124911D08955058BB27AA270E946E
:10176000C40B0C949C0C0E948E0C38F00E94950CBB
:1017700020F039F49F3F19F426F40C948B0C0EF4EE
:10178000E095E7FB0C94850CE92F0E94AD0C58F313
:10179000BA17620773078407950720F079F4A6F556
:1017A0000C94CF0C0EF4E0950B2EBA2FA02D0B014C
:1017B000B90190010C01CA01A0011124FF27591B96
:1017C00099F0593F50F4503E68F11A16F040A22F9C
:1017D000232F342F4427585FF3CF4695379527950D
:1017E000A795F0405395C9F77EF41F16BA0B620B0C
:1017F000730B840BBAF09150A1F0FF0FBB1F661F53
:10180000771F881FC2F70EC0BA0F621F731F841F95
:1018100048F4879577956795B795F7959E3F08F0BB
:10182000B0CF9395880F08F09927EE0F979587957D
:1018300008950E94B50C88F09F5798F0B92F99270A
:10184000B751B0F0E1F0660F771F881F991F1AF0AB
:10185000BA95C9F714C0B13091F00E94CF0CB1E035
:1018600008950C94CF0C672F782F8827B85F39F034
:10187000B93FCCF3869577956795B395D9F73EF444
:1018800090958095709561957F4F8F4F9F4F0895EC
:10189000E89409C097FB3EF490958095709561950A
:1018A0007F4F8F4F9F4F9923A9F0F92F96E9BB27C0
:1018B0009395F695879577956795B795F111F8CF3C
:1018C000FAF4BB0F11F460FF1BC06F5F7F4F8F4FA7
:1018D0009F4F16C0882311F096E911C0772321F09D
:1018E0009EE8872F762F05C0662371F096E8862F35
:1018F00070E060E02AF09A95660F771F881FDAF78C
:10190000880F9695879597F9089597F99F6780E8CE
:1019100070E060E008959FEF80EC089500240A9441
:101920001616170618060906089500240A941216BA
:101930001306140605060895092E0394000C11F4ED
:10194000882352F0BB0F40F4BF2B11F460FF04C09A
:101950006F5F7F4F8F4F9F4F089557FD9058440FF3
:10196000551F59F05F3F71F04795880F97FB991FFE
:1019700061F09F3F79F087950895121613061406BB
:10198000551FF2CF4695F1DF08C016161706180648
:10199000991FF1CF86957105610508940895E89423
:1019A000BB2766277727CB0197F908950E94E90C9A
:1019B0000C949C0C0E948E0C38F00E94950C20F028
:1019C000952311F00C94850C0C948B0C11240C9421
:1019D000D00C0E94AD0C70F3959FC1F3950F50E0B1
:1019E000551F629FF001729FBB27F00DB11D639FD1
:1019F000AA27F00DB11DAA1F649F6627B00DA11D77
:101A0000661F829F2227B00DA11D621F739FB00D1C
:101A1000A11D621F839FA00D611D221F749F33278C
:101A2000A00D611D231F849F600D211D822F762F25
:101A30006A2F11249F5750409AF0F1F088234AF002
:101A4000EE0FFF1FBB1F661F771F881F915050406E
:101A5000A9F79E3F510580F00C94850C0C94D00C96
:101A60005F3FE4F3983ED4F3869577956795B795F5
:101A7000F795E7959F5FC1F7FE2B880F911D96950F
:101A8000879597F908950F931F93CF93DF9300974E
:101A900031F46115710519F480E090E03AC08B01D2
:101AA000EC016EE070E081E090E00E94990FFC0193
:101AB000892B91F380E883830115110571F0138759
:101AC000028781E883838091700390917103892B51
:101AD00021F4F0937103E09370032097C9F0D1874C
:101AE000C0878381826083838091720390917303A6
:101AF000892B71F4F0937303E09372038091740364
:101B000090917503892B21F4F0937503E09374038E
:101B1000CF01DF91CF911F910F910895CF93DF9364
:101B2000CDB7DEB7AE01465F5F4F688579858E81A0
:101B30009F810E949E0DDF91CF9108952F923F9239
:101B40004F925F926F927F928F929F92AF92BF92CD
:101B5000CF92DF92EF92FF920F931F93CF93DF9379
:101B6000CDB7DEB72C970FB6F894DEBF0FBECDBF52
:101B70007C016B018A01FC0117821682838181FF3F
:101B8000BDC1CE0101964C01F7019381F60193FD91
:101B9000859193FF81916F01882309F4ABC1853250
:101BA00039F493FD859193FF81916F01853229F47A
:101BB000B70190E00E94FF10E7CF512C312C20E0BC
:101BC0002032A0F48B3269F030F4803259F0833245
:101BD00069F420612CC08D3239F0803339F42160F2
:101BE00026C02260246023C0286021C027FD27C0B2
:101BF00030ED380F3A3078F426FF06C0FAE05F9EE9
:101C0000300D1124532E13C08AE0389E300D11245C
:101C1000332E20620CC08E3221F426FD6BC120646D
:101C200006C08C3611F4206802C0883641F4F601F3
:101C300093FD859193FF81916F018111C1CF982F01
:101C40009F7D9554933028F40C5F1F4FFFE3F98379
:101C50000DC0833631F0833771F0833509F05BC0F6
:101C600022C0F801808189830E5F1F4F4424439472
:101C7000512C540115C03801F2E06F0E711CF801AF
:101C8000A080B18026FF03C0652D70E002C06FEF19
:101C90007FEFC5012C870E94F4102C0183012C8555
:101CA0002F77222E17C03801F2E06F0E711CF80159
:101CB000A080B18026FF03C0652D70E002C06FEFE9
:101CC0007FEFC5012C870E94E2102C012C85206833
:101CD000222E830123FC1BC0832D90E04816590659
:101CE000B0F4B70180E290E00E94FF103A94F4CF84
:101CF000F50127FC859127FE81915F01B70190E0F6
:101D00000E94FF1031103A94F1E04F1A510841142B
:101D1000510471F7E5C0843611F0893639F5F801C0
:101D200027FF07C060817181828193810C5F1F4F03
:101D300008C060817181072E000C880B990B0E5F23
:101D40001F4F2F76722E97FF09C090958095709542
:101D500061957F4F8F4F9F4F2068722E2AE030E0B1
:101D6000A4010E943711A82EA81844C0853729F471
:101D70002F7EB22E2AE030E025C0F22FF97FBF2E51
:101D80008F36C1F018F4883579F0B4C0803719F077
:101D9000883721F0AFC02F2F2061B22EB4FE0DC0C6
:101DA0008B2D8460B82E09C024FF0AC09F2F966037
:101DB000B92E06C028E030E005C020E130E002C0C6
:101DC00020E132E0F801B7FE07C0608171818281B5
:101DD00093810C5F1F4F06C06081718180E090E0AD
:101DE0000E5F1F4FA4010E943711A82EA818FB2DCB
:101DF000FF777F2E76FE0BC0372D3E7FA51450F463
:101E000074FE0AC072FC08C0372D3E7E05C0BA2C95
:101E1000372D03C0BA2C01C0B52C34FF0DC0FE0114
:101E2000EA0DF11D8081803311F4397E09C032FF43
:101E300006C0B394B39404C0832F867809F0B3949A
:101E400033FD13C030FF06C05A2CB31418F4530CE2
:101E50005B18B32CB31468F4B70180E290E03C87C0
:101E60000E94FF10B3943C85F5CFB31410F43B18D7
:101E700001C0312C34FF12C0B70180E390E03C87F1
:101E80000E94FF103C8532FF17C031FD03C088E778
:101E900090E002C088E590E0B7010CC0832F8678FF
:101EA00059F031FF02C08BE201C080E237FD8DE2C4
:101EB000B70190E00E94FF10A51438F4B70180E349
:101EC00090E00E94FF105A94F7CFAA94F401EA0D13
:101ED000F11D8081B70190E00E94FF10A110F5CFA5
:101EE000332009F451CEB70180E290E00E94FF1048
:101EF0003A94F6CFF7018681978102C08FEF9FEF6A
:101F00002C960FB6F894DEBF0FBECDBFDF91CF91F8
:101F10001F910F91FF90EF90DF90CF90BF90AF9007
:101F20009F908F907F906F905F904F903F902F90F9
:101F300008950F931F93CF93DF93869F8001879F10
:101F4000100D969F100D1124C8010E94B50FEC01D1
:101F5000009729F0A80160E070E00E94ED10CE012A
:101F6000DF91CF911F910F910895CF93DF9382302E
:101F7000910510F482E090E0E0917803F09179030C
:101F800020E030E0C0E0D0E0309711F14081518195
:101F900048175907C0F04817590761F482819381A7
:101FA000209719F09B838A832BC0909379038093A9
:101FB000780326C02115310519F04217530718F48C
:101FC0009A01BE01DF01EF010280F381E02DDCCF39
:101FD0002115310509F1281B390B2430310590F406
:101FE00012968D919C9113976115710521F0FB015B
:101FF0009383828304C09093790380937803FD01D7
:10200000329644C0FD01E20FF31F81939193225059
:1020100031092D933C933AC0209176033091770398
:10202000232B41F42091590230915A0230937703C7
:1020300020937603209157023091580221153105E3
:1020400041F42DB73EB740915B0250915C02241BD6
:10205000350BE0917603F0917703E217F307A0F4D4
:102060002E1B3F0B2817390778F0AC014E5F5F4FEE
:102070002417350748F04E0F5F1F509377034093A6
:1020800076038193919302C0E0E0F0E0CF01DF910D
:10209000CF9108950F931F93CF93DF93009709F487
:1020A0008CC0FC0132971382128200917803109148
:1020B00079030115110581F420813181820F931F6D
:1020C00020917603309177032817390779F5F0933B
:1020D0007703E093760371C0D80140E050E0AE177B
:1020E000BF0750F412962D913C911397AD01211525
:1020F000310509F1D901F3CF9D01DA013383228340
:1021000060817181860F971F8217930769F4EC0134
:1021100028813981260F371F2E5F3F4F318320835F
:102120008A819B8193838283452B29F4F0937903E1
:10213000E093780342C01396FC93EE931297ED015F
:10214000499159919E01240F351FE217F30771F44D
:1021500080819181840F951F029611969C938E9396
:102160008281938113969C938E931297E0E0F0E026
:10217000D80112968D919C911397009719F0F80150
:102180008C01F6CF8D919C9198012E5F3F4F820F6D
:10219000931F20917603309177032817390769F44C
:1021A000309729F4109279031092780302C01382B9
:1021B00012821093770300937603DF91CF911F91E2
:1021C0000F910895FC010590615070400110D8F7FF
:1021D000809590958E0F9F1F0895DC0101C06D932F
:1021E00041505040E0F70895FC016150704001906B
:1021F0000110D8F7809590958E0F9F1F08950F932B
:102200001F93CF93DF93FB01238121FD03C08FEF49
:102210009FEF28C022FF16C0468157812481358157
:102220004217530744F4A081B1819D012F5F3F4FB6
:10223000318320838C93268137812F5F3F4F3783F3
:10224000268310C0EB01092F182F0084F185E02DA3
:102250001995892BE1F68E819F8101969F838E834C
:10226000812F902FDF91CF911F910F910895FA0147
:10227000AA27283051F1203181F1E8946F936E7FC5
:102280006E5F7F4F8F4F9F4FAF4FB1E03ED0B4E0B6
:102290003CD0670F781F891F9A1FA11D680F791FF7
:1022A0008A1F911DA11D6A0F711D811D911DA11D08
:1022B00020D009F468943F912AE0269F1124301918
:1022C000305D3193DEF6CF010895462F4770405DB3
:1022D0004193B3E00FD0C9F7F6CF462F4F70405D62
:1022E0004A3318F0495D31FD4052419302D0A9F7BD
:1022F000EACFB4E0A6959795879577956795BA95B7
:10230000C9F700976105710508959B01AC010A2E7C
:1023100006945795479537952795BA95C9F7620F53
:0E232000731F841F951FA01D0895F894FFCF12
:10232E0000000002000000005C0100000000040438
:10233E000000000002000000005C01000000000030
:10234E00000002000000005C0100000000F8040024
:10235E00000002000000005C01000000000101000E
:10236E00000000000000000100000000020000005C
:10237E00005C010000000000007A032000494E4975
:10238E00545F4E320A0D0049523A202564200D0A40
:10239E000057525F455220253478200D0A005245D1
:1023AE005F455220253478200D0A004D43503235BA
:1023BE003135206973204E4F5420696E20636F6E45
:1023CE0066696775726174696F6E206D6F646520E2
:1023DE006166746572207265736574210D0A005012
:1023EE0042350050453300495220696E69743A20D7
:1023FE002564200D0A004952206176673A20256433
:10240E00200D0A0049522074726967200D0A00736C
:10241E00636F72653A202564200D0A0047414D45D1
:0A242E00204F564552200D0A000011
:00000001FF
