:100000000C944F080C9470080C9470080C947008B1
:100010000C9470080C9470080C9470080C94700880
:100020000C9470080C9470080C9470080C94700870
:100030000C9470080C9470080C9470080C94700860
:100040000C9470080C9470080C9470080C94700850
:100050000C9470080C9470080C9470080C94700840
:100060000C9470080C9470080C9470080C94700830
:100070000C9470080C9470080C9470080C94700820
:100080000C94BB100C9470080C9470080C947008BD
:100090000C9470080C9470080C9470080C94E30D88
:1000A0000C9470080C9470080C9470080C947008F0
:1000B0000C9470080C9470080C9470080C947008E0
:1000C0000C9470080C9470080C9470080C947008D0
:1000D0000C9470080C9470080C9470080C947008C0
:1000E0000C947008020E540E540E540E540E540EFE
:1000F000540E540E020E540E540E540E540E540E42
:10010000540E540E040E540E540E540E540E540E2F
:10011000540E540E540E540E540E540E540E540ECF
:10012000540E540E040E540E540E540E540E540E0F
:10013000540E540E540E540E540E540E540E540EAF
:10014000540E540E500E540E540E540E540E540EA3
:10015000540E540E2D0E540E540E540E540E540EB6
:10016000540E540E540E540E540E540E540E540E7F
:10017000540E540E210E540E540E540E540E540EA2
:10018000540E540E3F0E0C943F0E0C94210E0C9402
:10019000540E0C942D0E0C94C2080C94BA080C94B6
:1001A000020E0C94500E0C94040E0C0C0C0C0C0C47
:1001B0000C0C0C0C0C0C0C0C0C0C0C0C0C0C0C0C7F
:1001C0000C0C0C0C0C0C0C0C0C0C0909090C0C0C78
:1001D0000C0C0C0C0C0C0C0C0C0C0C0C0C0C0C0C5F
:1001E0000C0C0C0C0C0C0C0C0C0909090C0C0C0C58
:1001F0000C0C0C0C0C0C0C0C00000000000000009F
:1002000000000000000000000000000000000000EE
:1002100000000000000000000000000000000C0CC6
:100220000C0C0C0C06030C0C0C0C0C0C06030C0C2C
:100230000C0C0C0C06030C0C0C0C0C0C060612120D
:10024000120606060606061212121212120A0A0AEE
:100250000A0A0A03031E000000000000000000005C
:10026000000000000000000000000000000000008E
:10027000000000000000000000000000000000007E
:10028000000000000000000000000000000000006E
:10029000000018180C0C0C180C1818180C180C0C62
:1002A0000C0C180C18180C181818180C180C181816
:1002B000180C0C180818180808180C18180C00004E
:1002C000000000000000000000000000000000002E
:1002D000000000000000000000000000000000001E
:1002E000000000000000000000000000000000000E
:1002F00000000000000000000000000000000000FE
:1003000000000000000002020204080602040806C1
:10031000020802020204080602040806020802108B
:10032000040408020804060604040804020804047D
:10033000060402080402040402080406020802106B
:10034000040408020804060604040804020804045D
:100350000604020804020204020408040200000069
:10036000000000000000000000000000000000008D
:10037000000000000000000000000808080808084D
:1003800004080808080808040808080808080808F5
:1003900008080808080804080808080808040808E5
:1003A00008080808040808080808080808080808D1
:1003B00008080804080808080808040808080808C5
:1003C00008040808080808080808080808080808B1
:1003D00004080808080808040808080808080408A9
:1003E0000808080808080808080808080804040499
:1003F00004040404020404040404040204040404C1
:1004000004040204040404040402040404040404B0
:1004100002040404040404020000000000000000C0
:1004200000000000000000000000000000000000CC
:1004300000000000000000000000000000000000BC
:1004400000000000000000000000000000000000AC
:10045000000000000000000000000000000000009C
:100460000000020404080404040204040804040450
:100470000404040804080404010402040408040435
:100480000402040408040404040404080408040422
:10049000010408040404020404080404040204041B
:1004A000080404040404040804080404010000000F
:1004B000000000000000000000000000000000003C
:1004C000000000000000000000000000000000002C
:1004D0000000000000000204020202020202040402
:1004E00004040204020202020204020202020202E4
:1004F00004040404020402020202020402020204CE
:1005000002020404020404020202020202040202C1
:1005100002020202040404040204020202020000B5
:1005200000000000000000000000000000000000CB
:1005300000000000000000000000000000000000BB
:10054000000000000000000000000202020202029F
:100550000202020202020204040204020202020275
:100560000202020202020202040402040202020265
:100570000204040202020404020202020104020252
:10058000020202020202020202020204040200004B
:10059000000000000000000000000000000000005B
:1005A000000000000000000000000000000000004B
:1005B0000000000000000000000000000000020237
:1005C000020202020102020202010202020202020D
:1005D00002020102020202010204040202020404F5
:1005E00002020104040204040204040404020204DA
:1005F00002020202020201020202020101000000E4
:1006000000000000000000000000000000000000EA
:1006100000000000000000000000000000000000DA
:1006200000000000000000000000000000000000CA
:10063000000001101004040110100808040110103B
:10064000040402041010080808080404101004042C
:10065000011010080804011010040402041010080E
:100660000808080410100410100808080804040200
:10067000080410100100000000000000000000004D
:10068000000000000000000000000000000000006A
:10069000000000000000000000000000000000005A
:1006A0000000000000004D0A4D0A00004D0A000045
:1006B0002D084D0A0000400C00000000000020063C
:1006C0000000000000002D080000000020060000CF
:1006D0000000270500000000E0060000B807000049
:1006E0004907E006000020064D0A400CC00D00003E
:1006F000EA0A400C00004D0A00002D082D09B80739
:10070000000000002D08000000002006000000008E
:10071000270500000000E0060000B80700004907B8
:10072000E006000020064D0A400CC00D0000EA0A59
:10073000400C00004D0A00002D082D09B8070000EC
:1007400000000000000000000000000000000000A9
:100750000000000000000000000000000000000099
:100760000000000000000000000000000000000089
:100770000000000000000000000000000000000079
:100780000000000000000000000000000000060162
:100790000B02DC00B801E900D201000000000601F4
:1007A0000B02DC00B801E900D20100000000AF003C
:1007B0005D01930026019C00370100000000AF009E
:1007C0005D01930026019C00370100000000370105
:1007D00015012601150137013701D000C4001501AC
:1007E000060172015D01A500D201B8019F01370128
:1007F000F700E900DC00D00000000000000000006D
:1008000000000000000000000000000000000000E8
:1008100000000000000000000000000000000000D8
:1008200000000000000000000000000000000000C8
:1008300000000000000000000000000000000000B8
:1008400000000000000000000000000000000000A8
:100850000000000000000000000000000000000098
:100860000000000000000000000000000000000088
:100870000000000000004B021003100310031003DF
:10088000E402E40293024B0293024B024B020B027E
:10089000DC037003880100000B02DC037003880195
:1008A0000000100300001003100300001003E40216
:1008B0000000930293024B024B020B020B020B024D
:1008C0004B024B027003DC0370038801100300002D
:1008D0000000000000000000000000000000000018
:1008E0000000000000000000000000000000000008
:1008F00000000000000000000000000000000000F8
:1009000000000000000000000000000000000000E7
:1009100000000000000000000000000000000000D7
:1009200000000000000000000000000000000000C7
:1009300000000000000000000000000000000000B7
:1009400000000000000000000000000000000000A7
:10095000000000000000000000000000000088010E
:100960008801880137010000D201880137010000A9
:10097000D20188010000260126012601370100006E
:10098000E900B9009C000000E900C40000008801F3
:100990000000C400C40000008801000072015D0175
:1009A0004A0137014A010000D0008B00000083009B
:1009B000F700E900DC00E90000009C00B9009C00A1
:1009C000B900E9000000C400E90026010000880128
:1009D0000000C400C40000008801000072015D0135
:1009E0004A0137014A010000D0008B00000083005B
:1009F000F700E900DC00E90000009C00B9009C0061
:100A0000E900C4009C000000E900C40000000000F0
:100A100000000000000000000000000000000000D6
:100A200000000000000000000000000000000000C6
:100A300000000000000000000000000000000000B6
:100A4000000000000000B8018801B8014A01060159
:100A50004A01DC00B8018801B8014A0106014A01D7
:100A6000DC00B801EE010B02EE010B02B801EE0151
:100A7000B801EE018801B8018801B8015D01B80133
:100A8000B8018801B8014A0106014A01DC00B80139
:100A90008801B8014A0106014A01DC00B801EE01F3
:100AA0000B02EE010B02B801EE01B801EE01880164
:100AB000B8018801B801EE010B0293024B029302C8
:100AC0000B0288010B024A0193024B0293020B02B4
:100AD00088010B024A019302E4021003E4021003AE
:100AE0009302E4029302E4024B0293024B0293024C
:100AF0000B02930293024B0293020B0288010B023A
:100B00004A0193024B0293020B0288010B024A0135
:100B10009302E4021003E40210039302E40293023E
:100B2000E4024B0293024B02EE014B0293020601D8
:100B3000060188018801B801B80188015D015D01E5
:100B40004A014A01260126010601880188015D014A
:100B50005D014A014A012601880188015D015D01AC
:100B60004A014A0126010601060188018801B801EF
:100B7000B80188015D015D014A014A012601260193
:100B8000060100000000000000000000000000005E
:100B90000000000000000000000000000000000055
:100BA0000000000000000000000000000000000045
:100BB0000000000000000000000000000000000035
:100BC0000000000000000000000000000000000025
:100BD0000000000000000000000000000000000015
:100BE0000000000000000000000000000000000005
:100BF00000000000000000000000000000000000F5
:100C000000000000000000000000000000000000E4
:100C1000000000000000B8010B02B801B8014B024F
:100C2000B8018801B8019302B801B801BA02930271
:100C30000B02B80193027003B801880188014A01D0
:100C4000EE01B8010000B8010B02B801B8014B0277
:100C5000B8018801B8019302B801B801BA02930241
:100C60000B02B80193027003B801880188014A01A0
:100C7000EE01B8010000DC00C400A5009300B8013B
:100C80000B02B801B8014B02B8018801B801930208
:100C9000B801B801BA0293020B02B80193027003C3
:100CA000B801880188014A01EE01B8010000000086
:100CB0000000000000000000000000000000000034
:100CC0000000000000000000000000000000000024
:100CD0000000000000000000000000000000000014
:100CE0000000000000000000000000000000000004
:100CF00000000000000000000000000000001003E1
:100D0000BA0293024B020B024B0293020B024B02FC
:100D10009302BA024B0293024B020B02EE010B024A
:100D200000001003BA0293024B020B024B02930223
:100D30000B024B029302BA024B0293024B020B02CC
:100D4000EE010B0200004B029302BA024B02930227
:100D5000BA0210034B029302BA0210037003DC03C1
:100D60001704DC037003100300001003BA0293029F
:100D70004B020B024B0293020B024B029302BA028C
:100D80004B0293024B020B02EE010B02000000002B
:100D90000000000000000000000000000000000053
:100DA0000000000000000000000000000000000043
:100DB0000000000000000000000000000000000033
:100DC0000000000000000000000000000000000023
:100DD0000000000000000000000000000000000013
:100DE0000000000000004A014A015D0188018801FD
:100DF0005D014A0126010601060126014A014A0158
:100E000000002601260100004A014A015D01880117
:100E100088015D014A0126010601060126014A01F9
:100E200026010000060106010000260126014A01F4
:100E3000060126014A015D014A01060126014A0117
:100E40005D014A01260106012601C40000004A0195
:100E50004A015D01880188015D014A012601060100
:100E6000060126014A0126010000060106010000D4
:100E70000000000000000000000000000000000072
:100E80000000000000000000000000000000000062
:100E90000000000000000000000000000000000052
:100EA0000000000000000000000000000000000042
:100EB0000000000000000000000000000000000032
:100EC00000000000000000000000000000000B0215
:100ED0000B020B028801B801B8018801930293024A
:100EE0004B024B020B02000088010B020B020B02AB
:100EF0008801B801B8018801930293024B024B02AA
:100F00000B020000880188010B020B020B02880112
:100F100088010B020B0288010B020B020B020B0271
:100F20000B020B020B020B020B020B020B020B0259
:100F300000000B020B020B028801B801B801880106
:100F4000930293024B024B020B02000000000000D0
:100F50000000000000000000000000000000000091
:100F60000000000000000000000000000000000081
:100F70000000000000000000000000000000000071
:100F80000000000000000000000000000000000061
:100F90000000000000000000000000000000000051
:100FA0000000000000000000000000000000000041
:100FB000000000000000DC0093024B029302B80125
:100FC000AF00BA029302BA0293024B029300BA0234
:100FD0009302BA02B801C40000004B020B024B029C
:100FE0000B02EE014B020B02DC0093024B02930258
:100FF000B801AF00BA029302BA0293024B02930007
:10100000BA029302BA02B801C40000004B020B02FC
:101010004B020B02EE014B020B02EE010B024B02E4
:101020000B024B0293024B020B02EE01B801BA0213
:1010300093029302BA0293024B0293020000000053
:1010400000000000000000000000000000000000A0
:101050000000000000000000000000000000000090
:101060000000000000000000000000000000000080
:101070000000000000000000000000000000000070
:101080000000000000000000000000000000000060
:10109000000000000000000000000000000011241B
:1010A0001FBECFEFD1E2DEBFCDBF00E00CBF12E02C
:1010B000A0E0B2E0E6E8FFE200E00BBF02C007906C
:1010C0000D92AE3DB107D9F723E0AEEDB2E001C01D
:1010D0001D92A931B207E1F70E9472080C94C11762
:1010E0000C940000CF93DF93CDB7DEB72A970FB6ED
:1010F000F894DEBF0FBECDBFF8941F921F9280E51B
:1011000092E09F938F9380E092E09F938F930E9451
:10111000BA1387E690E00E94CA080E94FD080E9468
:10112000EC090E94020A0E947A0C0E94DB080E94CD
:10113000780D0E94CD0E0E94CA106AE070E082E035
:101140000E943B0F78940F900F900F900F900F908C
:101150000F90CE0101960E94140A8B810E94810C8F
:101160000E947C0EF6CF089A109A08951098089560
:10117000109A0895E0ECF0E0908195FFFDCF809308
:10118000C6000895E0ECF0E080818823ECF78091C0
:10119000C60008959093C5008093C40088E18093B1
:1011A000C1008EE08093C20062EC78E08AEB98E0A8
:1011B0000E946F130895809A8898EAE7F0E0808192
:1011C00080688083ACE7B0E08C91806C8C938081E8
:1011D000876080830895EAE7F0E0808180648083FF
:1011E000808184FFFDCF209178008091790090E08C
:1011F000982F8827820F911D0895209A219A08958B
:1012000008950F931F93CF93DF93CDB7DEB7609709
:101210000FB6F894DEBF0FBECDBFFB018E01075F96
:101220001F4F68E0D8011D926A95E9F7BA016E5F19
:101230007F4F681779072CF04250510984179507A2
:101240007CF4AC014F57510964E6649FC001659F6F
:10125000900D11246FE770E00E94F3108B0102C023
:1012600000E010E0C90102968E179F072CF0225073
:101270003109E217F3076CF4EF57F10924E62E9FCA
:10128000C0012F9F900D11246FE770E00E94F310B2
:1012900002C060E070E01A8709877C876B8788E06E
:1012A000FE013996DE01119601900D928A95E1F7C3
:1012B00029813A814B815C816D817E818F81988506
:1012C00060960FB6F894DEBF0FBECDBFDF91CF9111
:1012D0001F910F9108958F3B91058CF16F3B710524
:1012E0008CF0681779073CF481E090E090930F024E
:1012F00080930E026CC082E090E090930F02809386
:101300000E0265C0603471059CF4660F771F681784
:1013100079073CF481E090E090930F0280930E02F5
:1013200056C083E090E090930F0280930E024FC06E
:1013300081E090E090930F0280930E0248C08034C9
:1013400091055CF56F3B71058CF0880F991F68174C
:1013500079072CF410920F0210920E0238C082E02E
:1013600090E090930F0280930E0231C060347105BB
:101370007CF4681779072CF410920F0210920E0279
:1013800026C083E090E090930F0280930E021FC06E
:1013900010920F0210920E021AC06F3B71053CF0C2
:1013A00082E090E090930F0280930E0210C06034B0
:1013B00071053CF483E090E090930F0280930E025D
:1013C00006C084E090E090930F0280930E0280911B
:1013D0000E0290910F02089587E884B981E58CBDD3
:1013E00008958EBD0DB407FEFDCF089581E00E94E3
:1013F000F1090DB407FEFDCF8EB508952F9808951D
:101400002F9A08950E94350B40E060EE8FE00E9415
:10141000740B4FEF61E08BE20E94740B4FEF60E6BC
:1014200080E60E94740B0895AF92BF92CF92DF9234
:10143000EF92FF920F931F93CF93DF93CDB7DEB759
:101440002A970FB6F894DEBF0FBECDBF5C0181E6D0
:101450000E94230B182F82E60E94230B829586950B
:101460008770110F110F110FD82ED10E85E60E9433
:10147000230B8F70C82E81F07E0183E0E80EF11CF3
:1014800006E60C0D16E6812F0E94230BF7018193CF
:101490007F011F5F1013F7CF40E061E08CE20E94F4
:1014A000740B1F921F9288E592E09F938F9380E1C7
:1014B00092E09F938F930E94BA13D982CA828AE0E6
:1014C000FE013196D50101900D928A95E1F70F90BA
:1014D0000F900F900F900F900F90C5012A960FB6A6
:1014E000F894DEBF0FBECDBFDF91CF911F910F915A
:1014F000FF90EF90DF90CF90BF90AF90089580E382
:101500000E94230B84FD08C080E30E94230B85FB0F
:10151000882780F990E0089581E090E00895CF92C7
:10152000DF92EF92FF920F931F93CF93DF938C0183
:101530000E947F0AF80140814695469546956FEFD7
:1015400081E30E94740BF80140814295440F407E74
:1015500060EE82E30E94740BF80141816FE085E345
:101560000E94740BF80180811F928F938EE592E0A8
:101570009F938F9380E192E09F938F930E94BA1381
:101580000F900F900F900F900F900F90F8018181A6
:10159000882389F1C0E00F2EF1E7CF2EF2E0DF2E95
:1015A000F02D0F2EF0E1EF2EF2E0FF2EF02DD6E31E
:1015B000DC0FF801EC0FF11D42816FEF8D2F0E94BF
:1015C000740B8D2F0E94230B1F928F931F92CF932A
:1015D000DF92CF92FF92EF920E94BA13CF5F8DB746
:1015E0009EB708960FB6F8949EBF0FBE8DBFF80148
:1015F0008181C817E0F281E80E94690BDF91CF91E9
:101600001F910F91FF90EF90DF90CF9008950E946F
:10161000FE0980EC0E94F1090E94000A8FE39CE918
:101620000197F1F700C000000895CF930E94FE09D2
:1016300080EA0E94F1090E94F609C82F0E94000A60
:101640008C2FCF910895CF93C82F0E94FE0983E07D
:101650000E94F1098C2F0E94F1090E94F609C82FFF
:101660000E94000A8C2FCF9108950E94EC090E94DD
:10167000070B8EE00E94230B807E8038A1F01F9222
:101680001F9287E892E09F938F938EE192E09F9361
:101690008F930E94BA130F900F900F900F900F909E
:1016A0000F9081E0089580E00895CF93DF93C82FD5
:1016B000D62F0E94FE0982E00E94F1098D2F0E9420
:1016C000F1098C2F0E94F1090E94000ADF91CF914D
:1016D0000895CF93C82F0E94FE098C2F0E94F10914
:1016E0000E94000ACF9108951F93CF93DF93182F84
:1016F000D62FC42F0E94FE0985E00E94F109812F98
:101700000E94F1098D2F0E94F1098C2F0E94F1098E
:101710000E94000ADF91CF911F91089580349105B6
:1017200089F030F481309105A9F0089749F010C094
:10173000811521E0920741F08115944039F008C0ED
:1017400082E0089583E0089584E0089585E0089597
:1017500080E0089581E00895CF92DF92EF92FF92AA
:101760000F931F93CF93DF938C016B01C0E8D0E000
:101770008881826088830F2EF1E8EF2EF12CF02D06
:10178000F701808188618083C8010E948E0BF70178
:101790009081892B8083888180688883259A96012F
:1017A00040E050E060E074E284EF90E00E940711B6
:1017B000CA01B901980140E050E00E940711215090
:1017C000310930938700209386001092890010928F
:1017D0008800DF91CF911F910F91FF90EF90DF90E4
:1017E000CF900895CF92DF92EF92FF920F931F93C5
:1017F000CF93DF938C016B01C0E9D0E088818260D8
:1018000088830F2EF1E9EF2EF12CF02DF701808166
:1018100088618083C8010E948E0BF7019081892B1B
:1018200080838881806888836B9A960140E050E0CD
:1018300060E074E284EF90E00E940711CA01B901F0
:10184000980140E050E00E94071121503109309387
:1018500097002093960080E290E090939900809307
:101860009800E1E7F0E0808182608083DF91CF9192
:101870001F910F91FF90EF90DF90CF90089524B5C6
:10188000236024BD25B5286025BD0E948E0B95B52B
:10189000892B85BD84B5806884BD8FEF87BD1F927D
:1018A0008F938BEB92E09F938F938CE292E09F93C8
:1018B0008F930E94BA13EEE6F0E08081826080830D
:1018C0000F900F900F900F900F900F90089522E0BF
:1018D000873C920731F470E0709389006093880030
:1018E00008958B5C924029F470E0709399006093A6
:1018F0009800089562E370E080E091E00E94AC0BF4
:101900000895682F70E080E090E00E94761223E353
:1019100033E343E35EE30E94021320E030E040E65D
:1019200052E40E9460110E944512653608F064E698
:10193000683308F468E387EC92E00E94670C08952E
:10194000249A2C9808952C9A08952C980895882309
:1019500041F0EFE9FFE03197F1F700C0000081505E
:10196000C1F70895009731F025E02A95F1F70000BE
:101970000197D1F70895EF92FF920F931F93CF93A2
:10198000DF937C01C62F6623A9F19C0140E050E063
:1019900060E271EA87E090E00E9407118901CE9D24
:1019A0009001CF9D300D11243695279536952795BA
:1019B00036952795A5ECB0E20E942E117C01F69495
:1019C000E794F694E794F694E794F694E794E11498
:1019D000F10481F0C0E0D0E00E94A30CC8010E9495
:1019E000B20C0E94A50CC8010E94B20C2196CE1523
:1019F000DF0591F7DF91CF911F910F91FF90EF904D
:101A00000895AF92BF92CF92DF92EF92FF920F9321
:101A10001F93CF93E82E1F921F928FEC92E09F931B
:101A20008F938AE392E09F938F930E94BA132E2D97
:101A300030E044E7E49EC0011124FC01E655FE4F6E
:101A40007F0188EE829F8001839F100D11240A552B
:101A5000194F2F5F3F4F829FA001839F500D11248C
:101A6000CA018A55994F6C010F900F900F900F90FB
:101A70000F900F900F2EF8EEAF2EF3E0BF2EF02D4B
:101A8000F701C491CC2331F0649170E0C5010E944C
:101A9000F310C62FF801859194916C2F0E94BB0C16
:101AA0006C2F70E080E090E00E94761226E636E629
:101AB00046EA5FE30E9402130E944512862F0E94AD
:101AC000A70C6C2F80E090E00E94BB0CFFEFEF1A98
:101AD000FF0A0E5F1F4F0C151D0591F6CF911F9148
:101AE0000F91FF90EF90DF90CF90BF90AF9008954F
:101AF0008CE08093B8008FEF8093BB0084E08093EC
:101B0000BC0008958091BC0081700895ECEBF0E07A
:101B1000808180FDFDCF809148020895CF93DF93AF
:101B2000EC01ECEBF0E0908190FDFDCF6093E802DA
:101B300098819093E90290FD13C0623088F0FE0115
:101B40003196AAEEB2E06250262F30E02E5F3F4F72
:101B5000CE01820F931F21912D93E817F907D9F732
:101B60001092E60288EF8093480285EA8093BC00D9
:101B7000DF91CF910895ECEBF0E0808180FDFDCF07
:101B80001092E60288EF8093480285EA8093BC00B9
:101B90000895ECEBF0E0208120FDFDCF2091E602DE
:101BA00020FF0DC0662359F029EE32E0A82FB92F8F
:101BB000F90181918D938E2F821B8617D0F380912E
:101BC000E602817008951F920F920FB60F921124B2
:101BD0000BB60F922F933F938F939F93AF93BF9327
:101BE000EF93FF93E091B9008E2F90E0FC013897BE
:101BF000E135F10508F058C08827EE58FF4F8F4FA8
:101C00000C9426111092E702E091E7028091E8021D
:101C1000E81770F481E08E0F8093E702F0E0E7515F
:101C2000FD4F80818093BB0085E88093BC0043C05A
:101C30008091E60281608093E60284E98093BC0093
:101C40003AC0E091E70281E08E0F8093E702809135
:101C5000BB00F0E0E751FD4F80832091E70230E0C8
:101C60008091E80290E001972817390724F485EC69
:101C70008093BC0020C085E88093BC001CC080918C
:101C8000BB00E091E702F0E0E751FD4F80838091D7
:101C9000E60281608093E60284E98093BC000BC079
:101CA00085EA8093BC0007C08091B9008093480208
:101CB00084E08093BC00FF91EF91BF91AF919F9121
:101CC0008F913F912F910F900BBE0F900FBE0F90F1
:101CD0001F901895E2E0F1E080818F7B80832FEFE9
:101CE00089EF90E0215080409040E1F700C0000073
:101CF00080818064808308950F931F93CF93DF9337
:101D0000C2E0D1E088818F7D88838881877F888346
:101D10002FEF89EF90E0215080409040E1F700C024
:101D20000000E6E0F1E010818881886088832FEF71
:101D300089EF90E0215080409040E1F700C0000022
:101D400000810E946A0E888180628883812F90E0E2
:101D5000982F8827800F911DDF91CF911F910F91B0
:101D600008958130910541F0029759F4E2E0F1E0E5
:101D700080818D7F80830895E2E0F1E08081826040
:101D800080830895ECE0F3E090E5908311828283F4
:101D900063E0CF010E948E0D0895E1E0F1E08081C3
:101DA00080618083A2E0B1E08C9180618C9380811E
:101DB000826080838081806280838081886080836C
:101DC00080818064808380E00E94C20E82E090E087
:101DD0000E94B10E86E90E94C20E2FEF83ED90E3C0
:101DE000215080409040E1F700C000000E946A0E40
:101DF00080E00E94C20E8FE39CE90197F1F700C0DA
:101E0000000081E090E00E94B10E86E90E94C20EBF
:101E10009FEF23ED80E3915020408040E1F700C028
:101E200000000E947C0E9093EE028093ED020895D4
:101E3000181619063CF421E030E03093F0022093AC
:101E4000EF0210C0992354F422E030E03093F00206
:101E50002093EF0291958195910904C01092F002B0
:101E60001092EF020E94C20E8091EF029091F00258
:101E70000E94B10E08958F929F92AF92BF92CF921F
:101E8000DF92EF92FF920F931F93CF93C82F8B0196
:101E900080E091E00E94F20B81E090E0B8010E94A6
:101EA000DF1080E090E00E9474126B017C0160936F
:101EB000F2027093F3028093F4029093F502C23021
:101EC000D9F0C33091F1C13009F06AC06091490284
:101ED00070E080E090E00E94761220E030E040E088
:101EE0005FE30E94021360930203709303038093E5
:101EF00004039093050354C080E090E0A0E8BFE3A2
:101F00008093020390930303A0930403B09305030B
:101F100080E090E0A0E0B0E48093FE029093FF02A6
:101F2000A0930003B09301033BC06091490270E0AD
:101F300080E090E00E9476122AE939E949E15FE306
:101F40000E9402134B015C01609302037093030330
:101F500080930403909305039B01AC010E946011E0
:101F6000A70196010E94CC116093FE027093FF02BC
:101F70008093000390930103A5019401C701B6016A
:101F80000E94021320E030E040E05EE30E94021372
:101F90006093FA027093FB028093FC029093FD021F
:101FA000CF911F910F91FF90EF90DF90CF90BF9056
:101FB000AF909F908F9008954F925F926F927F9213
:101FC0008F929F92AF92BF92CF92DF92EF92FF9249
:101FD0000F931F93CF93DF93EC019091F102913017
:101FE00009F0B4C08B011092F1020E947C0EFC013A
:101FF0008FEF90E0B8010E94DF10E69F9001E79F0D
:10200000300DF69F300D1124C21BD30BD093090362
:10201000C0930803CE014496899720F01092F902EC
:102020001092F8020091F8021091F9020C0F1D1F96
:102030001093F9020093F8028090F2029090F3025C
:10204000A090F402B090F5028091060390910703EE
:10205000BE01681B790B072E000C880B990B0E94A0
:102060007612A50194010E94CC110E943E126B01D0
:102070007C017093F7026093F602BE010D2E000CF6
:10208000880B990B0E947612209102033091030372
:1020900040910403509105030E9402132B013C015F
:1020A0002091FE023091FF02409100035091010304
:1020B000C501B4010E9402134B015C01B801110F6C
:1020C000880B990B0E9476129B01AC01C501B401EB
:1020D0000E9402139B01AC01C301B2010E94601176
:1020E0004B015C01B601DD0C880B990B0E94761246
:1020F0002091FA023091FB024091FC025091FD02C6
:102100000E9402139B01AC01C501B4010E94601141
:102110000E943E129B0170930B0360930A03D093BD
:102120000703C09306036F3F71053CF08FEF90E00B
:1021300090930B0380930A0309C022303F4F34F47D
:1021400081E09FEF90930B0380930A0380910A0331
:1021500090910B03DF91CF911F910F91FF90EF9022
:10216000DF90CF90BF90AF909F908F907F906F90B7
:102170005F904F9008951F920F920FB60F92112407
:102180008F9381E08093F1028F910F900FBE0F909B
:102190001F901895269A2E9808952E9A08952E9895
:1021A00008950E94CD102FEF89E698E121508040DC
:1021B0009040E1F700C000000E94CF100895AA1BD4
:1021C000BB1B51E107C0AA1FBB1FA617B70710F022
:1021D000A61BB70B881F991F5A95A9F78095909554
:1021E000BC01CD01089597FB072E16F4009407D08B
:1021F00077FD09D00E94DF1007FC05D03EF49095D2
:1022000081959F4F0895709561957F4F0895052E94
:1022100097FB1EF400940E941E1157FD07D00E94E8
:102220003D1107FC03D04EF40C941E1150954095BF
:10223000309521953F4F4F4F5F4F08959095809572
:10224000709561957F4F8F4F9F4F0895EE0FFF1F41
:10225000881F8BBF0790F691E02D1994A29FB001C3
:10226000B39FC001A39F700D811D1124911DB29FCA
:10227000700D811D1124911D0895A1E21A2EAA1B33
:10228000BB1BFD010DC0AA1FBB1FEE1FFF1FA21726
:10229000B307E407F50720F0A21BB30BE40BF50B23
:1022A000661F771F881F991F1A9469F760957095AC
:1022B000809590959B01AC01BD01CF0108955058C8
:1022C000BB27AA270E9477110C94C8120E94BA1249
:1022D00038F00E94C11220F039F49F3F19F426F41F
:1022E0000C94B7120EF4E095E7FB0C94B112E92FB1
:1022F0000E94D91258F3BA1762077307840795072B
:1023000020F079F4A6F50C94FB120EF4E0950B2E58
:10231000BA2FA02D0B01B90190010C01CA01A00137
:102320001124FF27591B99F0593F50F4503E68F192
:102330001A16F040A22F232F342F4427585FF3CFD3
:10234000469537952795A795F0405395C9F77EF4A4
:102350001F16BA0B620B730B840BBAF09150A1F0ED
:10236000FF0FBB1F661F771F881FC2F70EC0BA0F73
:10237000621F731F841F48F4879577956795B795FB
:10238000F7959E3F08F0B0CF9395880F08F09927F6
:10239000EE0F9795879508950E94E0110C94C8124E
:1023A0000E94C11258F00E94BA1240F029F45F3F17
:1023B00029F00C94B11251110C94FC120C94B71228
:1023C0000E94D91268F39923B1F3552391F3951B19
:1023D000550BBB27AA2762177307840738F09F5F46
:1023E0005F4F220F331F441FAA1FA9F335D00E2EB3
:1023F0003AF0E0E832D091505040E695001CCAF720
:102400002BD0FE2F29D0660F771F881FBB1F2617E2
:1024100037074807AB07B0E809F0BB0B802DBF01B9
:10242000FF2793585F4F3AF09E3F510578F00C9488
:10243000B1120C94FC125F3FE4F3983ED4F38695FE
:1024400077956795B795F7959F5FC9F7880F911DA9
:102450009695879597F90895E1E0660F771F881F95
:10246000BB1F621773078407BA0720F0621B730B48
:10247000840BBA0BEE1F88F7E09508950E94451271
:102480006894B1110C94FC1208950E94E11288F036
:102490009F5798F0B92F9927B751B0F0E1F0660F28
:1024A000771F881F991F1AF0BA95C9F714C0B13069
:1024B00091F00E94FB12B1E008950C94FB12672F7B
:1024C000782F8827B85F39F0B93FCCF38695779598
:1024D0006795B395D9F73EF4909580957095619581
:1024E0007F4F8F4F9F4F0895E89409C097FB3EF4AC
:1024F00090958095709561957F4F8F4F9F4F992351
:10250000A9F0F92F96E9BB279395F69587957795CE
:102510006795B795F111F8CFFAF4BB0F11F460FF8E
:102520001BC06F5F7F4F8F4F9F4F16C0882311F0E6
:1025300096E911C0772321F09EE8872F762F05C0FA
:10254000662371F096E8862F70E060E02AF09A9595
:10255000660F771F881FDAF7880F9695879597F98A
:10256000089597F99F6780E870E060E008959FEF15
:1025700080EC089500240A9416161706180609061A
:10258000089500240A9412161306140605060895E9
:10259000092E0394000C11F4882352F0BB0F40F471
:1025A000BF2B11F460FF04C06F5F7F4F8F4F9F4FB1
:1025B000089557FD9058440F551F59F05F3F71F033
:1025C0004795880F97FB991F61F09F3F79F087959A
:1025D0000895121613061406551FF2CF4695F1DF23
:1025E00008C0161617061806991FF1CF86957105B3
:1025F000610508940895E894BB2766277727CB01E7
:1026000097F908950E9415130C94C8120E94BA12EB
:1026100038F00E94C11220F0952311F00C94B112F1
:102620000C94B71211240C94FC120E94D91270F36E
:10263000959FC1F3950F50E0551F629FF001729F67
:10264000BB27F00DB11D639FAA27F00DB11DAA1F76
:10265000649F6627B00DA11D661F829F2227B00DC3
:10266000A11D621F739FB00DA11D621F839FA00D4E
:10267000611D221F749F3327A00D611D231F849F9E
:10268000600D211D822F762F6A2F11249F575040F5
:102690009AF0F1F088234AF0EE0FFF1FBB1F661F70
:1026A000771F881F91505040A9F79E3F510580F039
:1026B0000C94B1120C94FC125F3FE4F3983ED4F3F7
:1026C000869577956795B795F795E7959F5FC1F7DD
:1026D000FE2B880F911D9695879597F908950F9376
:1026E0001F93CF93DF93009731F46115710519F4AF
:1026F00080E090E03AC08B01EC016EE070E081E098
:1027000090E00E94C515FC01892B91F380E883833A
:102710000115110571F01387028781E88383809189
:102720000F0390911003892B21F4F0931003E09391
:102730000F032097C9F0D187C0878381826083838C
:102740008091110390911203892B71F4F09312037D
:10275000E09311038091130390911403892B21F4CA
:10276000F0931403E0931303CF01DF91CF911F91F6
:102770000F910895CF93DF93CDB7DEB7AE01465FDB
:102780005F4F688579858E819F810E94CA13DF9192
:10279000CF9108952F923F924F925F926F927F92C6
:1027A0008F929F92AF92BF92CF92DF92EF92FF9261
:1027B0000F931F93CF93DF93CDB7DEB72C970FB650
:1027C000F894DEBF0FBECDBF7C016B018A01FC0116
:1027D00017821682838181FFBDC1CE0101964C0113
:1027E000F7019381F60193FD859193FF81916F012C
:1027F000882309F4ABC1853239F493FD859193FFA9
:1028000081916F01853229F4B70190E00E942B1766
:10281000E7CF512C312C20E02032A0F48B3269F02C
:1028200030F4803259F0833269F420612CC08D324B
:1028300039F0803339F4216026C02260246023C03F
:10284000286021C027FD27C030ED380F3A3078F4DA
:1028500026FF06C0FAE05F9E300D1124532E13C0F0
:102860008AE0389E300D1124332E20620CC08E3247
:1028700021F426FD6BC1206406C08C3611F420685B
:1028800002C0883641F4F60193FD859193FF819152
:102890006F018111C1CF982F9F7D9554933028F4FB
:1028A0000C5F1F4FFFE3F9830DC0833631F0833790
:1028B00071F0833509F05BC022C0F8018081898303
:1028C0000E5F1F4F44244394512C540115C038010E
:1028D000F2E06F0E711CF801A080B18026FF03C0EA
:1028E000652D70E002C06FEF7FEFC5012C870E945D
:1028F00020172C0183012C852F77222E17C0380139
:10290000F2E06F0E711CF801A080B18026FF03C0B9
:10291000652D70E002C06FEF7FEFC5012C870E942C
:102920000E172C012C852068222E830123FC1BC04E
:10293000832D90E048165906B0F4B70180E290E08C
:102940000E942B173A94F4CFF50127FC859127FEBE
:1029500081915F01B70190E00E942B1731103A94EA
:10296000F1E04F1A51084114510471F7E5C0843663
:1029700011F0893639F5F80127FF07C060817181B0
:10298000828193810C5F1F4F08C060817181072E87
:10299000000C880B990B0E5F1F4F2F76722E97FF3E
:1029A00009C090958095709561957F4F8F4F9F4F8F
:1029B0002068722E2AE030E0A4010E946317A82E3E
:1029C000A81844C0853729F42F7EB22E2AE030E0C3
:1029D00025C0F22FF97FBF2E8F36C1F018F488354D
:1029E00079F0B4C0803719F0883721F0AFC02F2FAD
:1029F0002061B22EB4FE0DC08B2D8460B82E09C0AC
:102A000024FF0AC09F2F9660B92E06C028E030E050
:102A100005C020E130E002C020E132E0F801B7FE5D
:102A200007C060817181828193810C5F1F4F06C056
:102A30006081718180E090E00E5F1F4FA4010E94D1
:102A40006317A82EA818FB2DFF777F2E76FE0BC0EC
:102A5000372D3E7FA51450F474FE0AC072FC08C0E6
:102A6000372D3E7E05C0BA2C372D03C0BA2C01C0CD
:102A7000B52C34FF0DC0FE01EA0DF11D80818033BD
:102A800011F4397E09C032FF06C0B394B39404C078
:102A9000832F867809F0B39433FD13C030FF06C04E
:102AA0005A2CB31418F4530C5B18B32CB31468F4F9
:102AB000B70180E290E03C870E942B17B3943C85DD
:102AC000F5CFB31410F43B1801C0312C34FF12C001
:102AD000B70180E390E03C870E942B173C8532FFD2
:102AE00017C031FD03C088E790E002C088E590E0A0
:102AF000B7010CC0832F867859F031FF02C08BE2FA
:102B000001C080E237FD8DE2B70190E00E942B17F3
:102B1000A51438F4B70180E390E00E942B175A9473
:102B2000F7CFAA94F401EA0DF11D8081B70190E07E
:102B30000E942B17A110F5CF332009F451CEB70115
:102B400080E290E00E942B173A94F6CFF70186813D
:102B5000978102C08FEF9FEF2C960FB6F894DEBFDF
:102B60000FBECDBFDF91CF911F910F91FF90EF90DE
:102B7000DF90CF90BF90AF909F908F907F906F909D
:102B80005F904F903F902F9008950F931F93CF9396
:102B9000DF93869F8001879F100D969F100D112453
:102BA000C8010E94E115EC01009729F0A80160E03E
:102BB00070E00E941917CE01DF91CF911F910F9104
:102BC0000895CF93DF938230910510F482E090E076
:102BD000E0911703F091180320E030E0C0E0D0E06E
:102BE000309711F14081518148175907C0F04817BB
:102BF000590761F482819381209719F09B838A831E
:102C00002BC0909318038093170326C0211531051C
:102C100019F04217530718F49A01BE01DF01EF01C2
:102C20000280F381E02DDCCF2115310509F1281B4D
:102C3000390B2430310590F412968D919C911397A5
:102C40006115710521F0FB019383828304C0909389
:102C5000180380931703FD01329644C0FD01E20F73
:102C6000F31F81939193225031092D933C933AC0E5
:102C70002091150330911603232B41F420914C022F
:102C800030914D02309316032093150320914A0290
:102C900030914B022115310541F42DB73EB74091DB
:102CA0004E0250914F02241B350BE0911503F09119
:102CB0001603E217F307A0F42E1B3F0B2817390762
:102CC00078F0AC014E5F5F4F2417350748F04E0F88
:102CD0005F1F50931603409315038193919302C095
:102CE000E0E0F0E0CF01DF91CF9108950F931F93C3
:102CF000CF93DF93009709F48CC0FC0132971382C5
:102D0000128200911703109118030115110581F427
:102D100020813181820F931F20911503309116037A
:102D20002817390779F5F0931603E093150371C05E
:102D3000D80140E050E0AE17BF0750F412962D9135
:102D40003C911397AD012115310509F1D901F3CF5C
:102D50009D01DA013383228360817181860F971F81
:102D60008217930769F4EC0128813981260F371FF8
:102D70002E5F3F4F318320838A819B81938382839F
:102D8000452B29F4F0931803E093170342C01396E0
:102D9000FC93EE931297ED01499159919E01240FF6
:102DA000351FE217F30771F480819181840F951F1D
:102DB000029611969C938E938281938113969C9395
:102DC0008E931297E0E0F0E0D80112968D919C91DD
:102DD0001397009719F0F8018C01F6CF8D919C9113
:102DE00098012E5F3F4F820F931F20911503309162
:102DF00016032817390769F4309729F4109218033D
:102E00001092170302C013821282109316030093CC
:102E10001503DF91CF911F910F910895FC0105904B
:102E2000615070400110D8F7809590958E0F9F1FCC
:102E30000895DC0101C06D9341505040E0F70895C2
:102E4000FC016150704001900110D8F78095909579
:102E50008E0F9F1F08950F931F93CF93DF93FB0156
:102E6000238121FD03C08FEF9FEF28C022FF16C0F2
:102E700046815781248135814217530744F4A0814C
:102E8000B1819D012F5F3F4F318320838C93268139
:102E900037812F5F3F4F3783268310C0EB01092F07
:102EA000182F0084F185E02D1995892BE1F68E818C
:102EB0009F8101969F838E83812F902FDF91CF91E9
:102EC0001F910F910895FA01AA27283051F120315E
:102ED00081F1E8946F936E7F6E5F7F4F8F4F9F4FAE
:102EE000AF4FB1E03ED0B4E03CD0670F781F891FF0
:102EF0009A1FA11D680F791F8A1F911DA11D6A0FBE
:102F0000711D811D911DA11D20D009F468943F9170
:102F10002AE0269F11243019305D3193DEF6CF016F
:102F20000895462F4770405D4193B3E00FD0C9F735
:102F3000F6CF462F4F70405D4A3318F0495D31FDA2
:102F40004052419302D0A9F7EACFB4E0A6959795F5
:102F5000879577956795BA95C9F7009761057105CB
:102F600008959B01AC010A2E069457954795379515
:102F70002795BA95C9F7620F731F841F951FA01D6F
:062F80000895F894FFCF54
:102F86000000000200000000BA0800000000040073
:102F96000000000200000000BA0800000000000067
:102FA600000200000000BA08000000000000000255
:102FB60000000000BA080000000000000002000047
:102FC6000000BA0800000000F80300001903200002
:102FD600494E4954200A0D000D0A200D0A000A53D5
:102FE600454E4445522049443A20253478200D0A5E
:102FF600004D43505F5458423044202534783A20DF
:10300600253478200D0A004D43503235313520697C
:1030160073204E4F5420696E20636F6E6669677524
:10302600726174696F6E206D6F6465206166746588
:1030360072207265736574210D0A00544F503A2050
:10304600253864200A0D0050423500504533004DA6
:0E3056006172696F205468656D65200A0D0077
:00000001FF
