:100000000C94D7000C94F8000C94F8000C94F800B1
:100010000C94F8000C94F8000C94F8000C94F80080
:100020000C94F8000C94F8000C94F8000C94F80070
:100030000C94F8000C94F8000C94F8000C94F80060
:100040000C94F8000C94F8000C94F8000C94F80050
:100050000C94F8000C94F8000C94F8000C94F80040
:100060000C94F8000C94F8000C94F8000C94F80030
:100070000C94F8000C94F8000C94F8000C94F80020
:100080000C949B090C94F8000C94F8000C94F80064
:100090000C94F8000C94F8000C94F8000C946E0684
:1000A0000C94F8000C94F8000C94F8000C94F800F0
:1000B0000C94F8000C94F8000C94F8000C942E0AA0
:1000C0000C94F8000C94F8000C94F8000C94F800D0
:1000D0000C94F8000C94F8000C94F8000C94F800C0
:1000E0000C94F8008D06DF06DF06DF06DF06DF066C
:1000F000DF06DF068D06DF06DF06DF06DF06DF062A
:10010000DF06DF068F06DF06DF06DF06DF06DF0617
:10011000DF06DF06DF06DF06DF06DF06DF06DF06B7
:10012000DF06DF068F06DF06DF06DF06DF06DF06F7
:10013000DF06DF06DF06DF06DF06DF06DF06DF0697
:10014000DF06DF06DB06DF06DF06DF06DF06DF068B
:10015000DF06DF06B806DF06DF06DF06DF06DF069E
:10016000DF06DF06DF06DF06DF06DF06DF06DF0667
:10017000DF06DF06AC06DF06DF06DF06DF06DF068A
:10018000DF06DF06CA060C941F0A0C94CA060C94FC
:1001900068010C9460010C94B8060C94AC060C94A5
:1001A0008D060C948F060C94DF060C94DB0611244C
:1001B0001FBECFEFD1E2DEBFCDBF00E00CBF13E02A
:1001C000A0E0B2E0EEE4F3E200E00BBF02C0079073
:1001D0000D92A831B107D9F723E0A8E1B3E001C03F
:1001E0001D92A838B207E1F70E94FA000C94A511FD
:1001F0000C940000CF93DF93CDB7DEB72A970FB6EC
:10020000F894DEBF0FBECDBFF89487E690E00E9461
:1002100070011F921F928DE592E09F938F9380E073
:1002200092E09F938F930E949E0D0E9441030E9433
:1002300057030E9403060E94F9050E9481010E9453
:100240008A070E94AA090E94FC0978940F900F90D7
:100250000F900F900F900F900F2EF7E6CF2EF2E039
:10026000DF2EF02D0F2EF0E0EF2EF2E0FF2EF02D1E
:10027000CE0101960E94C60319811F921F93DF923F
:10028000CF92FF92EF920E949E0D2FEF83EC99E0A8
:10029000215080409040E1F700C000000F900F9087
:1002A0000F900F900F900F90133011F70E946A0A71
:1002B000DFCF089A109A089510980895109A08951B
:1002C000E0ECF0E0908195FFFDCF8093C6000895AB
:1002D000E0ECF0E080818823ECF78091C60008957F
:1002E0009093C5008093C40088E18093C1008EE0A4
:1002F0008093C20068E671E080E691E00E94530DB1
:100300000895809A8898EAE7F0E080818068808389
:10031000ACE7B0E08C91806C8C93808187608083A7
:100320000895EAE7F0E0808180648083808184FF23
:10033000FDCF209178008091790090E0982F882758
:10034000820F911D0895EF92FF921F93CF93DF9339
:10035000209A219A80910E02882381F110E0C12F0A
:10036000D0E084E090E00E9491019E01215B3C4F2F
:100370007901F901808385E090E00E949101C55BDD
:10038000DC4F8883F701908120911A0330911B0381
:10039000290F311D30931B0320931A03209118035A
:1003A00030911903A901480F511D5093190340932F
:1003B00018031F5F80910E02181788F2E7E4F3E03C
:1003C00080914F03828380914B038383DF91CF9190
:1003D0001F91FF90EF900895CF93DF9380911C03BE
:1003E00090E0EC01C15BDC4F488120911A03309111
:1003F0001B03241B310930931B0320931A03FC01B8
:10040000E55BFC4F20818091180390911903821BBA
:100410009109909319038093180384E090E00E945F
:1004200091018883C0911C03D0E085E090E00E9498
:100430009101C55BDC4F888390911C03292F30E02C
:10044000F901E15BFC4F808140911A0350911B033D
:10045000480F511D50931B0340931A03F901E55BAC
:10046000FC4F8081E0911803F0911903E80FF11D12
:10047000F0931903E09318039F5F90931C0320915E
:100480000E02921710F010921C0330E0CA01B9015D
:100490000E94290BEB01CF01B9010E94290BAB018E
:1004A0009E0133278091490390E0BC016F5F7F4F2D
:1004B0002617370731F001972817390711F0C09335
:1004C00047039A01332780914A0390E0BC016F5F94
:1004D0007F4F2617370731F001972817390711F09A
:1004E00040934803DF91CF9108950E94EC01609101
:1004F0004703709148038091490390914A030895FE
:10050000CF93DF9386E090E00E949101EC0187E0B9
:1005100090E00E949101992720911D0330E0A901EC
:1005200044505109481759072CF42C5F3F4F82174C
:10053000930734F087E090E00E94910180931D03BF
:10054000CE01992720911E0330E0A90144505109A2
:10055000481759072CF42C5F3F4F8217930734F04C
:1005600086E090E00E94910180931E03DF91CF917D
:1005700008950E94800280911D0390911E030895AA
:100580008F3B91058CF16F3B71058CF068177907F3
:100590003CF481E090E09093100280930F026CC0D5
:1005A00082E090E09093100280930F0265C0603467
:1005B00071059CF4660F771F681779073CF481E09A
:1005C00090E09093100280930F0256C083E090E079
:1005D0009093100280930F024FC081E090E09093BF
:1005E000100280930F0248C0803491055CF56F3B88
:1005F00071058CF0880F991F681779072CF41092F9
:10060000100210920F0238C082E090E09093100226
:1006100080930F0231C0603471057CF4681779074C
:100620002CF41092100210920F0226C083E090E08A
:100630009093100280930F021FC01092100210922C
:100640000F021AC06F3B71053CF082E090E090937E
:10065000100280930F0210C0603471053CF483E0F7
:1006600090E09093100280930F0206C084E090E027
:100670009093100280930F0280910F0290911002CC
:10068000089587E884B981E58CBD08958EBD0DB4C9
:1006900007FEFDCF089581E00E9446030DB407FEDA
:1006A000FDCF8EB508952F9808952F9A08950E9432
:1006B000660440E060EE8FE00E94A5044FEF61E029
:1006C0008BE20E94A5044FEF60E680E60E94A5043D
:1006D000089580E30E94540484FD07C080E30E94D3
:1006E000540485FB882780F9089581E008950F93CD
:1006F0001F93CF938C010E9469038823A9F080E3A4
:100700000E9454041F928F938CE692E09F938F93E4
:1007100081E192E09F938F930E949E0D0F900F9026
:100720000F900F900F900F90F801408146954695DD
:1007300046956FEF81E30E94A504F8014081429540
:10074000440F407E60EE82E30E94A504F8014181DF
:100750006FE085E30E94A504F8018181882379F088
:10076000C0E0F801EC0FF11D42816FEF86E38C0FC2
:100770000E94A504CF5FF8018181C81790F381E83A
:100780000E949A04CF911F910F910895AF92BF924A
:10079000CF92DF92EF92FF920F931F93CF93DF934D
:1007A000CDB7DEB72A970FB6F894DEBF0FBECDBF28
:1007B0005C010E9469038823A9F080E60E9454042A
:1007C0001F928F9389E792E09F938F9381E192E04C
:1007D0009F938F930E949E0D0F900F900F900F90FC
:1007E0000F900F9081E60E945404182F82E60E9419
:1007F0005404829586958770110F110F110FD82E12
:10080000D10E85E60E9454048F70C82E81F07E01BF
:1008100083E0E80EF11C06E60C0D16E6812F0E941F
:100820005404F70181937F011F5F1013F7CF40E05D
:1008300061E08CE20E94A504D982CA828AE0FE01AE
:100840003196D50101900D928A95E1F7C5012A965E
:100850000FB6F894DEBF0FBECDBFDF91CF911F91D1
:100860000F91FF90EF90DF90CF90BF90AF900895E1
:100870000E94530380EC0E9446030E9455038FE3BD
:100880009CE90197F1F700C000000895CF930E9402
:10089000530380EA0E9446030E944B03C82F0E9424
:1008A00055038C2FCF910895CF93C82F0E945303E7
:1008B00083E00E9446038C2F0E9446030E944B0354
:1008C000C82F0E9455038C2FCF9108950E94410399
:1008D0000E9438048EE00E945404807E8038A1F08B
:1008E0001F921F9286E892E09F938F938FE192E090
:1008F0009F938F930E949E0D0F900F900F900F90DB
:100900000F900F9081E0089580E00895CF93DF93DA
:10091000C82FD62F0E94530382E00E9446038D2FDA
:100920000E9446038C2F0E9446030E945503DF91CC
:10093000CF910895CF93C82F0E9453038C2F0E940C
:1009400046030E945503CF9108951F93CF93DF93E1
:10095000182FD62FC42F0E94530385E00E94460310
:10096000812F0E9446038D2F0E9446038C2F0E94E8
:1009700046030E945503DF91CF911F910895803463
:10098000910589F030F481309105A9F0089749F07C
:1009900010C0811521E0920741F08115944039F093
:1009A00008C082E0089583E0089584E0089585E01A
:1009B000089580E0089581E00895CF92DF92EF924C
:1009C000FF920F931F93CF93DF938C016B01C0E8CD
:1009D000D0E08881826088830F2EF1E8EF2EF12C21
:1009E000F02DF701808188618083C8010E94BF04D7
:1009F000F7019081892B8083888180688883259A7C
:100A0000960140E050E060E074E284EF90E00E94E4
:100A1000510BCA01B901980140E050E00E94510B0E
:100A2000215031093093870020938600109289006D
:100A300010928800DF91CF911F910F91FF90EF905E
:100A4000DF90CF900895CF92DF92EF92FF920F93B5
:100A50001F93CF93DF938C016B01C0E9D0E08881B5
:100A6000826088830F2EF1E9EF2EF12CF02DF70133
:100A7000808188618083C8010E94BF04F701908152
:100A8000892B80838881806888836B9A960140E0F7
:100A900050E060E074E284EF90E00E94510BCA01E4
:100AA000B901980140E050E00E94510BC901019743
:100AB00090939700809396002250310930939900CB
:100AC00020939800E1E7F0E0808182608083DF91ED
:100AD000CF911F910F91FF90EF90DF90CF900895ED
:100AE000CF92DF92EF92FF920F931F93CF93DF93FA
:100AF0008C016B01C0E2D1E08881826088830F2E77
:100B0000F1E2EF2EFF24F394F02DF701808188614C
:100B10008083C8010E94BF04F7019081892B8083E4
:100B2000888180688883960140E050E060E074E24C
:100B300084EF90E00E94510BCA01B901980140E096
:100B400050E00E94510BC9010197909327018093B7
:100B50002601225031093093290120932801E3E72F
:100B6000F0E0808182608083DF91CF911F910F91AF
:100B7000FF90EF90DF90CF900895089522E08A3B98
:100B8000920731F470E070938900609388000895B3
:100B90008E5B924029F470E0709399006093980006
:100BA0000895682F70E080E090E00E945A0C23E3E3
:100BB00033E343E35EE30E94E60C20E030E040E6EE
:100BC00052E40E94BD0B0E94290C609320036536FD
:100BD00020F084E68093200305C0683318F488E38E
:100BE00080932003609120038AEB92E00E94BE056F
:100BF000089562E370E080E091E00E94DD048BE400
:100C00000E94D10508958CE08093B8008FEF809307
:100C1000BB0084E08093BC0008958091BC0081708B
:100C20000895ECEBF0E0808180FDFDCF80912D02F6
:100C30000895CF93DF93EC01ECEBF0E0908190FD11
:100C4000FDCF6093230398819093240390FD13C0FC
:100C5000623088F0FE013196A5E2B3E06250262FA3
:100C600030E02E5F3F4FCE01820F931F21912D93D5
:100C7000E817F907D9F71092210388EF80932D0226
:100C800085EA8093BC00DF91CF910895ECEBF0E012
:100C9000808180FDFDCF1092210388EF80932D028B
:100CA00085EA8093BC000895ECEBF0E0208120FD04
:100CB000FDCF2091210320FF0DC0662359F024E2CF
:100CC00033E0A82FB92FF90181918D938E2F821BCC
:100CD0008617D0F380912103817008951F920F929F
:100CE0000FB60F9211240BB60F922F933F938F9351
:100CF0009F93AF93BF93EF93FF93E091B9008E2F33
:100D000090E0FC013897E135F10508F058C08827DC
:100D1000EE58FF4F8F4F0C94700B10922203E0910E
:100D2000220380912303E81770F481E08E0F8093F3
:100D30002203F0E0EC5DFC4F80818093BB0085E8EE
:100D40008093BC0043C08091210381608093210384
:100D500084E98093BC003AC0E091220381E08E0FC9
:100D6000809322038091BB00F0E0EC5DFC4F808318
:100D70002091220330E08091230390E0019728170F
:100D8000390724F485EC8093BC0020C085E880936B
:100D9000BC001CC08091BB00E0912203F0E0EC5D40
:100DA000FC4F80838091210381608093210384E93B
:100DB0008093BC000BC085EA8093BC0007C0809183
:100DC000B90080932D0284E08093BC00FF91EF91E5
:100DD000BF91AF919F918F913F912F910F900BBE3B
:100DE0000F900FBE0F901F901895E2E0F1E0808108
:100DF0008F7B80832FEF89EF90E0215080409040DF
:100E0000E1F700C000008081806480830895E2E003
:100E1000F1E080818F7D80838081877F80832FEFC9
:100E200039EF80E0215030408040E1F700C0000001
:100E3000A6E0B1E08C919081986090839FEF29EFBC
:100E400030E0915020403040E1F700C000002C918C
:100E500090819062908390E0982F8827820F911D57
:100E60000895809128039091290308958130910578
:100E700041F0029759F4E2E0F1E080818D7F8083B8
:100E80000895E2E0F1E08081826080830895E3E5E7
:100E9000F3E090E59083118282832FEF81EE94E05E
:100EA000215080409040E1F700C0000063E0CF0196
:100EB0000E9419060895CF93DF93EC0118161906C6
:100EC0003CF481E090E090932B0380932A0310C0C0
:100ED000992354F482E090E090932B0380932A03AB
:100EE000D195C195D10904C010922B0310922A0309
:100EF00080912A0390912B030E9436078FE99FE08F
:100F00000197F1F700C000008C2F0E944707DF9186
:100F1000CF910895E1E0F1E0808180618083A2E0DB
:100F2000B1E08C9180618C9380818260808380812C
:100F300080628083808188608083808180648083F8
:100F400080E090E00E945B070E94F50608958CE91E
:100F50009FEF0E945B072FEF8DE399E421508040C3
:100F60009040E1F700C000000E94F50680E090E0AC
:100F70000E945B0784E690E00E945B072FEF8DE301
:100F800099E4215080409040E1F700C000000E94A9
:100F900007079195819591099093290380932803E0
:100FA0000895CF93DF93EC0180E091E00E94230548
:100FB0001A821B821C821D821982188280E690E0B0
:100FC0009F838E838CE090E09987888782E090E011
:100FD0009B878A8781E591E09D878C8784EC9EE4DE
:100FE000ACEEB4E08E879F87A88BB98BDF91CF9151
:100FF0000895CF92DF92FF920F931F93CF93DF93C9
:10100000EC0190913E03913009F089C18A01F62EDE
:1010100010923E03262F30E0CA0164E270E00E9485
:101020003D0B6B01C901861B970B90933D03809389
:101030003C039F938F9382EC92E09F938F938EE279
:1010400092E09F938F930E949E0D20913C033091DC
:101050003D03C90109960F900F900F900F900F90CC
:101060000F90439720F41A821B821C821D828C856C
:101070009D85821793073CF48FEF9FE790933B0386
:1010800080933A0321C091958195910928173907DA
:101090003CF481E090E890933B0380933A0314C0C2
:1010A00083E090E0B9010E943D0B8E819F81680F23
:1010B000791F269FC001279F900D369F900D112408
:1010C00090933B0380933A03C901330FAA0BBB0BE8
:1010D0004A815B816C817D819A01AB01280F391FA8
:1010E0004A1F5B1F20932C0330932D0340932E0344
:1010F00050932F038E859F85A889B98982179307FE
:10110000A407B5078CF44FEF5FEF6FEF7FE34093D9
:1011100034035093350360933603709337038A8307
:101120009B83AC83BD832DC0B095A0959095819590
:101130009F4FAF4FBF4F281739074A075B078CF403
:1011400041E050E060E070EC40933403509335038D
:1011500060933603709337038A839B83AC83BD838C
:1011600010C02A833B834C835D83A885B9850E9488
:10117000780B609334037093350380933603909318
:10118000370388819981801B910B4A855B85489F35
:101190009001499F300D589F300D11243093390331
:1011A000209338031983088380913A0390913B037D
:1011B000092E000CAA0BBB0B409134035091350350
:1011C0006091360370913703840F951FA61FB71FD8
:1011D0004091380350913903052E000C660B770BB4
:1011E000840F951FA61FB71FAC01BD01BB2324F4BC
:1011F00041585F4F6F4F7F4F689416F8759567950C
:10120000579547951694D1F74937510561057105F2
:101210006CF088E790E0A0E0B0E08093300390931A
:101220003103A0933203B093330347C048388FEFA4
:101230005807680778076CF488E89FEFAFEFBFEFB7
:101240008093300390933103A0933203B093330320
:1012500034C0DB01CA014597A109B1098297A105F4
:10126000B10568F487E390E0A0E0B0E0809330033C
:1012700090933103A0933203B09333031EC0DB017C
:10128000CA01C696A11DB11D8297A105B10548F0FE
:1012900040933003509331036093320370933303D0
:1012A0000CC089EC9FEFAFEFBFEF809330039093BA
:1012B0003103A0933203B0933303809133038F93B0
:1012C000809132038F93809131038F93809130030B
:1012D0008F938CEC92E09F938F93CEE2D2E0DF93DA
:1012E000CF930E949E0D1F92FF9289ED92E09F93F3
:1012F0008F93DF93CF930E949E0DDF92CF9288EE63
:1013000092E09F938F93DF93CF930E949E0D8DB7B2
:101310009EB744960FB6F8949EBF0FBE8DBF8091C6
:10132000300390913103DF91CF911F910F91FF9086
:10133000DF90CF9008951F920F920FB60F92112455
:101340008F9381E080933E038F910F900FBE0F909B
:101350001F901895269A2E9808952E9A08952E98E3
:1013600008950E94AD092FEF81EE94E02150804056
:101370009040E1F700C000000E94AF098FE39CE9B4
:101380000197F1F700C000000895CF93DF93C0915B
:101390004203D0E0CA5ADC4F2881809140039091EB
:1013A0004103821B910990934103809340030E9463
:1013B0009101888390914203E92FF0E0EA5AFC4FB3
:1013C00080812091400330914103280F311D3093DB
:1013D0004103209340039F5F9093420360913C023E
:1013E000961710F01092420370E0C9010E94290B79
:1013F000862FDF91CF910895CF9380913C0288236F
:10140000C1F0C0E00E949101EC2FF0E0EA5AFC4FDD
:1014100080832091400330914103A901480F511D61
:101420005093410340934003CF5F80913C02C81723
:1014300048F30E94C50980933F03CF9108950E940D
:10144000C509482F50E020913F0330E02253310975
:1014500081E0421753070CF080E008951F920F922D
:101460000FB60F9211248F93809146038F5F809364
:1014700046038F910F900FBE0F901F9018951092FA
:10148000460364EF71E088E693E00E94D1070E9472
:10149000A70761E070E080E091E00E947005089588
:1014A0000E941F0A8823A9F08FE19AE09F938F93EF
:1014B0008EEF92E09F938F9389E492E09F938F93B6
:1014C0000E949E0D0F900F900F900F900F900F9015
:1014D00081E008957F928F929F92AF92BF92CF92B8
:1014E000DF92EF92FF920F931F93CF93DF93CDB7CD
:1014F000DEB72A970FB6F894DEBF0FBECDBF0E94AD
:101500003F0A81E090E090934802809347020F2EBB
:10151000FAE07F2EF02D0F2EFAE7CF2EF3E0DF2E2C
:10152000F02D0F2EFAE5EF2EF3E0FF2EF02D06E65C
:1015300013E00F2EF8E08F2EF3E09F2EF02D0F2EEC
:10154000F9E4AF2EF2E0BF2EF02DCE0101960E94FD
:10155000C603FE013196ACE5B3E0872D01900D92F4
:101560008A95E1F780915C03843011F5ECE5F3E0B6
:101570008281D6018C93938111969C939481D7019B
:101580009C93958111969C939681D8019C93978109
:1015900011969C931F928F939F928F92BF92AF92BE
:1015A0000E949E0D0F900F900F900F900F900F9034
:1015B0000E94070744275527481B590B50934503A2
:1015C00040934403F70161816093430388E693E00D
:1015D0000E94F9070E945B07D6018C910E94D105F9
:1015E000F8018181882319F00E94AD0902C00E9490
:1015F000AF090E94500A811104C080915C038230BF
:1016000069F48091460380933F028DE392E00E944B
:101610007703109248021092470207C08091470258
:1016200090914802892B09F090CF2A960FB6F89432
:10163000DEBF0FBECDBFDF91CF911F910F91FF9005
:10164000EF90DF90CF90BF90AF909F908F907F9062
:101650000895AA1BBB1B51E107C0AA1FBB1FA617F9
:10166000B70710F0A61BB70B881F991F5A95A9F74B
:1016700080959095BC01CD01089597FB072E16F437
:10168000009407D077FD09D00E94290B07FC05D0F4
:101690003EF4909581959F4F0895709561957F4F89
:1016A0000895052E97FB1EF400940E94680B57FDC9
:1016B00007D00E94800B07FC03D04EF40C94680BFB
:1016C00050954095309521953F4F4F4F5F4F08956E
:1016D00090958095709561957F4F8F4F9F4F08959E
:1016E000EE0FFF1F881F8BBF0790F691E02D199416
:1016F000B7FF0C94A20B0E94A20B821B930B0895C0
:10170000A1E21A2EAA1BBB1BFD010DC0AA1FBB1F05
:10171000EE1FFF1FA217B307E407F50720F0A21B77
:10172000B30BE40BF50B661F771F881F991F1A94E4
:1017300069F760957095809590959B01AC01BD010E
:10174000CF0108950E94AD0BA59F900DB49F900D01
:10175000A49F800D911D11240895A29FB001B39FF5
:10176000C001A39F700D811D1124911DB29F700DAA
:10177000811D1124911D08955058BB27AA270E944E
:10178000D40B0C94AC0C0E949E0C38F00E94A50C5B
:1017900020F039F49F3F19F426F40C949B0C0EF4BE
:1017A000E095E7FB0C94950CE92F0E94BD0C58F3D3
:1017B000BA17620773078407950720F079F4A6F536
:1017C0000C94DF0C0EF4E0950B2EBA2FA02D0B011C
:1017D000B90190010C01CA01A0011124FF27591B76
:1017E00099F0593F50F4503E68F11A16F040A22F7C
:1017F000232F342F4427585FF3CF469537952795ED
:10180000A795F0405395C9F77EF41F16BA0B620BEB
:10181000730B840BBAF09150A1F0FF0FBB1F661F32
:10182000771F881FC2F70EC0BA0F621F731F841F75
:1018300048F4879577956795B795F7959E3F08F09B
:10184000B0CF9395880F08F09927EE0F979587955D
:1018500008950E94C50C88F09F5798F0B92F9927DA
:10186000B751B0F0E1F0660F771F881F991F1AF08B
:10187000BA95C9F714C0B13091F00E94DF0CB1E005
:1018800008950C94DF0C672F782F8827B85F39F004
:10189000B93FCCF3869577956795B395D9F73EF424
:1018A00090958095709561957F4F8F4F9F4F0895CC
:1018B000E89409C097FB3EF49095809570956195EA
:1018C0007F4F8F4F9F4F9923A9F0F92F96E9BB27A0
:1018D0009395F695879577956795B795F111F8CF1C
:1018E000FAF4BB0F11F460FF1BC06F5F7F4F8F4F87
:1018F0009F4F16C0882311F096E911C0772321F07D
:101900009EE8872F762F05C0662371F096E8862F14
:1019100070E060E02AF09A95660F771F881FDAF76B
:10192000880F9695879597F9089597F99F6780E8AE
:1019300070E060E008959FEF80EC089500240A9421
:101940001616170618060906089500240A9412169A
:101950001306140605060895092E0394000C11F4CD
:10196000882352F0BB0F40F4BF2B11F460FF04C07A
:101970006F5F7F4F8F4F9F4F089557FD9058440FD3
:10198000551F59F05F3F71F04795880F97FB991FDE
:1019900061F09F3F79F0879508951216130614069B
:1019A000551FF2CF4695F1DF08C016161706180628
:1019B000991FF1CF86957105610508940895E89403
:1019C000BB2766277727CB0197F908950E94F90C6A
:1019D0000C94AC0C0E949E0C38F00E94A50C20F0D8
:1019E000952311F00C94950C0C949B0C11240C94E1
:1019F000E00C0E94BD0C70F3959FC1F3950F50E071
:101A0000551F629FF001729FBB27F00DB11D639FB0
:101A1000AA27F00DB11DAA1F649F6627B00DA11D56
:101A2000661F829F2227B00DA11D621F739FB00DFC
:101A3000A11D621F839FA00D611D221F749F33276C
:101A4000A00D611D231F849F600D211D822F762F05
:101A50006A2F11249F5750409AF0F1F088234AF0E2
:101A6000EE0FFF1FBB1F661F771F881F915050404E
:101A7000A9F79E3F510580F00C94950C0C94E00C56
:101A80005F3FE4F3983ED4F3869577956795B795D5
:101A9000F795E7959F5FC1F7FE2B880F911D9695EF
:101AA000879597F908950F931F93CF93DF9300972E
:101AB00031F46115710519F480E090E03AC08B01B2
:101AC000EC016EE070E081E090E00E94A90FFC0163
:101AD000892B91F380E883830115110571F0138739
:101AE000028781E8838380917E0390917F03892B15
:101AF00021F4F0937F03E0937E032097C9F0D18710
:101B0000C087838182608383809180039091810369
:101B1000892B71F4F0938103E09380038091820319
:101B200090918303892B21F4F0938303E093820344
:101B3000CF01DF91CF911F910F910895CF93DF9344
:101B4000CDB7DEB7AE01465F5F4F688579858E8180
:101B50009F810E94AE0DDF91CF9108952F923F9209
:101B60004F925F926F927F928F929F92AF92BF92AD
:101B7000CF92DF92EF92FF920F931F93CF93DF9359
:101B8000CDB7DEB72C970FB6F894DEBF0FBECDBF32
:101B90007C016B018A01FC0117821682838181FF1F
:101BA000BDC1CE0101964C01F7019381F60193FD71
:101BB000859193FF81916F01882309F4ABC1853230
:101BC00039F493FD859193FF81916F01853229F45A
:101BD000B70190E00E940F11E7CF512C312C20E08B
:101BE0002032A0F48B3269F030F4803259F0833225
:101BF00069F420612CC08D3239F0803339F42160D2
:101C000026C02260246023C0286021C027FD27C091
:101C100030ED380F3A3078F426FF06C0FAE05F9EC8
:101C2000300D1124532E13C08AE0389E300D11243C
:101C3000332E20620CC08E3221F426FD6BC120644D
:101C400006C08C3611F4206802C0883641F4F601D3
:101C500093FD859193FF81916F018111C1CF982FE1
:101C60009F7D9554933028F40C5F1F4FFFE3F98359
:101C70000DC0833631F0833771F0833509F05BC0D6
:101C800022C0F801808189830E5F1F4F4424439452
:101C9000512C540115C03801F2E06F0E711CF8018F
:101CA000A080B18026FF03C0652D70E002C06FEFF9
:101CB0007FEFC5012C870E9404112C0183012C8524
:101CC0002F77222E17C03801F2E06F0E711CF80139
:101CD000A080B18026FF03C0652D70E002C06FEFC9
:101CE0007FEFC5012C870E94F2102C012C85206803
:101CF000222E830123FC1BC0832D90E04816590639
:101D0000B0F4B70180E290E00E940F113A94F4CF52
:101D1000F50127FC859127FE81915F01B70190E0D5
:101D20000E940F1131103A94F1E04F1A51084114FA
:101D3000510471F7E5C0843611F0893639F5F801A0
:101D400027FF07C060817181828193810C5F1F4FE3
:101D500008C060817181072E000C880B990B0E5F03
:101D60001F4F2F76722E97FF09C090958095709522
:101D700061957F4F8F4F9F4F2068722E2AE030E091
:101D8000A4010E944711A82EA81844C0853729F441
:101D90002F7EB22E2AE030E025C0F22FF97FBF2E31
:101DA0008F36C1F018F4883579F0B4C0803719F057
:101DB000883721F0AFC02F2F2061B22EB4FE0DC0A6
:101DC0008B2D8460B82E09C024FF0AC09F2F966017
:101DD000B92E06C028E030E005C020E130E002C0A6
:101DE00020E132E0F801B7FE07C060817181828195
:101DF00093810C5F1F4F06C06081718180E090E08D
:101E00000E5F1F4FA4010E944711A82EA818FB2D9A
:101E1000FF777F2E76FE0BC0372D3E7FA51450F442
:101E200074FE0AC072FC08C0372D3E7E05C0BA2C75
:101E3000372D03C0BA2C01C0B52C34FF0DC0FE01F4
:101E4000EA0DF11D8081803311F4397E09C032FF23
:101E500006C0B394B39404C0832F867809F0B3947A
:101E600033FD13C030FF06C05A2CB31418F4530CC2
:101E70005B18B32CB31468F4B70180E290E03C87A0
:101E80000E940F11B3943C85F5CFB31410F43B18A6
:101E900001C0312C34FF12C0B70180E390E03C87D1
:101EA0000E940F113C8532FF17C031FD03C088E747
:101EB00090E002C088E590E0B7010CC0832F8678DF
:101EC00059F031FF02C08BE201C080E237FD8DE2A4
:101ED000B70190E00E940F11A51438F4B70180E318
:101EE00090E00E940F115A94F7CFAA94F401EA0DE2
:101EF000F11D8081B70190E00E940F11A110F5CF74
:101F0000332009F451CEB70180E290E00E940F1116
:101F10003A94F6CFF7018681978102C08FEF9FEF49
:101F20002C960FB6F894DEBF0FBECDBFDF91CF91D8
:101F30001F910F91FF90EF90DF90CF90BF90AF90E7
:101F40009F908F907F906F905F904F903F902F90D9
:101F500008950F931F93CF93DF93869F8001879FF0
:101F6000100D969F100D1124C8010E94C50FEC01A1
:101F7000009729F0A80160E070E00E94FD10CE01FA
:101F8000DF91CF911F910F910895CF93DF9382300E
:101F9000910510F482E090E0E0918603F0918703D0
:101FA00020E030E0C0E0D0E0309711F14081518175
:101FB00048175907C0F04817590761F48281938187
:101FC000209719F09B838A832BC09093870380937B
:101FD000860326C02115310519F04217530718F45E
:101FE0009A01BE01DF01EF010280F381E02DDCCF19
:101FF0002115310509F1281B390B2430310590F4E6
:1020000012968D919C9113976115710521F0FB013A
:102010009383828304C09093870380938603FD019A
:10202000329644C0FD01E20FF31F81939193225039
:1020300031092D933C933AC020918403309185035C
:10204000232B41F42091590230915A023093850399
:1020500020938403209157023091580221153105B5
:1020600041F42DB73EB740915B0250915C02241BB6
:10207000350BE0918403F0918503E217F307A0F498
:102080002E1B3F0B2817390778F0AC014E5F5F4FCE
:102090002417350748F04E0F5F1F50938503409378
:1020A00084038193919302C0E0E0F0E0CF01DF91DF
:1020B000CF9108950F931F93CF93DF93009709F467
:1020C0008CC0FC013297138212820091860310911A
:1020D00087030115110581F420813181820F931F3F
:1020E00020918403309185032817390779F5F093FF
:1020F0008503E093840371C0D80140E050E0AE173F
:10210000BF0750F412962D913C911397AD01211504
:10211000310509F1D901F3CF9D01DA01338322831F
:1021200060817181860F971F8217930769F4EC0114
:1021300028813981260F371F2E5F3F4F318320833F
:102140008A819B8193838283452B29F4F0938703B3
:10215000E093860342C01396FC93EE931297ED0131
:10216000499159919E01240F351FE217F30771F42D
:1021700080819181840F951F029611969C938E9376
:102180008281938113969C938E931297E0E0F0E006
:10219000D80112968D919C911397009719F0F80130
:1021A0008C01F6CF8D919C9198012E5F3F4F820F4D
:1021B000931F20918403309185032817390769F410
:1021C000309729F4109287031092860302C013827D
:1021D00012821093850300938403DF91CF911F91A6
:1021E0000F910895FC010590615070400110D8F7DF
:1021F000809590958E0F9F1F0895DC0101C06D930F
:1022000041505040E0F70895FC016150704001904A
:102210000110D8F7809590958E0F9F1F08950F930A
:102220001F93CF93DF93FB01238121FD03C08FEF29
:102230009FEF28C022FF16C0468157812481358137
:102240004217530744F4A081B1819D012F5F3F4F96
:10225000318320838C93268137812F5F3F4F3783D3
:10226000268310C0EB01092F182F0084F185E02D83
:102270001995892BE1F68E819F8101969F838E832C
:10228000812F902FDF91CF911F910F910895FA0127
:10229000AA27283051F1203181F1E8946F936E7FA5
:1022A0006E5F7F4F8F4F9F4FAF4FB1E03ED0B4E096
:1022B0003CD0670F781F891F9A1FA11D680F791FD7
:1022C0008A1F911DA11D6A0F711D811D911DA11DE8
:1022D00020D009F468943F912AE0269F11243019F8
:1022E000305D3193DEF6CF010895462F4770405D93
:1022F0004193B3E00FD0C9F7F6CF462F4F70405D42
:102300004A3318F0495D31FD4052419302D0A9F79C
:10231000EACFB4E0A6959795879577956795BA9596
:10232000C9F700976105710508959B01AC010A2E5C
:1023300006945795479537952795BA95C9F7620F33
:0E234000731F841F951FA01D0895F894FFCFF2
:10234E000000000200000000600100000000040414
:10235E00000000000200000000600100000000000C
:10236E0000000200000000600100000000F8000004
:10237E0000020000000060010000000004010100E6
:10238E00000000000000000100000000020000003C
:10239E0000600100000000000088032000494E4943
:1023AE00545F4E320A0D0025640D0A0057525F45E8
:1023BE005220253478200D0A0052455F45522025C3
:1023CE003478200D0A004D43503235313520697373
:1023DE00204E4F5420696E20636F6E66696775726A
:1023EE006174696F6E206D6F6465206166746572CD
:1023FE00207265736574210D0A00504235005045F8
:10240E0033006572726F7220253464002C206F7554
:10241E007470757420253464002C20736574506FAD
:10242E00696E7420253464002C2070726F6365739E
:10243E007356616C756520253464200D0A0049526F
:10244E0020253464200D0A004A6F79737469636B1A
:08245E003A2564200D0A00007C
:00000001FF
