:100000000C9476000C9497000C9497000C94970035
:100010000C9497000C9497000C9497000C94970004
:100020000C9497000C9497000C9497000C949700F4
:100030000C9497000C9497000C9497000C949700E4
:100040000C9497000C9497000C9497000C949700D4
:100050000C9497000C9497000C9497000C949700C4
:100060000C9497000C9497000C9497000C949700B4
:100070000C9497000C9497000C9497000C949700A4
:100080000C9497000C9497000C9497000C94970094
:100090000C9497000C9497000C9497000C94970084
:1000A0000C9497000C9497000C9497000C94970074
:1000B0000C9497000C9497000C9497000C94970064
:1000C0000C9497000C9497000C9497000C94970054
:1000D0000C9497000C9497000C9497000C94970044
:1000E0000C9497000C9401010C94F90011241FBE8C
:1000F000CFEFD1E2DEBFCDBF00E00CBF12E0A0E049
:10010000B2E0E0E2FEE000E00BBF02C007900D921B
:10011000A43BB107D9F722E0A4EBB2E001C01D92E5
:10012000A63CB207E1F70E9499000C940E070C94CC
:100130000000CF93DF93CDB7DEB72A970FB6F894C0
:10014000DEBF0FBECDBF0E94F20087E690E00E94A6
:1001500009011F921F9280E392E09F938F9380E0AA
:1001600092E09F938F930E9407030E941A010E94BE
:1001700030010F900F900F900F900F900F900F2E57
:10018000F7E3CF2EF2E0DF2EF02D00E012E00F2E8D
:10019000F4E4EF2EF2E0FF2EF02DCE0101960E9446
:1001A00042012FEF83EC99E0215080409040E1F72D
:1001B00000C000008B811F928F93DF92CF921F931C
:1001C0000F930E9407038C811F928F93FF92EF92EF
:1001D0001F930F930E9407030FB6F894DEBF0FBE64
:1001E000CDBFDBCF089A109A089510980895109A01
:1001F0000895E0ECF0E0908195FFFDCF8093C6007C
:100200000895E0ECF0E080818823ECF78091C6004F
:1002100008959093C5008093C40088E18093C10045
:100220008EE08093C20061E071E089EF90E00E946F
:10023000BC02089587E884B981E58CBD08958EBD20
:100240000DB407FEFDCF089581E00E941F010DB49B
:1002500007FEFDCF8EB508952F9808952F9A089523
:100260000E94630240E060EE8FE00E94A2024FEF26
:1002700061E08BE20E94A2024FEF60E680E60E94FE
:10028000A2020895AF92BF92CF92DF92EF92FF92B7
:100290000F931F93CF93DF93CDB7DEB72A970FB697
:1002A000F894DEBF0FBECDBF5C0181E60E94510213
:1002B000182F82E60E945102829586958770110F51
:1002C000110F110FD82ED10E85E60E9451028F70AA
:1002D000C82E81F07E0183E0E80EF11C06E60C0DCD
:1002E00016E6812F0E945102F70181937F011F5F63
:1002F0001013F7CF40E061E08CE20E94A2021F924F
:100300001F9281E592E09F938F938EE092E09F93FE
:100310008F930E940703D982CA828AE0FE01319638
:10032000D50101900D928A95E1F70F900F900F90F3
:100330000F900F900F90C5012A960FB6F894DEBF6C
:100340000FBECDBFDF91CF911F910F91FF90EF9026
:10035000DF90CF90BF90AF90089580E30E9451024C
:1003600084FD08C080E30E94510285FB882780F944
:1003700090E0089581E090E00895CF92DF92EF92AF
:10038000FF920F931F93CF93DF938C010E94AD01D7
:10039000F80140814695469546956FEF81E30E94AE
:1003A000A202F80140814295440F407E60EE82E354
:1003B0000E94A202F80141816FE085E30E94A2023F
:1003C000F80180811F928F9387E592E09F938F932E
:1003D0008EE092E09F938F930E9407030F900F90FF
:1003E0000F900F900F900F90F8018181882389F171
:1003F000C0E00F2EFAE6CF2EF2E0DF2EF02D0F2E0A
:10040000FEE0EF2EF2E0FF2EF02DD6E3DC0FF80138
:10041000EC0FF11D42816FEF8D2F0E94A2028D2FF4
:100420000E9451021F928F931F92CF93DF92CF921F
:10043000FF92EF920E940703CF5F8DB79EB7089699
:100440000FB6F8949EBF0FBE8DBFF8018181C8170B
:10045000E0F281E80E949702DF91CF911F910F9106
:10046000FF90EF90DF90CF9008950E942C0180ECD8
:100470000E941F010E942E018FE39CE90197F1F772
:1004800000C000000895CF930E942C0180EA0E94D2
:100490001F010E942401C82F0E942E018C2FCF9192
:1004A0000895CF93C82F0E942C0183E00E941F0162
:1004B0008C2F0E941F010E942401C82F0E942E0130
:1004C0008C2FCF9108950E941A010E9435028EE070
:1004D0000E945102807E8038A1F01F921F9280E816
:1004E00092E09F938F938CE192E09F938F930E9471
:1004F00007030F900F900F900F900F900F9081E0D7
:10050000089580E00895CF93DF93C82FD62F0E94DF
:100510002C0182E00E941F018D2F0E941F018C2F51
:100520000E941F010E942E01DF91CF910895CF9369
:10053000C82F0E942C018C2F0E941F010E942E01A7
:10054000CF9108951F93CF93DF93182FD62FC42FE9
:100550000E942C0185E00E941F01812F0E941F0133
:100560008D2F0E941F018C2F0E941F010E942E01BF
:10057000DF91CF911F9108950F931F93CF93DF9336
:10058000009731F46115710519F480E090E03AC0EC
:100590008B01EC016EE070E081E090E00E941205BA
:1005A000FC01892B91F380E883830115110571F01B
:1005B0001387028781E883838091BC029091BD02FA
:1005C000892B21F4F093BD02E093BC022097C9F07F
:1005D000D187C0878381826083838091BE0290919E
:1005E000BF02892B71F4F093BF02E093BE028091A9
:1005F000C0029091C102892B21F4F093C102E093D3
:10060000C002CF01DF91CF911F910F910895CF9339
:10061000DF93CDB7DEB7AE01465F5F4F6885798562
:100620008E819F810E941703DF91CF9108952F92B1
:100630003F924F925F926F927F928F929F92AF9272
:10064000BF92CF92DF92EF92FF920F931F93CF93BF
:10065000DF93CDB7DEB72C970FB6F894DEBF0FBE91
:10066000CDBF7C016B018A01FC0117821682838158
:1006700081FFBDC1CE0101964C01F7019381F601C6
:1006800093FD859193FF81916F01882309F4ABC19C
:10069000853239F493FD859193FF81916F01853205
:1006A00029F4B70190E00E947806E7CF512C312C55
:1006B00020E02032A0F48B3269F030F4803259F01F
:1006C000833269F420612CC08D3239F0803339F4E3
:1006D000216026C02260246023C0286021C027FD3D
:1006E00027C030ED380F3A3078F426FF06C0FAE024
:1006F0005F9E300D1124532E13C08AE0389E300DBA
:100700001124332E20620CC08E3221F426FD6BC1E1
:10071000206406C08C3611F4206802C0883641F48B
:10072000F60193FD859193FF81916F018111C1CFF6
:10073000982F9F7D9554933028F40C5F1F4FFFE353
:10074000F9830DC0833631F0833771F0833509F0BA
:100750005BC022C0F801808189830E5F1F4F442453
:100760004394512C540115C03801F2E06F0E711CF6
:10077000F801A080B18026FF03C0652D70E002C0A3
:100780006FEF7FEFC5012C870E946D062C0183015E
:100790002C852F77222E17C03801F2E06F0E711CC6
:1007A000F801A080B18026FF03C0652D70E002C073
:1007B0006FEF7FEFC5012C870E945B062C012C8513
:1007C0002068222E830123FC1BC0832D90E0481655
:1007D0005906B0F4B70180E290E00E9478063A949E
:1007E000F4CFF50127FC859127FE81915F01B701C8
:1007F00090E00E94780631103A94F1E04F1A5108C7
:100800004114510471F7E5C0843611F0893639F589
:10081000F80127FF07C060817181828193810C5F9D
:100820001F4F08C060817181072E000C880B990B47
:100830000E5F1F4F2F76722E97FF09C090958095FF
:10084000709561957F4F8F4F9F4F2068722E2AE0E1
:1008500030E0A4010E94B006A82EA81844C0853735
:1008600029F42F7EB22E2AE030E025C0F22FF97F46
:10087000BF2E8F36C1F018F4883579F0B4C08037B8
:1008800019F0883721F0AFC02F2F2061B22EB4FEAF
:100890000DC08B2D8460B82E09C024FF0AC09F2F85
:1008A0009660B92E06C028E030E005C020E130E0B7
:1008B00002C020E132E0F801B7FE07C0608171811B
:1008C000828193810C5F1F4F06C06081718180E03F
:1008D00090E00E5F1F4FA4010E94B006A82EA8183A
:1008E000FB2DFF777F2E76FE0BC0372D3E7FA514A4
:1008F00050F474FE0AC072FC08C0372D3E7E05C05D
:10090000BA2C372D03C0BA2C01C0B52C34FF0DC052
:10091000FE01EA0DF11D8081803311F4397E09C09A
:1009200032FF06C0B394B39404C0832F867809F0D5
:10093000B39433FD13C030FF06C05A2CB31418F41F
:10094000530C5B18B32CB31468F4B70180E290E049
:100950003C870E947806B3943C85F5CFB31410F41D
:100960003B1801C0312C34FF12C0B70180E390E086
:100970003C870E9478063C8532FF17C031FD03C0DA
:1009800088E790E002C088E590E0B7010CC0832FB3
:10099000867859F031FF02C08BE201C080E237FD5A
:1009A0008DE2B70190E00E947806A51438F4B701F3
:1009B00080E390E00E9478065A94F7CFAA94F4015D
:1009C000EA0DF11D8081B70190E00E947806A11028
:1009D000F5CF332009F451CEB70180E290E00E94B8
:1009E00078063A94F6CFF7018681978102C08FEF9F
:1009F0009FEF2C960FB6F894DEBF0FBECDBFDF91F0
:100A0000CF911F910F91FF90EF90DF90CF90BF900B
:100A1000AF909F908F907F906F905F904F903F909E
:100A20002F9008950F931F93CF93DF93869F80019C
:100A3000879F100D969F100D1124C8010E942E054E
:100A4000EC01009729F0A80160E070E00E946606C2
:100A5000CE01DF91CF911F910F910895CF93DF9336
:100A60008230910510F482E090E0E091C402F091B0
:100A7000C50220E030E0C0E0D0E0309711F14081C5
:100A8000518148175907C0F04817590761F482810E
:100A90009381209719F09B838A832BC09093C50282
:100AA0008093C40226C02115310519F0421753075F
:100AB00018F49A01BE01DF01EF010280F381E02DFD
:100AC000DCCF2115310509F1281B390B2430310504
:100AD00090F412968D919C9113976115710521F0F8
:100AE000FB019383828304C09093C5028093C40268
:100AF000FD01329644C0FD01E20FF31F81939193F3
:100B0000225031092D933C933AC02091C20230917A
:100B1000C302232B41F420912C0230912D023093FB
:100B2000C3022093C20220912A0230912B02211588
:100B3000310541F42DB73EB740912E0250912F025E
:100B4000241B350BE091C202F091C302E217F307B8
:100B5000A0F42E1B3F0B2817390778F0AC014E5F2D
:100B60005F4F2417350748F04E0F5F1F5093C302A5
:100B70004093C2028193919302C0E0E0F0E0CF0184
:100B8000DF91CF9108950F931F93CF93DF93009739
:100B900009F48CC0FC013297138212820091C402C6
:100BA0001091C5020115110581F420813181820F58
:100BB000931F2091C2023091C3022817390779F59B
:100BC000F093C302E093C20271C0D80140E050E04C
:100BD000AE17BF0750F412962D913C911397AD01BB
:100BE0002115310509F1D901F3CF9D01DA013383D4
:100BF000228360817181860F971F8217930769F4A2
:100C0000EC0128813981260F371F2E5F3F4F31833A
:100C100020838A819B8193838283452B29F4F093DF
:100C2000C502E093C40242C01396FC93EE93129760
:100C3000ED01499159919E01240F351FE217F307E9
:100C400071F480819181840F951F029611969C9377
:100C50008E938281938113969C938E931297E0E0FA
:100C6000F0E0D80112968D919C911397009719F09E
:100C7000F8018C01F6CF8D919C9198012E5F3F4F2A
:100C8000820F931F2091C2023091C30228173907A7
:100C900069F4309729F41092C5021092C40202C080
:100CA000138212821093C3020093C202DF91CF918C
:100CB0001F910F910895FC01059061507040011043
:100CC000D8F7809590958E0F9F1F0895DC0101C085
:100CD0006D9341505040E0F70895FC016150704021
:100CE00001900110D8F7809590958E0F9F1F089561
:100CF0000F931F93CF93DF93FB01238121FD03C04B
:100D00008FEF9FEF28C022FF16C0468157812481B4
:100D100035814217530744F4A081B1819D012F5FB3
:100D20003F4F318320838C93268137812F5F3F4F44
:100D30003783268310C0EB01092F182F0084F1851B
:100D4000E02D1995892BE1F68E819F8101969F8375
:100D50008E83812F902FDF91CF911F910F91089556
:100D6000FA01AA27283051F1203181F1E8946F93DC
:100D70006E7F6E5F7F4F8F4F9F4FAF4FB1E03ED082
:100D8000B4E03CD0670F781F891F9A1FA11D680F20
:100D9000791F8A1F911DA11D6A0F711D811D911D53
:100DA000A11D20D009F468943F912AE0269F1124C8
:100DB0003019305D3193DEF6CF010895462F47702C
:100DC000405D4193B3E00FD0C9F7F6CF462F4F7087
:100DD000405D4A3318F0495D31FD4052419302D0E5
:100DE000A9F7EACFB4E0A69597958795779567958B
:100DF000BA95C9F700976105710508959B01AC018B
:100E00000A2E06945795479537952795BA95C9F7B1
:100E1000620F731F841F951FA01D0895F894FFCFC4
:100E20000000000200000000F900000000000000C7
:100E3000000200000000F9000000000000000002B5
:100E400000000000F900000000000000C6022000C1
:100E500048656C6C6F0A004A6F79583A20253464F3
:100E6000200D0A004A6F79593A20253464200D0A72
:100E7000000D0A200D0A000A53454E4445522049F0
:100E8000443A20253478200D0A004D43505F5458D1
:100E9000423044202534783A20253478200D0A0049
:100EA0004D435032353135206973204E4F542069FF
:100EB0006E20636F6E66696775726174696F6E200C
:100EC0006D6F646520616674657220726573657408
:040ED000210D0A00E6
:00000001FF
