:100000000C943F010C9460010C9460010C9460010D
:100010000C9460010C9460010C9460010C946001DC
:100020000C9460010C9460010C9460010C946001CC
:100030000C9460010C9460010C9460010C946001BC
:100040000C9460010C9460010C9460010C946001AC
:100050000C9460010C9460010C9460010C9460019C
:100060000C9460010C9460010C9460010C9460018C
:100070000C9460010C9460010C9460010C9460017C
:100080000C9460010C9460010C9460010C9460016C
:100090000C9460010C9460010C9460010C9460015C
:1000A0000C9460010C9460010C9460010C9460014C
:1000B0000C9460010C9460010C9460010C9460013C
:1000C0000C9460010C9460010C9460010C9460012C
:1000D0000C9460010C9460010C9460010C9460011C
:1000E0000C9460010C94C5010C94BD010C0C0C0C1B
:1000F0000C0C06030C0C0C0C0C0C06030C0C0C0C5E
:100100000C0C06030C0C0C0C0C0C0606121212063E
:1001100006060606061212121212120A0A0A0A0A23
:100120000A03030306010B02DC00B801E900D20157
:100130000000000006010B02DC00B801E900D2015A
:1001400000000000AF005D01930026019C00370114
:1001500000000000AF005D01930026019C00370104
:100160000000000037011501260115013701370194
:10017000D000C4001501060172015D01A500D20185
:10018000B8019F013701F700E900DC00D000000052
:10019000000000000C0C0C0C0C0C0C0C0C0C0C0CCF
:1001A0000C0C0C0C0C0C0C0C0C0C0C0C0C0C0C0C8F
:1001B0000C0C0C0C0909090C0C0C0C0C0C0C0C0C88
:1001C0000C0C0C0C0C0C0C0C0C0C0C0C0C0C0C0C6F
:1001D0000C0C0C0909090C0C0C0C0C0C0C0C0C0C68
:1001E0000C0C4D0A4D0A00004D0A00002D084D0A66
:1001F0000000400C0000000000002006000000008D
:1002000000002D0800000000200600000000270567
:1002100000000000E0060000B80700004907E00603
:10022000000020064D0A400CC00D0000EA0A400CF8
:1002300000004D0A00002D082D09B807000000003D
:100240002D08000000002006000000002705000027
:100250000000E0060000B80700004907E0060000C3
:1002600020064D0A400CC00D0000EA0A400C0000B8
:100270004D0A00002D082D09B807000000001124C8
:100280001FBECFEFD1E2DEBFCDBF00E00CBF13E059
:10029000A0E0B2E0EAE2F8E100E00BBF02C00790A4
:1002A0000D92AC30B107D9F723E0ACE0B3E001C068
:1002B0001D92A032B207E1F70E9462010C94130C68
:1002C0000C940000CF93DF93CDB7DEB72A970FB61B
:1002D000F894DEBF0FBECDBF0E94B60187E690E066
:1002E0000E94CD010E9400020E9416020E94A504F5
:1002F00068EE73E080E091E00E944C040E94DE0111
:100300000F2EFAE5CF2EF2E0DF2EF02D00E012E006
:100310000F2EF7E6EF2EF2E0FF2EF02D85B31F92A1
:100320008F93DF92CF921F930F930E940C0886B594
:100330001F928F93FF92EF921F930F930E940C08CE
:10034000CE0101960E9428022FEF83EC99E0215004
:1003500080409040E1F700C000000FB6F894DEBF87
:100360000FBECDBF8B810E94AC04D8CF089A109AE3
:10037000089510980895109A0895E0ECF0E09081A7
:1003800095FFFDCF8093C6000895E0ECF0E08081FA
:100390008823ECF78091C60008959093C500809360
:1003A000C40088E18093C1008EE08093C20065ECB8
:1003B00071E08DEB91E00E94C1070895809A8898C2
:1003C000EAE7F0E0808180688083ACE7B0E08C9160
:1003D000806C8C938081876080830895EAE7F0E0E9
:1003E000808180648083808184FFFDCF20917800AC
:1003F0008091790090E0982F8827820F911D0895B1
:1004000087E884B981E58CBD08958EBD0DB407FEE3
:10041000FDCF089581E00E9405020DB407FEFDCFD7
:100420008EB508952F9808952F9A08950E94490334
:1004300040E060EE8FE00E9488034FEF61E08BE2C6
:100440000E9488034FEF60E680E60E9488030895CB
:10045000AF92BF92CF92DF92EF92FF920F931F93D2
:10046000CF93DF93CDB7DEB72A970FB6F894DEBFF0
:100470000FBECDBF5C0181E60E943703182F82E6D4
:100480000E943703829586958770110F110F110F07
:10049000D82ED10E85E60E9437038F70C82E81F0CA
:1004A0007E0183E0E80EF11C06E60C0D16E6812FB6
:1004B0000E943703F70181937F011F5F1013F7CF6D
:1004C00040E061E08CE20E9488031F921F9284E763
:1004D00092E09F938F938EE092E09F938F930E9480
:1004E0000C08D982CA828AE0FE013196D5010190BA
:1004F0000D928A95E1F70F900F900F900F900F904B
:100500000F90C5012A960FB6F894DEBF0FBECDBF7F
:10051000DF91CF911F910F91FF90EF90DF90CF90DF
:10052000BF90AF90089580E30E94370384FD08C018
:1005300080E30E94370385FB882780F990E00895C7
:1005400081E090E00895CF92DF92EF92FF920F93B7
:100550001F93CF93DF938C010E949302F801408197
:100560004695469546956FEF81E30E948803F80112
:1005700040814295440F407E60EE82E30E948803F2
:10058000F80141816FE085E30E948803F8018081D2
:100590001F928F938AE792E09F938F938EE092E071
:1005A0009F938F930E940C080F900F900F900F90C5
:1005B0000F900F90F8018181882389F1C0E00F2E00
:1005C000FDE8CF2EF2E0DF2EF02D0F2EFEE0EF2E15
:1005D000F2E0FF2EF02DD6E3DC0FF801EC0FF11D59
:1005E00042816FEF8D2F0E9488038D2F0E94370369
:1005F0001F928F931F92CF93DF92CF92FF92EF9231
:100600000E940C08CF5F8DB79EB708960FB6F8947E
:100610009EBF0FBE8DBFF8018181C817E0F281E84F
:100620000E947D03DF91CF911F910F91FF90EF907A
:10063000DF90CF9008950E94120280EC0E94050284
:100640000E9414028FE39CE90197F1F700C00000BB
:100650000895CF930E94120280EA0E9405020E9430
:100660000A02C82F0E9414028C2FCF910895CF93B5
:10067000C82F0E94120283E00E9405028C2F0E9464
:1006800005020E940A02C82F0E9414028C2FCF91EB
:1006900008950E9400020E941B038EE00E9437030F
:1006A000807E8038A1F01F921F9283EA92E09F9390
:1006B0008F938CE192E09F938F930E940C080F9090
:1006C0000F900F900F900F900F9081E0089580E0B1
:1006D0000895CF93DF93C82FD62F0E94120282E095
:1006E0000E9405028D2F0E9405028C2F0E94050298
:1006F0000E941402DF91CF910895CF93C82F0E94DA
:1007000012028C2F0E9405020E941402CF910895BC
:100710001F93CF93DF93182FD62FC42F0E9412025E
:1007200085E00E940502812F0E9405028D2F0E9404
:1007300005028C2F0E9405020E941402DF91CF91C6
:100740001F9108958034910589F030F4813091052E
:10075000A9F0089749F010C0811521E0920741F0F7
:100760008115944039F008C082E0089583E008952F
:1007700084E0089585E0089580E0089581E008957B
:10078000CF92DF92EF92FF920F931F93CF93DF935D
:100790008C016B01C0E8D0E08881826088830F2ED5
:1007A000F1E8EF2EF12CF02DF70180818861808334
:1007B000C8010E94A203F7019081892B8083888160
:1007C00080688883259A960140E050E060E074E2FA
:1007D00084EF90E00E94C605CA01B901980140E08B
:1007E00050E00E94C60521503109309387002093C4
:1007F00086001092890010928800DF91CF911F919E
:100800000F91FF90EF90DF90CF900895CF92DF92FD
:10081000EF92FF920F931F93CF93DF938C016B01A5
:10082000C0E9D0E08881826088830F2EF1E9EF2E45
:10083000F12CF02DF701808188618083C8010E942E
:10084000A203F7019081892B808388818068888347
:100850006B9A960140E050E060E074E284EF90E033
:100860000E94C605CA01B901980140E050E00E940B
:10087000C6052150310930939700209396001092BD
:10088000990010929800DF91CF911F910F91FF90E6
:10089000EF90DF90CF9008950F931F93CF93DF9346
:1008A0008C01EB0184B5826084BD84B584BDC80130
:1008B0000E94A20394B5892B84BD84B5806884BD51
:1008C0007894EEE6F0E0908192609083CC0FDD1F8B
:1008D000C09F9001C19F300DD09F300D112440E08A
:1008E00050E060E074E284EF90E00E94C605215081
:1008F000310927BD87B51F928F9387ED92E09F93B3
:100900008F938AE292E09F938F930E940C080F903E
:100910000F900F900F900F900F90DF91CF911F913C
:100920000F91089522E0843E920731F470E07093B5
:100930008900609388000895885E924029F470E0F1
:100940007093990060939800089562E370E080E0EE
:1009500091E00E94C0030895682F70E080E090E06D
:100960000E94C8062BE237E846E95EE30E9454077E
:1009700020E030E040E652E40E942B060E949706F9
:10098000643808F063E8683308F468E384EE92E0C2
:100990000E9492040895249A85B185B908952C9AED
:1009A00008952C980895882341F0EFE9FFE03197EE
:1009B000F1F700C000008150C1F70895009731F0B1
:1009C00025E02A95F1F700000197D1F70895EF92FD
:1009D000FF920F931F93CF93DF93EC01F62E9C01B0
:1009E00040E050E060E271EA87E090E00E94C605D6
:1009F0008901FC9E9001FD9E300D112436952795AE
:100A00003695279536952795A5ECB0E20E94E50529
:100A10007C01F694E794F694E794F694E794F694C0
:100A2000E794E114F10481F0C0E0D0E00E94CF042B
:100A3000C8010E94DE040E94D104C8010E94DE04A5
:100A40002196CE15DF0591F7DF91CF911F910F9180
:100A5000FF90EF900895AF92BF92CF92DF92EF9206
:100A6000FF920F931F93CF93DF931F921F928CEEF1
:100A700092E09F938F9388E392E09F938F930E94DD
:100A80000C080F2EFCEEEF2EF0E0FF2EF02DC4E24E
:100A9000D1E00F2EF4E9AF2EF1E0BF2EF02D0F9034
:100AA0000F900F900F900F900F900F2EF8EECF2E0B
:100AB000F3E0DF2EF02DF701649170E0C6010E9493
:100AC000B2058B01FE01859194910E94E704B80163
:100AD0007727072E000C880B990B0E94C80626E684
:100AE00036E646EA5FE30E9454070E949706862F87
:100AF0000E94D304602F80E090E00E94E704FFEFA3
:100B0000EF1AFF0A2296CA15DB05A9F6DF91CF91ED
:100B10001F910F91FF90EF90DF90CF90BF90AF901B
:100B20000895A99B1CC07894EEE6F0E08081826075
:100B300080831F921F928BEF92E09F938F9386E4A6
:100B400092E09F938F930E940C08109215031092CD
:100B500014030F900F900F900F900F900F9080E064
:100B600090E0089597FB072E16F4009407D077FDC8
:100B700009D00E94F40507FC05D03EF490958195BC
:100B80009F4F0895709561957F4F0895052E97FBAF
:100B90001EF400940E94DD0557FD07D00E94080650
:100BA00007FC03D04EF40C94DD055095409530952C
:100BB00021953F4F4F4F5F4F0895909580957095C9
:100BC00061957F4F8F4F9F4F0895A29FB001B39FB4
:100BD000C001A39F700D811D1124911DB29F700D46
:100BE000811D1124911D0895AA1BBB1B51E107C053
:100BF000AA1FBB1FA617B70710F0A61BB70B881FAD
:100C0000991F5A95A9F780959095BC01CD0108953B
:100C1000A1E21A2EAA1BBB1BFD010DC0AA1FBB1F00
:100C2000EE1FFF1FA217B307E407F50720F0A21B72
:100C3000B30BE40BF50B661F771F881F991F1A94DF
:100C400069F760957095809590959B01AC01BD0109
:100C5000CF0108955058BB27AA270E9442060C9442
:100C60001A070E940C0738F00E94130720F039F48D
:100C70009F3F19F426F40C9409070EF4E095E7FB66
:100C80000C940307E92F0E942B0758F3BA17620749
:100C900073078407950720F079F4A6F50C944D07A7
:100CA0000EF4E0950B2EBA2FA02D0B01B901900187
:100CB0000C01CA01A0011124FF27591B99F0593FCB
:100CC00050F4503E68F11A16F040A22F232F342F13
:100CD0004427585FF3CF469537952795A795F04061
:100CE0005395C9F77EF41F16BA0B620B730B840B76
:100CF000BAF09150A1F0FF0FBB1F661F771F881F2E
:100D0000C2F70EC0BA0F621F731F841F48F4879585
:100D100077956795B795F7959E3F08F0B0CF939577
:100D2000880F08F09927EE0F9795879508950E94F0
:100D3000330788F09F5798F0B92F9927B751B0F033
:100D4000E1F0660F771F881F991F1AF0BA95C9F74F
:100D500014C0B13091F00E944D07B1E008950C9499
:100D60004D07672F782F8827B85F39F0B93FCCF34C
:100D7000869577956795B395D9F73EF490958095CC
:100D8000709561957F4F8F4F9F4F0895E89409C0EC
:100D900097FB3EF490958095709561957F4F8F4FAE
:100DA0009F4F9923A9F0F92F96E9BB279395F695C4
:100DB000879577956795B795F111F8CFFAF4BB0F42
:100DC00011F460FF1BC06F5F7F4F8F4F9F4F16C0A6
:100DD000882311F096E911C0772321F09EE8872F30
:100DE000762F05C0662371F096E8862F70E060E0EC
:100DF0002AF09A95660F771F881FDAF7880F969565
:100E0000879597F9089597F99F6780E870E060E00B
:100E100008959FEF80EC089500240A941616170693
:100E200018060906089500240A94121613061406DB
:100E300005060895092E0394000C11F4882352F03E
:100E4000BB0F40F4BF2B11F460FF04C06F5F7F4FF6
:100E50008F4F9F4F089557FD9058440F551F59F0DD
:100E60005F3F71F04795880F97FB991F61F09F3F97
:100E700079F087950895121613061406551FF2CFC0
:100E80004695F1DF08C0161617061806991FF1CF10
:100E900086957105610508940895E894BB27662737
:100EA0007727CB0197F908950E9467070C941A07DA
:100EB0000E940C0738F00E94130720F0952311F0D0
:100EC0000C9403070C94090711240C944E070E94FC
:100ED0002B0770F3959FC1F3950F50E0551F629F4C
:100EE000F001729FBB27F00DB11D639FAA27F00D83
:100EF000B11DAA1F649F6627B00DA11D661F829FAA
:100F00002227B00DA11D621F739FB00DA11D621F8E
:100F1000839FA00D611D221F749F3327A00D611DAB
:100F2000231F849F600D211D822F762F6A2F11248D
:100F30009F5750409AF0F1F088234AF0EE0FFF1FC0
:100F4000BB1F661F771F881F91505040A9F79E3F17
:100F5000510580F00C9403070C944E075F3FE4F3B7
:100F6000983ED4F3869577956795B795F795E7956D
:100F70009F5FC1F7FE2B880F911D9695879597F976
:100F800008950F931F93CF93DF93009731F461156A
:100F9000710519F480E090E03AC08B01EC016EE03D
:100FA00070E081E090E00E94170AFC01892B91F328
:100FB00080E883830115110571F01387028781E8AA
:100FC00083838091160390911703892B21F4F0936A
:100FD0001703E09316032097C9F0D187C087838158
:100FE000826083838091180390911903892B71F497
:100FF000F0931903E093180380911A0390911B0357
:10100000892B21F4F0931B03E0931A03CF01DF91A6
:10101000CF911F910F910895CF93DF93CDB7DEB796
:10102000AE01465F5F4F688579858E819F810E9402
:101030001C08DF91CF9108952F923F924F925F92BB
:101040006F927F928F929F92AF92BF92CF92DF92D8
:10105000EF92FF920F931F93CF93DF93CDB7DEB73D
:101060002C970FB6F894DEBF0FBECDBF7C016B018D
:101070008A01FC0117821682838181FFBDC1CE01E6
:1010800001964C01F7019381F60193FD859193FF41
:1010900081916F01882309F4ABC1853239F493FD46
:1010A000859193FF81916F01853229F4B70190E01A
:1010B0000E947D0BE7CF512C312C20E02032A0F490
:1010C0008B3269F030F4803259F0833269F4206158
:1010D0002CC08D3239F0803339F4216026C0226073
:1010E000246023C0286021C027FD27C030ED380FC1
:1010F0003A3078F426FF06C0FAE05F9E300D1124E6
:10110000532E13C08AE0389E300D1124332E2062F6
:101110000CC08E3221F426FD6BC1206406C08C36D3
:1011200011F4206802C0883641F4F60193FD8591E0
:1011300093FF81916F018111C1CF982F9F7D9554AD
:10114000933028F40C5F1F4FFFE3F9830DC0833603
:1011500031F0833771F0833509F05BC022C0F801AC
:10116000808189830E5F1F4F44244394512C540186
:1011700015C03801F2E06F0E711CF801A080B1803B
:1011800026FF03C0652D70E002C06FEF7FEFC50141
:101190002C870E94720B2C0183012C852F77222E25
:1011A00017C03801F2E06F0E711CF801A080B18009
:1011B00026FF03C0652D70E002C06FEF7FEFC50111
:1011C0002C870E94600B2C012C852068222E830125
:1011D00023FC1BC0832D90E048165906B0F4B701DC
:1011E00080E290E00E947D0B3A94F4CFF50127FC59
:1011F000859127FE81915F01B70190E00E947D0BF0
:1012000031103A94F1E04F1A51084114510471F72A
:10121000E5C0843611F0893639F5F80127FF07C09B
:1012200060817181828193810C5F1F4F08C0608152
:101230007181072E000C880B990B0E5F1F4F2F76C4
:10124000722E97FF09C090958095709561957F4F9C
:101250008F4F9F4F2068722E2AE030E0A4010E9439
:10126000B50BA82EA81844C0853729F42F7EB22EBE
:101270002AE030E025C0F22FF97FBF2E8F36C1F073
:1012800018F4883579F0B4C0803719F0883721F028
:10129000AFC02F2F2061B22EB4FE0DC08B2D846005
:1012A000B82E09C024FF0AC09F2F9660B92E06C031
:1012B00028E030E005C020E130E002C020E132E06B
:1012C000F801B7FE07C060817181828193810C5F54
:1012D0001F4F06C06081718180E090E00E5F1F4F5C
:1012E000A4010E94B50BA82EA818FB2DFF777F2E16
:1012F00076FE0BC0372D3E7FA51450F474FE0AC055
:1013000072FC08C0372D3E7E05C0BA2C372D03C0B5
:10131000BA2C01C0B52C34FF0DC0FE01EA0DF11D41
:101320008081803311F4397E09C032FF06C0B39446
:10133000B39404C0832F867809F0B39433FD13C0AF
:1013400030FF06C05A2CB31418F4530C5B18B32C9E
:10135000B31468F4B70180E290E03C870E947D0BF3
:10136000B3943C85F5CFB31410F43B1801C0312C75
:1013700034FF12C0B70180E390E03C870E947D0BF0
:101380003C8532FF17C031FD03C088E790E002C002
:1013900088E590E0B7010CC0832F867859F031FFC3
:1013A00002C08BE201C080E237FD8DE2B70190E020
:1013B0000E947D0BA51438F4B70180E390E00E94F1
:1013C0007D0B5A94F7CFAA94F401EA0DF11D8081A8
:1013D000B70190E00E947D0BA110F5CF332009F4F6
:1013E00051CEB70180E290E00E947D0B3A94F6CF97
:1013F000F7018681978102C08FEF9FEF2C960FB681
:10140000F894DEBF0FBECDBFDF91CF911F910F913A
:10141000FF90EF90DF90CF90BF90AF909F908F9014
:101420007F906F905F904F903F902F9008950F9313
:101430001F93CF93DF93869F8001879F100D969F08
:10144000100D1124C8010E94330AEC01009729F005
:10145000A80160E070E00E946B0BCE01DF91CF919C
:101460001F910F910895CF93DF938230910510F46F
:1014700082E090E0E0911E03F0911F0320E030E055
:10148000C0E0D0E0309711F14081518148175907F1
:10149000C0F04817590761F482819381209719F0B1
:1014A0009B838A832BC090931F0380931E0326C0C7
:1014B0002115310519F04217530718F49A01BE019E
:1014C000DF01EF010280F381E02DDCCF2115310532
:1014D00009F1281B390B2430310590F412968D91B7
:1014E0009C9113976115710521F0FB019383828311
:1014F00004C090931F0380931E03FD01329644C0E5
:10150000FD01E20FF31F81939193225031092D9336
:101510003C933AC020911C0330911D03232B41F4CE
:10152000209156023091570230931D0320931C03E3
:1015300020915402309155022115310541F42DB707
:101540003EB74091580250915902241B350BE0914F
:101550001C03F0911D03E217F307A0F42E1B3F0BB1
:101560002817390778F0AC014E5F5F4F2417350715
:1015700048F04E0F5F1F50931D0340931C0381934F
:10158000919302C0E0E0F0E0CF01DF91CF910895A8
:101590000F931F93CF93DF93009709F48CC0FC0146
:1015A00032971382128200911E0310911F030115BE
:1015B000110581F420813181820F931F20911C033A
:1015C00030911D032817390779F5F0931D03E09337
:1015D0001C0371C0D80140E050E0AE17BF0750F4C3
:1015E00012962D913C911397AD012115310509F10A
:1015F000D901F3CF9D01DA013383228360817181A8
:10160000860F971F8217930769F4EC0128813981AF
:10161000260F371F2E5F3F4F318320838A819B81A6
:1016200093838283452B29F4F0931F03E0931E03D9
:1016300042C01396FC93EE931297ED014991599194
:101640009E01240F351FE217F30771F48081918109
:10165000840F951F029611969C938E93828193819D
:1016600013969C938E931297E0E0F0E0D8011296C7
:101670008D919C911397009719F0F8018C01F6CF8A
:101680008D919C9198012E5F3F4F820F931F209167
:101690001C0330911D032817390769F4309729F48A
:1016A00010921F0310921E0302C013821282109325
:1016B0001D0300931C03DF91CF911F910F9108959B
:1016C000FC010590615070400110D8F7809590950D
:1016D0008E0F9F1F0895DC0101C06D934150504053
:1016E000E0F70895FC016150704001900110D8F7B7
:1016F000809590958E0F9F1F08950F931F93CF9302
:10170000DF93FB01238121FD03C08FEF9FEF28C0F2
:1017100022FF16C046815781248135814217530725
:1017200044F4A081B1819D012F5F3F4F318320831D
:101730008C93268137812F5F3F4F3783268310C0DC
:10174000EB01092F182F0084F185E02D1995892BC5
:10175000E1F68E819F8101969F838E83812F902F4A
:10176000DF91CF911F910F910895FA01AA27283098
:1017700051F1203181F1E8946F936E7F6E5F7F4F5E
:101780008F4F9F4FAF4FB1E03ED0B4E03CD0670FDA
:10179000781F891F9A1FA11D680F791F8A1F911D2D
:1017A000A11D6A0F711D811D911DA11D20D009F47D
:1017B00068943F912AE0269F11243019305D3193BF
:1017C000DEF6CF010895462F4770405D4193B3E0A8
:1017D0000FD0C9F7F6CF462F4F70405D4A3318F04F
:1017E000495D31FD4052419302D0A9F7EACFB4E000
:1017F000A6959795879577956795BA95C9F70097B8
:101800006105710508959B01AC010A2E0694579558
:10181000479537952795BA95C9F7620F731F841FAF
:0A182000951FA01D0895F894FFCF56
:10182A000000000200000000BD01000000000000EE
:10183A00000200000000BD010000000000000002DC
:10184A0000000000BD0100000000000000020000CE
:10185A000000BD01000000000000000200000000BE
:10186A00BD01000000000000000200000000BD01F0
:10187A000000000000002003200054494652302096
:10188A00253464200A0D0054434E54302025346414
:10189A00200A0D000D0A200D0A000A53454E444540
:1018AA00522049443A20253478200D0A004D4350ED
:1018BA005F5458423044202534783A202534782021
:1018CA000D0A004D435032353135206973204E4F91
:1018DA005420696E20636F6E6669677572617469F8
:1018EA006F6E206D6F646520616674657220726523
:1018FA00736574210D0A004F435230412025346428
:10190A00200A0D0050423500504533004D6172697E
:10191A006F205468656D65200A0D00496E74657202
:0C192A0072757074696F6E200A0D000069
:00000001FF
