:100000000C9476000C9497000C9497000C94970035
:100010000C9497000C9497000C9497000C94970004
:100020000C9497000C9497000C9497000C949700F4
:100030000C9497000C9497000C9497000C949700E4
:100040000C9497000C9497000C9497000C949700D4
:100050000C9497000C9497000C9497000C949700C4
:100060000C9497000C9497000C9497000C949700B4
:100070000C9497000C9497000C9497000C949700A4
:100080000C9497000C9497000C9497000C94970094
:100090000C9497000C9497000C9497000C94970084
:1000A0000C9497000C9497000C9497000C94970074
:1000B0000C9497000C9497000C9497000C94970064
:1000C0000C9497000C9497000C9497000C94970054
:1000D0000C9497000C9497000C9497000C94970044
:1000E0000C9497000C94E0000C94D80011241FBECF
:1000F000CFEFD1E2DEBFCDBF00E00CBF12E0A0E049
:10010000B2E0ECEAF5E000E00BBF02C007900D9210
:10011000AE30B107D9F722E0AEE0B2E001C01D92E7
:10012000A032B207E1F70E94B0000C94D4020C9404
:100130000000EAE0F1E0808181608083EBE0F1E0A3
:100140008081816080830895EBE0F1E080818E7F83
:1001500080830895EBE0F1E08081816080830895E1
:100160000E94990087E690E00E94E8000E94E0006B
:100170000E94D80086E092E00E94540185E00E942F
:10018000D8000E94AA002FEF89E698E12150804014
:100190009040E1F700C000000E94A4002FEF89E624
:1001A00098E1215080409040E1F700C00000E2CF8C
:1001B000E0ECF0E0908195FFFDCF8093C6000895BC
:1001C000E0ECF0E080818823ECF78091C600089590
:1001D0009093C5008093C40088E18093C1008EE0B5
:1001E0008093C20060EE70E088ED90E00E9409010B
:1001F00008958BE084B981E58CBD08958EBD0DB462
:1002000007FEFDCF08951EBC0DB407FEFDCF8EB5D1
:1002100008950F931F93CF93DF93009731F46115E7
:10022000710519F480E090E03AC08B01EC016EE0BA
:1002300070E081E090E00E948401FC01892B91F341
:1002400080E883830115110571F01387028781E827
:1002500083838091160290911702892B21F4F093E9
:100260001702E09316022097C9F0D187C0878381D7
:10027000826083838091180290911902892B71F416
:10028000F0931902E093180280911A0290911B02D8
:10029000892B21F4F0931B02E0931A02CF01DF9126
:1002A000CF911F910F9108950F931F93CF93DF93D9
:1002B000E0911802F0911902238121FF1BC08C01EB
:1002C000D0E0C0E0F80181918F0160911802709137
:1002D0001902DB011896ED91FC911997882331F0F2
:1002E0001995892B79F3DFEFCFEFECCF8AE01995E1
:1002F000892B19F08FEF9FEF02C08D2F9C2FDF917C
:10030000CF911F910F9108950F931F93CF93DF9378
:10031000869F8001879F100D969F100D1124C801A4
:100320000E94A001EC01009729F0A80160E070E0B4
:100330000E94CD02CE01DF91CF911F910F910895C0
:10034000CF93DF938230910510F482E090E0E0914A
:100350001E02F0911F0220E030E0C0E0D0E03097B4
:1003600011F14081518148175907C0F048175907CA
:1003700061F482819381209719F09B838A832BC03B
:1003800090931F0280931E0226C02115310519F09B
:100390004217530718F49A01BE01DF01EF010280F2
:1003A000F381E02DDCCF2115310509F1281B390B34
:1003B0002430310590F412968D919C91139761151C
:1003C000710521F0FB019383828304C090931F0287
:1003D00080931E02FD01329644C0FD01E20FF31F1F
:1003E00081939193225031092D933C933AC02091EF
:1003F0001C0230911D02232B41F420910202309106
:10040000030230931D0220931C02209100023091C0
:1004100001022115310541F42DB73EB74091040288
:1004200050910502241B350BE0911C02F0911D0236
:10043000E217F307A0F42E1B3F0B2817390778F0BB
:10044000AC014E5F5F4F2417350748F04E0F5F1F1A
:1004500050931D0240931C028193919302C0E0E0EF
:10046000F0E0CF01DF91CF9108950F931F93CF93C9
:10047000DF93009709F48CC0FC013297138212823B
:1004800000911E0210911F020115110581F42081B7
:100490003181820F931F20911C0230911D02281779
:1004A000390779F5F0931D02E0931C0271C0D80161
:1004B00040E050E0AE17BF0750F412962D913C91EA
:1004C0001397AD012115310509F1D901F3CF9D0134
:1004D000DA013383228360817181860F971F82172F
:1004E000930769F4EC0128813981260F371F2E5FAD
:1004F0003F4F318320838A819B8193838283452B65
:1005000029F4F0931F02E0931E0242C01396FC935D
:10051000EE931297ED01499159919E01240F351FD9
:10052000E217F30771F480819181840F951F029681
:1005300011969C938E938281938113969C938E93B4
:100540001297E0E0F0E0D80112968D919C911397FC
:10055000009719F0F8018C01F6CF8D919C919801CC
:100560002E5F3F4F820F931F20911C0230911D027E
:100570002817390769F4309729F410921F02109256
:100580001E0202C01382128210931D0200931C02ED
:10059000DF91CF911F910F910895DC0101C06D9300
:0C05A00041505040E0F70895F894FFCF60
:0E05AC0000002002200048656C6C6F0D0000FE
:00000001FF
